{
  "_format": "hh-sol-artifact-1",
  "contractName": "Vault",
  "sourceName": "contracts/Vault.sol",
  "abi": [
    {
      "inputs": [
        {
          "internalType": "address",
          "name": "_flashbot",
          "type": "address"
        },
        {
          "internalType": "address",
          "name": "_serverSigner",
          "type": "address"
        }
      ],
      "stateMutability": "nonpayable",
      "type": "constructor"
    },
    {
      "inputs": [
        {
          "internalType": "address",
          "name": "_originalAddress",
          "type": "address"
        },
        {
          "internalType": "address",
          "name": "_erc20Address",
          "type": "address"
        }
      ],
      "name": "canWithdrawERC20",
      "outputs": [
        {
          "internalType": "uint256",
          "name": "",
          "type": "uint256"
        }
      ],
      "stateMutability": "view",
      "type": "function"
    },
    {
      "inputs": [
        {
          "internalType": "address",
          "name": "_originalAddress",
          "type": "address"
        },
        {
          "internalType": "address",
          "name": "_erc721Address",
          "type": "address"
        },
        {
          "internalType": "uint256",
          "name": "_id",
          "type": "uint256"
        }
      ],
      "name": "canWithdrawERC721",
      "outputs": [
        {
          "internalType": "bool",
          "name": "",
          "type": "bool"
        }
      ],
      "stateMutability": "view",
      "type": "function"
    },
    {
      "inputs": [
        {
          "internalType": "bytes32",
          "name": "_data",
          "type": "bytes32"
        },
        {
          "internalType": "bytes",
          "name": "_signature",
          "type": "bytes"
        },
        {
          "internalType": "address",
          "name": "_newRecipientAddress",
          "type": "address"
        }
      ],
      "name": "changeRecipientAddress",
      "outputs": [],
      "stateMutability": "nonpayable",
      "type": "function"
    },
    {
      "inputs": [
        {
          "internalType": "address",
          "name": "_originalAddress",
          "type": "address"
        },
        {
          "internalType": "address",
          "name": "_erc20Address",
          "type": "address"
        },
        {
          "internalType": "uint256",
          "name": "_amount",
          "type": "uint256"
        }
      ],
      "name": "logIncomingERC20",
      "outputs": [],
      "stateMutability": "nonpayable",
      "type": "function"
    },
    {
      "inputs": [
        {
          "internalType": "address",
          "name": "_originalAddress",
          "type": "address"
        },
        {
          "internalType": "address",
          "name": "_erc721Address",
          "type": "address"
        },
        {
          "internalType": "uint256",
          "name": "_id",
          "type": "uint256"
        }
      ],
      "name": "logIncomingERC721",
      "outputs": [],
      "stateMutability": "nonpayable",
      "type": "function"
    },
    {
      "inputs": [
        {
          "internalType": "address",
          "name": "operator",
          "type": "address"
        },
        {
          "internalType": "address",
          "name": "from",
          "type": "address"
        },
        {
          "internalType": "uint256",
          "name": "tokenId",
          "type": "uint256"
        },
        {
          "internalType": "bytes",
          "name": "data",
          "type": "bytes"
        }
      ],
      "name": "onERC721Received",
      "outputs": [
        {
          "internalType": "bytes4",
          "name": "",
          "type": "bytes4"
        }
      ],
      "stateMutability": "nonpayable",
      "type": "function"
    },
    {
      "inputs": [
        {
          "internalType": "address",
          "name": "_recipient",
          "type": "address"
        }
      ],
      "name": "setupRecipientAddress",
      "outputs": [],
      "stateMutability": "nonpayable",
      "type": "function"
    },
    {
      "inputs": [
        {
          "internalType": "address",
          "name": "_originalAddress",
          "type": "address"
        }
      ],
      "name": "viewRecipientAddress",
      "outputs": [
        {
          "internalType": "address",
          "name": "",
          "type": "address"
        }
      ],
      "stateMutability": "view",
      "type": "function"
    },
    {
      "inputs": [
        {
          "internalType": "address",
          "name": "_originalAddress",
          "type": "address"
        },
        {
          "internalType": "address",
          "name": "_erc20Address",
          "type": "address"
        },
        {
          "internalType": "uint256",
          "name": "_amount",
          "type": "uint256"
        }
      ],
      "name": "withdrawERC20",
      "outputs": [],
      "stateMutability": "nonpayable",
      "type": "function"
    },
    {
      "inputs": [
        {
          "internalType": "address",
          "name": "_originalAddress",
          "type": "address"
        },
        {
          "internalType": "address",
          "name": "_erc721Address",
          "type": "address"
        },
        {
          "internalType": "uint256",
          "name": "_id",
          "type": "uint256"
        }
      ],
      "name": "withdrawERC721",
      "outputs": [],
      "stateMutability": "nonpayable",
      "type": "function"
    }
  ],
  "bytecode": "0x60806040523480156200001157600080fd5b5060405162001fff38038062001fff83398181016040528101906200003791906200012a565b816000806101000a81548173ffffffffffffffffffffffffffffffffffffffff021916908373ffffffffffffffffffffffffffffffffffffffff16021790555080600160006101000a81548173ffffffffffffffffffffffffffffffffffffffff021916908373ffffffffffffffffffffffffffffffffffffffff160217905550505062000171565b600080fd5b600073ffffffffffffffffffffffffffffffffffffffff82169050919050565b6000620000f282620000c5565b9050919050565b6200010481620000e5565b81146200011057600080fd5b50565b6000815190506200012481620000f9565b92915050565b60008060408385031215620001445762000143620000c0565b5b6000620001548582860162000113565b9250506020620001678582860162000113565b9150509250929050565b611e7e80620001816000396000f3fe608060405234801561001057600080fd5b506004361061009e5760003560e01c80634f4a7e70116100665780634f4a7e701461014357806390ffaa2a14610173578063a7deb2d6146101a3578063af08ef9a146101bf578063d9ce6ae7146101db5761009e565b80630ca93171146100a3578063150b7a02146100bf5780634025feb2146100ef57806344004cc11461010b5780634761a63d14610127575b600080fd5b6100bd60048036038101906100b89190611195565b61020b565b005b6100d960048036038101906100d4919061125d565b610324565b6040516100e69190611320565b60405180910390f35b6101096004803603810190610104919061133b565b610339565b005b6101256004803603810190610120919061133b565b61056a565b005b610141600480360381019061013c919061133b565b61079a565b005b61015d6004803603810190610158919061133b565b6108ae565b60405161016a91906113a9565b60405180910390f35b61018d600480360381019061018891906113c4565b610954565b60405161019a9190611413565b60405180910390f35b6101bd60048036038101906101b891906115a5565b6109db565b005b6101d960048036038101906101d4919061133b565b610b72565b005b6101f560048036038101906101f09190611195565b610cab565b6040516102029190611623565b60405180910390f35b600073ffffffffffffffffffffffffffffffffffffffff16600260003373ffffffffffffffffffffffffffffffffffffffff1673ffffffffffffffffffffffffffffffffffffffff16815260200190815260200160002060009054906101000a900473ffffffffffffffffffffffffffffffffffffffff1673ffffffffffffffffffffffffffffffffffffffff16146102a357600080fd5b80600260003373ffffffffffffffffffffffffffffffffffffffff1673ffffffffffffffffffffffffffffffffffffffff16815260200190815260200160002060006101000a81548173ffffffffffffffffffffffffffffffffffffffff021916908373ffffffffffffffffffffffffffffffffffffffff16021790555050565b600063150b7a0260e01b905095945050505050565b3373ffffffffffffffffffffffffffffffffffffffff16600260008573ffffffffffffffffffffffffffffffffffffffff1673ffffffffffffffffffffffffffffffffffffffff16815260200190815260200160002060009054906101000a900473ffffffffffffffffffffffffffffffffffffffff1673ffffffffffffffffffffffffffffffffffffffff1614610406576040517f08c379a00000000000000000000000000000000000000000000000000000000081526004016103fd906116c1565b60405180910390fd5b6104118383836108ae565b610450576040517f08c379a000000000000000000000000000000000000000000000000000000000815260040161044790611753565b60405180910390fd5b6000600460008573ffffffffffffffffffffffffffffffffffffffff1673ffffffffffffffffffffffffffffffffffffffff16815260200190815260200160002060008473ffffffffffffffffffffffffffffffffffffffff1673ffffffffffffffffffffffffffffffffffffffff168152602001908152602001600020600083815260200190815260200160002060006101000a81548160ff0219169083151502179055508173ffffffffffffffffffffffffffffffffffffffff166323b872dd3033846040518463ffffffff1660e01b815260040161053393929190611773565b600060405180830381600087803b15801561054d57600080fd5b505af1158015610561573d6000803e3d6000fd5b50505050505050565b3373ffffffffffffffffffffffffffffffffffffffff16600260008573ffffffffffffffffffffffffffffffffffffffff1673ffffffffffffffffffffffffffffffffffffffff16815260200190815260200160002060009054906101000a900473ffffffffffffffffffffffffffffffffffffffff1673ffffffffffffffffffffffffffffffffffffffff1614610637576040517f08c379a000000000000000000000000000000000000000000000000000000000815260040161062e906116c1565b60405180910390fd5b806106428484610954565b1015610683576040517f08c379a000000000000000000000000000000000000000000000000000000000815260040161067a90611753565b60405180910390fd5b80600360008573ffffffffffffffffffffffffffffffffffffffff1673ffffffffffffffffffffffffffffffffffffffff16815260200190815260200160002060008473ffffffffffffffffffffffffffffffffffffffff1673ffffffffffffffffffffffffffffffffffffffff168152602001908152602001600020600082825461070f91906117d9565b925050819055508173ffffffffffffffffffffffffffffffffffffffff1663a9059cbb33836040518363ffffffff1660e01b815260040161075192919061180d565b6020604051808303816000875af1158015610770573d6000803e3d6000fd5b505050506040513d601f19601f820116820180604052508101906107949190611862565b50505050565b60008054906101000a900473ffffffffffffffffffffffffffffffffffffffff1673ffffffffffffffffffffffffffffffffffffffff163373ffffffffffffffffffffffffffffffffffffffff1614610828576040517f08c379a000000000000000000000000000000000000000000000000000000000815260040161081f90611901565b60405180910390fd5b80600360008573ffffffffffffffffffffffffffffffffffffffff1673ffffffffffffffffffffffffffffffffffffffff16815260200190815260200160002060008473ffffffffffffffffffffffffffffffffffffffff1673ffffffffffffffffffffffffffffffffffffffff16815260200190815260200160002081905550505050565b6000600460008573ffffffffffffffffffffffffffffffffffffffff1673ffffffffffffffffffffffffffffffffffffffff16815260200190815260200160002060008473ffffffffffffffffffffffffffffffffffffffff1673ffffffffffffffffffffffffffffffffffffffff168152602001908152602001600020600083815260200190815260200160002060009054906101000a900460ff1690509392505050565b6000600360008473ffffffffffffffffffffffffffffffffffffffff1673ffffffffffffffffffffffffffffffffffffffff16815260200190815260200160002060008373ffffffffffffffffffffffffffffffffffffffff1673ffffffffffffffffffffffffffffffffffffffff16815260200190815260200160002054905092915050565b600160009054906101000a900473ffffffffffffffffffffffffffffffffffffffff1673ffffffffffffffffffffffffffffffffffffffff16610a2f83610a2186610d14565b610d4490919063ffffffff16565b73ffffffffffffffffffffffffffffffffffffffff1614610a85576040517f08c379a0000000000000000000000000000000000000000000000000000000008152600401610a7c90611993565b60405180910390fd5b823382604051602001610a999291906119fb565b6040516020818303038152906040528051906020012014610aef576040517f08c379a0000000000000000000000000000000000000000000000000000000008152600401610ae690611a99565b60405180910390fd5b80600260003373ffffffffffffffffffffffffffffffffffffffff1673ffffffffffffffffffffffffffffffffffffffff16815260200190815260200160002060006101000a81548173ffffffffffffffffffffffffffffffffffffffff021916908373ffffffffffffffffffffffffffffffffffffffff160217905550505050565b60008054906101000a900473ffffffffffffffffffffffffffffffffffffffff1673ffffffffffffffffffffffffffffffffffffffff163373ffffffffffffffffffffffffffffffffffffffff1614610c00576040517f08c379a0000000000000000000000000000000000000000000000000000000008152600401610bf790611901565b60405180910390fd5b6001600460008573ffffffffffffffffffffffffffffffffffffffff1673ffffffffffffffffffffffffffffffffffffffff16815260200190815260200160002060008473ffffffffffffffffffffffffffffffffffffffff1673ffffffffffffffffffffffffffffffffffffffff168152602001908152602001600020600083815260200190815260200160002060006101000a81548160ff021916908315150217905550505050565b6000600260008373ffffffffffffffffffffffffffffffffffffffff1673ffffffffffffffffffffffffffffffffffffffff16815260200190815260200160002060009054906101000a900473ffffffffffffffffffffffffffffffffffffffff169050919050565b600081604051602001610d279190611b31565b604051602081830303815290604052805190602001209050919050565b6000806000610d538585610d6b565b91509150610d6081610dec565b819250505092915050565b6000806041835103610dac5760008060006020860151925060408601519150606086015160001a9050610da087828585610fb8565b94509450505050610de5565b6040835103610ddc576000806020850151915060408501519050610dd18683836110c4565b935093505050610de5565b60006002915091505b9250929050565b60006004811115610e0057610dff611b57565b5b816004811115610e1357610e12611b57565b5b0315610fb55760016004811115610e2d57610e2c611b57565b5b816004811115610e4057610e3f611b57565b5b03610e80576040517f08c379a0000000000000000000000000000000000000000000000000000000008152600401610e7790611bd2565b60405180910390fd5b60026004811115610e9457610e93611b57565b5b816004811115610ea757610ea6611b57565b5b03610ee7576040517f08c379a0000000000000000000000000000000000000000000000000000000008152600401610ede90611c3e565b60405180910390fd5b60036004811115610efb57610efa611b57565b5b816004811115610f0e57610f0d611b57565b5b03610f4e576040517f08c379a0000000000000000000000000000000000000000000000000000000008152600401610f4590611cd0565b60405180910390fd5b600480811115610f6157610f60611b57565b5b816004811115610f7457610f73611b57565b5b03610fb4576040517f08c379a0000000000000000000000000000000000000000000000000000000008152600401610fab90611d62565b60405180910390fd5b5b50565b6000807f7fffffffffffffffffffffffffffffff5d576e7357a4501ddfe92f46681b20a08360001c1115610ff35760006003915091506110bb565b601b8560ff161415801561100b5750601c8560ff1614155b1561101d5760006004915091506110bb565b6000600187878787604051600081526020016040526040516110429493929190611dad565b6020604051602081039080840390855afa158015611064573d6000803e3d6000fd5b505050602060405103519050600073ffffffffffffffffffffffffffffffffffffffff168173ffffffffffffffffffffffffffffffffffffffff16036110b2576000600192509250506110bb565b80600092509250505b94509492505050565b60008060007f7fffffffffffffffffffffffffffffffffffffffffffffffffffffffffffffff60001b841690506000601b60ff8660001c901c6111079190611df2565b905061111587828885610fb8565b935093505050935093915050565b6000604051905090565b600080fd5b600080fd5b600073ffffffffffffffffffffffffffffffffffffffff82169050919050565b600061116282611137565b9050919050565b61117281611157565b811461117d57600080fd5b50565b60008135905061118f81611169565b92915050565b6000602082840312156111ab576111aa61112d565b5b60006111b984828501611180565b91505092915050565b6000819050919050565b6111d5816111c2565b81146111e057600080fd5b50565b6000813590506111f2816111cc565b92915050565b600080fd5b600080fd5b600080fd5b60008083601f84011261121d5761121c6111f8565b5b8235905067ffffffffffffffff81111561123a576112396111fd565b5b60208301915083600182028301111561125657611255611202565b5b9250929050565b6000806000806000608086880312156112795761127861112d565b5b600061128788828901611180565b955050602061129888828901611180565b94505060406112a9888289016111e3565b935050606086013567ffffffffffffffff8111156112ca576112c9611132565b5b6112d688828901611207565b92509250509295509295909350565b60007fffffffff0000000000000000000000000000000000000000000000000000000082169050919050565b61131a816112e5565b82525050565b60006020820190506113356000830184611311565b92915050565b6000806000606084860312156113545761135361112d565b5b600061136286828701611180565b935050602061137386828701611180565b9250506040611384868287016111e3565b9150509250925092565b60008115159050919050565b6113a38161138e565b82525050565b60006020820190506113be600083018461139a565b92915050565b600080604083850312156113db576113da61112d565b5b60006113e985828601611180565b92505060206113fa85828601611180565b9150509250929050565b61140d816111c2565b82525050565b60006020820190506114286000830184611404565b92915050565b6000819050919050565b6114418161142e565b811461144c57600080fd5b50565b60008135905061145e81611438565b92915050565b600080fd5b6000601f19601f8301169050919050565b7f4e487b7100000000000000000000000000000000000000000000000000000000600052604160045260246000fd5b6114b282611469565b810181811067ffffffffffffffff821117156114d1576114d061147a565b5b80604052505050565b60006114e4611123565b90506114f082826114a9565b919050565b600067ffffffffffffffff8211156115105761150f61147a565b5b61151982611469565b9050602081019050919050565b82818337600083830152505050565b6000611548611543846114f5565b6114da565b90508281526020810184848401111561156457611563611464565b5b61156f848285611526565b509392505050565b600082601f83011261158c5761158b6111f8565b5b813561159c848260208601611535565b91505092915050565b6000806000606084860312156115be576115bd61112d565b5b60006115cc8682870161144f565b935050602084013567ffffffffffffffff8111156115ed576115ec611132565b5b6115f986828701611577565b925050604061160a86828701611180565b9150509250925092565b61161d81611157565b82525050565b60006020820190506116386000830184611614565b92915050565b600082825260208201905092915050565b7f46756e6374696f6e2063616c6c6572206973206e6f7420616e20617574686f7260008201527f697a656420726563697069656e74416464726573732e00000000000000000000602082015250565b60006116ab60368361163e565b91506116b68261164f565b604082019050919050565b600060208201905081810360008301526116da8161169e565b9050919050565b7f496e73756666696369656e74207769746864726177616c20616c6c6f77616e6360008201527f652e000000000000000000000000000000000000000000000000000000000000602082015250565b600061173d60228361163e565b9150611748826116e1565b604082019050919050565b6000602082019050818103600083015261176c81611730565b9050919050565b60006060820190506117886000830186611614565b6117956020830185611614565b6117a26040830184611404565b949350505050565b7f4e487b7100000000000000000000000000000000000000000000000000000000600052601160045260246000fd5b60006117e4826111c2565b91506117ef836111c2565b925082821015611802576118016117aa565b5b828203905092915050565b60006040820190506118226000830185611614565b61182f6020830184611404565b9392505050565b61183f8161138e565b811461184a57600080fd5b50565b60008151905061185c81611836565b92915050565b6000602082840312156118785761187761112d565b5b60006118868482850161184d565b91505092915050565b7f4f6e6c792074686520666c617368626f7420636f6e74726163742063616e206c60008201527f6f672066756e64732e0000000000000000000000000000000000000000000000602082015250565b60006118eb60298361163e565b91506118f68261188f565b604082019050919050565b6000602082019050818103600083015261191a816118de565b9050919050565b7f5369676e6174757265206d7573742062652066726f6d2053455256455220534960008201527f474e455220726f6c650000000000000000000000000000000000000000000000602082015250565b600061197d60298361163e565b915061198882611921565b604082019050919050565b600060208201905081810360008301526119ac81611970565b9050919050565b60008160601b9050919050565b60006119cb826119b3565b9050919050565b60006119dd826119c0565b9050919050565b6119f56119f082611157565b6119d2565b82525050565b6000611a0782856119e4565b601482019150611a1782846119e4565b6014820191508190509392505050565b7f50726f7669646564207369676e617475726520646f6573206e6f74206d61746360008201527f6820726571756972656420706172616d65746572730000000000000000000000602082015250565b6000611a8360358361163e565b9150611a8e82611a27565b604082019050919050565b60006020820190508181036000830152611ab281611a76565b9050919050565b600081905092915050565b7f19457468657265756d205369676e6564204d6573736167653a0a333200000000600082015250565b6000611afa601c83611ab9565b9150611b0582611ac4565b601c82019050919050565b6000819050919050565b611b2b611b268261142e565b611b10565b82525050565b6000611b3c82611aed565b9150611b488284611b1a565b60208201915081905092915050565b7f4e487b7100000000000000000000000000000000000000000000000000000000600052602160045260246000fd5b7f45434453413a20696e76616c6964207369676e61747572650000000000000000600082015250565b6000611bbc60188361163e565b9150611bc782611b86565b602082019050919050565b60006020820190508181036000830152611beb81611baf565b9050919050565b7f45434453413a20696e76616c6964207369676e6174757265206c656e67746800600082015250565b6000611c28601f8361163e565b9150611c3382611bf2565b602082019050919050565b60006020820190508181036000830152611c5781611c1b565b9050919050565b7f45434453413a20696e76616c6964207369676e6174757265202773272076616c60008201527f7565000000000000000000000000000000000000000000000000000000000000602082015250565b6000611cba60228361163e565b9150611cc582611c5e565b604082019050919050565b60006020820190508181036000830152611ce981611cad565b9050919050565b7f45434453413a20696e76616c6964207369676e6174757265202776272076616c60008201527f7565000000000000000000000000000000000000000000000000000000000000602082015250565b6000611d4c60228361163e565b9150611d5782611cf0565b604082019050919050565b60006020820190508181036000830152611d7b81611d3f565b9050919050565b611d8b8161142e565b82525050565b600060ff82169050919050565b611da781611d91565b82525050565b6000608082019050611dc26000830187611d82565b611dcf6020830186611d9e565b611ddc6040830185611d82565b611de96060830184611d82565b95945050505050565b6000611dfd826111c2565b9150611e08836111c2565b9250827fffffffffffffffffffffffffffffffffffffffffffffffffffffffffffffffff03821115611e3d57611e3c6117aa565b5b82820190509291505056fea2646970667358221220ec1fdbdb58cfef987354afee083816db99a129c234c9878d0026d3fd8aed462564736f6c634300080d0033",
  "linkReferences": {},
  "deployedLinkReferences": {}
}