{
  "_format": "hh-sol-artifact-1",
  "contractName": "Vault",
  "sourceName": "contracts/Vault.sol",
  "abi": [
    {
      "inputs": [
        {
          "internalType": "address",
          "name": "_transferer",
          "type": "address"
        },
        {
          "internalType": "address",
          "name": "_serverSigner",
          "type": "address"
        },
        {
          "internalType": "address payable",
          "name": "_feeController",
          "type": "address"
        }
      ],
      "stateMutability": "nonpayable",
      "type": "constructor"
    },
    {
      "inputs": [
        {
          "internalType": "address",
          "name": "_originalAddress",
          "type": "address"
        },
        {
          "internalType": "address",
          "name": "_erc20Address",
          "type": "address"
        }
      ],
      "name": "canWithdrawERC20",
      "outputs": [
        {
          "internalType": "uint256",
          "name": "",
          "type": "uint256"
        }
      ],
      "stateMutability": "view",
      "type": "function"
    },
    {
      "inputs": [
        {
          "internalType": "address",
          "name": "_originalAddress",
          "type": "address"
        },
        {
          "internalType": "address",
          "name": "_erc721Address",
          "type": "address"
        },
        {
          "internalType": "uint256",
          "name": "_id",
          "type": "uint256"
        }
      ],
      "name": "canWithdrawERC721",
      "outputs": [
        {
          "internalType": "bool",
          "name": "",
          "type": "bool"
        }
      ],
      "stateMutability": "view",
      "type": "function"
    },
    {
      "inputs": [
        {
          "internalType": "address payable",
          "name": "_newFeeController",
          "type": "address"
        }
      ],
      "name": "changeFeeController",
      "outputs": [],
      "stateMutability": "nonpayable",
      "type": "function"
    },
    {
      "inputs": [
        {
          "internalType": "bytes32",
          "name": "_data",
          "type": "bytes32"
        },
        {
          "internalType": "bytes",
          "name": "_signature",
          "type": "bytes"
        },
        {
          "internalType": "address",
          "name": "_newRecipientAddress",
          "type": "address"
        }
      ],
      "name": "changeRecipientAddress",
      "outputs": [],
      "stateMutability": "nonpayable",
      "type": "function"
    },
    {
      "inputs": [
        {
          "internalType": "address",
          "name": "_originalAddress",
          "type": "address"
        },
        {
          "internalType": "address",
          "name": "_erc20Address",
          "type": "address"
        }
      ],
      "name": "erc20Fee",
      "outputs": [
        {
          "internalType": "uint128",
          "name": "",
          "type": "uint128"
        }
      ],
      "stateMutability": "view",
      "type": "function"
    },
    {
      "inputs": [
        {
          "internalType": "address",
          "name": "_originalAddress",
          "type": "address"
        },
        {
          "internalType": "address",
          "name": "_erc721Address",
          "type": "address"
        },
        {
          "internalType": "uint256",
          "name": "_id",
          "type": "uint256"
        }
      ],
      "name": "erc721Fee",
      "outputs": [
        {
          "internalType": "uint128",
          "name": "",
          "type": "uint128"
        }
      ],
      "stateMutability": "view",
      "type": "function"
    },
    {
      "inputs": [
        {
          "internalType": "address",
          "name": "_originalAddress",
          "type": "address"
        },
        {
          "internalType": "address",
          "name": "_erc20Address",
          "type": "address"
        },
        {
          "internalType": "uint256",
          "name": "_amount",
          "type": "uint256"
        },
        {
          "internalType": "uint128",
          "name": "_fee",
          "type": "uint128"
        }
      ],
      "name": "logIncomingERC20",
      "outputs": [],
      "stateMutability": "nonpayable",
      "type": "function"
    },
    {
      "inputs": [
        {
          "internalType": "address",
          "name": "_originalAddress",
          "type": "address"
        },
        {
          "internalType": "address",
          "name": "_erc721Address",
          "type": "address"
        },
        {
          "internalType": "uint256",
          "name": "_id",
          "type": "uint256"
        },
        {
          "internalType": "uint128",
          "name": "_fee",
          "type": "uint128"
        }
      ],
      "name": "logIncomingERC721",
      "outputs": [],
      "stateMutability": "nonpayable",
      "type": "function"
    },
    {
      "inputs": [
        {
          "internalType": "address",
          "name": "_originalAddress",
          "type": "address"
        },
        {
          "internalType": "address",
          "name": "_erc20Address",
          "type": "address"
        },
        {
          "internalType": "uint128",
          "name": "_reduceBy",
          "type": "uint128"
        }
      ],
      "name": "reduceERC20Fee",
      "outputs": [
        {
          "internalType": "uint128",
          "name": "",
          "type": "uint128"
        }
      ],
      "stateMutability": "nonpayable",
      "type": "function"
    },
    {
      "inputs": [
        {
          "internalType": "address",
          "name": "_originalAddress",
          "type": "address"
        },
        {
          "internalType": "address",
          "name": "_erc721Address",
          "type": "address"
        },
        {
          "internalType": "uint128",
          "name": "_id",
          "type": "uint128"
        },
        {
          "internalType": "uint128",
          "name": "_reduceBy",
          "type": "uint128"
        }
      ],
      "name": "reduceERC721Fee",
      "outputs": [
        {
          "internalType": "uint128",
          "name": "",
          "type": "uint128"
        }
      ],
      "stateMutability": "nonpayable",
      "type": "function"
    },
    {
      "inputs": [
        {
          "internalType": "address",
          "name": "_recipient",
          "type": "address"
        }
      ],
      "name": "setupRecipientAddress",
      "outputs": [],
      "stateMutability": "nonpayable",
      "type": "function"
    },
    {
      "inputs": [
        {
          "internalType": "address",
          "name": "_originalAddress",
          "type": "address"
        }
      ],
      "name": "viewRecipientAddress",
      "outputs": [
        {
          "internalType": "address",
          "name": "",
          "type": "address"
        }
      ],
      "stateMutability": "view",
      "type": "function"
    },
    {
      "inputs": [
        {
          "internalType": "address",
          "name": "_originalAddress",
          "type": "address"
        },
        {
          "internalType": "address",
          "name": "_erc20Address",
          "type": "address"
        }
      ],
      "name": "withdrawERC20",
      "outputs": [],
      "stateMutability": "payable",
      "type": "function"
    },
    {
      "inputs": [
        {
          "internalType": "address",
          "name": "_originalAddress",
          "type": "address"
        },
        {
          "internalType": "address",
          "name": "_erc721Address",
          "type": "address"
        },
        {
          "internalType": "uint256",
          "name": "_id",
          "type": "uint256"
        }
      ],
      "name": "withdrawERC721",
      "outputs": [],
      "stateMutability": "payable",
      "type": "function"
    },
    {
      "inputs": [
        {
          "internalType": "uint256",
          "name": "_amount",
          "type": "uint256"
        }
      ],
      "name": "withdrawPayments",
      "outputs": [],
      "stateMutability": "nonpayable",
      "type": "function"
    }
  ],
  "bytecode": "0x60c06040523480156200001157600080fd5b50604051620036dd380380620036dd833981810160405281019062000037919062000197565b8273ffffffffffffffffffffffffffffffffffffffff1660808173ffffffffffffffffffffffffffffffffffffffff16815250508173ffffffffffffffffffffffffffffffffffffffff1660a08173ffffffffffffffffffffffffffffffffffffffff1681525050806000806101000a81548173ffffffffffffffffffffffffffffffffffffffff021916908373ffffffffffffffffffffffffffffffffffffffff160217905550505050620001f3565b600080fd5b600073ffffffffffffffffffffffffffffffffffffffff82169050919050565b60006200011a82620000ed565b9050919050565b6200012c816200010d565b81146200013857600080fd5b50565b6000815190506200014c8162000121565b92915050565b60006200015f82620000ed565b9050919050565b620001718162000152565b81146200017d57600080fd5b50565b600081519050620001918162000166565b92915050565b600080600060608486031215620001b357620001b2620000e8565b5b6000620001c3868287016200013b565b9350506020620001d6868287016200013b565b9250506040620001e98682870162000180565b9150509250925092565b60805160a0516134bd620002206000396000611a0501526000818161082f0152611cd401526134bd6000f3fe6080604052600436106100e85760003560e01c806377d955b51161008a578063a7deb2d611610059578063a7deb2d61461030e578063c5b2ae7a14610337578063d9ce6ae714610360578063f574e2b61461039d576100e8565b806377d955b51461023b57806379386cc81461027857806390ffaa2a146102b55780639456fbcc146102f2576100e8565b80634025feb2116100c65780634025feb21461017c57806341975af8146101985780634f4a7e70146101c15780634fbcae61146101fe576100e8565b806309c0e14f146100ed5780630ca931711461012a5780633d602dbe14610153575b600080fd5b3480156100f957600080fd5b50610114600480360381019061010f91906123c9565b6103c6565b604051610121919061242b565b60405180910390f35b34801561013657600080fd5b50610151600480360381019061014c9190612446565b6106de565b005b34801561015f57600080fd5b5061017a600480360381019061017591906124a9565b61082d565b005b61019660048036038101906101919190612510565b610a81565b005b3480156101a457600080fd5b506101bf60048036038101906101ba9190612563565b610e7e565b005b3480156101cd57600080fd5b506101e860048036038101906101e39190612510565b610fb9565b6040516101f591906125ab565b60405180910390f35b34801561020a57600080fd5b50610225600480360381019061022091906125c6565b611062565b604051610232919061242b565b60405180910390f35b34801561024757600080fd5b50610262600480360381019061025d9190612606565b611108565b60405161026f919061242b565b60405180910390f35b34801561028457600080fd5b5061029f600480360381019061029a9190612510565b61148a565b6040516102ac919061242b565b60405180910390f35b3480156102c157600080fd5b506102dc60048036038101906102d791906125c6565b611542565b6040516102e9919061267c565b60405180910390f35b61030c600480360381019061030791906125c6565b6115fa565b005b34801561031a57600080fd5b5061033560048036038101906103309190612813565b611a03565b005b34801561034357600080fd5b5061035e600480360381019061035991906128c0565b611b98565b005b34801561036c57600080fd5b5061038760048036038101906103829190612446565b611c69565b60405161039491906128fc565b60405180910390f35b3480156103a957600080fd5b506103c460048036038101906103bf91906124a9565b611cd2565b005b60008060009054906101000a900473ffffffffffffffffffffffffffffffffffffffff1673ffffffffffffffffffffffffffffffffffffffff163373ffffffffffffffffffffffffffffffffffffffff1614610457576040517f08c379a000000000000000000000000000000000000000000000000000000000815260040161044e9061299a565b60405180910390fd5b816fffffffffffffffffffffffffffffffff16600260008673ffffffffffffffffffffffffffffffffffffffff1673ffffffffffffffffffffffffffffffffffffffff16815260200190815260200160002060008573ffffffffffffffffffffffffffffffffffffffff1673ffffffffffffffffffffffffffffffffffffffff16815260200190815260200160002060000160109054906101000a90046fffffffffffffffffffffffffffffffff166fffffffffffffffffffffffffffffffff161015610559576040517f08c379a000000000000000000000000000000000000000000000000000000000815260040161055090612a2c565b60405180910390fd5b81600260008673ffffffffffffffffffffffffffffffffffffffff1673ffffffffffffffffffffffffffffffffffffffff16815260200190815260200160002060008573ffffffffffffffffffffffffffffffffffffffff1673ffffffffffffffffffffffffffffffffffffffff16815260200190815260200160002060000160108282829054906101000a90046fffffffffffffffffffffffffffffffff166106039190612a7b565b92506101000a8154816fffffffffffffffffffffffffffffffff02191690836fffffffffffffffffffffffffffffffff160217905550600260008573ffffffffffffffffffffffffffffffffffffffff1673ffffffffffffffffffffffffffffffffffffffff16815260200190815260200160002060008473ffffffffffffffffffffffffffffffffffffffff1673ffffffffffffffffffffffffffffffffffffffff16815260200190815260200160002060000160109054906101000a90046fffffffffffffffffffffffffffffffff1690509392505050565b600073ffffffffffffffffffffffffffffffffffffffff16600160003373ffffffffffffffffffffffffffffffffffffffff1673ffffffffffffffffffffffffffffffffffffffff16815260200190815260200160002060009054906101000a900473ffffffffffffffffffffffffffffffffffffffff1673ffffffffffffffffffffffffffffffffffffffff16146107ac576040517f08c379a00000000000000000000000000000000000000000000000000000000081526004016107a390612b21565b60405180910390fd5b80600160003373ffffffffffffffffffffffffffffffffffffffff1673ffffffffffffffffffffffffffffffffffffffff16815260200190815260200160002060006101000a81548173ffffffffffffffffffffffffffffffffffffffff021916908373ffffffffffffffffffffffffffffffffffffffff16021790555050565b7f000000000000000000000000000000000000000000000000000000000000000073ffffffffffffffffffffffffffffffffffffffff163373ffffffffffffffffffffffffffffffffffffffff16146108bb576040517f08c379a00000000000000000000000000000000000000000000000000000000081526004016108b290612bb3565b60405180910390fd5b80600260008673ffffffffffffffffffffffffffffffffffffffff1673ffffffffffffffffffffffffffffffffffffffff16815260200190815260200160002060008573ffffffffffffffffffffffffffffffffffffffff1673ffffffffffffffffffffffffffffffffffffffff16815260200190815260200160002060000160108282829054906101000a90046fffffffffffffffffffffffffffffffff166109659190612bd3565b92506101000a8154816fffffffffffffffffffffffffffffffff02191690836fffffffffffffffffffffffffffffffff16021790555081600260008673ffffffffffffffffffffffffffffffffffffffff1673ffffffffffffffffffffffffffffffffffffffff16815260200190815260200160002060008573ffffffffffffffffffffffffffffffffffffffff1673ffffffffffffffffffffffffffffffffffffffff16815260200190815260200160002060000160008282829054906101000a90046fffffffffffffffffffffffffffffffff16610a459190612bd3565b92506101000a8154816fffffffffffffffffffffffffffffffff02191690836fffffffffffffffffffffffffffffffff16021790555050505050565b3373ffffffffffffffffffffffffffffffffffffffff16600160008573ffffffffffffffffffffffffffffffffffffffff1673ffffffffffffffffffffffffffffffffffffffff16815260200190815260200160002060009054906101000a900473ffffffffffffffffffffffffffffffffffffffff1673ffffffffffffffffffffffffffffffffffffffff1614610b4e576040517f08c379a0000000000000000000000000000000000000000000000000000000008152600401610b4590612c8b565b60405180910390fd5b610b59838383610fb9565b610b98576040517f08c379a0000000000000000000000000000000000000000000000000000000008152600401610b8f90612d1d565b60405180910390fd5b600360008473ffffffffffffffffffffffffffffffffffffffff1673ffffffffffffffffffffffffffffffffffffffff16815260200190815260200160002060008373ffffffffffffffffffffffffffffffffffffffff1673ffffffffffffffffffffffffffffffffffffffff168152602001908152602001600020600082815260200190815260200160002060000160019054906101000a90046fffffffffffffffffffffffffffffffff166fffffffffffffffffffffffffffffffff16341015610c99576040517f08c379a0000000000000000000000000000000000000000000000000000000008152600401610c9090612d89565b60405180910390fd5b6000600360008573ffffffffffffffffffffffffffffffffffffffff1673ffffffffffffffffffffffffffffffffffffffff16815260200190815260200160002060008473ffffffffffffffffffffffffffffffffffffffff1673ffffffffffffffffffffffffffffffffffffffff168152602001908152602001600020600083815260200190815260200160002060000160006101000a81548160ff0219169083151502179055506000600360008573ffffffffffffffffffffffffffffffffffffffff1673ffffffffffffffffffffffffffffffffffffffff16815260200190815260200160002060008473ffffffffffffffffffffffffffffffffffffffff1673ffffffffffffffffffffffffffffffffffffffff168152602001908152602001600020600083815260200190815260200160002060000160016101000a8154816fffffffffffffffffffffffffffffffff02191690836fffffffffffffffffffffffffffffffff1602179055508173ffffffffffffffffffffffffffffffffffffffff166323b872dd3033846040518463ffffffff1660e01b8152600401610e4793929190612da9565b600060405180830381600087803b158015610e6157600080fd5b505af1158015610e75573d6000803e3d6000fd5b50505050505050565b60008054906101000a900473ffffffffffffffffffffffffffffffffffffffff1673ffffffffffffffffffffffffffffffffffffffff163373ffffffffffffffffffffffffffffffffffffffff1614610f0c576040517f08c379a0000000000000000000000000000000000000000000000000000000008152600401610f039061299a565b60405180910390fd5b80471015610f4f576040517f08c379a0000000000000000000000000000000000000000000000000000000008152600401610f4690612e52565b60405180910390fd5b60008054906101000a900473ffffffffffffffffffffffffffffffffffffffff1673ffffffffffffffffffffffffffffffffffffffff166108fc829081150290604051600060405180830381858888f19350505050158015610fb5573d6000803e3d6000fd5b5050565b6000600360008573ffffffffffffffffffffffffffffffffffffffff1673ffffffffffffffffffffffffffffffffffffffff16815260200190815260200160002060008473ffffffffffffffffffffffffffffffffffffffff1673ffffffffffffffffffffffffffffffffffffffff168152602001908152602001600020600083815260200190815260200160002060000160009054906101000a900460ff1690509392505050565b6000600260008473ffffffffffffffffffffffffffffffffffffffff1673ffffffffffffffffffffffffffffffffffffffff16815260200190815260200160002060008373ffffffffffffffffffffffffffffffffffffffff1673ffffffffffffffffffffffffffffffffffffffff16815260200190815260200160002060000160109054906101000a90046fffffffffffffffffffffffffffffffff16905092915050565b60008060009054906101000a900473ffffffffffffffffffffffffffffffffffffffff1673ffffffffffffffffffffffffffffffffffffffff163373ffffffffffffffffffffffffffffffffffffffff1614611199576040517f08c379a00000000000000000000000000000000000000000000000000000000081526004016111909061299a565b60405180910390fd5b816fffffffffffffffffffffffffffffffff16600360008773ffffffffffffffffffffffffffffffffffffffff1673ffffffffffffffffffffffffffffffffffffffff16815260200190815260200160002060008673ffffffffffffffffffffffffffffffffffffffff1673ffffffffffffffffffffffffffffffffffffffff1681526020019081526020016000206000856fffffffffffffffffffffffffffffffff16815260200190815260200160002060000160019054906101000a90046fffffffffffffffffffffffffffffffff166fffffffffffffffffffffffffffffffff1610156112be576040517f08c379a00000000000000000000000000000000000000000000000000000000081526004016112b590612a2c565b60405180910390fd5b81600360008773ffffffffffffffffffffffffffffffffffffffff1673ffffffffffffffffffffffffffffffffffffffff16815260200190815260200160002060008673ffffffffffffffffffffffffffffffffffffffff1673ffffffffffffffffffffffffffffffffffffffff1681526020019081526020016000206000856fffffffffffffffffffffffffffffffff16815260200190815260200160002060000160018282829054906101000a90046fffffffffffffffffffffffffffffffff1661138b9190612a7b565b92506101000a8154816fffffffffffffffffffffffffffffffff02191690836fffffffffffffffffffffffffffffffff160217905550600360008673ffffffffffffffffffffffffffffffffffffffff1673ffffffffffffffffffffffffffffffffffffffff16815260200190815260200160002060008573ffffffffffffffffffffffffffffffffffffffff1673ffffffffffffffffffffffffffffffffffffffff1681526020019081526020016000206000846fffffffffffffffffffffffffffffffff16815260200190815260200160002060000160019054906101000a90046fffffffffffffffffffffffffffffffff169050949350505050565b6000600360008573ffffffffffffffffffffffffffffffffffffffff1673ffffffffffffffffffffffffffffffffffffffff16815260200190815260200160002060008473ffffffffffffffffffffffffffffffffffffffff1673ffffffffffffffffffffffffffffffffffffffff168152602001908152602001600020600083815260200190815260200160002060000160019054906101000a90046fffffffffffffffffffffffffffffffff1690509392505050565b6000600260008473ffffffffffffffffffffffffffffffffffffffff1673ffffffffffffffffffffffffffffffffffffffff16815260200190815260200160002060008373ffffffffffffffffffffffffffffffffffffffff1673ffffffffffffffffffffffffffffffffffffffff16815260200190815260200160002060000160009054906101000a90046fffffffffffffffffffffffffffffffff166fffffffffffffffffffffffffffffffff16905092915050565b3373ffffffffffffffffffffffffffffffffffffffff16600160008473ffffffffffffffffffffffffffffffffffffffff1673ffffffffffffffffffffffffffffffffffffffff16815260200190815260200160002060009054906101000a900473ffffffffffffffffffffffffffffffffffffffff1673ffffffffffffffffffffffffffffffffffffffff16146116c7576040517f08c379a00000000000000000000000000000000000000000000000000000000081526004016116be90612c8b565b60405180910390fd5b60006116d38383611542565b11611713576040517f08c379a000000000000000000000000000000000000000000000000000000000815260040161170a90612ebe565b60405180910390fd5b600260008373ffffffffffffffffffffffffffffffffffffffff1673ffffffffffffffffffffffffffffffffffffffff16815260200190815260200160002060008273ffffffffffffffffffffffffffffffffffffffff1673ffffffffffffffffffffffffffffffffffffffff16815260200190815260200160002060000160109054906101000a90046fffffffffffffffffffffffffffffffff166fffffffffffffffffffffffffffffffff16341015611803576040517f08c379a00000000000000000000000000000000000000000000000000000000081526004016117fa90612d89565b60405180910390fd5b600061180f8383611542565b90506000600260008573ffffffffffffffffffffffffffffffffffffffff1673ffffffffffffffffffffffffffffffffffffffff16815260200190815260200160002060008473ffffffffffffffffffffffffffffffffffffffff1673ffffffffffffffffffffffffffffffffffffffff16815260200190815260200160002060000160006101000a8154816fffffffffffffffffffffffffffffffff02191690836fffffffffffffffffffffffffffffffff1602179055506000600260008573ffffffffffffffffffffffffffffffffffffffff1673ffffffffffffffffffffffffffffffffffffffff16815260200190815260200160002060008473ffffffffffffffffffffffffffffffffffffffff1673ffffffffffffffffffffffffffffffffffffffff16815260200190815260200160002060000160106101000a8154816fffffffffffffffffffffffffffffffff02191690836fffffffffffffffffffffffffffffffff1602179055508173ffffffffffffffffffffffffffffffffffffffff1663a9059cbb33836040518363ffffffff1660e01b81526004016119ba929190612ede565b6020604051808303816000875af11580156119d9573d6000803e3d6000fd5b505050506040513d601f19601f820116820180604052508101906119fd9190612f33565b50505050565b7f000000000000000000000000000000000000000000000000000000000000000073ffffffffffffffffffffffffffffffffffffffff16611a5583611a4786611f00565b611f3090919063ffffffff16565b73ffffffffffffffffffffffffffffffffffffffff1614611aab576040517f08c379a0000000000000000000000000000000000000000000000000000000008152600401611aa290612fd2565b60405180910390fd5b823382604051602001611abf92919061303a565b6040516020818303038152906040528051906020012014611b15576040517f08c379a0000000000000000000000000000000000000000000000000000000008152600401611b0c906130d8565b60405180910390fd5b80600160003373ffffffffffffffffffffffffffffffffffffffff1673ffffffffffffffffffffffffffffffffffffffff16815260200190815260200160002060006101000a81548173ffffffffffffffffffffffffffffffffffffffff021916908373ffffffffffffffffffffffffffffffffffffffff160217905550505050565b60008054906101000a900473ffffffffffffffffffffffffffffffffffffffff1673ffffffffffffffffffffffffffffffffffffffff163373ffffffffffffffffffffffffffffffffffffffff1614611c26576040517f08c379a0000000000000000000000000000000000000000000000000000000008152600401611c1d9061299a565b60405180910390fd5b806000806101000a81548173ffffffffffffffffffffffffffffffffffffffff021916908373ffffffffffffffffffffffffffffffffffffffff16021790555050565b6000600160008373ffffffffffffffffffffffffffffffffffffffff1673ffffffffffffffffffffffffffffffffffffffff16815260200190815260200160002060009054906101000a900473ffffffffffffffffffffffffffffffffffffffff169050919050565b7f000000000000000000000000000000000000000000000000000000000000000073ffffffffffffffffffffffffffffffffffffffff163373ffffffffffffffffffffffffffffffffffffffff1614611d60576040517f08c379a0000000000000000000000000000000000000000000000000000000008152600401611d5790612bb3565b60405180910390fd5b80600360008673ffffffffffffffffffffffffffffffffffffffff1673ffffffffffffffffffffffffffffffffffffffff16815260200190815260200160002060008573ffffffffffffffffffffffffffffffffffffffff1673ffffffffffffffffffffffffffffffffffffffff168152602001908152602001600020600084815260200190815260200160002060000160018282829054906101000a90046fffffffffffffffffffffffffffffffff16611e1b9190612bd3565b92506101000a8154816fffffffffffffffffffffffffffffffff02191690836fffffffffffffffffffffffffffffffff1602179055506001600360008673ffffffffffffffffffffffffffffffffffffffff1673ffffffffffffffffffffffffffffffffffffffff16815260200190815260200160002060008573ffffffffffffffffffffffffffffffffffffffff1673ffffffffffffffffffffffffffffffffffffffff168152602001908152602001600020600084815260200190815260200160002060000160006101000a81548160ff02191690831515021790555050505050565b600081604051602001611f139190613170565b604051602081830303815290604052805190602001209050919050565b6000806000611f3f8585611f57565b91509150611f4c81611fd8565b819250505092915050565b6000806041835103611f985760008060006020860151925060408601519150606086015160001a9050611f8c878285856121a4565b94509450505050611fd1565b6040835103611fc8576000806020850151915060408501519050611fbd8683836122b0565b935093505050611fd1565b60006002915091505b9250929050565b60006004811115611fec57611feb613196565b5b816004811115611fff57611ffe613196565b5b03156121a1576001600481111561201957612018613196565b5b81600481111561202c5761202b613196565b5b0361206c576040517f08c379a000000000000000000000000000000000000000000000000000000000815260040161206390613211565b60405180910390fd5b600260048111156120805761207f613196565b5b81600481111561209357612092613196565b5b036120d3576040517f08c379a00000000000000000000000000000000000000000000000000000000081526004016120ca9061327d565b60405180910390fd5b600360048111156120e7576120e6613196565b5b8160048111156120fa576120f9613196565b5b0361213a576040517f08c379a00000000000000000000000000000000000000000000000000000000081526004016121319061330f565b60405180910390fd5b60048081111561214d5761214c613196565b5b8160048111156121605761215f613196565b5b036121a0576040517f08c379a0000000000000000000000000000000000000000000000000000000008152600401612197906133a1565b60405180910390fd5b5b50565b6000807f7fffffffffffffffffffffffffffffff5d576e7357a4501ddfe92f46681b20a08360001c11156121df5760006003915091506122a7565b601b8560ff16141580156121f75750601c8560ff1614155b156122095760006004915091506122a7565b60006001878787876040516000815260200160405260405161222e94939291906133ec565b6020604051602081039080840390855afa158015612250573d6000803e3d6000fd5b505050602060405103519050600073ffffffffffffffffffffffffffffffffffffffff168173ffffffffffffffffffffffffffffffffffffffff160361229e576000600192509250506122a7565b80600092509250505b94509492505050565b60008060007f7fffffffffffffffffffffffffffffffffffffffffffffffffffffffffffffff60001b841690506000601b60ff8660001c901c6122f39190613431565b9050612301878288856121a4565b935093505050935093915050565b6000604051905090565b600080fd5b600080fd5b600073ffffffffffffffffffffffffffffffffffffffff82169050919050565b600061234e82612323565b9050919050565b61235e81612343565b811461236957600080fd5b50565b60008135905061237b81612355565b92915050565b60006fffffffffffffffffffffffffffffffff82169050919050565b6123a681612381565b81146123b157600080fd5b50565b6000813590506123c38161239d565b92915050565b6000806000606084860312156123e2576123e1612319565b5b60006123f08682870161236c565b93505060206124018682870161236c565b9250506040612412868287016123b4565b9150509250925092565b61242581612381565b82525050565b6000602082019050612440600083018461241c565b92915050565b60006020828403121561245c5761245b612319565b5b600061246a8482850161236c565b91505092915050565b6000819050919050565b61248681612473565b811461249157600080fd5b50565b6000813590506124a38161247d565b92915050565b600080600080608085870312156124c3576124c2612319565b5b60006124d18782880161236c565b94505060206124e28782880161236c565b93505060406124f387828801612494565b9250506060612504878288016123b4565b91505092959194509250565b60008060006060848603121561252957612528612319565b5b60006125378682870161236c565b93505060206125488682870161236c565b925050604061255986828701612494565b9150509250925092565b60006020828403121561257957612578612319565b5b600061258784828501612494565b91505092915050565b60008115159050919050565b6125a581612590565b82525050565b60006020820190506125c0600083018461259c565b92915050565b600080604083850312156125dd576125dc612319565b5b60006125eb8582860161236c565b92505060206125fc8582860161236c565b9150509250929050565b600080600080608085870312156126205761261f612319565b5b600061262e8782880161236c565b945050602061263f8782880161236c565b9350506040612650878288016123b4565b9250506060612661878288016123b4565b91505092959194509250565b61267681612473565b82525050565b6000602082019050612691600083018461266d565b92915050565b6000819050919050565b6126aa81612697565b81146126b557600080fd5b50565b6000813590506126c7816126a1565b92915050565b600080fd5b600080fd5b6000601f19601f8301169050919050565b7f4e487b7100000000000000000000000000000000000000000000000000000000600052604160045260246000fd5b612720826126d7565b810181811067ffffffffffffffff8211171561273f5761273e6126e8565b5b80604052505050565b600061275261230f565b905061275e8282612717565b919050565b600067ffffffffffffffff82111561277e5761277d6126e8565b5b612787826126d7565b9050602081019050919050565b82818337600083830152505050565b60006127b66127b184612763565b612748565b9050828152602081018484840111156127d2576127d16126d2565b5b6127dd848285612794565b509392505050565b600082601f8301126127fa576127f96126cd565b5b813561280a8482602086016127a3565b91505092915050565b60008060006060848603121561282c5761282b612319565b5b600061283a868287016126b8565b935050602084013567ffffffffffffffff81111561285b5761285a61231e565b5b612867868287016127e5565b92505060406128788682870161236c565b9150509250925092565b600061288d82612323565b9050919050565b61289d81612882565b81146128a857600080fd5b50565b6000813590506128ba81612894565b92915050565b6000602082840312156128d6576128d5612319565b5b60006128e4848285016128ab565b91505092915050565b6128f681612343565b82525050565b600060208201905061291160008301846128ed565b92915050565b600082825260208201905092915050565b7f6d73672e73656e646572206d75737420626520666565436f6e74726f6c6c657260008201527f2e00000000000000000000000000000000000000000000000000000000000000602082015250565b6000612984602183612917565b915061298f82612928565b604082019050919050565b600060208201905081810360008301526129b381612977565b9050919050565b7f596f752063616e6e6f7420726564756365206d6f7265207468616e207468652060008201527f63757272656e74206665652e0000000000000000000000000000000000000000602082015250565b6000612a16602c83612917565b9150612a21826129ba565b604082019050919050565b60006020820190508181036000830152612a4581612a09565b9050919050565b7f4e487b7100000000000000000000000000000000000000000000000000000000600052601160045260246000fd5b6000612a8682612381565b9150612a9183612381565b925082821015612aa457612aa3612a4c565b5b828203905092915050565b7f596f7520616c726561647920686176652072656769737465726564206120726560008201527f63697069656e7420616464726573730000000000000000000000000000000000602082015250565b6000612b0b602f83612917565b9150612b1682612aaf565b604082019050919050565b60006020820190508181036000830152612b3a81612afe565b9050919050565b7f4f6e6c7920746865207472616e73666572657220636f6e74726163742063616e60008201527f206c6f672066756e64732e000000000000000000000000000000000000000000602082015250565b6000612b9d602b83612917565b9150612ba882612b41565b604082019050919050565b60006020820190508181036000830152612bcc81612b90565b9050919050565b6000612bde82612381565b9150612be983612381565b9250826fffffffffffffffffffffffffffffffff03821115612c0e57612c0d612a4c565b5b828201905092915050565b7f46756e6374696f6e2063616c6c6572206973206e6f7420616e20617574686f7260008201527f697a656420726563697069656e74416464726573732e00000000000000000000602082015250565b6000612c75603683612917565b9150612c8082612c19565b604082019050919050565b60006020820190508181036000830152612ca481612c68565b9050919050565b7f496e73756666696369656e74207769746864726177616c20616c6c6f77616e6360008201527f652e000000000000000000000000000000000000000000000000000000000000602082015250565b6000612d07602283612917565b9150612d1282612cab565b604082019050919050565b60006020820190508181036000830152612d3681612cfa565b9050919050565b7f496e73756666696369656e74207061796d656e742e0000000000000000000000600082015250565b6000612d73601583612917565b9150612d7e82612d3d565b602082019050919050565b60006020820190508181036000830152612da281612d66565b9050919050565b6000606082019050612dbe60008301866128ed565b612dcb60208301856128ed565b612dd8604083018461266d565b949350505050565b7f43616e6e6f74207769746864726177206d6f7265207468616e2074686520616d60008201527f6f756e7420696e2074686520636f6e74726163742e0000000000000000000000602082015250565b6000612e3c603583612917565b9150612e4782612de0565b604082019050919050565b60006020820190508181036000830152612e6b81612e2f565b9050919050565b7f4e6f207769746864726177616c20616c6c6f77616e63652e0000000000000000600082015250565b6000612ea8601883612917565b9150612eb382612e72565b602082019050919050565b60006020820190508181036000830152612ed781612e9b565b9050919050565b6000604082019050612ef360008301856128ed565b612f00602083018461266d565b9392505050565b612f1081612590565b8114612f1b57600080fd5b50565b600081519050612f2d81612f07565b92915050565b600060208284031215612f4957612f48612319565b5b6000612f5784828501612f1e565b91505092915050565b7f5369676e6174757265206d7573742062652066726f6d2053455256455220534960008201527f474e455220726f6c650000000000000000000000000000000000000000000000602082015250565b6000612fbc602983612917565b9150612fc782612f60565b604082019050919050565b60006020820190508181036000830152612feb81612faf565b9050919050565b60008160601b9050919050565b600061300a82612ff2565b9050919050565b600061301c82612fff565b9050919050565b61303461302f82612343565b613011565b82525050565b60006130468285613023565b6014820191506130568284613023565b6014820191508190509392505050565b7f50726f7669646564207369676e617475726520646f6573206e6f74206d61746360008201527f6820726571756972656420706172616d65746572730000000000000000000000602082015250565b60006130c2603583612917565b91506130cd82613066565b604082019050919050565b600060208201905081810360008301526130f1816130b5565b9050919050565b600081905092915050565b7f19457468657265756d205369676e6564204d6573736167653a0a333200000000600082015250565b6000613139601c836130f8565b915061314482613103565b601c82019050919050565b6000819050919050565b61316a61316582612697565b61314f565b82525050565b600061317b8261312c565b91506131878284613159565b60208201915081905092915050565b7f4e487b7100000000000000000000000000000000000000000000000000000000600052602160045260246000fd5b7f45434453413a20696e76616c6964207369676e61747572650000000000000000600082015250565b60006131fb601883612917565b9150613206826131c5565b602082019050919050565b6000602082019050818103600083015261322a816131ee565b9050919050565b7f45434453413a20696e76616c6964207369676e6174757265206c656e67746800600082015250565b6000613267601f83612917565b915061327282613231565b602082019050919050565b600060208201905081810360008301526132968161325a565b9050919050565b7f45434453413a20696e76616c6964207369676e6174757265202773272076616c60008201527f7565000000000000000000000000000000000000000000000000000000000000602082015250565b60006132f9602283612917565b91506133048261329d565b604082019050919050565b60006020820190508181036000830152613328816132ec565b9050919050565b7f45434453413a20696e76616c6964207369676e6174757265202776272076616c60008201527f7565000000000000000000000000000000000000000000000000000000000000602082015250565b600061338b602283612917565b91506133968261332f565b604082019050919050565b600060208201905081810360008301526133ba8161337e565b9050919050565b6133ca81612697565b82525050565b600060ff82169050919050565b6133e6816133d0565b82525050565b600060808201905061340160008301876133c1565b61340e60208301866133dd565b61341b60408301856133c1565b61342860608301846133c1565b95945050505050565b600061343c82612473565b915061344783612473565b9250827fffffffffffffffffffffffffffffffffffffffffffffffffffffffffffffffff0382111561347c5761347b612a4c565b5b82820190509291505056fea26469706673582212202aae99100b3bd18355b3fc62eb3de37b71763ffb9029767dacc6d4e98cddef9c64736f6c634300080d0033",
  "linkReferences": {},
  "deployedLinkReferences": {}
}