{
  "_format": "hh-sol-artifact-1",
  "contractName": "Vault",
  "sourceName": "contracts/Vault.sol",
  "abi": [
    {
      "anonymous": false,
      "inputs": [
        {
          "indexed": true,
          "internalType": "address",
          "name": "previousOwner",
          "type": "address"
        },
        {
          "indexed": true,
          "internalType": "address",
          "name": "newOwner",
          "type": "address"
        }
      ],
      "name": "OwnershipTransferred",
      "type": "event"
    },
    {
      "inputs": [
        {
          "internalType": "address",
          "name": "_originalAddress",
          "type": "address"
        },
        {
          "internalType": "address",
          "name": "_erc20Address",
          "type": "address"
        }
      ],
      "name": "canWithdrawERC20",
      "outputs": [
        {
          "internalType": "uint256",
          "name": "",
          "type": "uint256"
        }
      ],
      "stateMutability": "view",
      "type": "function"
    },
    {
      "inputs": [
        {
          "internalType": "address",
          "name": "_originalAddress",
          "type": "address"
        },
        {
          "internalType": "address",
          "name": "_erc721Address",
          "type": "address"
        },
        {
          "internalType": "uint256",
          "name": "_id",
          "type": "uint256"
        }
      ],
      "name": "canWithdrawERC721",
      "outputs": [
        {
          "internalType": "bool",
          "name": "",
          "type": "bool"
        }
      ],
      "stateMutability": "view",
      "type": "function"
    },
    {
      "inputs": [
        {
          "internalType": "bytes32",
          "name": "_data",
          "type": "bytes32"
        },
        {
          "internalType": "bytes",
          "name": "_signature",
          "type": "bytes"
        },
        {
          "internalType": "address",
          "name": "_newRecipientAddress",
          "type": "address"
        }
      ],
      "name": "changeRecipientAddress",
      "outputs": [],
      "stateMutability": "nonpayable",
      "type": "function"
    },
    {
      "inputs": [],
      "name": "contractFee",
      "outputs": [
        {
          "internalType": "uint256",
          "name": "",
          "type": "uint256"
        }
      ],
      "stateMutability": "view",
      "type": "function"
    },
    {
      "inputs": [
        {
          "internalType": "address",
          "name": "_originalAddress",
          "type": "address"
        },
        {
          "internalType": "address",
          "name": "_erc20Address",
          "type": "address"
        },
        {
          "internalType": "uint256",
          "name": "_amount",
          "type": "uint256"
        }
      ],
      "name": "logIncomingERC20",
      "outputs": [],
      "stateMutability": "nonpayable",
      "type": "function"
    },
    {
      "inputs": [
        {
          "internalType": "address",
          "name": "_originalAddress",
          "type": "address"
        },
        {
          "internalType": "address",
          "name": "_erc721Address",
          "type": "address"
        },
        {
          "internalType": "uint256",
          "name": "_id",
          "type": "uint256"
        }
      ],
      "name": "logIncomingERC721",
      "outputs": [],
      "stateMutability": "nonpayable",
      "type": "function"
    },
    {
      "inputs": [
        {
          "internalType": "address",
          "name": "operator",
          "type": "address"
        },
        {
          "internalType": "address",
          "name": "from",
          "type": "address"
        },
        {
          "internalType": "uint256",
          "name": "tokenId",
          "type": "uint256"
        },
        {
          "internalType": "bytes",
          "name": "data",
          "type": "bytes"
        }
      ],
      "name": "onERC721Received",
      "outputs": [
        {
          "internalType": "bytes4",
          "name": "",
          "type": "bytes4"
        }
      ],
      "stateMutability": "nonpayable",
      "type": "function"
    },
    {
      "inputs": [],
      "name": "owner",
      "outputs": [
        {
          "internalType": "address",
          "name": "",
          "type": "address"
        }
      ],
      "stateMutability": "view",
      "type": "function"
    },
    {
      "inputs": [],
      "name": "renounceOwnership",
      "outputs": [],
      "stateMutability": "nonpayable",
      "type": "function"
    },
    {
      "inputs": [
        {
          "internalType": "address",
          "name": "_recipient",
          "type": "address"
        }
      ],
      "name": "setupRecipientAddress",
      "outputs": [],
      "stateMutability": "nonpayable",
      "type": "function"
    },
    {
      "inputs": [
        {
          "internalType": "address",
          "name": "newOwner",
          "type": "address"
        }
      ],
      "name": "transferOwnership",
      "outputs": [],
      "stateMutability": "nonpayable",
      "type": "function"
    },
    {
      "inputs": [
        {
          "internalType": "address",
          "name": "_originalAddress",
          "type": "address"
        }
      ],
      "name": "viewRecipientAddress",
      "outputs": [
        {
          "internalType": "address",
          "name": "",
          "type": "address"
        }
      ],
      "stateMutability": "view",
      "type": "function"
    },
    {
      "inputs": [
        {
          "internalType": "address",
          "name": "_originalAddress",
          "type": "address"
        },
        {
          "internalType": "address",
          "name": "_erc20Address",
          "type": "address"
        },
        {
          "internalType": "uint256",
          "name": "_amount",
          "type": "uint256"
        }
      ],
      "name": "withdrawERC20",
      "outputs": [],
      "stateMutability": "nonpayable",
      "type": "function"
    },
    {
      "inputs": [
        {
          "internalType": "address",
          "name": "_originalAddress",
          "type": "address"
        },
        {
          "internalType": "address",
          "name": "_erc721Address",
          "type": "address"
        },
        {
          "internalType": "uint256",
          "name": "_id",
          "type": "uint256"
        }
      ],
      "name": "withdrawERC721",
      "outputs": [],
      "stateMutability": "nonpayable",
      "type": "function"
    }
  ],
  "bytecode": "0x608060405234801561001057600080fd5b5061002d61002261003260201b60201c565b61003a60201b60201c565b6100fe565b600033905090565b60008060009054906101000a900473ffffffffffffffffffffffffffffffffffffffff169050816000806101000a81548173ffffffffffffffffffffffffffffffffffffffff021916908373ffffffffffffffffffffffffffffffffffffffff1602179055508173ffffffffffffffffffffffffffffffffffffffff168173ffffffffffffffffffffffffffffffffffffffff167f8be0079c531659141344cd1fd0a4f28419497f9722a3daafe3b4186f6b6457e060405160405180910390a35050565b6120db806200010e6000396000f3fe608060405234801561001057600080fd5b50600436106100ea5760003560e01c80638da5cb5b1161008c578063af08ef9a11610066578063af08ef9a14610233578063d41977cd1461024f578063d9ce6ae71461026d578063f2fde38b1461029d576100ea565b80638da5cb5b146101c957806390ffaa2a146101e7578063a7deb2d614610217576100ea565b806344004cc1116100c857806344004cc1146101575780634761a63d146101735780634f4a7e701461018f578063715018a6146101bf576100ea565b80630ca93171146100ef578063150b7a021461010b5780634025feb21461013b575b600080fd5b61010960048036038101906101049190611386565b6102b9565b005b6101256004803603810190610120919061144e565b6103d2565b6040516101329190611511565b60405180910390f35b6101556004803603810190610150919061152c565b6103e7565b005b610171600480360381019061016c919061152c565b610618565b005b61018d6004803603810190610188919061152c565b610848565b005b6101a960048036038101906101a4919061152c565b6108ce565b6040516101b6919061159a565b60405180910390f35b6101c7610974565b005b6101d16109fc565b6040516101de91906115c4565b60405180910390f35b61020160048036038101906101fc91906115df565b610a25565b60405161020e919061162e565b60405180910390f35b610231600480360381019061022c91906117c0565b610aac565b005b61024d6004803603810190610248919061152c565b610c28565b005b610257610cd3565b604051610264919061162e565b60405180910390f35b61028760048036038101906102829190611386565b610cd9565b60405161029491906115c4565b60405180910390f35b6102b760048036038101906102b29190611386565b610d42565b005b600073ffffffffffffffffffffffffffffffffffffffff16600260003373ffffffffffffffffffffffffffffffffffffffff1673ffffffffffffffffffffffffffffffffffffffff16815260200190815260200160002060009054906101000a900473ffffffffffffffffffffffffffffffffffffffff1673ffffffffffffffffffffffffffffffffffffffff161461035157600080fd5b80600260003373ffffffffffffffffffffffffffffffffffffffff1673ffffffffffffffffffffffffffffffffffffffff16815260200190815260200160002060006101000a81548173ffffffffffffffffffffffffffffffffffffffff021916908373ffffffffffffffffffffffffffffffffffffffff16021790555050565b600063150b7a0260e01b905095945050505050565b3373ffffffffffffffffffffffffffffffffffffffff16600260008573ffffffffffffffffffffffffffffffffffffffff1673ffffffffffffffffffffffffffffffffffffffff16815260200190815260200160002060009054906101000a900473ffffffffffffffffffffffffffffffffffffffff1673ffffffffffffffffffffffffffffffffffffffff16146104b4576040517f08c379a00000000000000000000000000000000000000000000000000000000081526004016104ab906118b2565b60405180910390fd5b6104bf8383836108ce565b6104fe576040517f08c379a00000000000000000000000000000000000000000000000000000000081526004016104f590611944565b60405180910390fd5b6000600460008573ffffffffffffffffffffffffffffffffffffffff1673ffffffffffffffffffffffffffffffffffffffff16815260200190815260200160002060008473ffffffffffffffffffffffffffffffffffffffff1673ffffffffffffffffffffffffffffffffffffffff168152602001908152602001600020600083815260200190815260200160002060006101000a81548160ff0219169083151502179055508173ffffffffffffffffffffffffffffffffffffffff166323b872dd3033846040518463ffffffff1660e01b81526004016105e193929190611964565b600060405180830381600087803b1580156105fb57600080fd5b505af115801561060f573d6000803e3d6000fd5b50505050505050565b3373ffffffffffffffffffffffffffffffffffffffff16600260008573ffffffffffffffffffffffffffffffffffffffff1673ffffffffffffffffffffffffffffffffffffffff16815260200190815260200160002060009054906101000a900473ffffffffffffffffffffffffffffffffffffffff1673ffffffffffffffffffffffffffffffffffffffff16146106e5576040517f08c379a00000000000000000000000000000000000000000000000000000000081526004016106dc906118b2565b60405180910390fd5b806106f08484610a25565b1015610731576040517f08c379a000000000000000000000000000000000000000000000000000000000815260040161072890611944565b60405180910390fd5b80600360008573ffffffffffffffffffffffffffffffffffffffff1673ffffffffffffffffffffffffffffffffffffffff16815260200190815260200160002060008473ffffffffffffffffffffffffffffffffffffffff1673ffffffffffffffffffffffffffffffffffffffff16815260200190815260200160002060008282546107bd91906119ca565b925050819055508173ffffffffffffffffffffffffffffffffffffffff1663a9059cbb33836040518363ffffffff1660e01b81526004016107ff9291906119fe565b6020604051808303816000875af115801561081e573d6000803e3d6000fd5b505050506040513d601f19601f820116820180604052508101906108429190611a53565b50505050565b80600360008573ffffffffffffffffffffffffffffffffffffffff1673ffffffffffffffffffffffffffffffffffffffff16815260200190815260200160002060008473ffffffffffffffffffffffffffffffffffffffff1673ffffffffffffffffffffffffffffffffffffffff16815260200190815260200160002081905550505050565b6000600460008573ffffffffffffffffffffffffffffffffffffffff1673ffffffffffffffffffffffffffffffffffffffff16815260200190815260200160002060008473ffffffffffffffffffffffffffffffffffffffff1673ffffffffffffffffffffffffffffffffffffffff168152602001908152602001600020600083815260200190815260200160002060009054906101000a900460ff1690509392505050565b61097c610e39565b73ffffffffffffffffffffffffffffffffffffffff1661099a6109fc565b73ffffffffffffffffffffffffffffffffffffffff16146109f0576040517f08c379a00000000000000000000000000000000000000000000000000000000081526004016109e790611acc565b60405180910390fd5b6109fa6000610e41565b565b60008060009054906101000a900473ffffffffffffffffffffffffffffffffffffffff16905090565b6000600360008473ffffffffffffffffffffffffffffffffffffffff1673ffffffffffffffffffffffffffffffffffffffff16815260200190815260200160002060008373ffffffffffffffffffffffffffffffffffffffff1673ffffffffffffffffffffffffffffffffffffffff16815260200190815260200160002054905092915050565b610ab46109fc565b73ffffffffffffffffffffffffffffffffffffffff16610ae583610ad786610f05565b610f3590919063ffffffff16565b73ffffffffffffffffffffffffffffffffffffffff1614610b3b576040517f08c379a0000000000000000000000000000000000000000000000000000000008152600401610b3290611b5e565b60405180910390fd5b823382604051602001610b4f929190611bc6565b6040516020818303038152906040528051906020012014610ba5576040517f08c379a0000000000000000000000000000000000000000000000000000000008152600401610b9c90611c64565b60405180910390fd5b80600260003373ffffffffffffffffffffffffffffffffffffffff1673ffffffffffffffffffffffffffffffffffffffff16815260200190815260200160002060006101000a81548173ffffffffffffffffffffffffffffffffffffffff021916908373ffffffffffffffffffffffffffffffffffffffff160217905550505050565b6001600460008573ffffffffffffffffffffffffffffffffffffffff1673ffffffffffffffffffffffffffffffffffffffff16815260200190815260200160002060008473ffffffffffffffffffffffffffffffffffffffff1673ffffffffffffffffffffffffffffffffffffffff168152602001908152602001600020600083815260200190815260200160002060006101000a81548160ff021916908315150217905550505050565b60015481565b6000600260008373ffffffffffffffffffffffffffffffffffffffff1673ffffffffffffffffffffffffffffffffffffffff16815260200190815260200160002060009054906101000a900473ffffffffffffffffffffffffffffffffffffffff169050919050565b610d4a610e39565b73ffffffffffffffffffffffffffffffffffffffff16610d686109fc565b73ffffffffffffffffffffffffffffffffffffffff1614610dbe576040517f08c379a0000000000000000000000000000000000000000000000000000000008152600401610db590611acc565b60405180910390fd5b600073ffffffffffffffffffffffffffffffffffffffff168173ffffffffffffffffffffffffffffffffffffffff1603610e2d576040517f08c379a0000000000000000000000000000000000000000000000000000000008152600401610e2490611cf6565b60405180910390fd5b610e3681610e41565b50565b600033905090565b60008060009054906101000a900473ffffffffffffffffffffffffffffffffffffffff169050816000806101000a81548173ffffffffffffffffffffffffffffffffffffffff021916908373ffffffffffffffffffffffffffffffffffffffff1602179055508173ffffffffffffffffffffffffffffffffffffffff168173ffffffffffffffffffffffffffffffffffffffff167f8be0079c531659141344cd1fd0a4f28419497f9722a3daafe3b4186f6b6457e060405160405180910390a35050565b600081604051602001610f189190611d8e565b604051602081830303815290604052805190602001209050919050565b6000806000610f448585610f5c565b91509150610f5181610fdd565b819250505092915050565b6000806041835103610f9d5760008060006020860151925060408601519150606086015160001a9050610f91878285856111a9565b94509450505050610fd6565b6040835103610fcd576000806020850151915060408501519050610fc28683836112b5565b935093505050610fd6565b60006002915091505b9250929050565b60006004811115610ff157610ff0611db4565b5b81600481111561100457611003611db4565b5b03156111a6576001600481111561101e5761101d611db4565b5b81600481111561103157611030611db4565b5b03611071576040517f08c379a000000000000000000000000000000000000000000000000000000000815260040161106890611e2f565b60405180910390fd5b6002600481111561108557611084611db4565b5b81600481111561109857611097611db4565b5b036110d8576040517f08c379a00000000000000000000000000000000000000000000000000000000081526004016110cf90611e9b565b60405180910390fd5b600360048111156110ec576110eb611db4565b5b8160048111156110ff576110fe611db4565b5b0361113f576040517f08c379a000000000000000000000000000000000000000000000000000000000815260040161113690611f2d565b60405180910390fd5b60048081111561115257611151611db4565b5b81600481111561116557611164611db4565b5b036111a5576040517f08c379a000000000000000000000000000000000000000000000000000000000815260040161119c90611fbf565b60405180910390fd5b5b50565b6000807f7fffffffffffffffffffffffffffffff5d576e7357a4501ddfe92f46681b20a08360001c11156111e45760006003915091506112ac565b601b8560ff16141580156111fc5750601c8560ff1614155b1561120e5760006004915091506112ac565b600060018787878760405160008152602001604052604051611233949392919061200a565b6020604051602081039080840390855afa158015611255573d6000803e3d6000fd5b505050602060405103519050600073ffffffffffffffffffffffffffffffffffffffff168173ffffffffffffffffffffffffffffffffffffffff16036112a3576000600192509250506112ac565b80600092509250505b94509492505050565b60008060007f7fffffffffffffffffffffffffffffffffffffffffffffffffffffffffffffff60001b841690506000601b60ff8660001c901c6112f8919061204f565b9050611306878288856111a9565b935093505050935093915050565b6000604051905090565b600080fd5b600080fd5b600073ffffffffffffffffffffffffffffffffffffffff82169050919050565b600061135382611328565b9050919050565b61136381611348565b811461136e57600080fd5b50565b6000813590506113808161135a565b92915050565b60006020828403121561139c5761139b61131e565b5b60006113aa84828501611371565b91505092915050565b6000819050919050565b6113c6816113b3565b81146113d157600080fd5b50565b6000813590506113e3816113bd565b92915050565b600080fd5b600080fd5b600080fd5b60008083601f84011261140e5761140d6113e9565b5b8235905067ffffffffffffffff81111561142b5761142a6113ee565b5b602083019150836001820283011115611447576114466113f3565b5b9250929050565b60008060008060006080868803121561146a5761146961131e565b5b600061147888828901611371565b955050602061148988828901611371565b945050604061149a888289016113d4565b935050606086013567ffffffffffffffff8111156114bb576114ba611323565b5b6114c7888289016113f8565b92509250509295509295909350565b60007fffffffff0000000000000000000000000000000000000000000000000000000082169050919050565b61150b816114d6565b82525050565b60006020820190506115266000830184611502565b92915050565b6000806000606084860312156115455761154461131e565b5b600061155386828701611371565b935050602061156486828701611371565b9250506040611575868287016113d4565b9150509250925092565b60008115159050919050565b6115948161157f565b82525050565b60006020820190506115af600083018461158b565b92915050565b6115be81611348565b82525050565b60006020820190506115d960008301846115b5565b92915050565b600080604083850312156115f6576115f561131e565b5b600061160485828601611371565b925050602061161585828601611371565b9150509250929050565b611628816113b3565b82525050565b6000602082019050611643600083018461161f565b92915050565b6000819050919050565b61165c81611649565b811461166757600080fd5b50565b60008135905061167981611653565b92915050565b600080fd5b6000601f19601f8301169050919050565b7f4e487b7100000000000000000000000000000000000000000000000000000000600052604160045260246000fd5b6116cd82611684565b810181811067ffffffffffffffff821117156116ec576116eb611695565b5b80604052505050565b60006116ff611314565b905061170b82826116c4565b919050565b600067ffffffffffffffff82111561172b5761172a611695565b5b61173482611684565b9050602081019050919050565b82818337600083830152505050565b600061176361175e84611710565b6116f5565b90508281526020810184848401111561177f5761177e61167f565b5b61178a848285611741565b509392505050565b600082601f8301126117a7576117a66113e9565b5b81356117b7848260208601611750565b91505092915050565b6000806000606084860312156117d9576117d861131e565b5b60006117e78682870161166a565b935050602084013567ffffffffffffffff81111561180857611807611323565b5b61181486828701611792565b925050604061182586828701611371565b9150509250925092565b600082825260208201905092915050565b7f46756e6374696f6e2063616c6c6572206973206e6f7420616e20617574686f7260008201527f697a656420726563697069656e74416464726573732e00000000000000000000602082015250565b600061189c60368361182f565b91506118a782611840565b604082019050919050565b600060208201905081810360008301526118cb8161188f565b9050919050565b7f496e73756666696369656e74207769746864726177616c20616c6c6f77616e6360008201527f652e000000000000000000000000000000000000000000000000000000000000602082015250565b600061192e60228361182f565b9150611939826118d2565b604082019050919050565b6000602082019050818103600083015261195d81611921565b9050919050565b600060608201905061197960008301866115b5565b61198660208301856115b5565b611993604083018461161f565b949350505050565b7f4e487b7100000000000000000000000000000000000000000000000000000000600052601160045260246000fd5b60006119d5826113b3565b91506119e0836113b3565b9250828210156119f3576119f261199b565b5b828203905092915050565b6000604082019050611a1360008301856115b5565b611a20602083018461161f565b9392505050565b611a308161157f565b8114611a3b57600080fd5b50565b600081519050611a4d81611a27565b92915050565b600060208284031215611a6957611a6861131e565b5b6000611a7784828501611a3e565b91505092915050565b7f4f776e61626c653a2063616c6c6572206973206e6f7420746865206f776e6572600082015250565b6000611ab660208361182f565b9150611ac182611a80565b602082019050919050565b60006020820190508181036000830152611ae581611aa9565b9050919050565b7f5369676e6174757265206d7573742062652066726f6d20636f6e74726163742060008201527f6f776e6572000000000000000000000000000000000000000000000000000000602082015250565b6000611b4860258361182f565b9150611b5382611aec565b604082019050919050565b60006020820190508181036000830152611b7781611b3b565b9050919050565b60008160601b9050919050565b6000611b9682611b7e565b9050919050565b6000611ba882611b8b565b9050919050565b611bc0611bbb82611348565b611b9d565b82525050565b6000611bd28285611baf565b601482019150611be28284611baf565b6014820191508190509392505050565b7f50726f7669646564207369676e617475726520646f6573206e6f74206d61746360008201527f6820726571756972656420706172616d65746572730000000000000000000000602082015250565b6000611c4e60358361182f565b9150611c5982611bf2565b604082019050919050565b60006020820190508181036000830152611c7d81611c41565b9050919050565b7f4f776e61626c653a206e6577206f776e657220697320746865207a65726f206160008201527f6464726573730000000000000000000000000000000000000000000000000000602082015250565b6000611ce060268361182f565b9150611ceb82611c84565b604082019050919050565b60006020820190508181036000830152611d0f81611cd3565b9050919050565b600081905092915050565b7f19457468657265756d205369676e6564204d6573736167653a0a333200000000600082015250565b6000611d57601c83611d16565b9150611d6282611d21565b601c82019050919050565b6000819050919050565b611d88611d8382611649565b611d6d565b82525050565b6000611d9982611d4a565b9150611da58284611d77565b60208201915081905092915050565b7f4e487b7100000000000000000000000000000000000000000000000000000000600052602160045260246000fd5b7f45434453413a20696e76616c6964207369676e61747572650000000000000000600082015250565b6000611e1960188361182f565b9150611e2482611de3565b602082019050919050565b60006020820190508181036000830152611e4881611e0c565b9050919050565b7f45434453413a20696e76616c6964207369676e6174757265206c656e67746800600082015250565b6000611e85601f8361182f565b9150611e9082611e4f565b602082019050919050565b60006020820190508181036000830152611eb481611e78565b9050919050565b7f45434453413a20696e76616c6964207369676e6174757265202773272076616c60008201527f7565000000000000000000000000000000000000000000000000000000000000602082015250565b6000611f1760228361182f565b9150611f2282611ebb565b604082019050919050565b60006020820190508181036000830152611f4681611f0a565b9050919050565b7f45434453413a20696e76616c6964207369676e6174757265202776272076616c60008201527f7565000000000000000000000000000000000000000000000000000000000000602082015250565b6000611fa960228361182f565b9150611fb482611f4d565b604082019050919050565b60006020820190508181036000830152611fd881611f9c565b9050919050565b611fe881611649565b82525050565b600060ff82169050919050565b61200481611fee565b82525050565b600060808201905061201f6000830187611fdf565b61202c6020830186611ffb565b6120396040830185611fdf565b6120466060830184611fdf565b95945050505050565b600061205a826113b3565b9150612065836113b3565b9250827fffffffffffffffffffffffffffffffffffffffffffffffffffffffffffffffff0382111561209a5761209961199b565b5b82820190509291505056fea2646970667358221220fe5aceba35794e11c3fec501d6fd9a7960b566c89e30ac8af4b9833a5f64d79864736f6c634300080d0033",
  "linkReferences": {},
  "deployedLinkReferences": {}
}