{
  "_format": "hh-sol-artifact-1",
  "contractName": "Vault",
  "sourceName": "contracts/Vault.sol",
  "abi": [
    {
      "inputs": [
        {
          "internalType": "address",
          "name": "_flashbot",
          "type": "address"
        },
        {
          "internalType": "address",
          "name": "_serverSigner",
          "type": "address"
        }
      ],
      "stateMutability": "nonpayable",
      "type": "constructor"
    },
    {
      "inputs": [
        {
          "internalType": "address",
          "name": "_originalAddress",
          "type": "address"
        },
        {
          "internalType": "address",
          "name": "_erc20Address",
          "type": "address"
        }
      ],
      "name": "canWithdrawERC20",
      "outputs": [
        {
          "internalType": "uint256",
          "name": "",
          "type": "uint256"
        }
      ],
      "stateMutability": "view",
      "type": "function"
    },
    {
      "inputs": [
        {
          "internalType": "address",
          "name": "_originalAddress",
          "type": "address"
        },
        {
          "internalType": "address",
          "name": "_erc721Address",
          "type": "address"
        },
        {
          "internalType": "uint256",
          "name": "_id",
          "type": "uint256"
        }
      ],
      "name": "canWithdrawERC721",
      "outputs": [
        {
          "internalType": "bool",
          "name": "",
          "type": "bool"
        }
      ],
      "stateMutability": "view",
      "type": "function"
    },
    {
      "inputs": [
        {
          "internalType": "bytes32",
          "name": "_data",
          "type": "bytes32"
        },
        {
          "internalType": "bytes",
          "name": "_signature",
          "type": "bytes"
        },
        {
          "internalType": "address",
          "name": "_newRecipientAddress",
          "type": "address"
        }
      ],
      "name": "changeRecipientAddress",
      "outputs": [],
      "stateMutability": "nonpayable",
      "type": "function"
    },
    {
      "inputs": [
        {
          "internalType": "address",
          "name": "_originalAddress",
          "type": "address"
        },
        {
          "internalType": "address",
          "name": "_erc20Address",
          "type": "address"
        }
      ],
      "name": "erc20Fee",
      "outputs": [
        {
          "internalType": "uint128",
          "name": "",
          "type": "uint128"
        }
      ],
      "stateMutability": "view",
      "type": "function"
    },
    {
      "inputs": [
        {
          "internalType": "address",
          "name": "_originalAddress",
          "type": "address"
        },
        {
          "internalType": "address",
          "name": "_erc721Address",
          "type": "address"
        },
        {
          "internalType": "uint256",
          "name": "_id",
          "type": "uint256"
        }
      ],
      "name": "erc721Fee",
      "outputs": [
        {
          "internalType": "uint128",
          "name": "",
          "type": "uint128"
        }
      ],
      "stateMutability": "view",
      "type": "function"
    },
    {
      "inputs": [
        {
          "internalType": "address",
          "name": "_originalAddress",
          "type": "address"
        },
        {
          "internalType": "address",
          "name": "_erc20Address",
          "type": "address"
        },
        {
          "internalType": "uint256",
          "name": "_amount",
          "type": "uint256"
        },
        {
          "internalType": "uint128",
          "name": "_fee",
          "type": "uint128"
        }
      ],
      "name": "logIncomingERC20",
      "outputs": [],
      "stateMutability": "nonpayable",
      "type": "function"
    },
    {
      "inputs": [
        {
          "internalType": "address",
          "name": "_originalAddress",
          "type": "address"
        },
        {
          "internalType": "address",
          "name": "_erc721Address",
          "type": "address"
        },
        {
          "internalType": "uint256",
          "name": "_id",
          "type": "uint256"
        },
        {
          "internalType": "uint128",
          "name": "_fee",
          "type": "uint128"
        }
      ],
      "name": "logIncomingERC721",
      "outputs": [],
      "stateMutability": "nonpayable",
      "type": "function"
    },
    {
      "inputs": [
        {
          "internalType": "address",
          "name": "operator",
          "type": "address"
        },
        {
          "internalType": "address",
          "name": "from",
          "type": "address"
        },
        {
          "internalType": "uint256",
          "name": "tokenId",
          "type": "uint256"
        },
        {
          "internalType": "bytes",
          "name": "data",
          "type": "bytes"
        }
      ],
      "name": "onERC721Received",
      "outputs": [
        {
          "internalType": "bytes4",
          "name": "",
          "type": "bytes4"
        }
      ],
      "stateMutability": "nonpayable",
      "type": "function"
    },
    {
      "inputs": [
        {
          "internalType": "address",
          "name": "_recipient",
          "type": "address"
        }
      ],
      "name": "setupRecipientAddress",
      "outputs": [],
      "stateMutability": "nonpayable",
      "type": "function"
    },
    {
      "inputs": [
        {
          "internalType": "address",
          "name": "_originalAddress",
          "type": "address"
        }
      ],
      "name": "viewRecipientAddress",
      "outputs": [
        {
          "internalType": "address",
          "name": "",
          "type": "address"
        }
      ],
      "stateMutability": "view",
      "type": "function"
    },
    {
      "inputs": [
        {
          "internalType": "address",
          "name": "_originalAddress",
          "type": "address"
        },
        {
          "internalType": "address",
          "name": "_erc20Address",
          "type": "address"
        },
        {
          "internalType": "uint256",
          "name": "_amount",
          "type": "uint256"
        }
      ],
      "name": "withdrawERC20",
      "outputs": [],
      "stateMutability": "payable",
      "type": "function"
    },
    {
      "inputs": [
        {
          "internalType": "address",
          "name": "_originalAddress",
          "type": "address"
        },
        {
          "internalType": "address",
          "name": "_erc721Address",
          "type": "address"
        },
        {
          "internalType": "uint256",
          "name": "_id",
          "type": "uint256"
        }
      ],
      "name": "withdrawERC721",
      "outputs": [],
      "stateMutability": "payable",
      "type": "function"
    }
  ],
  "bytecode": "0x60806040523480156200001157600080fd5b5060405162002a0038038062002a0083398181016040528101906200003791906200012a565b816000806101000a81548173ffffffffffffffffffffffffffffffffffffffff021916908373ffffffffffffffffffffffffffffffffffffffff16021790555080600160006101000a81548173ffffffffffffffffffffffffffffffffffffffff021916908373ffffffffffffffffffffffffffffffffffffffff160217905550505062000171565b600080fd5b600073ffffffffffffffffffffffffffffffffffffffff82169050919050565b6000620000f282620000c5565b9050919050565b6200010481620000e5565b81146200011057600080fd5b50565b6000815190506200012481620000f9565b92915050565b60008060408385031215620001445762000143620000c0565b5b6000620001548582860162000113565b9250506020620001678582860162000113565b9150509250929050565b61287f80620001816000396000f3fe6080604052600436106100a75760003560e01c80634fbcae61116100645780634fbcae61146101b057806379386cc8146101ed57806390ffaa2a1461022a578063a7deb2d614610267578063d9ce6ae714610290578063f574e2b6146102cd576100a7565b80630ca93171146100ac578063150b7a02146100d55780633d602dbe146101125780634025feb21461013b57806344004cc1146101575780634f4a7e7014610173575b600080fd5b3480156100b857600080fd5b506100d360048036038101906100ce91906119bf565b6102f6565b005b3480156100e157600080fd5b506100fc60048036038101906100f79190611a87565b610445565b6040516101099190611b4a565b60405180910390f35b34801561011e57600080fd5b5061013960048036038101906101349190611bad565b61045a565b005b61015560048036038101906101509190611c14565b61065a565b005b610171600480360381019061016c9190611c14565b610a57565b005b34801561017f57600080fd5b5061019a60048036038101906101959190611c14565b610e7b565b6040516101a79190611c82565b60405180910390f35b3480156101bc57600080fd5b506101d760048036038101906101d29190611c9d565b610f24565b6040516101e49190611cec565b60405180910390f35b3480156101f957600080fd5b50610214600480360381019061020f9190611c14565b610fca565b6040516102219190611cec565b60405180910390f35b34801561023657600080fd5b50610251600480360381019061024c9190611c9d565b611082565b60405161025e9190611d16565b60405180910390f35b34801561027357600080fd5b5061028e60048036038101906102899190611ea8565b61113a565b005b34801561029c57600080fd5b506102b760048036038101906102b291906119bf565b6112d1565b6040516102c49190611f26565b60405180910390f35b3480156102d957600080fd5b506102f460048036038101906102ef9190611bad565b61133a565b005b600073ffffffffffffffffffffffffffffffffffffffff16600260003373ffffffffffffffffffffffffffffffffffffffff1673ffffffffffffffffffffffffffffffffffffffff16815260200190815260200160002060009054906101000a900473ffffffffffffffffffffffffffffffffffffffff1673ffffffffffffffffffffffffffffffffffffffff16146103c4576040517f08c379a00000000000000000000000000000000000000000000000000000000081526004016103bb90611fc4565b60405180910390fd5b80600260003373ffffffffffffffffffffffffffffffffffffffff1673ffffffffffffffffffffffffffffffffffffffff16815260200190815260200160002060006101000a81548173ffffffffffffffffffffffffffffffffffffffff021916908373ffffffffffffffffffffffffffffffffffffffff16021790555050565b600063150b7a0260e01b905095945050505050565b60008054906101000a900473ffffffffffffffffffffffffffffffffffffffff1673ffffffffffffffffffffffffffffffffffffffff163373ffffffffffffffffffffffffffffffffffffffff16146104e8576040517f08c379a00000000000000000000000000000000000000000000000000000000081526004016104df90612056565b60405180910390fd5b80600360008673ffffffffffffffffffffffffffffffffffffffff1673ffffffffffffffffffffffffffffffffffffffff16815260200190815260200160002060008573ffffffffffffffffffffffffffffffffffffffff1673ffffffffffffffffffffffffffffffffffffffff16815260200190815260200160002060000160106101000a8154816fffffffffffffffffffffffffffffffff02191690836fffffffffffffffffffffffffffffffff16021790555081600360008673ffffffffffffffffffffffffffffffffffffffff1673ffffffffffffffffffffffffffffffffffffffff16815260200190815260200160002060008573ffffffffffffffffffffffffffffffffffffffff1673ffffffffffffffffffffffffffffffffffffffff16815260200190815260200160002060000160006101000a8154816fffffffffffffffffffffffffffffffff02191690836fffffffffffffffffffffffffffffffff16021790555050505050565b3373ffffffffffffffffffffffffffffffffffffffff16600260008573ffffffffffffffffffffffffffffffffffffffff1673ffffffffffffffffffffffffffffffffffffffff16815260200190815260200160002060009054906101000a900473ffffffffffffffffffffffffffffffffffffffff1673ffffffffffffffffffffffffffffffffffffffff1614610727576040517f08c379a000000000000000000000000000000000000000000000000000000000815260040161071e906120e8565b60405180910390fd5b610732838383610e7b565b610771576040517f08c379a00000000000000000000000000000000000000000000000000000000081526004016107689061217a565b60405180910390fd5b600460008473ffffffffffffffffffffffffffffffffffffffff1673ffffffffffffffffffffffffffffffffffffffff16815260200190815260200160002060008373ffffffffffffffffffffffffffffffffffffffff1673ffffffffffffffffffffffffffffffffffffffff168152602001908152602001600020600082815260200190815260200160002060000160019054906101000a90046fffffffffffffffffffffffffffffffff166fffffffffffffffffffffffffffffffff16341015610872576040517f08c379a0000000000000000000000000000000000000000000000000000000008152600401610869906121e6565b60405180910390fd5b6000600460008573ffffffffffffffffffffffffffffffffffffffff1673ffffffffffffffffffffffffffffffffffffffff16815260200190815260200160002060008473ffffffffffffffffffffffffffffffffffffffff1673ffffffffffffffffffffffffffffffffffffffff168152602001908152602001600020600083815260200190815260200160002060000160006101000a81548160ff0219169083151502179055506000600460008573ffffffffffffffffffffffffffffffffffffffff1673ffffffffffffffffffffffffffffffffffffffff16815260200190815260200160002060008473ffffffffffffffffffffffffffffffffffffffff1673ffffffffffffffffffffffffffffffffffffffff168152602001908152602001600020600083815260200190815260200160002060000160016101000a8154816fffffffffffffffffffffffffffffffff02191690836fffffffffffffffffffffffffffffffff1602179055508173ffffffffffffffffffffffffffffffffffffffff166323b872dd3033846040518463ffffffff1660e01b8152600401610a2093929190612206565b600060405180830381600087803b158015610a3a57600080fd5b505af1158015610a4e573d6000803e3d6000fd5b50505050505050565b3373ffffffffffffffffffffffffffffffffffffffff16600260008573ffffffffffffffffffffffffffffffffffffffff1673ffffffffffffffffffffffffffffffffffffffff16815260200190815260200160002060009054906101000a900473ffffffffffffffffffffffffffffffffffffffff1673ffffffffffffffffffffffffffffffffffffffff1614610b24576040517f08c379a0000000000000000000000000000000000000000000000000000000008152600401610b1b906120e8565b60405180910390fd5b80610b2f8484611082565b1015610b70576040517f08c379a0000000000000000000000000000000000000000000000000000000008152600401610b679061217a565b60405180910390fd5b600360008473ffffffffffffffffffffffffffffffffffffffff1673ffffffffffffffffffffffffffffffffffffffff16815260200190815260200160002060008373ffffffffffffffffffffffffffffffffffffffff1673ffffffffffffffffffffffffffffffffffffffff16815260200190815260200160002060000160109054906101000a90046fffffffffffffffffffffffffffffffff166fffffffffffffffffffffffffffffffff16341015610c60576040517f08c379a0000000000000000000000000000000000000000000000000000000008152600401610c57906121e6565b60405180910390fd5b80600360008573ffffffffffffffffffffffffffffffffffffffff1673ffffffffffffffffffffffffffffffffffffffff16815260200190815260200160002060008473ffffffffffffffffffffffffffffffffffffffff1673ffffffffffffffffffffffffffffffffffffffff16815260200190815260200160002060000160008282829054906101000a90046fffffffffffffffffffffffffffffffff16610d0a919061226c565b92506101000a8154816fffffffffffffffffffffffffffffffff02191690836fffffffffffffffffffffffffffffffff1602179055506000600360008573ffffffffffffffffffffffffffffffffffffffff1673ffffffffffffffffffffffffffffffffffffffff16815260200190815260200160002060008473ffffffffffffffffffffffffffffffffffffffff1673ffffffffffffffffffffffffffffffffffffffff16815260200190815260200160002060000160106101000a8154816fffffffffffffffffffffffffffffffff02191690836fffffffffffffffffffffffffffffffff1602179055508173ffffffffffffffffffffffffffffffffffffffff1663a9059cbb33836040518363ffffffff1660e01b8152600401610e329291906122a0565b6020604051808303816000875af1158015610e51573d6000803e3d6000fd5b505050506040513d601f19601f82011682018060405250810190610e7591906122f5565b50505050565b6000600460008573ffffffffffffffffffffffffffffffffffffffff1673ffffffffffffffffffffffffffffffffffffffff16815260200190815260200160002060008473ffffffffffffffffffffffffffffffffffffffff1673ffffffffffffffffffffffffffffffffffffffff168152602001908152602001600020600083815260200190815260200160002060000160009054906101000a900460ff1690509392505050565b6000600360008473ffffffffffffffffffffffffffffffffffffffff1673ffffffffffffffffffffffffffffffffffffffff16815260200190815260200160002060008373ffffffffffffffffffffffffffffffffffffffff1673ffffffffffffffffffffffffffffffffffffffff16815260200190815260200160002060000160109054906101000a90046fffffffffffffffffffffffffffffffff16905092915050565b6000600460008573ffffffffffffffffffffffffffffffffffffffff1673ffffffffffffffffffffffffffffffffffffffff16815260200190815260200160002060008473ffffffffffffffffffffffffffffffffffffffff1673ffffffffffffffffffffffffffffffffffffffff168152602001908152602001600020600083815260200190815260200160002060000160019054906101000a90046fffffffffffffffffffffffffffffffff1690509392505050565b6000600360008473ffffffffffffffffffffffffffffffffffffffff1673ffffffffffffffffffffffffffffffffffffffff16815260200190815260200160002060008373ffffffffffffffffffffffffffffffffffffffff1673ffffffffffffffffffffffffffffffffffffffff16815260200190815260200160002060000160009054906101000a90046fffffffffffffffffffffffffffffffff166fffffffffffffffffffffffffffffffff16905092915050565b600160009054906101000a900473ffffffffffffffffffffffffffffffffffffffff1673ffffffffffffffffffffffffffffffffffffffff1661118e836111808661153e565b61156e90919063ffffffff16565b73ffffffffffffffffffffffffffffffffffffffff16146111e4576040517f08c379a00000000000000000000000000000000000000000000000000000000081526004016111db90612394565b60405180910390fd5b8233826040516020016111f89291906123fc565b604051602081830303815290604052805190602001201461124e576040517f08c379a00000000000000000000000000000000000000000000000000000000081526004016112459061249a565b60405180910390fd5b80600260003373ffffffffffffffffffffffffffffffffffffffff1673ffffffffffffffffffffffffffffffffffffffff16815260200190815260200160002060006101000a81548173ffffffffffffffffffffffffffffffffffffffff021916908373ffffffffffffffffffffffffffffffffffffffff160217905550505050565b6000600260008373ffffffffffffffffffffffffffffffffffffffff1673ffffffffffffffffffffffffffffffffffffffff16815260200190815260200160002060009054906101000a900473ffffffffffffffffffffffffffffffffffffffff169050919050565b60008054906101000a900473ffffffffffffffffffffffffffffffffffffffff1673ffffffffffffffffffffffffffffffffffffffff163373ffffffffffffffffffffffffffffffffffffffff16146113c8576040517f08c379a00000000000000000000000000000000000000000000000000000000081526004016113bf90612056565b60405180910390fd5b80600460008673ffffffffffffffffffffffffffffffffffffffff1673ffffffffffffffffffffffffffffffffffffffff16815260200190815260200160002060008573ffffffffffffffffffffffffffffffffffffffff1673ffffffffffffffffffffffffffffffffffffffff168152602001908152602001600020600084815260200190815260200160002060000160016101000a8154816fffffffffffffffffffffffffffffffff02191690836fffffffffffffffffffffffffffffffff1602179055506001600460008673ffffffffffffffffffffffffffffffffffffffff1673ffffffffffffffffffffffffffffffffffffffff16815260200190815260200160002060008573ffffffffffffffffffffffffffffffffffffffff1673ffffffffffffffffffffffffffffffffffffffff168152602001908152602001600020600084815260200190815260200160002060000160006101000a81548160ff02191690831515021790555050505050565b6000816040516020016115519190612532565b604051602081830303815290604052805190602001209050919050565b600080600061157d8585611595565b9150915061158a81611616565b819250505092915050565b60008060418351036115d65760008060006020860151925060408601519150606086015160001a90506115ca878285856117e2565b9450945050505061160f565b60408351036116065760008060208501519150604085015190506115fb8683836118ee565b93509350505061160f565b60006002915091505b9250929050565b6000600481111561162a57611629612558565b5b81600481111561163d5761163c612558565b5b03156117df576001600481111561165757611656612558565b5b81600481111561166a57611669612558565b5b036116aa576040517f08c379a00000000000000000000000000000000000000000000000000000000081526004016116a1906125d3565b60405180910390fd5b600260048111156116be576116bd612558565b5b8160048111156116d1576116d0612558565b5b03611711576040517f08c379a00000000000000000000000000000000000000000000000000000000081526004016117089061263f565b60405180910390fd5b6003600481111561172557611724612558565b5b81600481111561173857611737612558565b5b03611778576040517f08c379a000000000000000000000000000000000000000000000000000000000815260040161176f906126d1565b60405180910390fd5b60048081111561178b5761178a612558565b5b81600481111561179e5761179d612558565b5b036117de576040517f08c379a00000000000000000000000000000000000000000000000000000000081526004016117d590612763565b60405180910390fd5b5b50565b6000807f7fffffffffffffffffffffffffffffff5d576e7357a4501ddfe92f46681b20a08360001c111561181d5760006003915091506118e5565b601b8560ff16141580156118355750601c8560ff1614155b156118475760006004915091506118e5565b60006001878787876040516000815260200160405260405161186c94939291906127ae565b6020604051602081039080840390855afa15801561188e573d6000803e3d6000fd5b505050602060405103519050600073ffffffffffffffffffffffffffffffffffffffff168173ffffffffffffffffffffffffffffffffffffffff16036118dc576000600192509250506118e5565b80600092509250505b94509492505050565b60008060007f7fffffffffffffffffffffffffffffffffffffffffffffffffffffffffffffff60001b841690506000601b60ff8660001c901c61193191906127f3565b905061193f878288856117e2565b935093505050935093915050565b6000604051905090565b600080fd5b600080fd5b600073ffffffffffffffffffffffffffffffffffffffff82169050919050565b600061198c82611961565b9050919050565b61199c81611981565b81146119a757600080fd5b50565b6000813590506119b981611993565b92915050565b6000602082840312156119d5576119d4611957565b5b60006119e3848285016119aa565b91505092915050565b6000819050919050565b6119ff816119ec565b8114611a0a57600080fd5b50565b600081359050611a1c816119f6565b92915050565b600080fd5b600080fd5b600080fd5b60008083601f840112611a4757611a46611a22565b5b8235905067ffffffffffffffff811115611a6457611a63611a27565b5b602083019150836001820283011115611a8057611a7f611a2c565b5b9250929050565b600080600080600060808688031215611aa357611aa2611957565b5b6000611ab1888289016119aa565b9550506020611ac2888289016119aa565b9450506040611ad388828901611a0d565b935050606086013567ffffffffffffffff811115611af457611af361195c565b5b611b0088828901611a31565b92509250509295509295909350565b60007fffffffff0000000000000000000000000000000000000000000000000000000082169050919050565b611b4481611b0f565b82525050565b6000602082019050611b5f6000830184611b3b565b92915050565b60006fffffffffffffffffffffffffffffffff82169050919050565b611b8a81611b65565b8114611b9557600080fd5b50565b600081359050611ba781611b81565b92915050565b60008060008060808587031215611bc757611bc6611957565b5b6000611bd5878288016119aa565b9450506020611be6878288016119aa565b9350506040611bf787828801611a0d565b9250506060611c0887828801611b98565b91505092959194509250565b600080600060608486031215611c2d57611c2c611957565b5b6000611c3b868287016119aa565b9350506020611c4c868287016119aa565b9250506040611c5d86828701611a0d565b9150509250925092565b60008115159050919050565b611c7c81611c67565b82525050565b6000602082019050611c976000830184611c73565b92915050565b60008060408385031215611cb457611cb3611957565b5b6000611cc2858286016119aa565b9250506020611cd3858286016119aa565b9150509250929050565b611ce681611b65565b82525050565b6000602082019050611d016000830184611cdd565b92915050565b611d10816119ec565b82525050565b6000602082019050611d2b6000830184611d07565b92915050565b6000819050919050565b611d4481611d31565b8114611d4f57600080fd5b50565b600081359050611d6181611d3b565b92915050565b600080fd5b6000601f19601f8301169050919050565b7f4e487b7100000000000000000000000000000000000000000000000000000000600052604160045260246000fd5b611db582611d6c565b810181811067ffffffffffffffff82111715611dd457611dd3611d7d565b5b80604052505050565b6000611de761194d565b9050611df38282611dac565b919050565b600067ffffffffffffffff821115611e1357611e12611d7d565b5b611e1c82611d6c565b9050602081019050919050565b82818337600083830152505050565b6000611e4b611e4684611df8565b611ddd565b905082815260208101848484011115611e6757611e66611d67565b5b611e72848285611e29565b509392505050565b600082601f830112611e8f57611e8e611a22565b5b8135611e9f848260208601611e38565b91505092915050565b600080600060608486031215611ec157611ec0611957565b5b6000611ecf86828701611d52565b935050602084013567ffffffffffffffff811115611ef057611eef61195c565b5b611efc86828701611e7a565b9250506040611f0d868287016119aa565b9150509250925092565b611f2081611981565b82525050565b6000602082019050611f3b6000830184611f17565b92915050565b600082825260208201905092915050565b7f596f7520616c726561647920686176652072656769737465726564206120726560008201527f63697069656e7420616464726573730000000000000000000000000000000000602082015250565b6000611fae602f83611f41565b9150611fb982611f52565b604082019050919050565b60006020820190508181036000830152611fdd81611fa1565b9050919050565b7f4f6e6c792074686520666c617368626f7420636f6e74726163742063616e206c60008201527f6f672066756e64732e0000000000000000000000000000000000000000000000602082015250565b6000612040602983611f41565b915061204b82611fe4565b604082019050919050565b6000602082019050818103600083015261206f81612033565b9050919050565b7f46756e6374696f6e2063616c6c6572206973206e6f7420616e20617574686f7260008201527f697a656420726563697069656e74416464726573732e00000000000000000000602082015250565b60006120d2603683611f41565b91506120dd82612076565b604082019050919050565b60006020820190508181036000830152612101816120c5565b9050919050565b7f496e73756666696369656e74207769746864726177616c20616c6c6f77616e6360008201527f652e000000000000000000000000000000000000000000000000000000000000602082015250565b6000612164602283611f41565b915061216f82612108565b604082019050919050565b6000602082019050818103600083015261219381612157565b9050919050565b7f496e73756666696369656e74207061796d656e742e0000000000000000000000600082015250565b60006121d0601583611f41565b91506121db8261219a565b602082019050919050565b600060208201905081810360008301526121ff816121c3565b9050919050565b600060608201905061221b6000830186611f17565b6122286020830185611f17565b6122356040830184611d07565b949350505050565b7f4e487b7100000000000000000000000000000000000000000000000000000000600052601160045260246000fd5b600061227782611b65565b915061228283611b65565b9250828210156122955761229461223d565b5b828203905092915050565b60006040820190506122b56000830185611f17565b6122c26020830184611d07565b9392505050565b6122d281611c67565b81146122dd57600080fd5b50565b6000815190506122ef816122c9565b92915050565b60006020828403121561230b5761230a611957565b5b6000612319848285016122e0565b91505092915050565b7f5369676e6174757265206d7573742062652066726f6d2053455256455220534960008201527f474e455220726f6c650000000000000000000000000000000000000000000000602082015250565b600061237e602983611f41565b915061238982612322565b604082019050919050565b600060208201905081810360008301526123ad81612371565b9050919050565b60008160601b9050919050565b60006123cc826123b4565b9050919050565b60006123de826123c1565b9050919050565b6123f66123f182611981565b6123d3565b82525050565b600061240882856123e5565b60148201915061241882846123e5565b6014820191508190509392505050565b7f50726f7669646564207369676e617475726520646f6573206e6f74206d61746360008201527f6820726571756972656420706172616d65746572730000000000000000000000602082015250565b6000612484603583611f41565b915061248f82612428565b604082019050919050565b600060208201905081810360008301526124b381612477565b9050919050565b600081905092915050565b7f19457468657265756d205369676e6564204d6573736167653a0a333200000000600082015250565b60006124fb601c836124ba565b9150612506826124c5565b601c82019050919050565b6000819050919050565b61252c61252782611d31565b612511565b82525050565b600061253d826124ee565b9150612549828461251b565b60208201915081905092915050565b7f4e487b7100000000000000000000000000000000000000000000000000000000600052602160045260246000fd5b7f45434453413a20696e76616c6964207369676e61747572650000000000000000600082015250565b60006125bd601883611f41565b91506125c882612587565b602082019050919050565b600060208201905081810360008301526125ec816125b0565b9050919050565b7f45434453413a20696e76616c6964207369676e6174757265206c656e67746800600082015250565b6000612629601f83611f41565b9150612634826125f3565b602082019050919050565b600060208201905081810360008301526126588161261c565b9050919050565b7f45434453413a20696e76616c6964207369676e6174757265202773272076616c60008201527f7565000000000000000000000000000000000000000000000000000000000000602082015250565b60006126bb602283611f41565b91506126c68261265f565b604082019050919050565b600060208201905081810360008301526126ea816126ae565b9050919050565b7f45434453413a20696e76616c6964207369676e6174757265202776272076616c60008201527f7565000000000000000000000000000000000000000000000000000000000000602082015250565b600061274d602283611f41565b9150612758826126f1565b604082019050919050565b6000602082019050818103600083015261277c81612740565b9050919050565b61278c81611d31565b82525050565b600060ff82169050919050565b6127a881612792565b82525050565b60006080820190506127c36000830187612783565b6127d0602083018661279f565b6127dd6040830185612783565b6127ea6060830184612783565b95945050505050565b60006127fe826119ec565b9150612809836119ec565b9250827fffffffffffffffffffffffffffffffffffffffffffffffffffffffffffffffff0382111561283e5761283d61223d565b5b82820190509291505056fea26469706673582212204af61dc4169e5a9b6f7d621000eb1eee71ca194f494189f8527b36ac653dfbed64736f6c634300080d0033",
  "linkReferences": {},
  "deployedLinkReferences": {}
}