{
  "_format": "hh-sol-artifact-1",
  "contractName": "Vault",
  "sourceName": "contracts/Vault.sol",
  "abi": [
    {
      "inputs": [
        {
          "internalType": "address",
          "name": "_flashbot",
          "type": "address"
        },
        {
          "internalType": "address",
          "name": "_serverSigner",
          "type": "address"
        },
        {
          "internalType": "address payable",
          "name": "_feeController",
          "type": "address"
        }
      ],
      "stateMutability": "nonpayable",
      "type": "constructor"
    },
    {
      "inputs": [
        {
          "internalType": "address",
          "name": "_originalAddress",
          "type": "address"
        },
        {
          "internalType": "address",
          "name": "_erc20Address",
          "type": "address"
        }
      ],
      "name": "canWithdrawERC20",
      "outputs": [
        {
          "internalType": "uint256",
          "name": "",
          "type": "uint256"
        }
      ],
      "stateMutability": "view",
      "type": "function"
    },
    {
      "inputs": [
        {
          "internalType": "address",
          "name": "_originalAddress",
          "type": "address"
        },
        {
          "internalType": "address",
          "name": "_erc721Address",
          "type": "address"
        },
        {
          "internalType": "uint256",
          "name": "_id",
          "type": "uint256"
        }
      ],
      "name": "canWithdrawERC721",
      "outputs": [
        {
          "internalType": "bool",
          "name": "",
          "type": "bool"
        }
      ],
      "stateMutability": "view",
      "type": "function"
    },
    {
      "inputs": [
        {
          "internalType": "address payable",
          "name": "_newFeeController",
          "type": "address"
        }
      ],
      "name": "changeFeeController",
      "outputs": [],
      "stateMutability": "nonpayable",
      "type": "function"
    },
    {
      "inputs": [
        {
          "internalType": "bytes32",
          "name": "_data",
          "type": "bytes32"
        },
        {
          "internalType": "bytes",
          "name": "_signature",
          "type": "bytes"
        },
        {
          "internalType": "address",
          "name": "_newRecipientAddress",
          "type": "address"
        }
      ],
      "name": "changeRecipientAddress",
      "outputs": [],
      "stateMutability": "nonpayable",
      "type": "function"
    },
    {
      "inputs": [
        {
          "internalType": "address",
          "name": "_originalAddress",
          "type": "address"
        },
        {
          "internalType": "address",
          "name": "_erc20Address",
          "type": "address"
        }
      ],
      "name": "erc20Fee",
      "outputs": [
        {
          "internalType": "uint128",
          "name": "",
          "type": "uint128"
        }
      ],
      "stateMutability": "view",
      "type": "function"
    },
    {
      "inputs": [
        {
          "internalType": "address",
          "name": "_originalAddress",
          "type": "address"
        },
        {
          "internalType": "address",
          "name": "_erc721Address",
          "type": "address"
        },
        {
          "internalType": "uint256",
          "name": "_id",
          "type": "uint256"
        }
      ],
      "name": "erc721Fee",
      "outputs": [
        {
          "internalType": "uint128",
          "name": "",
          "type": "uint128"
        }
      ],
      "stateMutability": "view",
      "type": "function"
    },
    {
      "inputs": [
        {
          "internalType": "address",
          "name": "_originalAddress",
          "type": "address"
        },
        {
          "internalType": "address",
          "name": "_erc20Address",
          "type": "address"
        },
        {
          "internalType": "uint256",
          "name": "_amount",
          "type": "uint256"
        },
        {
          "internalType": "uint128",
          "name": "_fee",
          "type": "uint128"
        }
      ],
      "name": "logIncomingERC20",
      "outputs": [],
      "stateMutability": "nonpayable",
      "type": "function"
    },
    {
      "inputs": [
        {
          "internalType": "address",
          "name": "_originalAddress",
          "type": "address"
        },
        {
          "internalType": "address",
          "name": "_erc721Address",
          "type": "address"
        },
        {
          "internalType": "uint256",
          "name": "_id",
          "type": "uint256"
        },
        {
          "internalType": "uint128",
          "name": "_fee",
          "type": "uint128"
        }
      ],
      "name": "logIncomingERC721",
      "outputs": [],
      "stateMutability": "nonpayable",
      "type": "function"
    },
    {
      "inputs": [
        {
          "internalType": "address",
          "name": "operator",
          "type": "address"
        },
        {
          "internalType": "address",
          "name": "from",
          "type": "address"
        },
        {
          "internalType": "uint256",
          "name": "tokenId",
          "type": "uint256"
        },
        {
          "internalType": "bytes",
          "name": "data",
          "type": "bytes"
        }
      ],
      "name": "onERC721Received",
      "outputs": [
        {
          "internalType": "bytes4",
          "name": "",
          "type": "bytes4"
        }
      ],
      "stateMutability": "nonpayable",
      "type": "function"
    },
    {
      "inputs": [
        {
          "internalType": "address",
          "name": "_originalAddress",
          "type": "address"
        },
        {
          "internalType": "address",
          "name": "_erc20Address",
          "type": "address"
        },
        {
          "internalType": "uint128",
          "name": "_reduceBy",
          "type": "uint128"
        }
      ],
      "name": "reduceERC20Fee",
      "outputs": [
        {
          "internalType": "uint128",
          "name": "",
          "type": "uint128"
        }
      ],
      "stateMutability": "nonpayable",
      "type": "function"
    },
    {
      "inputs": [
        {
          "internalType": "address",
          "name": "_originalAddress",
          "type": "address"
        },
        {
          "internalType": "address",
          "name": "_erc721Address",
          "type": "address"
        },
        {
          "internalType": "uint128",
          "name": "_id",
          "type": "uint128"
        },
        {
          "internalType": "uint128",
          "name": "_reduceBy",
          "type": "uint128"
        }
      ],
      "name": "reduceERC721Fee",
      "outputs": [
        {
          "internalType": "uint128",
          "name": "",
          "type": "uint128"
        }
      ],
      "stateMutability": "nonpayable",
      "type": "function"
    },
    {
      "inputs": [
        {
          "internalType": "address",
          "name": "_recipient",
          "type": "address"
        }
      ],
      "name": "setupRecipientAddress",
      "outputs": [],
      "stateMutability": "nonpayable",
      "type": "function"
    },
    {
      "inputs": [
        {
          "internalType": "address",
          "name": "_originalAddress",
          "type": "address"
        }
      ],
      "name": "viewRecipientAddress",
      "outputs": [
        {
          "internalType": "address",
          "name": "",
          "type": "address"
        }
      ],
      "stateMutability": "view",
      "type": "function"
    },
    {
      "inputs": [
        {
          "internalType": "address",
          "name": "_originalAddress",
          "type": "address"
        },
        {
          "internalType": "address",
          "name": "_erc20Address",
          "type": "address"
        },
        {
          "internalType": "uint256",
          "name": "_amount",
          "type": "uint256"
        }
      ],
      "name": "withdrawERC20",
      "outputs": [],
      "stateMutability": "payable",
      "type": "function"
    },
    {
      "inputs": [
        {
          "internalType": "address",
          "name": "_originalAddress",
          "type": "address"
        },
        {
          "internalType": "address",
          "name": "_erc721Address",
          "type": "address"
        },
        {
          "internalType": "uint256",
          "name": "_id",
          "type": "uint256"
        }
      ],
      "name": "withdrawERC721",
      "outputs": [],
      "stateMutability": "payable",
      "type": "function"
    },
    {
      "inputs": [
        {
          "internalType": "uint256",
          "name": "_amount",
          "type": "uint256"
        }
      ],
      "name": "withdrawPayments",
      "outputs": [],
      "stateMutability": "nonpayable",
      "type": "function"
    }
  ],
  "bytecode": "0x60806040523480156200001157600080fd5b506040516200376b3803806200376b8339818101604052810190620000379190620001b1565b826000806101000a81548173ffffffffffffffffffffffffffffffffffffffff021916908373ffffffffffffffffffffffffffffffffffffffff16021790555081600160006101000a81548173ffffffffffffffffffffffffffffffffffffffff021916908373ffffffffffffffffffffffffffffffffffffffff16021790555080600260006101000a81548173ffffffffffffffffffffffffffffffffffffffff021916908373ffffffffffffffffffffffffffffffffffffffff1602179055505050506200020d565b600080fd5b600073ffffffffffffffffffffffffffffffffffffffff82169050919050565b6000620001348262000107565b9050919050565b620001468162000127565b81146200015257600080fd5b50565b60008151905062000166816200013b565b92915050565b6000620001798262000107565b9050919050565b6200018b816200016c565b81146200019757600080fd5b50565b600081519050620001ab8162000180565b92915050565b600080600060608486031215620001cd57620001cc62000102565b5b6000620001dd8682870162000155565b9350506020620001f08682870162000155565b925050604062000203868287016200019a565b9150509250925092565b61354e806200021d6000396000f3fe6080604052600436106100f35760003560e01c80634fbcae611161008a578063a7deb2d611610059578063a7deb2d614610356578063c5b2ae7a1461037f578063d9ce6ae7146103a8578063f574e2b6146103e5576100f3565b80634fbcae611461026257806377d955b51461029f57806379386cc8146102dc57806390ffaa2a14610319576100f3565b80634025feb2116100c65780634025feb2146101c457806341975af8146101e057806344004cc1146102095780634f4a7e7014610225576100f3565b806309c0e14f146100f85780630ca9317114610135578063150b7a021461015e5780633d602dbe1461019b575b600080fd5b34801561010457600080fd5b5061011f600480360381019061011a91906123ce565b61040e565b60405161012c9190612430565b60405180910390f35b34801561014157600080fd5b5061015c6004803603810190610157919061244b565b610727565b005b34801561016a57600080fd5b5061018560048036038101906101809190612513565b610876565b60405161019291906125d6565b60405180910390f35b3480156101a757600080fd5b506101c260048036038101906101bd91906125f1565b61088b565b005b6101de60048036038101906101d99190612658565b610a8b565b005b3480156101ec57600080fd5b50610207600480360381019061020291906126ab565b610e88565b005b610223600480360381019061021e9190612658565b610fc7565b005b34801561023157600080fd5b5061024c60048036038101906102479190612658565b6113eb565b60405161025991906126f3565b60405180910390f35b34801561026e57600080fd5b506102896004803603810190610284919061270e565b611494565b6040516102969190612430565b60405180910390f35b3480156102ab57600080fd5b506102c660048036038101906102c1919061274e565b61153a565b6040516102d39190612430565b60405180910390f35b3480156102e857600080fd5b5061030360048036038101906102fe9190612658565b6118bd565b6040516103109190612430565b60405180910390f35b34801561032557600080fd5b50610340600480360381019061033b919061270e565b611975565b60405161034d91906127c4565b60405180910390f35b34801561036257600080fd5b5061037d60048036038101906103789190612956565b611a2d565b005b34801561038b57600080fd5b506103a660048036038101906103a19190612a03565b611bc4565b005b3480156103b457600080fd5b506103cf60048036038101906103ca919061244b565b611c98565b6040516103dc9190612a3f565b60405180910390f35b3480156103f157600080fd5b5061040c600480360381019061040791906125f1565b611d01565b005b6000600260009054906101000a900473ffffffffffffffffffffffffffffffffffffffff1673ffffffffffffffffffffffffffffffffffffffff163373ffffffffffffffffffffffffffffffffffffffff16146104a0576040517f08c379a000000000000000000000000000000000000000000000000000000000815260040161049790612add565b60405180910390fd5b816fffffffffffffffffffffffffffffffff16600460008673ffffffffffffffffffffffffffffffffffffffff1673ffffffffffffffffffffffffffffffffffffffff16815260200190815260200160002060008573ffffffffffffffffffffffffffffffffffffffff1673ffffffffffffffffffffffffffffffffffffffff16815260200190815260200160002060000160109054906101000a90046fffffffffffffffffffffffffffffffff166fffffffffffffffffffffffffffffffff1610156105a2576040517f08c379a000000000000000000000000000000000000000000000000000000000815260040161059990612b6f565b60405180910390fd5b81600460008673ffffffffffffffffffffffffffffffffffffffff1673ffffffffffffffffffffffffffffffffffffffff16815260200190815260200160002060008573ffffffffffffffffffffffffffffffffffffffff1673ffffffffffffffffffffffffffffffffffffffff16815260200190815260200160002060000160108282829054906101000a90046fffffffffffffffffffffffffffffffff1661064c9190612bbe565b92506101000a8154816fffffffffffffffffffffffffffffffff02191690836fffffffffffffffffffffffffffffffff160217905550600460008573ffffffffffffffffffffffffffffffffffffffff1673ffffffffffffffffffffffffffffffffffffffff16815260200190815260200160002060008473ffffffffffffffffffffffffffffffffffffffff1673ffffffffffffffffffffffffffffffffffffffff16815260200190815260200160002060000160109054906101000a90046fffffffffffffffffffffffffffffffff1690509392505050565b600073ffffffffffffffffffffffffffffffffffffffff16600360003373ffffffffffffffffffffffffffffffffffffffff1673ffffffffffffffffffffffffffffffffffffffff16815260200190815260200160002060009054906101000a900473ffffffffffffffffffffffffffffffffffffffff1673ffffffffffffffffffffffffffffffffffffffff16146107f5576040517f08c379a00000000000000000000000000000000000000000000000000000000081526004016107ec90612c64565b60405180910390fd5b80600360003373ffffffffffffffffffffffffffffffffffffffff1673ffffffffffffffffffffffffffffffffffffffff16815260200190815260200160002060006101000a81548173ffffffffffffffffffffffffffffffffffffffff021916908373ffffffffffffffffffffffffffffffffffffffff16021790555050565b600063150b7a0260e01b905095945050505050565b60008054906101000a900473ffffffffffffffffffffffffffffffffffffffff1673ffffffffffffffffffffffffffffffffffffffff163373ffffffffffffffffffffffffffffffffffffffff1614610919576040517f08c379a000000000000000000000000000000000000000000000000000000000815260040161091090612cf6565b60405180910390fd5b80600460008673ffffffffffffffffffffffffffffffffffffffff1673ffffffffffffffffffffffffffffffffffffffff16815260200190815260200160002060008573ffffffffffffffffffffffffffffffffffffffff1673ffffffffffffffffffffffffffffffffffffffff16815260200190815260200160002060000160106101000a8154816fffffffffffffffffffffffffffffffff02191690836fffffffffffffffffffffffffffffffff16021790555081600460008673ffffffffffffffffffffffffffffffffffffffff1673ffffffffffffffffffffffffffffffffffffffff16815260200190815260200160002060008573ffffffffffffffffffffffffffffffffffffffff1673ffffffffffffffffffffffffffffffffffffffff16815260200190815260200160002060000160006101000a8154816fffffffffffffffffffffffffffffffff02191690836fffffffffffffffffffffffffffffffff16021790555050505050565b3373ffffffffffffffffffffffffffffffffffffffff16600360008573ffffffffffffffffffffffffffffffffffffffff1673ffffffffffffffffffffffffffffffffffffffff16815260200190815260200160002060009054906101000a900473ffffffffffffffffffffffffffffffffffffffff1673ffffffffffffffffffffffffffffffffffffffff1614610b58576040517f08c379a0000000000000000000000000000000000000000000000000000000008152600401610b4f90612d88565b60405180910390fd5b610b638383836113eb565b610ba2576040517f08c379a0000000000000000000000000000000000000000000000000000000008152600401610b9990612e1a565b60405180910390fd5b600560008473ffffffffffffffffffffffffffffffffffffffff1673ffffffffffffffffffffffffffffffffffffffff16815260200190815260200160002060008373ffffffffffffffffffffffffffffffffffffffff1673ffffffffffffffffffffffffffffffffffffffff168152602001908152602001600020600082815260200190815260200160002060000160019054906101000a90046fffffffffffffffffffffffffffffffff166fffffffffffffffffffffffffffffffff16341015610ca3576040517f08c379a0000000000000000000000000000000000000000000000000000000008152600401610c9a90612e86565b60405180910390fd5b6000600560008573ffffffffffffffffffffffffffffffffffffffff1673ffffffffffffffffffffffffffffffffffffffff16815260200190815260200160002060008473ffffffffffffffffffffffffffffffffffffffff1673ffffffffffffffffffffffffffffffffffffffff168152602001908152602001600020600083815260200190815260200160002060000160006101000a81548160ff0219169083151502179055506000600560008573ffffffffffffffffffffffffffffffffffffffff1673ffffffffffffffffffffffffffffffffffffffff16815260200190815260200160002060008473ffffffffffffffffffffffffffffffffffffffff1673ffffffffffffffffffffffffffffffffffffffff168152602001908152602001600020600083815260200190815260200160002060000160016101000a8154816fffffffffffffffffffffffffffffffff02191690836fffffffffffffffffffffffffffffffff1602179055508173ffffffffffffffffffffffffffffffffffffffff166323b872dd3033846040518463ffffffff1660e01b8152600401610e5193929190612ea6565b600060405180830381600087803b158015610e6b57600080fd5b505af1158015610e7f573d6000803e3d6000fd5b50505050505050565b600260009054906101000a900473ffffffffffffffffffffffffffffffffffffffff1673ffffffffffffffffffffffffffffffffffffffff163373ffffffffffffffffffffffffffffffffffffffff1614610f18576040517f08c379a0000000000000000000000000000000000000000000000000000000008152600401610f0f90612add565b60405180910390fd5b80471015610f5b576040517f08c379a0000000000000000000000000000000000000000000000000000000008152600401610f5290612f4f565b60405180910390fd5b600260009054906101000a900473ffffffffffffffffffffffffffffffffffffffff1673ffffffffffffffffffffffffffffffffffffffff166108fc829081150290604051600060405180830381858888f19350505050158015610fc3573d6000803e3d6000fd5b5050565b3373ffffffffffffffffffffffffffffffffffffffff16600360008573ffffffffffffffffffffffffffffffffffffffff1673ffffffffffffffffffffffffffffffffffffffff16815260200190815260200160002060009054906101000a900473ffffffffffffffffffffffffffffffffffffffff1673ffffffffffffffffffffffffffffffffffffffff1614611094576040517f08c379a000000000000000000000000000000000000000000000000000000000815260040161108b90612d88565b60405180910390fd5b8061109f8484611975565b10156110e0576040517f08c379a00000000000000000000000000000000000000000000000000000000081526004016110d790612e1a565b60405180910390fd5b600460008473ffffffffffffffffffffffffffffffffffffffff1673ffffffffffffffffffffffffffffffffffffffff16815260200190815260200160002060008373ffffffffffffffffffffffffffffffffffffffff1673ffffffffffffffffffffffffffffffffffffffff16815260200190815260200160002060000160109054906101000a90046fffffffffffffffffffffffffffffffff166fffffffffffffffffffffffffffffffff163410156111d0576040517f08c379a00000000000000000000000000000000000000000000000000000000081526004016111c790612e86565b60405180910390fd5b80600460008573ffffffffffffffffffffffffffffffffffffffff1673ffffffffffffffffffffffffffffffffffffffff16815260200190815260200160002060008473ffffffffffffffffffffffffffffffffffffffff1673ffffffffffffffffffffffffffffffffffffffff16815260200190815260200160002060000160008282829054906101000a90046fffffffffffffffffffffffffffffffff1661127a9190612bbe565b92506101000a8154816fffffffffffffffffffffffffffffffff02191690836fffffffffffffffffffffffffffffffff1602179055506000600460008573ffffffffffffffffffffffffffffffffffffffff1673ffffffffffffffffffffffffffffffffffffffff16815260200190815260200160002060008473ffffffffffffffffffffffffffffffffffffffff1673ffffffffffffffffffffffffffffffffffffffff16815260200190815260200160002060000160106101000a8154816fffffffffffffffffffffffffffffffff02191690836fffffffffffffffffffffffffffffffff1602179055508173ffffffffffffffffffffffffffffffffffffffff1663a9059cbb33836040518363ffffffff1660e01b81526004016113a2929190612f6f565b6020604051808303816000875af11580156113c1573d6000803e3d6000fd5b505050506040513d601f19601f820116820180604052508101906113e59190612fc4565b50505050565b6000600560008573ffffffffffffffffffffffffffffffffffffffff1673ffffffffffffffffffffffffffffffffffffffff16815260200190815260200160002060008473ffffffffffffffffffffffffffffffffffffffff1673ffffffffffffffffffffffffffffffffffffffff168152602001908152602001600020600083815260200190815260200160002060000160009054906101000a900460ff1690509392505050565b6000600460008473ffffffffffffffffffffffffffffffffffffffff1673ffffffffffffffffffffffffffffffffffffffff16815260200190815260200160002060008373ffffffffffffffffffffffffffffffffffffffff1673ffffffffffffffffffffffffffffffffffffffff16815260200190815260200160002060000160109054906101000a90046fffffffffffffffffffffffffffffffff16905092915050565b6000600260009054906101000a900473ffffffffffffffffffffffffffffffffffffffff1673ffffffffffffffffffffffffffffffffffffffff163373ffffffffffffffffffffffffffffffffffffffff16146115cc576040517f08c379a00000000000000000000000000000000000000000000000000000000081526004016115c390612add565b60405180910390fd5b816fffffffffffffffffffffffffffffffff16600560008773ffffffffffffffffffffffffffffffffffffffff1673ffffffffffffffffffffffffffffffffffffffff16815260200190815260200160002060008673ffffffffffffffffffffffffffffffffffffffff1673ffffffffffffffffffffffffffffffffffffffff1681526020019081526020016000206000856fffffffffffffffffffffffffffffffff16815260200190815260200160002060000160019054906101000a90046fffffffffffffffffffffffffffffffff166fffffffffffffffffffffffffffffffff1610156116f1576040517f08c379a00000000000000000000000000000000000000000000000000000000081526004016116e890612b6f565b60405180910390fd5b81600560008773ffffffffffffffffffffffffffffffffffffffff1673ffffffffffffffffffffffffffffffffffffffff16815260200190815260200160002060008673ffffffffffffffffffffffffffffffffffffffff1673ffffffffffffffffffffffffffffffffffffffff1681526020019081526020016000206000856fffffffffffffffffffffffffffffffff16815260200190815260200160002060000160018282829054906101000a90046fffffffffffffffffffffffffffffffff166117be9190612bbe565b92506101000a8154816fffffffffffffffffffffffffffffffff02191690836fffffffffffffffffffffffffffffffff160217905550600560008673ffffffffffffffffffffffffffffffffffffffff1673ffffffffffffffffffffffffffffffffffffffff16815260200190815260200160002060008573ffffffffffffffffffffffffffffffffffffffff1673ffffffffffffffffffffffffffffffffffffffff1681526020019081526020016000206000846fffffffffffffffffffffffffffffffff16815260200190815260200160002060000160019054906101000a90046fffffffffffffffffffffffffffffffff169050949350505050565b6000600560008573ffffffffffffffffffffffffffffffffffffffff1673ffffffffffffffffffffffffffffffffffffffff16815260200190815260200160002060008473ffffffffffffffffffffffffffffffffffffffff1673ffffffffffffffffffffffffffffffffffffffff168152602001908152602001600020600083815260200190815260200160002060000160019054906101000a90046fffffffffffffffffffffffffffffffff1690509392505050565b6000600460008473ffffffffffffffffffffffffffffffffffffffff1673ffffffffffffffffffffffffffffffffffffffff16815260200190815260200160002060008373ffffffffffffffffffffffffffffffffffffffff1673ffffffffffffffffffffffffffffffffffffffff16815260200190815260200160002060000160009054906101000a90046fffffffffffffffffffffffffffffffff166fffffffffffffffffffffffffffffffff16905092915050565b600160009054906101000a900473ffffffffffffffffffffffffffffffffffffffff1673ffffffffffffffffffffffffffffffffffffffff16611a8183611a7386611f05565b611f3590919063ffffffff16565b73ffffffffffffffffffffffffffffffffffffffff1614611ad7576040517f08c379a0000000000000000000000000000000000000000000000000000000008152600401611ace90613063565b60405180910390fd5b823382604051602001611aeb9291906130cb565b6040516020818303038152906040528051906020012014611b41576040517f08c379a0000000000000000000000000000000000000000000000000000000008152600401611b3890613169565b60405180910390fd5b80600360003373ffffffffffffffffffffffffffffffffffffffff1673ffffffffffffffffffffffffffffffffffffffff16815260200190815260200160002060006101000a81548173ffffffffffffffffffffffffffffffffffffffff021916908373ffffffffffffffffffffffffffffffffffffffff160217905550505050565b600260009054906101000a900473ffffffffffffffffffffffffffffffffffffffff1673ffffffffffffffffffffffffffffffffffffffff163373ffffffffffffffffffffffffffffffffffffffff1614611c54576040517f08c379a0000000000000000000000000000000000000000000000000000000008152600401611c4b90612add565b60405180910390fd5b80600260006101000a81548173ffffffffffffffffffffffffffffffffffffffff021916908373ffffffffffffffffffffffffffffffffffffffff16021790555050565b6000600360008373ffffffffffffffffffffffffffffffffffffffff1673ffffffffffffffffffffffffffffffffffffffff16815260200190815260200160002060009054906101000a900473ffffffffffffffffffffffffffffffffffffffff169050919050565b60008054906101000a900473ffffffffffffffffffffffffffffffffffffffff1673ffffffffffffffffffffffffffffffffffffffff163373ffffffffffffffffffffffffffffffffffffffff1614611d8f576040517f08c379a0000000000000000000000000000000000000000000000000000000008152600401611d8690612cf6565b60405180910390fd5b80600560008673ffffffffffffffffffffffffffffffffffffffff1673ffffffffffffffffffffffffffffffffffffffff16815260200190815260200160002060008573ffffffffffffffffffffffffffffffffffffffff1673ffffffffffffffffffffffffffffffffffffffff168152602001908152602001600020600084815260200190815260200160002060000160016101000a8154816fffffffffffffffffffffffffffffffff02191690836fffffffffffffffffffffffffffffffff1602179055506001600560008673ffffffffffffffffffffffffffffffffffffffff1673ffffffffffffffffffffffffffffffffffffffff16815260200190815260200160002060008573ffffffffffffffffffffffffffffffffffffffff1673ffffffffffffffffffffffffffffffffffffffff168152602001908152602001600020600084815260200190815260200160002060000160006101000a81548160ff02191690831515021790555050505050565b600081604051602001611f189190613201565b604051602081830303815290604052805190602001209050919050565b6000806000611f448585611f5c565b91509150611f5181611fdd565b819250505092915050565b6000806041835103611f9d5760008060006020860151925060408601519150606086015160001a9050611f91878285856121a9565b94509450505050611fd6565b6040835103611fcd576000806020850151915060408501519050611fc28683836122b5565b935093505050611fd6565b60006002915091505b9250929050565b60006004811115611ff157611ff0613227565b5b81600481111561200457612003613227565b5b03156121a6576001600481111561201e5761201d613227565b5b81600481111561203157612030613227565b5b03612071576040517f08c379a0000000000000000000000000000000000000000000000000000000008152600401612068906132a2565b60405180910390fd5b6002600481111561208557612084613227565b5b81600481111561209857612097613227565b5b036120d8576040517f08c379a00000000000000000000000000000000000000000000000000000000081526004016120cf9061330e565b60405180910390fd5b600360048111156120ec576120eb613227565b5b8160048111156120ff576120fe613227565b5b0361213f576040517f08c379a0000000000000000000000000000000000000000000000000000000008152600401612136906133a0565b60405180910390fd5b60048081111561215257612151613227565b5b81600481111561216557612164613227565b5b036121a5576040517f08c379a000000000000000000000000000000000000000000000000000000000815260040161219c90613432565b60405180910390fd5b5b50565b6000807f7fffffffffffffffffffffffffffffff5d576e7357a4501ddfe92f46681b20a08360001c11156121e45760006003915091506122ac565b601b8560ff16141580156121fc5750601c8560ff1614155b1561220e5760006004915091506122ac565b600060018787878760405160008152602001604052604051612233949392919061347d565b6020604051602081039080840390855afa158015612255573d6000803e3d6000fd5b505050602060405103519050600073ffffffffffffffffffffffffffffffffffffffff168173ffffffffffffffffffffffffffffffffffffffff16036122a3576000600192509250506122ac565b80600092509250505b94509492505050565b60008060007f7fffffffffffffffffffffffffffffffffffffffffffffffffffffffffffffff60001b841690506000601b60ff8660001c901c6122f891906134c2565b9050612306878288856121a9565b935093505050935093915050565b6000604051905090565b600080fd5b600080fd5b600073ffffffffffffffffffffffffffffffffffffffff82169050919050565b600061235382612328565b9050919050565b61236381612348565b811461236e57600080fd5b50565b6000813590506123808161235a565b92915050565b60006fffffffffffffffffffffffffffffffff82169050919050565b6123ab81612386565b81146123b657600080fd5b50565b6000813590506123c8816123a2565b92915050565b6000806000606084860312156123e7576123e661231e565b5b60006123f586828701612371565b935050602061240686828701612371565b9250506040612417868287016123b9565b9150509250925092565b61242a81612386565b82525050565b60006020820190506124456000830184612421565b92915050565b6000602082840312156124615761246061231e565b5b600061246f84828501612371565b91505092915050565b6000819050919050565b61248b81612478565b811461249657600080fd5b50565b6000813590506124a881612482565b92915050565b600080fd5b600080fd5b600080fd5b60008083601f8401126124d3576124d26124ae565b5b8235905067ffffffffffffffff8111156124f0576124ef6124b3565b5b60208301915083600182028301111561250c5761250b6124b8565b5b9250929050565b60008060008060006080868803121561252f5761252e61231e565b5b600061253d88828901612371565b955050602061254e88828901612371565b945050604061255f88828901612499565b935050606086013567ffffffffffffffff8111156125805761257f612323565b5b61258c888289016124bd565b92509250509295509295909350565b60007fffffffff0000000000000000000000000000000000000000000000000000000082169050919050565b6125d08161259b565b82525050565b60006020820190506125eb60008301846125c7565b92915050565b6000806000806080858703121561260b5761260a61231e565b5b600061261987828801612371565b945050602061262a87828801612371565b935050604061263b87828801612499565b925050606061264c878288016123b9565b91505092959194509250565b6000806000606084860312156126715761267061231e565b5b600061267f86828701612371565b935050602061269086828701612371565b92505060406126a186828701612499565b9150509250925092565b6000602082840312156126c1576126c061231e565b5b60006126cf84828501612499565b91505092915050565b60008115159050919050565b6126ed816126d8565b82525050565b600060208201905061270860008301846126e4565b92915050565b600080604083850312156127255761272461231e565b5b600061273385828601612371565b925050602061274485828601612371565b9150509250929050565b600080600080608085870312156127685761276761231e565b5b600061277687828801612371565b945050602061278787828801612371565b9350506040612798878288016123b9565b92505060606127a9878288016123b9565b91505092959194509250565b6127be81612478565b82525050565b60006020820190506127d960008301846127b5565b92915050565b6000819050919050565b6127f2816127df565b81146127fd57600080fd5b50565b60008135905061280f816127e9565b92915050565b600080fd5b6000601f19601f8301169050919050565b7f4e487b7100000000000000000000000000000000000000000000000000000000600052604160045260246000fd5b6128638261281a565b810181811067ffffffffffffffff821117156128825761288161282b565b5b80604052505050565b6000612895612314565b90506128a1828261285a565b919050565b600067ffffffffffffffff8211156128c1576128c061282b565b5b6128ca8261281a565b9050602081019050919050565b82818337600083830152505050565b60006128f96128f4846128a6565b61288b565b90508281526020810184848401111561291557612914612815565b5b6129208482856128d7565b509392505050565b600082601f83011261293d5761293c6124ae565b5b813561294d8482602086016128e6565b91505092915050565b60008060006060848603121561296f5761296e61231e565b5b600061297d86828701612800565b935050602084013567ffffffffffffffff81111561299e5761299d612323565b5b6129aa86828701612928565b92505060406129bb86828701612371565b9150509250925092565b60006129d082612328565b9050919050565b6129e0816129c5565b81146129eb57600080fd5b50565b6000813590506129fd816129d7565b92915050565b600060208284031215612a1957612a1861231e565b5b6000612a27848285016129ee565b91505092915050565b612a3981612348565b82525050565b6000602082019050612a546000830184612a30565b92915050565b600082825260208201905092915050565b7f6d73672e73656e646572206d75737420626520666565436f6e74726f6c6c657260008201527f2e00000000000000000000000000000000000000000000000000000000000000602082015250565b6000612ac7602183612a5a565b9150612ad282612a6b565b604082019050919050565b60006020820190508181036000830152612af681612aba565b9050919050565b7f596f752063616e6e6f7420726564756365206d6f7265207468616e207468652060008201527f63757272656e74206665652e0000000000000000000000000000000000000000602082015250565b6000612b59602c83612a5a565b9150612b6482612afd565b604082019050919050565b60006020820190508181036000830152612b8881612b4c565b9050919050565b7f4e487b7100000000000000000000000000000000000000000000000000000000600052601160045260246000fd5b6000612bc982612386565b9150612bd483612386565b925082821015612be757612be6612b8f565b5b828203905092915050565b7f596f7520616c726561647920686176652072656769737465726564206120726560008201527f63697069656e7420616464726573730000000000000000000000000000000000602082015250565b6000612c4e602f83612a5a565b9150612c5982612bf2565b604082019050919050565b60006020820190508181036000830152612c7d81612c41565b9050919050565b7f4f6e6c792074686520666c617368626f7420636f6e74726163742063616e206c60008201527f6f672066756e64732e0000000000000000000000000000000000000000000000602082015250565b6000612ce0602983612a5a565b9150612ceb82612c84565b604082019050919050565b60006020820190508181036000830152612d0f81612cd3565b9050919050565b7f46756e6374696f6e2063616c6c6572206973206e6f7420616e20617574686f7260008201527f697a656420726563697069656e74416464726573732e00000000000000000000602082015250565b6000612d72603683612a5a565b9150612d7d82612d16565b604082019050919050565b60006020820190508181036000830152612da181612d65565b9050919050565b7f496e73756666696369656e74207769746864726177616c20616c6c6f77616e6360008201527f652e000000000000000000000000000000000000000000000000000000000000602082015250565b6000612e04602283612a5a565b9150612e0f82612da8565b604082019050919050565b60006020820190508181036000830152612e3381612df7565b9050919050565b7f496e73756666696369656e74207061796d656e742e0000000000000000000000600082015250565b6000612e70601583612a5a565b9150612e7b82612e3a565b602082019050919050565b60006020820190508181036000830152612e9f81612e63565b9050919050565b6000606082019050612ebb6000830186612a30565b612ec86020830185612a30565b612ed560408301846127b5565b949350505050565b7f43616e6e6f74207769746864726177206d6f7265207468616e2074686520616d60008201527f6f756e7420696e2074686520636f6e74726163742e0000000000000000000000602082015250565b6000612f39603583612a5a565b9150612f4482612edd565b604082019050919050565b60006020820190508181036000830152612f6881612f2c565b9050919050565b6000604082019050612f846000830185612a30565b612f9160208301846127b5565b9392505050565b612fa1816126d8565b8114612fac57600080fd5b50565b600081519050612fbe81612f98565b92915050565b600060208284031215612fda57612fd961231e565b5b6000612fe884828501612faf565b91505092915050565b7f5369676e6174757265206d7573742062652066726f6d2053455256455220534960008201527f474e455220726f6c650000000000000000000000000000000000000000000000602082015250565b600061304d602983612a5a565b915061305882612ff1565b604082019050919050565b6000602082019050818103600083015261307c81613040565b9050919050565b60008160601b9050919050565b600061309b82613083565b9050919050565b60006130ad82613090565b9050919050565b6130c56130c082612348565b6130a2565b82525050565b60006130d782856130b4565b6014820191506130e782846130b4565b6014820191508190509392505050565b7f50726f7669646564207369676e617475726520646f6573206e6f74206d61746360008201527f6820726571756972656420706172616d65746572730000000000000000000000602082015250565b6000613153603583612a5a565b915061315e826130f7565b604082019050919050565b6000602082019050818103600083015261318281613146565b9050919050565b600081905092915050565b7f19457468657265756d205369676e6564204d6573736167653a0a333200000000600082015250565b60006131ca601c83613189565b91506131d582613194565b601c82019050919050565b6000819050919050565b6131fb6131f6826127df565b6131e0565b82525050565b600061320c826131bd565b915061321882846131ea565b60208201915081905092915050565b7f4e487b7100000000000000000000000000000000000000000000000000000000600052602160045260246000fd5b7f45434453413a20696e76616c6964207369676e61747572650000000000000000600082015250565b600061328c601883612a5a565b915061329782613256565b602082019050919050565b600060208201905081810360008301526132bb8161327f565b9050919050565b7f45434453413a20696e76616c6964207369676e6174757265206c656e67746800600082015250565b60006132f8601f83612a5a565b9150613303826132c2565b602082019050919050565b60006020820190508181036000830152613327816132eb565b9050919050565b7f45434453413a20696e76616c6964207369676e6174757265202773272076616c60008201527f7565000000000000000000000000000000000000000000000000000000000000602082015250565b600061338a602283612a5a565b91506133958261332e565b604082019050919050565b600060208201905081810360008301526133b98161337d565b9050919050565b7f45434453413a20696e76616c6964207369676e6174757265202776272076616c60008201527f7565000000000000000000000000000000000000000000000000000000000000602082015250565b600061341c602283612a5a565b9150613427826133c0565b604082019050919050565b6000602082019050818103600083015261344b8161340f565b9050919050565b61345b816127df565b82525050565b600060ff82169050919050565b61347781613461565b82525050565b60006080820190506134926000830187613452565b61349f602083018661346e565b6134ac6040830185613452565b6134b96060830184613452565b95945050505050565b60006134cd82612478565b91506134d883612478565b9250827fffffffffffffffffffffffffffffffffffffffffffffffffffffffffffffffff0382111561350d5761350c612b8f565b5b82820190509291505056fea2646970667358221220c7f5a78b7abb87179e5653dcea898563cf1695026944c696316ccc36a6e4194964736f6c634300080d0033",
  "linkReferences": {},
  "deployedLinkReferences": {}
}