{
  "_format": "hh-sol-artifact-1",
  "contractName": "Vault",
  "sourceName": "contracts/Vault.sol",
  "abi": [
    {
      "inputs": [],
      "name": "contractFee",
      "outputs": [
        {
          "internalType": "uint256",
          "name": "",
          "type": "uint256"
        }
      ],
      "stateMutability": "view",
      "type": "function"
    },
    {
      "inputs": [
        {
          "internalType": "address",
          "name": "operator",
          "type": "address"
        },
        {
          "internalType": "address",
          "name": "from",
          "type": "address"
        },
        {
          "internalType": "uint256",
          "name": "tokenId",
          "type": "uint256"
        },
        {
          "internalType": "bytes",
          "name": "data",
          "type": "bytes"
        }
      ],
      "name": "onERC721Received",
      "outputs": [
        {
          "internalType": "bytes4",
          "name": "",
          "type": "bytes4"
        }
      ],
      "stateMutability": "nonpayable",
      "type": "function"
    }
  ],
  "bytecode": "0x608060405234801561001057600080fd5b506102e5806100206000396000f3fe608060405234801561001057600080fd5b50600436106100365760003560e01c8063150b7a021461003b578063d41977cd1461006b575b600080fd5b610055600480360381019061005091906101a7565b610089565b604051610062919061026a565b60405180910390f35b61007361009e565b6040516100809190610294565b60405180910390f35b600063150b7a0260e01b905095945050505050565b60005481565b600080fd5b600080fd5b600073ffffffffffffffffffffffffffffffffffffffff82169050919050565b60006100d9826100ae565b9050919050565b6100e9816100ce565b81146100f457600080fd5b50565b600081359050610106816100e0565b92915050565b6000819050919050565b61011f8161010c565b811461012a57600080fd5b50565b60008135905061013c81610116565b92915050565b600080fd5b600080fd5b600080fd5b60008083601f84011261016757610166610142565b5b8235905067ffffffffffffffff81111561018457610183610147565b5b6020830191508360018202830111156101a05761019f61014c565b5b9250929050565b6000806000806000608086880312156101c3576101c26100a4565b5b60006101d1888289016100f7565b95505060206101e2888289016100f7565b94505060406101f38882890161012d565b935050606086013567ffffffffffffffff811115610214576102136100a9565b5b61022088828901610151565b92509250509295509295909350565b60007fffffffff0000000000000000000000000000000000000000000000000000000082169050919050565b6102648161022f565b82525050565b600060208201905061027f600083018461025b565b92915050565b61028e8161010c565b82525050565b60006020820190506102a96000830184610285565b9291505056fea264697066735822122033a0f16d634567b15e9285feadaf2425e89823b638e64c9c8514a72aa4b70bf464736f6c634300080d0033",
  "linkReferences": {},
  "deployedLinkReferences": {}
}