{
  "_format": "hh-sol-artifact-1",
  "contractName": "Vault",
  "sourceName": "contracts/Vault.sol",
  "abi": [
    {
      "inputs": [
        {
          "internalType": "address",
          "name": "_transferer",
          "type": "address"
        },
        {
          "internalType": "address",
          "name": "_serverSigner",
          "type": "address"
        },
        {
          "internalType": "address payable",
          "name": "_feeController",
          "type": "address"
        },
        {
          "internalType": "address",
          "name": "_emergencyFeeRemover",
          "type": "address"
        }
      ],
      "stateMutability": "nonpayable",
      "type": "constructor"
    },
    {
      "inputs": [
        {
          "internalType": "address",
          "name": "_originalAddress",
          "type": "address"
        },
        {
          "internalType": "address",
          "name": "_erc20Address",
          "type": "address"
        }
      ],
      "name": "canWithdrawERC20",
      "outputs": [
        {
          "internalType": "uint256",
          "name": "",
          "type": "uint256"
        }
      ],
      "stateMutability": "view",
      "type": "function"
    },
    {
      "inputs": [
        {
          "internalType": "address",
          "name": "_originalAddress",
          "type": "address"
        },
        {
          "internalType": "address",
          "name": "_erc721Address",
          "type": "address"
        },
        {
          "internalType": "uint256",
          "name": "_id",
          "type": "uint256"
        }
      ],
      "name": "canWithdrawERC721",
      "outputs": [
        {
          "internalType": "bool",
          "name": "",
          "type": "bool"
        }
      ],
      "stateMutability": "view",
      "type": "function"
    },
    {
      "inputs": [],
      "name": "changeFeeController",
      "outputs": [],
      "stateMutability": "nonpayable",
      "type": "function"
    },
    {
      "inputs": [
        {
          "internalType": "address payable",
          "name": "_newFeeController",
          "type": "address"
        }
      ],
      "name": "changeFeeControllerRequest",
      "outputs": [],
      "stateMutability": "nonpayable",
      "type": "function"
    },
    {
      "inputs": [
        {
          "internalType": "bytes",
          "name": "_signature",
          "type": "bytes"
        },
        {
          "internalType": "address",
          "name": "_newRecipientAddress",
          "type": "address"
        },
        {
          "internalType": "uint256",
          "name": "expiry",
          "type": "uint256"
        }
      ],
      "name": "changeRecipientAddress",
      "outputs": [],
      "stateMutability": "nonpayable",
      "type": "function"
    },
    {
      "inputs": [
        {
          "internalType": "address",
          "name": "_originalAddress",
          "type": "address"
        },
        {
          "internalType": "address",
          "name": "_erc20Address",
          "type": "address"
        }
      ],
      "name": "erc20Fee",
      "outputs": [
        {
          "internalType": "uint128",
          "name": "",
          "type": "uint128"
        }
      ],
      "stateMutability": "view",
      "type": "function"
    },
    {
      "inputs": [
        {
          "internalType": "address",
          "name": "_originalAddress",
          "type": "address"
        },
        {
          "internalType": "address",
          "name": "_erc721Address",
          "type": "address"
        },
        {
          "internalType": "uint256",
          "name": "_id",
          "type": "uint256"
        }
      ],
      "name": "erc721Fee",
      "outputs": [
        {
          "internalType": "uint128",
          "name": "",
          "type": "uint128"
        }
      ],
      "stateMutability": "view",
      "type": "function"
    },
    {
      "inputs": [
        {
          "internalType": "address",
          "name": "_caller",
          "type": "address"
        }
      ],
      "name": "getNonce",
      "outputs": [
        {
          "internalType": "uint256",
          "name": "",
          "type": "uint256"
        }
      ],
      "stateMutability": "view",
      "type": "function"
    },
    {
      "inputs": [
        {
          "internalType": "address",
          "name": "_originalAddress",
          "type": "address"
        },
        {
          "internalType": "address",
          "name": "_erc20Address",
          "type": "address"
        },
        {
          "internalType": "uint256",
          "name": "_amount",
          "type": "uint256"
        },
        {
          "internalType": "uint128",
          "name": "_fee",
          "type": "uint128"
        }
      ],
      "name": "logIncomingERC20",
      "outputs": [],
      "stateMutability": "nonpayable",
      "type": "function"
    },
    {
      "inputs": [
        {
          "internalType": "address",
          "name": "_originalAddress",
          "type": "address"
        },
        {
          "internalType": "address",
          "name": "_erc721Address",
          "type": "address"
        },
        {
          "internalType": "uint256",
          "name": "_id",
          "type": "uint256"
        },
        {
          "internalType": "uint128",
          "name": "_fee",
          "type": "uint128"
        }
      ],
      "name": "logIncomingERC721",
      "outputs": [],
      "stateMutability": "nonpayable",
      "type": "function"
    },
    {
      "inputs": [],
      "name": "pendingFeeController",
      "outputs": [
        {
          "internalType": "address payable",
          "name": "newFeeController",
          "type": "address"
        },
        {
          "internalType": "uint256",
          "name": "blocktime",
          "type": "uint256"
        }
      ],
      "stateMutability": "view",
      "type": "function"
    },
    {
      "inputs": [
        {
          "internalType": "address",
          "name": "_originalAddress",
          "type": "address"
        },
        {
          "internalType": "address",
          "name": "_erc20Address",
          "type": "address"
        },
        {
          "internalType": "uint128",
          "name": "_reduceBy",
          "type": "uint128"
        }
      ],
      "name": "reduceERC20Fee",
      "outputs": [
        {
          "internalType": "uint128",
          "name": "",
          "type": "uint128"
        }
      ],
      "stateMutability": "nonpayable",
      "type": "function"
    },
    {
      "inputs": [
        {
          "internalType": "address",
          "name": "_originalAddress",
          "type": "address"
        },
        {
          "internalType": "address",
          "name": "_erc721Address",
          "type": "address"
        },
        {
          "internalType": "uint256",
          "name": "_id",
          "type": "uint256"
        },
        {
          "internalType": "uint128",
          "name": "_reduceBy",
          "type": "uint128"
        }
      ],
      "name": "reduceERC721Fee",
      "outputs": [
        {
          "internalType": "uint128",
          "name": "",
          "type": "uint128"
        }
      ],
      "stateMutability": "nonpayable",
      "type": "function"
    },
    {
      "inputs": [
        {
          "internalType": "address",
          "name": "_recipient",
          "type": "address"
        }
      ],
      "name": "setupRecipientAddress",
      "outputs": [],
      "stateMutability": "nonpayable",
      "type": "function"
    },
    {
      "inputs": [
        {
          "internalType": "bool",
          "name": "_newSetting",
          "type": "bool"
        }
      ],
      "name": "toggleEmergencyFlag",
      "outputs": [],
      "stateMutability": "nonpayable",
      "type": "function"
    },
    {
      "inputs": [
        {
          "internalType": "address",
          "name": "_originalAddress",
          "type": "address"
        }
      ],
      "name": "viewRecipientAddress",
      "outputs": [
        {
          "internalType": "address",
          "name": "",
          "type": "address"
        }
      ],
      "stateMutability": "view",
      "type": "function"
    },
    {
      "inputs": [
        {
          "internalType": "address",
          "name": "_originalAddress",
          "type": "address"
        },
        {
          "internalType": "address",
          "name": "_erc20Address",
          "type": "address"
        }
      ],
      "name": "withdrawERC20",
      "outputs": [],
      "stateMutability": "payable",
      "type": "function"
    },
    {
      "inputs": [
        {
          "internalType": "address",
          "name": "_originalAddress",
          "type": "address"
        },
        {
          "internalType": "address",
          "name": "_erc20Address",
          "type": "address"
        }
      ],
      "name": "withdrawERC20WithoutFees",
      "outputs": [],
      "stateMutability": "nonpayable",
      "type": "function"
    },
    {
      "inputs": [
        {
          "internalType": "address",
          "name": "_originalAddress",
          "type": "address"
        },
        {
          "internalType": "address",
          "name": "_erc721Address",
          "type": "address"
        },
        {
          "internalType": "uint256",
          "name": "_id",
          "type": "uint256"
        }
      ],
      "name": "withdrawERC721",
      "outputs": [],
      "stateMutability": "payable",
      "type": "function"
    },
    {
      "inputs": [
        {
          "internalType": "address",
          "name": "_originalAddress",
          "type": "address"
        },
        {
          "internalType": "address",
          "name": "_erc721Address",
          "type": "address"
        },
        {
          "internalType": "uint256",
          "name": "_id",
          "type": "uint256"
        }
      ],
      "name": "withdrawERC721WithoutFees",
      "outputs": [],
      "stateMutability": "nonpayable",
      "type": "function"
    },
    {
      "inputs": [
        {
          "internalType": "uint256",
          "name": "_amount",
          "type": "uint256"
        }
      ],
      "name": "withdrawPayments",
      "outputs": [],
      "stateMutability": "nonpayable",
      "type": "function"
    }
  ],
  "bytecode": "0x60e060405260008060146101000a81548160ff0219169083151502179055503480156200002b57600080fd5b506040516200505a3803806200505a8339818101604052810190620000519190620001e6565b8373ffffffffffffffffffffffffffffffffffffffff1660808173ffffffffffffffffffffffffffffffffffffffff16815250508273ffffffffffffffffffffffffffffffffffffffff1660a08173ffffffffffffffffffffffffffffffffffffffff1681525050816000806101000a81548173ffffffffffffffffffffffffffffffffffffffff021916908373ffffffffffffffffffffffffffffffffffffffff1602179055508073ffffffffffffffffffffffffffffffffffffffff1660c08173ffffffffffffffffffffffffffffffffffffffff16815250505050505062000258565b600080fd5b600073ffffffffffffffffffffffffffffffffffffffff82169050919050565b600062000169826200013c565b9050919050565b6200017b816200015c565b81146200018757600080fd5b50565b6000815190506200019b8162000170565b92915050565b6000620001ae826200013c565b9050919050565b620001c081620001a1565b8114620001cc57600080fd5b50565b600081519050620001e081620001b5565b92915050565b6000806000806080858703121562000203576200020262000137565b5b600062000213878288016200018a565b945050602062000226878288016200018a565b93505060406200023987828801620001cf565b92505060606200024c878288016200018a565b91505092959194509250565b60805160a05160c051614dcb6200028f60003960006125ba0152600061175e0152600081816109e70152612a240152614dcb6000f3fe60806040526004361061012a5760003560e01c80636a783cc5116100ab5780639e74fb391161006f5780639e74fb39146103f7578063bd0d687b14610434578063d82f767d1461045d578063d9ce6ae714610486578063dcedf668146104c3578063f574e2b6146104da5761012a565b80636a783cc51461030f57806371558aba1461033857806379386cc81461036157806390ffaa2a1461039e5780639456fbcc146103db5761012a565b80634025feb2116100f25780634025feb21461022757806341975af8146102435780634f4a7e701461026c5780634fbcae61146102a957806356ff2ec2146102e65761012a565b806309c0e14f1461012f5780630a6c1fb11461016c5780630ca93171146101985780632d0335ab146101c15780633d602dbe146101fe575b600080fd5b34801561013b57600080fd5b50610156600480360381019061015191906134ab565b610503565b604051610163919061350d565b60405180910390f35b34801561017857600080fd5b5061018161081b565b60405161018f929190613562565b60405180910390f35b3480156101a457600080fd5b506101bf60048036038101906101ba919061358b565b61084d565b005b3480156101cd57600080fd5b506101e860048036038101906101e3919061358b565b61099c565b6040516101f591906135b8565b60405180910390f35b34801561020a57600080fd5b50610225600480360381019061022091906135ff565b6109e5565b005b610241600480360381019061023c9190613666565b610c41565b005b34801561024f57600080fd5b5061026a600480360381019061026591906136b9565b6110ac565b005b34801561027857600080fd5b50610293600480360381019061028e9190613666565b61124e565b6040516102a09190613701565b60405180910390f35b3480156102b557600080fd5b506102d060048036038101906102cb919061371c565b6112f7565b6040516102dd919061350d565b60405180910390f35b3480156102f257600080fd5b5061030d6004803603810190610308919061371c565b61139d565b005b34801561031b57600080fd5b50610336600480360381019061033191906138a2565b61171f565b005b34801561034457600080fd5b5061035f600480360381019061035a9190613666565b611920565b005b34801561036d57600080fd5b5061038860048036038101906103839190613666565b611cd9565b604051610395919061350d565b60405180910390f35b3480156103aa57600080fd5b506103c560048036038101906103c0919061371c565b611d91565b6040516103d291906135b8565b60405180910390f35b6103f560048036038101906103f0919061371c565b611e49565b005b34801561040357600080fd5b5061041e600480360381019061041991906135ff565b61226c565b60405161042b919061350d565b60405180910390f35b34801561044057600080fd5b5061045b6004803603810190610456919061393d565b6125b8565b005b34801561046957600080fd5b50610484600480360381019061047f9190613996565b612663565b005b34801561049257600080fd5b506104ad60048036038101906104a8919061358b565b612775565b6040516104ba91906139d2565b60405180910390f35b3480156104cf57600080fd5b506104d86127de565b005b3480156104e657600080fd5b5061050160048036038101906104fc91906135ff565b612a22565b005b60008060009054906101000a900473ffffffffffffffffffffffffffffffffffffffff1673ffffffffffffffffffffffffffffffffffffffff163373ffffffffffffffffffffffffffffffffffffffff1614610594576040517f08c379a000000000000000000000000000000000000000000000000000000000815260040161058b90613a70565b60405180910390fd5b816fffffffffffffffffffffffffffffffff16600460008673ffffffffffffffffffffffffffffffffffffffff1673ffffffffffffffffffffffffffffffffffffffff16815260200190815260200160002060008573ffffffffffffffffffffffffffffffffffffffff1673ffffffffffffffffffffffffffffffffffffffff16815260200190815260200160002060000160109054906101000a90046fffffffffffffffffffffffffffffffff166fffffffffffffffffffffffffffffffff161015610696576040517f08c379a000000000000000000000000000000000000000000000000000000000815260040161068d90613b02565b60405180910390fd5b81600460008673ffffffffffffffffffffffffffffffffffffffff1673ffffffffffffffffffffffffffffffffffffffff16815260200190815260200160002060008573ffffffffffffffffffffffffffffffffffffffff1673ffffffffffffffffffffffffffffffffffffffff16815260200190815260200160002060000160108282829054906101000a90046fffffffffffffffffffffffffffffffff166107409190613b51565b92506101000a8154816fffffffffffffffffffffffffffffffff02191690836fffffffffffffffffffffffffffffffff160217905550600460008573ffffffffffffffffffffffffffffffffffffffff1673ffffffffffffffffffffffffffffffffffffffff16815260200190815260200160002060008473ffffffffffffffffffffffffffffffffffffffff1673ffffffffffffffffffffffffffffffffffffffff16815260200190815260200160002060000160109054906101000a90046fffffffffffffffffffffffffffffffff1690509392505050565b60018060000160009054906101000a900473ffffffffffffffffffffffffffffffffffffffff16908060010154905082565b600073ffffffffffffffffffffffffffffffffffffffff16600360003373ffffffffffffffffffffffffffffffffffffffff1673ffffffffffffffffffffffffffffffffffffffff16815260200190815260200160002060009054906101000a900473ffffffffffffffffffffffffffffffffffffffff1673ffffffffffffffffffffffffffffffffffffffff161461091b576040517f08c379a000000000000000000000000000000000000000000000000000000000815260040161091290613bf7565b60405180910390fd5b80600360003373ffffffffffffffffffffffffffffffffffffffff1673ffffffffffffffffffffffffffffffffffffffff16815260200190815260200160002060006101000a81548173ffffffffffffffffffffffffffffffffffffffff021916908373ffffffffffffffffffffffffffffffffffffffff16021790555050565b6000600660008373ffffffffffffffffffffffffffffffffffffffff1673ffffffffffffffffffffffffffffffffffffffff168152602001908152602001600020549050919050565b7f000000000000000000000000000000000000000000000000000000000000000073ffffffffffffffffffffffffffffffffffffffff163373ffffffffffffffffffffffffffffffffffffffff1614610a73576040517f08c379a0000000000000000000000000000000000000000000000000000000008152600401610a6a90613c89565b60405180910390fd5b80600460008673ffffffffffffffffffffffffffffffffffffffff1673ffffffffffffffffffffffffffffffffffffffff16815260200190815260200160002060008573ffffffffffffffffffffffffffffffffffffffff1673ffffffffffffffffffffffffffffffffffffffff16815260200190815260200160002060000160108282829054906101000a90046fffffffffffffffffffffffffffffffff16610b1d9190613ca9565b92506101000a8154816fffffffffffffffffffffffffffffffff02191690836fffffffffffffffffffffffffffffffff160217905550610b5c82612c50565b600460008673ffffffffffffffffffffffffffffffffffffffff1673ffffffffffffffffffffffffffffffffffffffff16815260200190815260200160002060008573ffffffffffffffffffffffffffffffffffffffff1673ffffffffffffffffffffffffffffffffffffffff16815260200190815260200160002060000160008282829054906101000a90046fffffffffffffffffffffffffffffffff16610c059190613ca9565b92506101000a8154816fffffffffffffffffffffffffffffffff02191690836fffffffffffffffffffffffffffffffff16021790555050505050565b3373ffffffffffffffffffffffffffffffffffffffff16600360008573ffffffffffffffffffffffffffffffffffffffff1673ffffffffffffffffffffffffffffffffffffffff16815260200190815260200160002060009054906101000a900473ffffffffffffffffffffffffffffffffffffffff1673ffffffffffffffffffffffffffffffffffffffff1614610d0e576040517f08c379a0000000000000000000000000000000000000000000000000000000008152600401610d0590613d61565b60405180910390fd5b3073ffffffffffffffffffffffffffffffffffffffff168273ffffffffffffffffffffffffffffffffffffffff1603610d7c576040517f08c379a0000000000000000000000000000000000000000000000000000000008152600401610d7390613dcd565b60405180910390fd5b610d8783838361124e565b610dc6576040517f08c379a0000000000000000000000000000000000000000000000000000000008152600401610dbd90613e5f565b60405180910390fd5b600560008473ffffffffffffffffffffffffffffffffffffffff1673ffffffffffffffffffffffffffffffffffffffff16815260200190815260200160002060008373ffffffffffffffffffffffffffffffffffffffff1673ffffffffffffffffffffffffffffffffffffffff168152602001908152602001600020600082815260200190815260200160002060000160019054906101000a90046fffffffffffffffffffffffffffffffff166fffffffffffffffffffffffffffffffff16341015610ec7576040517f08c379a0000000000000000000000000000000000000000000000000000000008152600401610ebe90613ecb565b60405180910390fd5b6000600560008573ffffffffffffffffffffffffffffffffffffffff1673ffffffffffffffffffffffffffffffffffffffff16815260200190815260200160002060008473ffffffffffffffffffffffffffffffffffffffff1673ffffffffffffffffffffffffffffffffffffffff168152602001908152602001600020600083815260200190815260200160002060000160006101000a81548160ff0219169083151502179055506000600560008573ffffffffffffffffffffffffffffffffffffffff1673ffffffffffffffffffffffffffffffffffffffff16815260200190815260200160002060008473ffffffffffffffffffffffffffffffffffffffff1673ffffffffffffffffffffffffffffffffffffffff168152602001908152602001600020600083815260200190815260200160002060000160016101000a8154816fffffffffffffffffffffffffffffffff02191690836fffffffffffffffffffffffffffffffff1602179055508173ffffffffffffffffffffffffffffffffffffffff166342842e0e3033846040518463ffffffff1660e01b815260040161107593929190613eeb565b600060405180830381600087803b15801561108f57600080fd5b505af11580156110a3573d6000803e3d6000fd5b50505050505050565b60008054906101000a900473ffffffffffffffffffffffffffffffffffffffff1673ffffffffffffffffffffffffffffffffffffffff163373ffffffffffffffffffffffffffffffffffffffff161461113a576040517f08c379a000000000000000000000000000000000000000000000000000000000815260040161113190613a70565b60405180910390fd5b8047101561117d576040517f08c379a000000000000000000000000000000000000000000000000000000000815260040161117490613f94565b60405180910390fd5b60008060009054906101000a900473ffffffffffffffffffffffffffffffffffffffff1673ffffffffffffffffffffffffffffffffffffffff16826040516111c490613fe5565b60006040518083038185875af1925050503d8060008114611201576040519150601f19603f3d011682016040523d82523d6000602084013e611206565b606091505b505090508061124a576040517f08c379a000000000000000000000000000000000000000000000000000000000815260040161124190614046565b60405180910390fd5b5050565b6000600560008573ffffffffffffffffffffffffffffffffffffffff1673ffffffffffffffffffffffffffffffffffffffff16815260200190815260200160002060008473ffffffffffffffffffffffffffffffffffffffff1673ffffffffffffffffffffffffffffffffffffffff168152602001908152602001600020600083815260200190815260200160002060000160009054906101000a900460ff1690509392505050565b6000600460008473ffffffffffffffffffffffffffffffffffffffff1673ffffffffffffffffffffffffffffffffffffffff16815260200190815260200160002060008373ffffffffffffffffffffffffffffffffffffffff1673ffffffffffffffffffffffffffffffffffffffff16815260200190815260200160002060000160109054906101000a90046fffffffffffffffffffffffffffffffff16905092915050565b600060149054906101000a900460ff166113ec576040517f08c379a00000000000000000000000000000000000000000000000000000000081526004016113e3906140b2565b60405180910390fd5b3373ffffffffffffffffffffffffffffffffffffffff16600360008473ffffffffffffffffffffffffffffffffffffffff1673ffffffffffffffffffffffffffffffffffffffff16815260200190815260200160002060009054906101000a900473ffffffffffffffffffffffffffffffffffffffff1673ffffffffffffffffffffffffffffffffffffffff16146114b9576040517f08c379a00000000000000000000000000000000000000000000000000000000081526004016114b090613d61565b60405180910390fd5b3073ffffffffffffffffffffffffffffffffffffffff168173ffffffffffffffffffffffffffffffffffffffff1603611527576040517f08c379a000000000000000000000000000000000000000000000000000000000815260040161151e90613dcd565b60405180910390fd5b60006115338383611d91565b11611573576040517f08c379a000000000000000000000000000000000000000000000000000000000815260040161156a9061411e565b60405180910390fd5b600061157f8383611d91565b90506000600460008573ffffffffffffffffffffffffffffffffffffffff1673ffffffffffffffffffffffffffffffffffffffff16815260200190815260200160002060008473ffffffffffffffffffffffffffffffffffffffff1673ffffffffffffffffffffffffffffffffffffffff16815260200190815260200160002060000160006101000a8154816fffffffffffffffffffffffffffffffff02191690836fffffffffffffffffffffffffffffffff1602179055506000600460008573ffffffffffffffffffffffffffffffffffffffff1673ffffffffffffffffffffffffffffffffffffffff16815260200190815260200160002060008473ffffffffffffffffffffffffffffffffffffffff1673ffffffffffffffffffffffffffffffffffffffff16815260200190815260200160002060000160106101000a8154816fffffffffffffffffffffffffffffffff02191690836fffffffffffffffffffffffffffffffff16021790555061171a33828473ffffffffffffffffffffffffffffffffffffffff16612caf9092919063ffffffff16565b505050565b600033838361172d3361099c565b3046604051602001611744969594939291906141a7565b6040516020818303038152906040528051906020012090507f000000000000000000000000000000000000000000000000000000000000000073ffffffffffffffffffffffffffffffffffffffff166117ae856117a084612d35565b612d6590919063ffffffff16565b73ffffffffffffffffffffffffffffffffffffffff1614611804576040517f08c379a00000000000000000000000000000000000000000000000000000000081526004016117fb906142af565b60405180910390fd5b81421115611847576040517f08c379a000000000000000000000000000000000000000000000000000000000815260040161183e9061431b565b60405180910390fd5b600660003373ffffffffffffffffffffffffffffffffffffffff1673ffffffffffffffffffffffffffffffffffffffff16815260200190815260200160002060008154809291906118979061433b565b919050555082600360003373ffffffffffffffffffffffffffffffffffffffff1673ffffffffffffffffffffffffffffffffffffffff16815260200190815260200160002060006101000a81548173ffffffffffffffffffffffffffffffffffffffff021916908373ffffffffffffffffffffffffffffffffffffffff16021790555050505050565b600060149054906101000a900460ff1661196f576040517f08c379a0000000000000000000000000000000000000000000000000000000008152600401611966906140b2565b60405180910390fd5b3373ffffffffffffffffffffffffffffffffffffffff16600360008573ffffffffffffffffffffffffffffffffffffffff1673ffffffffffffffffffffffffffffffffffffffff16815260200190815260200160002060009054906101000a900473ffffffffffffffffffffffffffffffffffffffff1673ffffffffffffffffffffffffffffffffffffffff1614611a3c576040517f08c379a0000000000000000000000000000000000000000000000000000000008152600401611a3390613d61565b60405180910390fd5b3073ffffffffffffffffffffffffffffffffffffffff168273ffffffffffffffffffffffffffffffffffffffff1603611aaa576040517f08c379a0000000000000000000000000000000000000000000000000000000008152600401611aa190613dcd565b60405180910390fd5b611ab583838361124e565b611af4576040517f08c379a0000000000000000000000000000000000000000000000000000000008152600401611aeb90613e5f565b60405180910390fd5b6000600560008573ffffffffffffffffffffffffffffffffffffffff1673ffffffffffffffffffffffffffffffffffffffff16815260200190815260200160002060008473ffffffffffffffffffffffffffffffffffffffff1673ffffffffffffffffffffffffffffffffffffffff168152602001908152602001600020600083815260200190815260200160002060000160006101000a81548160ff0219169083151502179055506000600560008573ffffffffffffffffffffffffffffffffffffffff1673ffffffffffffffffffffffffffffffffffffffff16815260200190815260200160002060008473ffffffffffffffffffffffffffffffffffffffff1673ffffffffffffffffffffffffffffffffffffffff168152602001908152602001600020600083815260200190815260200160002060000160016101000a8154816fffffffffffffffffffffffffffffffff02191690836fffffffffffffffffffffffffffffffff1602179055508173ffffffffffffffffffffffffffffffffffffffff166342842e0e3033846040518463ffffffff1660e01b8152600401611ca293929190613eeb565b600060405180830381600087803b158015611cbc57600080fd5b505af1158015611cd0573d6000803e3d6000fd5b50505050505050565b6000600560008573ffffffffffffffffffffffffffffffffffffffff1673ffffffffffffffffffffffffffffffffffffffff16815260200190815260200160002060008473ffffffffffffffffffffffffffffffffffffffff1673ffffffffffffffffffffffffffffffffffffffff168152602001908152602001600020600083815260200190815260200160002060000160019054906101000a90046fffffffffffffffffffffffffffffffff1690509392505050565b6000600460008473ffffffffffffffffffffffffffffffffffffffff1673ffffffffffffffffffffffffffffffffffffffff16815260200190815260200160002060008373ffffffffffffffffffffffffffffffffffffffff1673ffffffffffffffffffffffffffffffffffffffff16815260200190815260200160002060000160009054906101000a90046fffffffffffffffffffffffffffffffff166fffffffffffffffffffffffffffffffff16905092915050565b3373ffffffffffffffffffffffffffffffffffffffff16600360008473ffffffffffffffffffffffffffffffffffffffff1673ffffffffffffffffffffffffffffffffffffffff16815260200190815260200160002060009054906101000a900473ffffffffffffffffffffffffffffffffffffffff1673ffffffffffffffffffffffffffffffffffffffff1614611f16576040517f08c379a0000000000000000000000000000000000000000000000000000000008152600401611f0d90613d61565b60405180910390fd5b3073ffffffffffffffffffffffffffffffffffffffff168173ffffffffffffffffffffffffffffffffffffffff1603611f84576040517f08c379a0000000000000000000000000000000000000000000000000000000008152600401611f7b90613dcd565b60405180910390fd5b6000611f908383611d91565b11611fd0576040517f08c379a0000000000000000000000000000000000000000000000000000000008152600401611fc79061411e565b60405180910390fd5b600460008373ffffffffffffffffffffffffffffffffffffffff1673ffffffffffffffffffffffffffffffffffffffff16815260200190815260200160002060008273ffffffffffffffffffffffffffffffffffffffff1673ffffffffffffffffffffffffffffffffffffffff16815260200190815260200160002060000160109054906101000a90046fffffffffffffffffffffffffffffffff166fffffffffffffffffffffffffffffffff163410156120c0576040517f08c379a00000000000000000000000000000000000000000000000000000000081526004016120b790613ecb565b60405180910390fd5b60006120cc8383611d91565b90506000600460008573ffffffffffffffffffffffffffffffffffffffff1673ffffffffffffffffffffffffffffffffffffffff16815260200190815260200160002060008473ffffffffffffffffffffffffffffffffffffffff1673ffffffffffffffffffffffffffffffffffffffff16815260200190815260200160002060000160006101000a8154816fffffffffffffffffffffffffffffffff02191690836fffffffffffffffffffffffffffffffff1602179055506000600460008573ffffffffffffffffffffffffffffffffffffffff1673ffffffffffffffffffffffffffffffffffffffff16815260200190815260200160002060008473ffffffffffffffffffffffffffffffffffffffff1673ffffffffffffffffffffffffffffffffffffffff16815260200190815260200160002060000160106101000a8154816fffffffffffffffffffffffffffffffff02191690836fffffffffffffffffffffffffffffffff16021790555061226733828473ffffffffffffffffffffffffffffffffffffffff16612caf9092919063ffffffff16565b505050565b60008060009054906101000a900473ffffffffffffffffffffffffffffffffffffffff1673ffffffffffffffffffffffffffffffffffffffff163373ffffffffffffffffffffffffffffffffffffffff16146122fd576040517f08c379a00000000000000000000000000000000000000000000000000000000081526004016122f490613a70565b60405180910390fd5b816fffffffffffffffffffffffffffffffff16600560008773ffffffffffffffffffffffffffffffffffffffff1673ffffffffffffffffffffffffffffffffffffffff16815260200190815260200160002060008673ffffffffffffffffffffffffffffffffffffffff1673ffffffffffffffffffffffffffffffffffffffff168152602001908152602001600020600085815260200190815260200160002060000160019054906101000a90046fffffffffffffffffffffffffffffffff166fffffffffffffffffffffffffffffffff161015612410576040517f08c379a000000000000000000000000000000000000000000000000000000000815260040161240790613b02565b60405180910390fd5b81600560008773ffffffffffffffffffffffffffffffffffffffff1673ffffffffffffffffffffffffffffffffffffffff16815260200190815260200160002060008673ffffffffffffffffffffffffffffffffffffffff1673ffffffffffffffffffffffffffffffffffffffff168152602001908152602001600020600085815260200190815260200160002060000160018282829054906101000a90046fffffffffffffffffffffffffffffffff166124cb9190613b51565b92506101000a8154816fffffffffffffffffffffffffffffffff02191690836fffffffffffffffffffffffffffffffff160217905550600560008673ffffffffffffffffffffffffffffffffffffffff1673ffffffffffffffffffffffffffffffffffffffff16815260200190815260200160002060008573ffffffffffffffffffffffffffffffffffffffff1673ffffffffffffffffffffffffffffffffffffffff168152602001908152602001600020600084815260200190815260200160002060000160019054906101000a90046fffffffffffffffffffffffffffffffff169050949350505050565b7f000000000000000000000000000000000000000000000000000000000000000073ffffffffffffffffffffffffffffffffffffffff163373ffffffffffffffffffffffffffffffffffffffff1614612646576040517f08c379a000000000000000000000000000000000000000000000000000000000815260040161263d906143f5565b60405180910390fd5b80600060146101000a81548160ff02191690831515021790555050565b60008054906101000a900473ffffffffffffffffffffffffffffffffffffffff1673ffffffffffffffffffffffffffffffffffffffff163373ffffffffffffffffffffffffffffffffffffffff16146126f1576040517f08c379a00000000000000000000000000000000000000000000000000000000081526004016126e890614487565b60405180910390fd5b60405180604001604052808273ffffffffffffffffffffffffffffffffffffffff16815260200142815250600160008201518160000160006101000a81548173ffffffffffffffffffffffffffffffffffffffff021916908373ffffffffffffffffffffffffffffffffffffffff1602179055506020820151816001015590505050565b6000600360008373ffffffffffffffffffffffffffffffffffffffff1673ffffffffffffffffffffffffffffffffffffffff16815260200190815260200160002060009054906101000a900473ffffffffffffffffffffffffffffffffffffffff169050919050565b60008054906101000a900473ffffffffffffffffffffffffffffffffffffffff1673ffffffffffffffffffffffffffffffffffffffff163373ffffffffffffffffffffffffffffffffffffffff161461286c576040517f08c379a000000000000000000000000000000000000000000000000000000000815260040161286390614487565b60405180910390fd5b60006001800154116128b3576040517f08c379a00000000000000000000000000000000000000000000000000000000081526004016128aa90614519565b60405180910390fd5b426212750060018001546128c79190614539565b10612907576040517f08c379a00000000000000000000000000000000000000000000000000000000081526004016128fe90614601565b60405180910390fd5b426213c680600180015461291b9190614539565b1161295b576040517f08c379a0000000000000000000000000000000000000000000000000000000008152600401612952906146b9565b60405180910390fd5b600160000160009054906101000a900473ffffffffffffffffffffffffffffffffffffffff166000806101000a81548173ffffffffffffffffffffffffffffffffffffffff021916908373ffffffffffffffffffffffffffffffffffffffff1602179055506129c86133c1565b80600160008201518160000160006101000a81548173ffffffffffffffffffffffffffffffffffffffff021916908373ffffffffffffffffffffffffffffffffffffffff1602179055506020820151816001015590505050565b7f000000000000000000000000000000000000000000000000000000000000000073ffffffffffffffffffffffffffffffffffffffff163373ffffffffffffffffffffffffffffffffffffffff1614612ab0576040517f08c379a0000000000000000000000000000000000000000000000000000000008152600401612aa790613c89565b60405180910390fd5b80600560008673ffffffffffffffffffffffffffffffffffffffff1673ffffffffffffffffffffffffffffffffffffffff16815260200190815260200160002060008573ffffffffffffffffffffffffffffffffffffffff1673ffffffffffffffffffffffffffffffffffffffff168152602001908152602001600020600084815260200190815260200160002060000160018282829054906101000a90046fffffffffffffffffffffffffffffffff16612b6b9190613ca9565b92506101000a8154816fffffffffffffffffffffffffffffffff02191690836fffffffffffffffffffffffffffffffff1602179055506001600560008673ffffffffffffffffffffffffffffffffffffffff1673ffffffffffffffffffffffffffffffffffffffff16815260200190815260200160002060008573ffffffffffffffffffffffffffffffffffffffff1673ffffffffffffffffffffffffffffffffffffffff168152602001908152602001600020600084815260200190815260200160002060000160006101000a81548160ff02191690831515021790555050505050565b60006fffffffffffffffffffffffffffffffff8016821115612ca7576040517f08c379a0000000000000000000000000000000000000000000000000000000008152600401612c9e9061474b565b60405180910390fd5b819050919050565b612d308363a9059cbb60e01b8484604051602401612cce92919061476b565b604051602081830303815290604052907bffffffffffffffffffffffffffffffffffffffffffffffffffffffff19166020820180517bffffffffffffffffffffffffffffffffffffffffffffffffffffffff8381831617835250505050612d8c565b505050565b600081604051602001612d489190614816565b604051602081830303815290604052805190602001209050919050565b6000806000612d748585612e53565b91509150612d8181612ed4565b819250505092915050565b6000612dee826040518060400160405280602081526020017f5361666545524332303a206c6f772d6c6576656c2063616c6c206661696c65648152508573ffffffffffffffffffffffffffffffffffffffff166130a09092919063ffffffff16565b9050600081511115612e4e5780806020019051810190612e0e9190614851565b612e4d576040517f08c379a0000000000000000000000000000000000000000000000000000000008152600401612e44906148f0565b60405180910390fd5b5b505050565b6000806041835103612e945760008060006020860151925060408601519150606086015160001a9050612e88878285856130b8565b94509450505050612ecd565b6040835103612ec4576000806020850151915060408501519050612eb98683836131c4565b935093505050612ecd565b60006002915091505b9250929050565b60006004811115612ee857612ee7614910565b5b816004811115612efb57612efa614910565b5b031561309d5760016004811115612f1557612f14614910565b5b816004811115612f2857612f27614910565b5b03612f68576040517f08c379a0000000000000000000000000000000000000000000000000000000008152600401612f5f9061498b565b60405180910390fd5b60026004811115612f7c57612f7b614910565b5b816004811115612f8f57612f8e614910565b5b03612fcf576040517f08c379a0000000000000000000000000000000000000000000000000000000008152600401612fc6906149f7565b60405180910390fd5b60036004811115612fe357612fe2614910565b5b816004811115612ff657612ff5614910565b5b03613036576040517f08c379a000000000000000000000000000000000000000000000000000000000815260040161302d90614a89565b60405180910390fd5b60048081111561304957613048614910565b5b81600481111561305c5761305b614910565b5b0361309c576040517f08c379a000000000000000000000000000000000000000000000000000000000815260040161309390614b1b565b60405180910390fd5b5b50565b60606130af8484600085613223565b90509392505050565b6000807f7fffffffffffffffffffffffffffffff5d576e7357a4501ddfe92f46681b20a08360001c11156130f35760006003915091506131bb565b601b8560ff161415801561310b5750601c8560ff1614155b1561311d5760006004915091506131bb565b6000600187878787604051600081526020016040526040516131429493929190614b66565b6020604051602081039080840390855afa158015613164573d6000803e3d6000fd5b505050602060405103519050600073ffffffffffffffffffffffffffffffffffffffff168173ffffffffffffffffffffffffffffffffffffffff16036131b2576000600192509250506131bb565b80600092509250505b94509492505050565b60008060007f7fffffffffffffffffffffffffffffffffffffffffffffffffffffffffffffff60001b841690506000601b60ff8660001c901c6132079190614539565b9050613215878288856130b8565b935093505050935093915050565b606082471015613268576040517f08c379a000000000000000000000000000000000000000000000000000000000815260040161325f90614c1d565b60405180910390fd5b61327185613337565b6132b0576040517f08c379a00000000000000000000000000000000000000000000000000000000081526004016132a790614c89565b60405180910390fd5b6000808673ffffffffffffffffffffffffffffffffffffffff1685876040516132d99190614d18565b60006040518083038185875af1925050503d8060008114613316576040519150601f19603f3d011682016040523d82523d6000602084013e61331b565b606091505b509150915061332b82828661335a565b92505050949350505050565b6000808273ffffffffffffffffffffffffffffffffffffffff163b119050919050565b6060831561336a578290506133ba565b60008351111561337d5782518084602001fd5b816040517f08c379a00000000000000000000000000000000000000000000000000000000081526004016133b19190614d73565b60405180910390fd5b9392505050565b6040518060400160405280600073ffffffffffffffffffffffffffffffffffffffff168152602001600081525090565b6000604051905090565b600080fd5b600080fd5b600073ffffffffffffffffffffffffffffffffffffffff82169050919050565b600061343082613405565b9050919050565b61344081613425565b811461344b57600080fd5b50565b60008135905061345d81613437565b92915050565b60006fffffffffffffffffffffffffffffffff82169050919050565b61348881613463565b811461349357600080fd5b50565b6000813590506134a58161347f565b92915050565b6000806000606084860312156134c4576134c36133fb565b5b60006134d28682870161344e565b93505060206134e38682870161344e565b92505060406134f486828701613496565b9150509250925092565b61350781613463565b82525050565b600060208201905061352260008301846134fe565b92915050565b600061353382613405565b9050919050565b61354381613528565b82525050565b6000819050919050565b61355c81613549565b82525050565b6000604082019050613577600083018561353a565b6135846020830184613553565b9392505050565b6000602082840312156135a1576135a06133fb565b5b60006135af8482850161344e565b91505092915050565b60006020820190506135cd6000830184613553565b92915050565b6135dc81613549565b81146135e757600080fd5b50565b6000813590506135f9816135d3565b92915050565b60008060008060808587031215613619576136186133fb565b5b60006136278782880161344e565b94505060206136388782880161344e565b9350506040613649878288016135ea565b925050606061365a87828801613496565b91505092959194509250565b60008060006060848603121561367f5761367e6133fb565b5b600061368d8682870161344e565b935050602061369e8682870161344e565b92505060406136af868287016135ea565b9150509250925092565b6000602082840312156136cf576136ce6133fb565b5b60006136dd848285016135ea565b91505092915050565b60008115159050919050565b6136fb816136e6565b82525050565b600060208201905061371660008301846136f2565b92915050565b60008060408385031215613733576137326133fb565b5b60006137418582860161344e565b92505060206137528582860161344e565b9150509250929050565b600080fd5b600080fd5b6000601f19601f8301169050919050565b7f4e487b7100000000000000000000000000000000000000000000000000000000600052604160045260246000fd5b6137af82613766565b810181811067ffffffffffffffff821117156137ce576137cd613777565b5b80604052505050565b60006137e16133f1565b90506137ed82826137a6565b919050565b600067ffffffffffffffff82111561380d5761380c613777565b5b61381682613766565b9050602081019050919050565b82818337600083830152505050565b6000613845613840846137f2565b6137d7565b90508281526020810184848401111561386157613860613761565b5b61386c848285613823565b509392505050565b600082601f8301126138895761388861375c565b5b8135613899848260208601613832565b91505092915050565b6000806000606084860312156138bb576138ba6133fb565b5b600084013567ffffffffffffffff8111156138d9576138d8613400565b5b6138e586828701613874565b93505060206138f68682870161344e565b9250506040613907868287016135ea565b9150509250925092565b61391a816136e6565b811461392557600080fd5b50565b60008135905061393781613911565b92915050565b600060208284031215613953576139526133fb565b5b600061396184828501613928565b91505092915050565b61397381613528565b811461397e57600080fd5b50565b6000813590506139908161396a565b92915050565b6000602082840312156139ac576139ab6133fb565b5b60006139ba84828501613981565b91505092915050565b6139cc81613425565b82525050565b60006020820190506139e760008301846139c3565b92915050565b600082825260208201905092915050565b7f6d73672e73656e646572206d75737420626520666565436f6e74726f6c6c657260008201527f2e00000000000000000000000000000000000000000000000000000000000000602082015250565b6000613a5a6021836139ed565b9150613a65826139fe565b604082019050919050565b60006020820190508181036000830152613a8981613a4d565b9050919050565b7f596f752063616e6e6f7420726564756365206d6f7265207468616e207468652060008201527f63757272656e74206665652e0000000000000000000000000000000000000000602082015250565b6000613aec602c836139ed565b9150613af782613a90565b604082019050919050565b60006020820190508181036000830152613b1b81613adf565b9050919050565b7f4e487b7100000000000000000000000000000000000000000000000000000000600052601160045260246000fd5b6000613b5c82613463565b9150613b6783613463565b925082821015613b7a57613b79613b22565b5b828203905092915050565b7f596f7520616c726561647920686176652072656769737465726564206120726560008201527f63697069656e7420616464726573730000000000000000000000000000000000602082015250565b6000613be1602f836139ed565b9150613bec82613b85565b604082019050919050565b60006020820190508181036000830152613c1081613bd4565b9050919050565b7f4f6e6c7920746865207472616e73666572657220636f6e74726163742063616e60008201527f206c6f672066756e64732e000000000000000000000000000000000000000000602082015250565b6000613c73602b836139ed565b9150613c7e82613c17565b604082019050919050565b60006020820190508181036000830152613ca281613c66565b9050919050565b6000613cb482613463565b9150613cbf83613463565b9250826fffffffffffffffffffffffffffffffff03821115613ce457613ce3613b22565b5b828201905092915050565b7f46756e6374696f6e2063616c6c6572206973206e6f7420616e20617574686f7260008201527f697a656420726563697069656e74416464726573732e00000000000000000000602082015250565b6000613d4b6036836139ed565b9150613d5682613cef565b604082019050919050565b60006020820190508181036000830152613d7a81613d3e565b9050919050565b7f546865207661756c74206973206e6f74206120746f6b656e2061646472657373600082015250565b6000613db76020836139ed565b9150613dc282613d81565b602082019050919050565b60006020820190508181036000830152613de681613daa565b9050919050565b7f496e73756666696369656e74207769746864726177616c20616c6c6f77616e6360008201527f652e000000000000000000000000000000000000000000000000000000000000602082015250565b6000613e496022836139ed565b9150613e5482613ded565b604082019050919050565b60006020820190508181036000830152613e7881613e3c565b9050919050565b7f496e73756666696369656e74207061796d656e742e0000000000000000000000600082015250565b6000613eb56015836139ed565b9150613ec082613e7f565b602082019050919050565b60006020820190508181036000830152613ee481613ea8565b9050919050565b6000606082019050613f0060008301866139c3565b613f0d60208301856139c3565b613f1a6040830184613553565b949350505050565b7f43616e6e6f74207769746864726177206d6f7265207468616e2074686520616d60008201527f6f756e7420696e2074686520636f6e74726163742e0000000000000000000000602082015250565b6000613f7e6035836139ed565b9150613f8982613f22565b604082019050919050565b60006020820190508181036000830152613fad81613f71565b9050919050565b600081905092915050565b50565b6000613fcf600083613fb4565b9150613fda82613fbf565b600082019050919050565b6000613ff082613fc2565b9150819050919050565b7f5472616e73666572206661696c65640000000000000000000000000000000000600082015250565b6000614030600f836139ed565b915061403b82613ffa565b602082019050919050565b6000602082019050818103600083015261405f81614023565b9050919050565b7f456d657267656e637920666c6167206e6f742073657400000000000000000000600082015250565b600061409c6016836139ed565b91506140a782614066565b602082019050919050565b600060208201905081810360008301526140cb8161408f565b9050919050565b7f4e6f207769746864726177616c20616c6c6f77616e63652e0000000000000000600082015250565b60006141086018836139ed565b9150614113826140d2565b602082019050919050565b60006020820190508181036000830152614137816140fb565b9050919050565b60008160601b9050919050565b60006141568261413e565b9050919050565b60006141688261414b565b9050919050565b61418061417b82613425565b61415d565b82525050565b6000819050919050565b6141a161419c82613549565b614186565b82525050565b60006141b3828961416f565b6014820191506141c3828861416f565b6014820191506141d38287614190565b6020820191506141e38286614190565b6020820191506141f3828561416f565b6014820191506142038284614190565b602082019150819050979650505050505050565b7f496e76616c6964207369676e61747572652e205369676e617475726520736f7560008201527f726365206d617920626520696e636f72726563742c206f7220612070726f766960208201527f64656420706172616d6574657220697320696e76616c69640000000000000000604082015250565b60006142996058836139ed565b91506142a482614217565b606082019050919050565b600060208201905081810360008301526142c88161428c565b9050919050565b7f5369676e61747572652065787069726564000000000000000000000000000000600082015250565b60006143056011836139ed565b9150614310826142cf565b602082019050919050565b60006020820190508181036000830152614334816142f8565b9050919050565b600061434682613549565b91507fffffffffffffffffffffffffffffffffffffffffffffffffffffffffffffffff820361437857614377613b22565b5b600182019050919050565b7f4f6e6c792063616c6c61626c6520627920696d6d757461626c6520656d65726760008201527f656e637946656552656d6f76657220726f6c6500000000000000000000000000602082015250565b60006143df6033836139ed565b91506143ea82614383565b604082019050919050565b6000602082019050818103600083015261440e816143d2565b9050919050565b7f6d73672e73656e646572206d757374206265207468652063757272656e74206660008201527f6565436f6e74726f6c6c65722e00000000000000000000000000000000000000602082015250565b6000614471602d836139ed565b915061447c82614415565b604082019050919050565b600060208201905081810360008301526144a081614464565b9050919050565b7f5375626d697420612074696d656c6f636b2072657175657374206265666f726560008201527f2063616c6c696e6720746869732066756e6374696f6e2e000000000000000000602082015250565b60006145036037836139ed565b915061450e826144a7565b604082019050919050565b60006020820190508181036000830152614532816144f6565b9050919050565b600061454482613549565b915061454f83613549565b9250827fffffffffffffffffffffffffffffffffffffffffffffffffffffffffffffffff0382111561458457614583613b22565b5b828201905092915050565b7f52657175657374206d757374207061737320612074776f2d7765656b2074696d60008201527f656c6f636b2e0000000000000000000000000000000000000000000000000000602082015250565b60006145eb6026836139ed565b91506145f68261458f565b604082019050919050565b6000602082019050818103600083015261461a816145de565b9050919050565b7f5265717565737420657870697265642e205265717565737473206d757374206f60008201527f636375722077697468696e20323420686f757273206f66206120636f6d706c6560208201527f7465642074696d656c6f636b2e00000000000000000000000000000000000000604082015250565b60006146a3604d836139ed565b91506146ae82614621565b606082019050919050565b600060208201905081810360008301526146d281614696565b9050919050565b7f53616665436173743a2076616c756520646f65736e27742066697420696e203160008201527f3238206269747300000000000000000000000000000000000000000000000000602082015250565b60006147356027836139ed565b9150614740826146d9565b604082019050919050565b6000602082019050818103600083015261476481614728565b9050919050565b600060408201905061478060008301856139c3565b61478d6020830184613553565b9392505050565b600081905092915050565b7f19457468657265756d205369676e6564204d6573736167653a0a333200000000600082015250565b60006147d5601c83614794565b91506147e08261479f565b601c82019050919050565b6000819050919050565b6000819050919050565b61481061480b826147eb565b6147f5565b82525050565b6000614821826147c8565b915061482d82846147ff565b60208201915081905092915050565b60008151905061484b81613911565b92915050565b600060208284031215614867576148666133fb565b5b60006148758482850161483c565b91505092915050565b7f5361666545524332303a204552433230206f7065726174696f6e20646964206e60008201527f6f74207375636365656400000000000000000000000000000000000000000000602082015250565b60006148da602a836139ed565b91506148e58261487e565b604082019050919050565b60006020820190508181036000830152614909816148cd565b9050919050565b7f4e487b7100000000000000000000000000000000000000000000000000000000600052602160045260246000fd5b7f45434453413a20696e76616c6964207369676e61747572650000000000000000600082015250565b60006149756018836139ed565b91506149808261493f565b602082019050919050565b600060208201905081810360008301526149a481614968565b9050919050565b7f45434453413a20696e76616c6964207369676e6174757265206c656e67746800600082015250565b60006149e1601f836139ed565b91506149ec826149ab565b602082019050919050565b60006020820190508181036000830152614a10816149d4565b9050919050565b7f45434453413a20696e76616c6964207369676e6174757265202773272076616c60008201527f7565000000000000000000000000000000000000000000000000000000000000602082015250565b6000614a736022836139ed565b9150614a7e82614a17565b604082019050919050565b60006020820190508181036000830152614aa281614a66565b9050919050565b7f45434453413a20696e76616c6964207369676e6174757265202776272076616c60008201527f7565000000000000000000000000000000000000000000000000000000000000602082015250565b6000614b056022836139ed565b9150614b1082614aa9565b604082019050919050565b60006020820190508181036000830152614b3481614af8565b9050919050565b614b44816147eb565b82525050565b600060ff82169050919050565b614b6081614b4a565b82525050565b6000608082019050614b7b6000830187614b3b565b614b886020830186614b57565b614b956040830185614b3b565b614ba26060830184614b3b565b95945050505050565b7f416464726573733a20696e73756666696369656e742062616c616e636520666f60008201527f722063616c6c0000000000000000000000000000000000000000000000000000602082015250565b6000614c076026836139ed565b9150614c1282614bab565b604082019050919050565b60006020820190508181036000830152614c3681614bfa565b9050919050565b7f416464726573733a2063616c6c20746f206e6f6e2d636f6e7472616374000000600082015250565b6000614c73601d836139ed565b9150614c7e82614c3d565b602082019050919050565b60006020820190508181036000830152614ca281614c66565b9050919050565b600081519050919050565b60005b83811015614cd2578082015181840152602081019050614cb7565b83811115614ce1576000848401525b50505050565b6000614cf282614ca9565b614cfc8185613fb4565b9350614d0c818560208601614cb4565b80840191505092915050565b6000614d248284614ce7565b915081905092915050565b600081519050919050565b6000614d4582614d2f565b614d4f81856139ed565b9350614d5f818560208601614cb4565b614d6881613766565b840191505092915050565b60006020820190508181036000830152614d8d8184614d3a565b90509291505056fea26469706673582212200cca71d6106dd686dcda50718bd9982eb20520b97fdf4074ffc8d56e990b03a264736f6c634300080d0033",
  "linkReferences": {},
  "deployedLinkReferences": {}
}