{
  "_format": "hh-sol-artifact-1",
  "contractName": "Vault",
  "sourceName": "contracts/Vault.sol",
  "abi": [
    {
      "inputs": [
        {
          "internalType": "address",
          "name": "_flashbot",
          "type": "address"
        },
        {
          "internalType": "address",
          "name": "_serverSigner",
          "type": "address"
        }
      ],
      "stateMutability": "nonpayable",
      "type": "constructor"
    },
    {
      "inputs": [
        {
          "internalType": "address",
          "name": "_originalAddress",
          "type": "address"
        },
        {
          "internalType": "address",
          "name": "_erc20Address",
          "type": "address"
        }
      ],
      "name": "canWithdrawERC20",
      "outputs": [
        {
          "internalType": "uint256",
          "name": "",
          "type": "uint256"
        }
      ],
      "stateMutability": "view",
      "type": "function"
    },
    {
      "inputs": [
        {
          "internalType": "address",
          "name": "_originalAddress",
          "type": "address"
        },
        {
          "internalType": "address",
          "name": "_erc721Address",
          "type": "address"
        },
        {
          "internalType": "uint256",
          "name": "_id",
          "type": "uint256"
        }
      ],
      "name": "canWithdrawERC721",
      "outputs": [
        {
          "internalType": "bool",
          "name": "",
          "type": "bool"
        }
      ],
      "stateMutability": "view",
      "type": "function"
    },
    {
      "inputs": [
        {
          "internalType": "bytes32",
          "name": "_data",
          "type": "bytes32"
        },
        {
          "internalType": "bytes",
          "name": "_signature",
          "type": "bytes"
        },
        {
          "internalType": "address",
          "name": "_newRecipientAddress",
          "type": "address"
        }
      ],
      "name": "changeRecipientAddress",
      "outputs": [],
      "stateMutability": "nonpayable",
      "type": "function"
    },
    {
      "inputs": [
        {
          "internalType": "address",
          "name": "_originalAddress",
          "type": "address"
        },
        {
          "internalType": "address",
          "name": "_erc20Address",
          "type": "address"
        },
        {
          "internalType": "uint256",
          "name": "_amount",
          "type": "uint256"
        },
        {
          "internalType": "uint128",
          "name": "_fee",
          "type": "uint128"
        }
      ],
      "name": "logIncomingERC20",
      "outputs": [],
      "stateMutability": "nonpayable",
      "type": "function"
    },
    {
      "inputs": [
        {
          "internalType": "address",
          "name": "_originalAddress",
          "type": "address"
        },
        {
          "internalType": "address",
          "name": "_erc721Address",
          "type": "address"
        },
        {
          "internalType": "uint256",
          "name": "_id",
          "type": "uint256"
        },
        {
          "internalType": "uint128",
          "name": "_fee",
          "type": "uint128"
        }
      ],
      "name": "logIncomingERC721",
      "outputs": [],
      "stateMutability": "nonpayable",
      "type": "function"
    },
    {
      "inputs": [
        {
          "internalType": "address",
          "name": "operator",
          "type": "address"
        },
        {
          "internalType": "address",
          "name": "from",
          "type": "address"
        },
        {
          "internalType": "uint256",
          "name": "tokenId",
          "type": "uint256"
        },
        {
          "internalType": "bytes",
          "name": "data",
          "type": "bytes"
        }
      ],
      "name": "onERC721Received",
      "outputs": [
        {
          "internalType": "bytes4",
          "name": "",
          "type": "bytes4"
        }
      ],
      "stateMutability": "nonpayable",
      "type": "function"
    },
    {
      "inputs": [
        {
          "internalType": "address",
          "name": "_recipient",
          "type": "address"
        }
      ],
      "name": "setupRecipientAddress",
      "outputs": [],
      "stateMutability": "nonpayable",
      "type": "function"
    },
    {
      "inputs": [
        {
          "internalType": "address",
          "name": "_originalAddress",
          "type": "address"
        }
      ],
      "name": "viewRecipientAddress",
      "outputs": [
        {
          "internalType": "address",
          "name": "",
          "type": "address"
        }
      ],
      "stateMutability": "view",
      "type": "function"
    },
    {
      "inputs": [
        {
          "internalType": "address",
          "name": "_originalAddress",
          "type": "address"
        },
        {
          "internalType": "address",
          "name": "_erc20Address",
          "type": "address"
        },
        {
          "internalType": "uint256",
          "name": "_amount",
          "type": "uint256"
        }
      ],
      "name": "withdrawERC20",
      "outputs": [],
      "stateMutability": "payable",
      "type": "function"
    },
    {
      "inputs": [
        {
          "internalType": "address",
          "name": "_originalAddress",
          "type": "address"
        },
        {
          "internalType": "address",
          "name": "_erc721Address",
          "type": "address"
        },
        {
          "internalType": "uint256",
          "name": "_id",
          "type": "uint256"
        }
      ],
      "name": "withdrawERC721",
      "outputs": [],
      "stateMutability": "payable",
      "type": "function"
    }
  ],
  "bytecode": "0x60806040523480156200001157600080fd5b50604051620027203803806200272083398181016040528101906200003791906200012a565b816000806101000a81548173ffffffffffffffffffffffffffffffffffffffff021916908373ffffffffffffffffffffffffffffffffffffffff16021790555080600160006101000a81548173ffffffffffffffffffffffffffffffffffffffff021916908373ffffffffffffffffffffffffffffffffffffffff160217905550505062000171565b600080fd5b600073ffffffffffffffffffffffffffffffffffffffff82169050919050565b6000620000f282620000c5565b9050919050565b6200010481620000e5565b81146200011057600080fd5b50565b6000815190506200012481620000f9565b92915050565b60008060408385031215620001445762000143620000c0565b5b6000620001548582860162000113565b9250506020620001678582860162000113565b9150509250929050565b61259f80620001816000396000f3fe6080604052600436106100915760003560e01c80634f4a7e70116100595780634f4a7e701461015d57806390ffaa2a1461019a578063a7deb2d6146101d7578063d9ce6ae714610200578063f574e2b61461023d57610091565b80630ca9317114610096578063150b7a02146100bf5780633d602dbe146100fc5780634025feb21461012557806344004cc114610141575b600080fd5b3480156100a257600080fd5b506100bd60048036038101906100b8919061179b565b610266565b005b3480156100cb57600080fd5b506100e660048036038101906100e19190611863565b61037f565b6040516100f39190611926565b60405180910390f35b34801561010857600080fd5b50610123600480360381019061011e9190611989565b610394565b005b61013f600480360381019061013a91906119f0565b610594565b005b61015b600480360381019061015691906119f0565b610991565b005b34801561016957600080fd5b50610184600480360381019061017f91906119f0565b610db5565b6040516101919190611a5e565b60405180910390f35b3480156101a657600080fd5b506101c160048036038101906101bc9190611a79565b610e5e565b6040516101ce9190611ac8565b60405180910390f35b3480156101e357600080fd5b506101fe60048036038101906101f99190611c5a565b610f16565b005b34801561020c57600080fd5b506102276004803603810190610222919061179b565b6110ad565b6040516102349190611cd8565b60405180910390f35b34801561024957600080fd5b50610264600480360381019061025f9190611989565b611116565b005b600073ffffffffffffffffffffffffffffffffffffffff16600260003373ffffffffffffffffffffffffffffffffffffffff1673ffffffffffffffffffffffffffffffffffffffff16815260200190815260200160002060009054906101000a900473ffffffffffffffffffffffffffffffffffffffff1673ffffffffffffffffffffffffffffffffffffffff16146102fe57600080fd5b80600260003373ffffffffffffffffffffffffffffffffffffffff1673ffffffffffffffffffffffffffffffffffffffff16815260200190815260200160002060006101000a81548173ffffffffffffffffffffffffffffffffffffffff021916908373ffffffffffffffffffffffffffffffffffffffff16021790555050565b600063150b7a0260e01b905095945050505050565b60008054906101000a900473ffffffffffffffffffffffffffffffffffffffff1673ffffffffffffffffffffffffffffffffffffffff163373ffffffffffffffffffffffffffffffffffffffff1614610422576040517f08c379a000000000000000000000000000000000000000000000000000000000815260040161041990611d76565b60405180910390fd5b80600360008673ffffffffffffffffffffffffffffffffffffffff1673ffffffffffffffffffffffffffffffffffffffff16815260200190815260200160002060008573ffffffffffffffffffffffffffffffffffffffff1673ffffffffffffffffffffffffffffffffffffffff16815260200190815260200160002060000160106101000a8154816fffffffffffffffffffffffffffffffff02191690836fffffffffffffffffffffffffffffffff16021790555081600360008673ffffffffffffffffffffffffffffffffffffffff1673ffffffffffffffffffffffffffffffffffffffff16815260200190815260200160002060008573ffffffffffffffffffffffffffffffffffffffff1673ffffffffffffffffffffffffffffffffffffffff16815260200190815260200160002060000160006101000a8154816fffffffffffffffffffffffffffffffff02191690836fffffffffffffffffffffffffffffffff16021790555050505050565b3373ffffffffffffffffffffffffffffffffffffffff16600260008573ffffffffffffffffffffffffffffffffffffffff1673ffffffffffffffffffffffffffffffffffffffff16815260200190815260200160002060009054906101000a900473ffffffffffffffffffffffffffffffffffffffff1673ffffffffffffffffffffffffffffffffffffffff1614610661576040517f08c379a000000000000000000000000000000000000000000000000000000000815260040161065890611e08565b60405180910390fd5b61066c838383610db5565b6106ab576040517f08c379a00000000000000000000000000000000000000000000000000000000081526004016106a290611e9a565b60405180910390fd5b600460008473ffffffffffffffffffffffffffffffffffffffff1673ffffffffffffffffffffffffffffffffffffffff16815260200190815260200160002060008373ffffffffffffffffffffffffffffffffffffffff1673ffffffffffffffffffffffffffffffffffffffff168152602001908152602001600020600082815260200190815260200160002060000160019054906101000a90046fffffffffffffffffffffffffffffffff166fffffffffffffffffffffffffffffffff163410156107ac576040517f08c379a00000000000000000000000000000000000000000000000000000000081526004016107a390611f06565b60405180910390fd5b6000600460008573ffffffffffffffffffffffffffffffffffffffff1673ffffffffffffffffffffffffffffffffffffffff16815260200190815260200160002060008473ffffffffffffffffffffffffffffffffffffffff1673ffffffffffffffffffffffffffffffffffffffff168152602001908152602001600020600083815260200190815260200160002060000160006101000a81548160ff0219169083151502179055506000600460008573ffffffffffffffffffffffffffffffffffffffff1673ffffffffffffffffffffffffffffffffffffffff16815260200190815260200160002060008473ffffffffffffffffffffffffffffffffffffffff1673ffffffffffffffffffffffffffffffffffffffff168152602001908152602001600020600083815260200190815260200160002060000160016101000a8154816fffffffffffffffffffffffffffffffff02191690836fffffffffffffffffffffffffffffffff1602179055508173ffffffffffffffffffffffffffffffffffffffff166323b872dd3033846040518463ffffffff1660e01b815260040161095a93929190611f26565b600060405180830381600087803b15801561097457600080fd5b505af1158015610988573d6000803e3d6000fd5b50505050505050565b3373ffffffffffffffffffffffffffffffffffffffff16600260008573ffffffffffffffffffffffffffffffffffffffff1673ffffffffffffffffffffffffffffffffffffffff16815260200190815260200160002060009054906101000a900473ffffffffffffffffffffffffffffffffffffffff1673ffffffffffffffffffffffffffffffffffffffff1614610a5e576040517f08c379a0000000000000000000000000000000000000000000000000000000008152600401610a5590611e08565b60405180910390fd5b80610a698484610e5e565b1015610aaa576040517f08c379a0000000000000000000000000000000000000000000000000000000008152600401610aa190611e9a565b60405180910390fd5b600360008473ffffffffffffffffffffffffffffffffffffffff1673ffffffffffffffffffffffffffffffffffffffff16815260200190815260200160002060008373ffffffffffffffffffffffffffffffffffffffff1673ffffffffffffffffffffffffffffffffffffffff16815260200190815260200160002060000160109054906101000a90046fffffffffffffffffffffffffffffffff166fffffffffffffffffffffffffffffffff16341015610b9a576040517f08c379a0000000000000000000000000000000000000000000000000000000008152600401610b9190611f06565b60405180910390fd5b80600360008573ffffffffffffffffffffffffffffffffffffffff1673ffffffffffffffffffffffffffffffffffffffff16815260200190815260200160002060008473ffffffffffffffffffffffffffffffffffffffff1673ffffffffffffffffffffffffffffffffffffffff16815260200190815260200160002060000160008282829054906101000a90046fffffffffffffffffffffffffffffffff16610c449190611f8c565b92506101000a8154816fffffffffffffffffffffffffffffffff02191690836fffffffffffffffffffffffffffffffff1602179055506000600360008573ffffffffffffffffffffffffffffffffffffffff1673ffffffffffffffffffffffffffffffffffffffff16815260200190815260200160002060008473ffffffffffffffffffffffffffffffffffffffff1673ffffffffffffffffffffffffffffffffffffffff16815260200190815260200160002060000160106101000a8154816fffffffffffffffffffffffffffffffff02191690836fffffffffffffffffffffffffffffffff1602179055508173ffffffffffffffffffffffffffffffffffffffff1663a9059cbb33836040518363ffffffff1660e01b8152600401610d6c929190611fc0565b6020604051808303816000875af1158015610d8b573d6000803e3d6000fd5b505050506040513d601f19601f82011682018060405250810190610daf9190612015565b50505050565b6000600460008573ffffffffffffffffffffffffffffffffffffffff1673ffffffffffffffffffffffffffffffffffffffff16815260200190815260200160002060008473ffffffffffffffffffffffffffffffffffffffff1673ffffffffffffffffffffffffffffffffffffffff168152602001908152602001600020600083815260200190815260200160002060000160009054906101000a900460ff1690509392505050565b6000600360008473ffffffffffffffffffffffffffffffffffffffff1673ffffffffffffffffffffffffffffffffffffffff16815260200190815260200160002060008373ffffffffffffffffffffffffffffffffffffffff1673ffffffffffffffffffffffffffffffffffffffff16815260200190815260200160002060000160009054906101000a90046fffffffffffffffffffffffffffffffff166fffffffffffffffffffffffffffffffff16905092915050565b600160009054906101000a900473ffffffffffffffffffffffffffffffffffffffff1673ffffffffffffffffffffffffffffffffffffffff16610f6a83610f5c8661131a565b61134a90919063ffffffff16565b73ffffffffffffffffffffffffffffffffffffffff1614610fc0576040517f08c379a0000000000000000000000000000000000000000000000000000000008152600401610fb7906120b4565b60405180910390fd5b823382604051602001610fd492919061211c565b604051602081830303815290604052805190602001201461102a576040517f08c379a0000000000000000000000000000000000000000000000000000000008152600401611021906121ba565b60405180910390fd5b80600260003373ffffffffffffffffffffffffffffffffffffffff1673ffffffffffffffffffffffffffffffffffffffff16815260200190815260200160002060006101000a81548173ffffffffffffffffffffffffffffffffffffffff021916908373ffffffffffffffffffffffffffffffffffffffff160217905550505050565b6000600260008373ffffffffffffffffffffffffffffffffffffffff1673ffffffffffffffffffffffffffffffffffffffff16815260200190815260200160002060009054906101000a900473ffffffffffffffffffffffffffffffffffffffff169050919050565b60008054906101000a900473ffffffffffffffffffffffffffffffffffffffff1673ffffffffffffffffffffffffffffffffffffffff163373ffffffffffffffffffffffffffffffffffffffff16146111a4576040517f08c379a000000000000000000000000000000000000000000000000000000000815260040161119b90611d76565b60405180910390fd5b80600460008673ffffffffffffffffffffffffffffffffffffffff1673ffffffffffffffffffffffffffffffffffffffff16815260200190815260200160002060008573ffffffffffffffffffffffffffffffffffffffff1673ffffffffffffffffffffffffffffffffffffffff168152602001908152602001600020600084815260200190815260200160002060000160016101000a8154816fffffffffffffffffffffffffffffffff02191690836fffffffffffffffffffffffffffffffff1602179055506001600460008673ffffffffffffffffffffffffffffffffffffffff1673ffffffffffffffffffffffffffffffffffffffff16815260200190815260200160002060008573ffffffffffffffffffffffffffffffffffffffff1673ffffffffffffffffffffffffffffffffffffffff168152602001908152602001600020600084815260200190815260200160002060000160006101000a81548160ff02191690831515021790555050505050565b60008160405160200161132d9190612252565b604051602081830303815290604052805190602001209050919050565b60008060006113598585611371565b91509150611366816113f2565b819250505092915050565b60008060418351036113b25760008060006020860151925060408601519150606086015160001a90506113a6878285856115be565b945094505050506113eb565b60408351036113e25760008060208501519150604085015190506113d78683836116ca565b9350935050506113eb565b60006002915091505b9250929050565b6000600481111561140657611405612278565b5b81600481111561141957611418612278565b5b03156115bb576001600481111561143357611432612278565b5b81600481111561144657611445612278565b5b03611486576040517f08c379a000000000000000000000000000000000000000000000000000000000815260040161147d906122f3565b60405180910390fd5b6002600481111561149a57611499612278565b5b8160048111156114ad576114ac612278565b5b036114ed576040517f08c379a00000000000000000000000000000000000000000000000000000000081526004016114e49061235f565b60405180910390fd5b6003600481111561150157611500612278565b5b81600481111561151457611513612278565b5b03611554576040517f08c379a000000000000000000000000000000000000000000000000000000000815260040161154b906123f1565b60405180910390fd5b60048081111561156757611566612278565b5b81600481111561157a57611579612278565b5b036115ba576040517f08c379a00000000000000000000000000000000000000000000000000000000081526004016115b190612483565b60405180910390fd5b5b50565b6000807f7fffffffffffffffffffffffffffffff5d576e7357a4501ddfe92f46681b20a08360001c11156115f95760006003915091506116c1565b601b8560ff16141580156116115750601c8560ff1614155b156116235760006004915091506116c1565b60006001878787876040516000815260200160405260405161164894939291906124ce565b6020604051602081039080840390855afa15801561166a573d6000803e3d6000fd5b505050602060405103519050600073ffffffffffffffffffffffffffffffffffffffff168173ffffffffffffffffffffffffffffffffffffffff16036116b8576000600192509250506116c1565b80600092509250505b94509492505050565b60008060007f7fffffffffffffffffffffffffffffffffffffffffffffffffffffffffffffff60001b841690506000601b60ff8660001c901c61170d9190612513565b905061171b878288856115be565b935093505050935093915050565b6000604051905090565b600080fd5b600080fd5b600073ffffffffffffffffffffffffffffffffffffffff82169050919050565b60006117688261173d565b9050919050565b6117788161175d565b811461178357600080fd5b50565b6000813590506117958161176f565b92915050565b6000602082840312156117b1576117b0611733565b5b60006117bf84828501611786565b91505092915050565b6000819050919050565b6117db816117c8565b81146117e657600080fd5b50565b6000813590506117f8816117d2565b92915050565b600080fd5b600080fd5b600080fd5b60008083601f840112611823576118226117fe565b5b8235905067ffffffffffffffff8111156118405761183f611803565b5b60208301915083600182028301111561185c5761185b611808565b5b9250929050565b60008060008060006080868803121561187f5761187e611733565b5b600061188d88828901611786565b955050602061189e88828901611786565b94505060406118af888289016117e9565b935050606086013567ffffffffffffffff8111156118d0576118cf611738565b5b6118dc8882890161180d565b92509250509295509295909350565b60007fffffffff0000000000000000000000000000000000000000000000000000000082169050919050565b611920816118eb565b82525050565b600060208201905061193b6000830184611917565b92915050565b60006fffffffffffffffffffffffffffffffff82169050919050565b61196681611941565b811461197157600080fd5b50565b6000813590506119838161195d565b92915050565b600080600080608085870312156119a3576119a2611733565b5b60006119b187828801611786565b94505060206119c287828801611786565b93505060406119d3878288016117e9565b92505060606119e487828801611974565b91505092959194509250565b600080600060608486031215611a0957611a08611733565b5b6000611a1786828701611786565b9350506020611a2886828701611786565b9250506040611a39868287016117e9565b9150509250925092565b60008115159050919050565b611a5881611a43565b82525050565b6000602082019050611a736000830184611a4f565b92915050565b60008060408385031215611a9057611a8f611733565b5b6000611a9e85828601611786565b9250506020611aaf85828601611786565b9150509250929050565b611ac2816117c8565b82525050565b6000602082019050611add6000830184611ab9565b92915050565b6000819050919050565b611af681611ae3565b8114611b0157600080fd5b50565b600081359050611b1381611aed565b92915050565b600080fd5b6000601f19601f8301169050919050565b7f4e487b7100000000000000000000000000000000000000000000000000000000600052604160045260246000fd5b611b6782611b1e565b810181811067ffffffffffffffff82111715611b8657611b85611b2f565b5b80604052505050565b6000611b99611729565b9050611ba58282611b5e565b919050565b600067ffffffffffffffff821115611bc557611bc4611b2f565b5b611bce82611b1e565b9050602081019050919050565b82818337600083830152505050565b6000611bfd611bf884611baa565b611b8f565b905082815260208101848484011115611c1957611c18611b19565b5b611c24848285611bdb565b509392505050565b600082601f830112611c4157611c406117fe565b5b8135611c51848260208601611bea565b91505092915050565b600080600060608486031215611c7357611c72611733565b5b6000611c8186828701611b04565b935050602084013567ffffffffffffffff811115611ca257611ca1611738565b5b611cae86828701611c2c565b9250506040611cbf86828701611786565b9150509250925092565b611cd28161175d565b82525050565b6000602082019050611ced6000830184611cc9565b92915050565b600082825260208201905092915050565b7f4f6e6c792074686520666c617368626f7420636f6e74726163742063616e206c60008201527f6f672066756e64732e0000000000000000000000000000000000000000000000602082015250565b6000611d60602983611cf3565b9150611d6b82611d04565b604082019050919050565b60006020820190508181036000830152611d8f81611d53565b9050919050565b7f46756e6374696f6e2063616c6c6572206973206e6f7420616e20617574686f7260008201527f697a656420726563697069656e74416464726573732e00000000000000000000602082015250565b6000611df2603683611cf3565b9150611dfd82611d96565b604082019050919050565b60006020820190508181036000830152611e2181611de5565b9050919050565b7f496e73756666696369656e74207769746864726177616c20616c6c6f77616e6360008201527f652e000000000000000000000000000000000000000000000000000000000000602082015250565b6000611e84602283611cf3565b9150611e8f82611e28565b604082019050919050565b60006020820190508181036000830152611eb381611e77565b9050919050565b7f496e73756666696369656e74207061796d656e742e0000000000000000000000600082015250565b6000611ef0601583611cf3565b9150611efb82611eba565b602082019050919050565b60006020820190508181036000830152611f1f81611ee3565b9050919050565b6000606082019050611f3b6000830186611cc9565b611f486020830185611cc9565b611f556040830184611ab9565b949350505050565b7f4e487b7100000000000000000000000000000000000000000000000000000000600052601160045260246000fd5b6000611f9782611941565b9150611fa283611941565b925082821015611fb557611fb4611f5d565b5b828203905092915050565b6000604082019050611fd56000830185611cc9565b611fe26020830184611ab9565b9392505050565b611ff281611a43565b8114611ffd57600080fd5b50565b60008151905061200f81611fe9565b92915050565b60006020828403121561202b5761202a611733565b5b600061203984828501612000565b91505092915050565b7f5369676e6174757265206d7573742062652066726f6d2053455256455220534960008201527f474e455220726f6c650000000000000000000000000000000000000000000000602082015250565b600061209e602983611cf3565b91506120a982612042565b604082019050919050565b600060208201905081810360008301526120cd81612091565b9050919050565b60008160601b9050919050565b60006120ec826120d4565b9050919050565b60006120fe826120e1565b9050919050565b6121166121118261175d565b6120f3565b82525050565b60006121288285612105565b6014820191506121388284612105565b6014820191508190509392505050565b7f50726f7669646564207369676e617475726520646f6573206e6f74206d61746360008201527f6820726571756972656420706172616d65746572730000000000000000000000602082015250565b60006121a4603583611cf3565b91506121af82612148565b604082019050919050565b600060208201905081810360008301526121d381612197565b9050919050565b600081905092915050565b7f19457468657265756d205369676e6564204d6573736167653a0a333200000000600082015250565b600061221b601c836121da565b9150612226826121e5565b601c82019050919050565b6000819050919050565b61224c61224782611ae3565b612231565b82525050565b600061225d8261220e565b9150612269828461223b565b60208201915081905092915050565b7f4e487b7100000000000000000000000000000000000000000000000000000000600052602160045260246000fd5b7f45434453413a20696e76616c6964207369676e61747572650000000000000000600082015250565b60006122dd601883611cf3565b91506122e8826122a7565b602082019050919050565b6000602082019050818103600083015261230c816122d0565b9050919050565b7f45434453413a20696e76616c6964207369676e6174757265206c656e67746800600082015250565b6000612349601f83611cf3565b915061235482612313565b602082019050919050565b600060208201905081810360008301526123788161233c565b9050919050565b7f45434453413a20696e76616c6964207369676e6174757265202773272076616c60008201527f7565000000000000000000000000000000000000000000000000000000000000602082015250565b60006123db602283611cf3565b91506123e68261237f565b604082019050919050565b6000602082019050818103600083015261240a816123ce565b9050919050565b7f45434453413a20696e76616c6964207369676e6174757265202776272076616c60008201527f7565000000000000000000000000000000000000000000000000000000000000602082015250565b600061246d602283611cf3565b915061247882612411565b604082019050919050565b6000602082019050818103600083015261249c81612460565b9050919050565b6124ac81611ae3565b82525050565b600060ff82169050919050565b6124c8816124b2565b82525050565b60006080820190506124e360008301876124a3565b6124f060208301866124bf565b6124fd60408301856124a3565b61250a60608301846124a3565b95945050505050565b600061251e826117c8565b9150612529836117c8565b9250827fffffffffffffffffffffffffffffffffffffffffffffffffffffffffffffffff0382111561255e5761255d611f5d565b5b82820190509291505056fea2646970667358221220d3437f03f697e3cc15fc72926b21be29f35ac6157f17a6b912c230f07108541364736f6c634300080d0033",
  "linkReferences": {},
  "deployedLinkReferences": {}
}