{
  "_format": "hh-sol-artifact-1",
  "contractName": "Vault",
  "sourceName": "contracts/Vault.sol",
  "abi": [
    {
      "anonymous": false,
      "inputs": [
        {
          "indexed": true,
          "internalType": "address",
          "name": "previousOwner",
          "type": "address"
        },
        {
          "indexed": true,
          "internalType": "address",
          "name": "newOwner",
          "type": "address"
        }
      ],
      "name": "OwnershipTransferred",
      "type": "event"
    },
    {
      "inputs": [
        {
          "internalType": "address",
          "name": "claimerAddress",
          "type": "address"
        },
        {
          "internalType": "address",
          "name": "erc20Address",
          "type": "address"
        }
      ],
      "name": "canWithdrawERC20",
      "outputs": [
        {
          "internalType": "uint256",
          "name": "",
          "type": "uint256"
        }
      ],
      "stateMutability": "view",
      "type": "function"
    },
    {
      "inputs": [
        {
          "internalType": "address",
          "name": "claimerAddress",
          "type": "address"
        },
        {
          "internalType": "address",
          "name": "erc721Address",
          "type": "address"
        },
        {
          "internalType": "uint256",
          "name": "id",
          "type": "uint256"
        }
      ],
      "name": "canWithdrawERC721",
      "outputs": [
        {
          "internalType": "bool",
          "name": "",
          "type": "bool"
        }
      ],
      "stateMutability": "view",
      "type": "function"
    },
    {
      "inputs": [],
      "name": "contractFee",
      "outputs": [
        {
          "internalType": "uint256",
          "name": "",
          "type": "uint256"
        }
      ],
      "stateMutability": "view",
      "type": "function"
    },
    {
      "inputs": [
        {
          "internalType": "address",
          "name": "claimerAddress",
          "type": "address"
        },
        {
          "internalType": "address",
          "name": "erc20Address",
          "type": "address"
        },
        {
          "internalType": "uint256",
          "name": "amount",
          "type": "uint256"
        }
      ],
      "name": "logIncomingERC20",
      "outputs": [],
      "stateMutability": "nonpayable",
      "type": "function"
    },
    {
      "inputs": [
        {
          "internalType": "address",
          "name": "claimerAddress",
          "type": "address"
        },
        {
          "internalType": "address",
          "name": "erc721Address",
          "type": "address"
        },
        {
          "internalType": "uint256",
          "name": "id",
          "type": "uint256"
        }
      ],
      "name": "logIncomingERC721",
      "outputs": [],
      "stateMutability": "nonpayable",
      "type": "function"
    },
    {
      "inputs": [
        {
          "internalType": "address",
          "name": "operator",
          "type": "address"
        },
        {
          "internalType": "address",
          "name": "from",
          "type": "address"
        },
        {
          "internalType": "uint256",
          "name": "tokenId",
          "type": "uint256"
        },
        {
          "internalType": "bytes",
          "name": "data",
          "type": "bytes"
        }
      ],
      "name": "onERC721Received",
      "outputs": [
        {
          "internalType": "bytes4",
          "name": "",
          "type": "bytes4"
        }
      ],
      "stateMutability": "nonpayable",
      "type": "function"
    },
    {
      "inputs": [],
      "name": "owner",
      "outputs": [
        {
          "internalType": "address",
          "name": "",
          "type": "address"
        }
      ],
      "stateMutability": "view",
      "type": "function"
    },
    {
      "inputs": [],
      "name": "renounceOwnership",
      "outputs": [],
      "stateMutability": "nonpayable",
      "type": "function"
    },
    {
      "inputs": [
        {
          "internalType": "address",
          "name": "newOwner",
          "type": "address"
        }
      ],
      "name": "transferOwnership",
      "outputs": [],
      "stateMutability": "nonpayable",
      "type": "function"
    },
    {
      "inputs": [
        {
          "internalType": "address",
          "name": "claimerAddress",
          "type": "address"
        },
        {
          "internalType": "address",
          "name": "erc20Address",
          "type": "address"
        },
        {
          "internalType": "uint256",
          "name": "amount",
          "type": "uint256"
        }
      ],
      "name": "withdrawERC20",
      "outputs": [],
      "stateMutability": "nonpayable",
      "type": "function"
    },
    {
      "inputs": [
        {
          "internalType": "address",
          "name": "claimerAddress",
          "type": "address"
        },
        {
          "internalType": "address",
          "name": "erc721Address",
          "type": "address"
        },
        {
          "internalType": "uint256",
          "name": "id",
          "type": "uint256"
        }
      ],
      "name": "withdrawERC721",
      "outputs": [],
      "stateMutability": "nonpayable",
      "type": "function"
    }
  ],
  "bytecode": "0x608060405234801561001057600080fd5b5061002d61002261003260201b60201c565b61003a60201b60201c565b6100fe565b600033905090565b60008060009054906101000a900473ffffffffffffffffffffffffffffffffffffffff169050816000806101000a81548173ffffffffffffffffffffffffffffffffffffffff021916908373ffffffffffffffffffffffffffffffffffffffff1602179055508173ffffffffffffffffffffffffffffffffffffffff168173ffffffffffffffffffffffffffffffffffffffff167f8be0079c531659141344cd1fd0a4f28419497f9722a3daafe3b4186f6b6457e060405160405180910390a35050565b610b778061010d6000396000f3fe608060405234801561001057600080fd5b50600436106100a95760003560e01c8063715018a611610071578063715018a6146101625780638da5cb5b1461016c57806390ffaa2a1461018a578063af08ef9a146101ba578063d41977cd146101d6578063f2fde38b146101f4576100a9565b8063150b7a02146100ae5780634025feb2146100de57806344004cc1146100fa5780634761a63d146101165780634f4a7e7014610132575b600080fd5b6100c860048036038101906100c3919061080a565b610210565b6040516100d591906108cd565b60405180910390f35b6100f860048036038101906100f391906108e8565b610225565b005b610114600480360381019061010f91906108e8565b61022a565b005b610130600480360381019061012b91906108e8565b61022f565b005b61014c600480360381019061014791906108e8565b6102b5565b6040516101599190610956565b60405180910390f35b61016a61035b565b005b6101746103e3565b6040516101819190610980565b60405180910390f35b6101a4600480360381019061019f919061099b565b61040c565b6040516101b191906109ea565b60405180910390f35b6101d460048036038101906101cf91906108e8565b610493565b005b6101de61053e565b6040516101eb91906109ea565b60405180910390f35b61020e60048036038101906102099190610a05565b610544565b005b600063150b7a0260e01b905095945050505050565b505050565b505050565b80600360008573ffffffffffffffffffffffffffffffffffffffff1673ffffffffffffffffffffffffffffffffffffffff16815260200190815260200160002060008473ffffffffffffffffffffffffffffffffffffffff1673ffffffffffffffffffffffffffffffffffffffff16815260200190815260200160002081905550505050565b6000600460008573ffffffffffffffffffffffffffffffffffffffff1673ffffffffffffffffffffffffffffffffffffffff16815260200190815260200160002060008473ffffffffffffffffffffffffffffffffffffffff1673ffffffffffffffffffffffffffffffffffffffff168152602001908152602001600020600083815260200190815260200160002060009054906101000a900460ff1690509392505050565b61036361063b565b73ffffffffffffffffffffffffffffffffffffffff166103816103e3565b73ffffffffffffffffffffffffffffffffffffffff16146103d7576040517f08c379a00000000000000000000000000000000000000000000000000000000081526004016103ce90610a8f565b60405180910390fd5b6103e16000610643565b565b60008060009054906101000a900473ffffffffffffffffffffffffffffffffffffffff16905090565b6000600360008473ffffffffffffffffffffffffffffffffffffffff1673ffffffffffffffffffffffffffffffffffffffff16815260200190815260200160002060008373ffffffffffffffffffffffffffffffffffffffff1673ffffffffffffffffffffffffffffffffffffffff16815260200190815260200160002054905092915050565b6001600460008573ffffffffffffffffffffffffffffffffffffffff1673ffffffffffffffffffffffffffffffffffffffff16815260200190815260200160002060008473ffffffffffffffffffffffffffffffffffffffff1673ffffffffffffffffffffffffffffffffffffffff168152602001908152602001600020600083815260200190815260200160002060006101000a81548160ff021916908315150217905550505050565b60015481565b61054c61063b565b73ffffffffffffffffffffffffffffffffffffffff1661056a6103e3565b73ffffffffffffffffffffffffffffffffffffffff16146105c0576040517f08c379a00000000000000000000000000000000000000000000000000000000081526004016105b790610a8f565b60405180910390fd5b600073ffffffffffffffffffffffffffffffffffffffff168173ffffffffffffffffffffffffffffffffffffffff160361062f576040517f08c379a000000000000000000000000000000000000000000000000000000000815260040161062690610b21565b60405180910390fd5b61063881610643565b50565b600033905090565b60008060009054906101000a900473ffffffffffffffffffffffffffffffffffffffff169050816000806101000a81548173ffffffffffffffffffffffffffffffffffffffff021916908373ffffffffffffffffffffffffffffffffffffffff1602179055508173ffffffffffffffffffffffffffffffffffffffff168173ffffffffffffffffffffffffffffffffffffffff167f8be0079c531659141344cd1fd0a4f28419497f9722a3daafe3b4186f6b6457e060405160405180910390a35050565b600080fd5b600080fd5b600073ffffffffffffffffffffffffffffffffffffffff82169050919050565b600061073c82610711565b9050919050565b61074c81610731565b811461075757600080fd5b50565b60008135905061076981610743565b92915050565b6000819050919050565b6107828161076f565b811461078d57600080fd5b50565b60008135905061079f81610779565b92915050565b600080fd5b600080fd5b600080fd5b60008083601f8401126107ca576107c96107a5565b5b8235905067ffffffffffffffff8111156107e7576107e66107aa565b5b602083019150836001820283011115610803576108026107af565b5b9250929050565b60008060008060006080868803121561082657610825610707565b5b60006108348882890161075a565b95505060206108458882890161075a565b945050604061085688828901610790565b935050606086013567ffffffffffffffff8111156108775761087661070c565b5b610883888289016107b4565b92509250509295509295909350565b60007fffffffff0000000000000000000000000000000000000000000000000000000082169050919050565b6108c781610892565b82525050565b60006020820190506108e260008301846108be565b92915050565b60008060006060848603121561090157610900610707565b5b600061090f8682870161075a565b93505060206109208682870161075a565b925050604061093186828701610790565b9150509250925092565b60008115159050919050565b6109508161093b565b82525050565b600060208201905061096b6000830184610947565b92915050565b61097a81610731565b82525050565b60006020820190506109956000830184610971565b92915050565b600080604083850312156109b2576109b1610707565b5b60006109c08582860161075a565b92505060206109d18582860161075a565b9150509250929050565b6109e48161076f565b82525050565b60006020820190506109ff60008301846109db565b92915050565b600060208284031215610a1b57610a1a610707565b5b6000610a298482850161075a565b91505092915050565b600082825260208201905092915050565b7f4f776e61626c653a2063616c6c6572206973206e6f7420746865206f776e6572600082015250565b6000610a79602083610a32565b9150610a8482610a43565b602082019050919050565b60006020820190508181036000830152610aa881610a6c565b9050919050565b7f4f776e61626c653a206e6577206f776e657220697320746865207a65726f206160008201527f6464726573730000000000000000000000000000000000000000000000000000602082015250565b6000610b0b602683610a32565b9150610b1682610aaf565b604082019050919050565b60006020820190508181036000830152610b3a81610afe565b905091905056fea26469706673582212206cb6a3cc839bf8cf692213f038f22afc5e9757d352279583305035af18488fcd64736f6c634300080d0033",
  "linkReferences": {},
  "deployedLinkReferences": {}
}