{
  "_format": "hh-sol-artifact-1",
  "contractName": "Vault",
  "sourceName": "contracts/Vault.sol",
  "abi": [
    {
      "inputs": [
        {
          "internalType": "address",
          "name": "_transferer",
          "type": "address"
        },
        {
          "internalType": "address",
          "name": "_serverSigner",
          "type": "address"
        },
        {
          "internalType": "address payable",
          "name": "_feeController",
          "type": "address"
        },
        {
          "internalType": "address",
          "name": "_emergencyFeeRemover",
          "type": "address"
        }
      ],
      "stateMutability": "nonpayable",
      "type": "constructor"
    },
    {
      "inputs": [
        {
          "internalType": "address",
          "name": "_originalAddress",
          "type": "address"
        },
        {
          "internalType": "address",
          "name": "_erc20Address",
          "type": "address"
        }
      ],
      "name": "canWithdrawERC20",
      "outputs": [
        {
          "internalType": "uint256",
          "name": "",
          "type": "uint256"
        }
      ],
      "stateMutability": "view",
      "type": "function"
    },
    {
      "inputs": [
        {
          "internalType": "address",
          "name": "_originalAddress",
          "type": "address"
        },
        {
          "internalType": "address",
          "name": "_erc721Address",
          "type": "address"
        },
        {
          "internalType": "uint256",
          "name": "_id",
          "type": "uint256"
        }
      ],
      "name": "canWithdrawERC721",
      "outputs": [
        {
          "internalType": "bool",
          "name": "",
          "type": "bool"
        }
      ],
      "stateMutability": "view",
      "type": "function"
    },
    {
      "inputs": [
        {
          "internalType": "address payable",
          "name": "_newFeeController",
          "type": "address"
        }
      ],
      "name": "changeFeeController",
      "outputs": [],
      "stateMutability": "nonpayable",
      "type": "function"
    },
    {
      "inputs": [
        {
          "internalType": "address",
          "name": "_newFeeController",
          "type": "address"
        }
      ],
      "name": "changeFeeControllerRequest",
      "outputs": [],
      "stateMutability": "nonpayable",
      "type": "function"
    },
    {
      "inputs": [
        {
          "internalType": "bytes",
          "name": "_signature",
          "type": "bytes"
        },
        {
          "internalType": "address",
          "name": "_newRecipientAddress",
          "type": "address"
        },
        {
          "internalType": "uint256",
          "name": "expiry",
          "type": "uint256"
        }
      ],
      "name": "changeRecipientAddress",
      "outputs": [],
      "stateMutability": "nonpayable",
      "type": "function"
    },
    {
      "inputs": [
        {
          "internalType": "address",
          "name": "_originalAddress",
          "type": "address"
        },
        {
          "internalType": "address",
          "name": "_erc20Address",
          "type": "address"
        }
      ],
      "name": "erc20Fee",
      "outputs": [
        {
          "internalType": "uint128",
          "name": "",
          "type": "uint128"
        }
      ],
      "stateMutability": "view",
      "type": "function"
    },
    {
      "inputs": [
        {
          "internalType": "address",
          "name": "_originalAddress",
          "type": "address"
        },
        {
          "internalType": "address",
          "name": "_erc721Address",
          "type": "address"
        },
        {
          "internalType": "uint256",
          "name": "_id",
          "type": "uint256"
        }
      ],
      "name": "erc721Fee",
      "outputs": [
        {
          "internalType": "uint128",
          "name": "",
          "type": "uint128"
        }
      ],
      "stateMutability": "view",
      "type": "function"
    },
    {
      "inputs": [
        {
          "internalType": "address",
          "name": "_caller",
          "type": "address"
        }
      ],
      "name": "getNonce",
      "outputs": [
        {
          "internalType": "uint256",
          "name": "",
          "type": "uint256"
        }
      ],
      "stateMutability": "view",
      "type": "function"
    },
    {
      "inputs": [
        {
          "internalType": "address",
          "name": "_originalAddress",
          "type": "address"
        },
        {
          "internalType": "address",
          "name": "_erc20Address",
          "type": "address"
        },
        {
          "internalType": "uint256",
          "name": "_amount",
          "type": "uint256"
        },
        {
          "internalType": "uint128",
          "name": "_fee",
          "type": "uint128"
        }
      ],
      "name": "logIncomingERC20",
      "outputs": [],
      "stateMutability": "nonpayable",
      "type": "function"
    },
    {
      "inputs": [
        {
          "internalType": "address",
          "name": "_originalAddress",
          "type": "address"
        },
        {
          "internalType": "address",
          "name": "_erc721Address",
          "type": "address"
        },
        {
          "internalType": "uint256",
          "name": "_id",
          "type": "uint256"
        },
        {
          "internalType": "uint128",
          "name": "_fee",
          "type": "uint128"
        }
      ],
      "name": "logIncomingERC721",
      "outputs": [],
      "stateMutability": "nonpayable",
      "type": "function"
    },
    {
      "inputs": [
        {
          "internalType": "address",
          "name": "_originalAddress",
          "type": "address"
        },
        {
          "internalType": "address",
          "name": "_erc20Address",
          "type": "address"
        },
        {
          "internalType": "uint128",
          "name": "_reduceBy",
          "type": "uint128"
        }
      ],
      "name": "reduceERC20Fee",
      "outputs": [
        {
          "internalType": "uint128",
          "name": "",
          "type": "uint128"
        }
      ],
      "stateMutability": "nonpayable",
      "type": "function"
    },
    {
      "inputs": [
        {
          "internalType": "address",
          "name": "_originalAddress",
          "type": "address"
        },
        {
          "internalType": "address",
          "name": "_erc721Address",
          "type": "address"
        },
        {
          "internalType": "uint256",
          "name": "_id",
          "type": "uint256"
        },
        {
          "internalType": "uint128",
          "name": "_reduceBy",
          "type": "uint128"
        }
      ],
      "name": "reduceERC721Fee",
      "outputs": [
        {
          "internalType": "uint128",
          "name": "",
          "type": "uint128"
        }
      ],
      "stateMutability": "nonpayable",
      "type": "function"
    },
    {
      "inputs": [
        {
          "internalType": "address",
          "name": "_recipient",
          "type": "address"
        }
      ],
      "name": "setupRecipientAddress",
      "outputs": [],
      "stateMutability": "nonpayable",
      "type": "function"
    },
    {
      "inputs": [
        {
          "internalType": "bool",
          "name": "_newSetting",
          "type": "bool"
        }
      ],
      "name": "toggleEmergencyFlag",
      "outputs": [],
      "stateMutability": "nonpayable",
      "type": "function"
    },
    {
      "inputs": [
        {
          "internalType": "address",
          "name": "_originalAddress",
          "type": "address"
        }
      ],
      "name": "viewRecipientAddress",
      "outputs": [
        {
          "internalType": "address",
          "name": "",
          "type": "address"
        }
      ],
      "stateMutability": "view",
      "type": "function"
    },
    {
      "inputs": [
        {
          "internalType": "address",
          "name": "_originalAddress",
          "type": "address"
        },
        {
          "internalType": "address",
          "name": "_erc20Address",
          "type": "address"
        }
      ],
      "name": "withdrawERC20",
      "outputs": [],
      "stateMutability": "payable",
      "type": "function"
    },
    {
      "inputs": [
        {
          "internalType": "address",
          "name": "_originalAddress",
          "type": "address"
        },
        {
          "internalType": "address",
          "name": "_erc20Address",
          "type": "address"
        }
      ],
      "name": "withdrawERC20WithoutFees",
      "outputs": [],
      "stateMutability": "nonpayable",
      "type": "function"
    },
    {
      "inputs": [
        {
          "internalType": "address",
          "name": "_originalAddress",
          "type": "address"
        },
        {
          "internalType": "address",
          "name": "_erc721Address",
          "type": "address"
        },
        {
          "internalType": "uint256",
          "name": "_id",
          "type": "uint256"
        }
      ],
      "name": "withdrawERC721",
      "outputs": [],
      "stateMutability": "payable",
      "type": "function"
    },
    {
      "inputs": [
        {
          "internalType": "address",
          "name": "_originalAddress",
          "type": "address"
        },
        {
          "internalType": "address",
          "name": "_erc721Address",
          "type": "address"
        },
        {
          "internalType": "uint256",
          "name": "_id",
          "type": "uint256"
        }
      ],
      "name": "withdrawERC721WithoutFees",
      "outputs": [],
      "stateMutability": "nonpayable",
      "type": "function"
    },
    {
      "inputs": [
        {
          "internalType": "uint256",
          "name": "_amount",
          "type": "uint256"
        }
      ],
      "name": "withdrawPayments",
      "outputs": [],
      "stateMutability": "nonpayable",
      "type": "function"
    }
  ],
  "bytecode": "0x60e060405260008060146101000a81548160ff0219169083151502179055503480156200002b57600080fd5b5060405162005103380380620051038339818101604052810190620000519190620001e6565b8373ffffffffffffffffffffffffffffffffffffffff1660808173ffffffffffffffffffffffffffffffffffffffff16815250508273ffffffffffffffffffffffffffffffffffffffff1660a08173ffffffffffffffffffffffffffffffffffffffff1681525050816000806101000a81548173ffffffffffffffffffffffffffffffffffffffff021916908373ffffffffffffffffffffffffffffffffffffffff1602179055508073ffffffffffffffffffffffffffffffffffffffff1660c08173ffffffffffffffffffffffffffffffffffffffff16815250505050505062000258565b600080fd5b600073ffffffffffffffffffffffffffffffffffffffff82169050919050565b600062000169826200013c565b9050919050565b6200017b816200015c565b81146200018757600080fd5b50565b6000815190506200019b8162000170565b92915050565b6000620001ae826200013c565b9050919050565b620001c081620001a1565b8114620001cc57600080fd5b50565b600081519050620001e081620001b5565b92915050565b6000806000806080858703121562000203576200020262000137565b5b600062000213878288016200018a565b945050602062000226878288016200018a565b93505060406200023987828801620001cf565b92505060606200024c878288016200018a565b91505092959194509250565b60805160a05160c051614e746200028f6000396000612563015260006117070152600081816109900152612b350152614e746000f3fe60806040526004361061011f5760003560e01c806371558aba116100a0578063bd0d687b11610064578063bd0d687b146103fd578063c5b2ae7a14610426578063d82f767d1461044f578063d9ce6ae714610478578063f574e2b6146104b55761011f565b806371558aba1461030157806379386cc81461032a57806390ffaa2a146103675780639456fbcc146103a45780639e74fb39146103c05761011f565b806341975af8116100e757806341975af81461020c5780634f4a7e70146102355780634fbcae611461027257806356ff2ec2146102af5780636a783cc5146102d85761011f565b806309c0e14f146101245780630ca93171146101615780632d0335ab1461018a5780633d602dbe146101c75780634025feb2146101f0575b600080fd5b34801561013057600080fd5b5061014b6004803603810190610146919061358c565b6104de565b60405161015891906135ee565b60405180910390f35b34801561016d57600080fd5b5061018860048036038101906101839190613609565b6107f6565b005b34801561019657600080fd5b506101b160048036038101906101ac9190613609565b610945565b6040516101be919061364f565b60405180910390f35b3480156101d357600080fd5b506101ee60048036038101906101e99190613696565b61098e565b005b61020a600480360381019061020591906136fd565b610bea565b005b34801561021857600080fd5b50610233600480360381019061022e9190613750565b611055565b005b34801561024157600080fd5b5061025c600480360381019061025791906136fd565b6111f7565b6040516102699190613798565b60405180910390f35b34801561027e57600080fd5b50610299600480360381019061029491906137b3565b6112a0565b6040516102a691906135ee565b60405180910390f35b3480156102bb57600080fd5b506102d660048036038101906102d191906137b3565b611346565b005b3480156102e457600080fd5b506102ff60048036038101906102fa9190613939565b6116c8565b005b34801561030d57600080fd5b50610328600480360381019061032391906136fd565b6118c9565b005b34801561033657600080fd5b50610351600480360381019061034c91906136fd565b611c82565b60405161035e91906135ee565b60405180910390f35b34801561037357600080fd5b5061038e600480360381019061038991906137b3565b611d3a565b60405161039b919061364f565b60405180910390f35b6103be60048036038101906103b991906137b3565b611df2565b005b3480156103cc57600080fd5b506103e760048036038101906103e29190613696565b612215565b6040516103f491906135ee565b60405180910390f35b34801561040957600080fd5b50610424600480360381019061041f91906139d4565b612561565b005b34801561043257600080fd5b5061044d60048036038101906104489190613a3f565b61260c565b005b34801561045b57600080fd5b5061047660048036038101906104719190613609565b612997565b005b34801561048457600080fd5b5061049f600480360381019061049a9190613609565b612aca565b6040516104ac9190613a7b565b60405180910390f35b3480156104c157600080fd5b506104dc60048036038101906104d79190613696565b612b33565b005b60008060009054906101000a900473ffffffffffffffffffffffffffffffffffffffff1673ffffffffffffffffffffffffffffffffffffffff163373ffffffffffffffffffffffffffffffffffffffff161461056f576040517f08c379a000000000000000000000000000000000000000000000000000000000815260040161056690613b19565b60405180910390fd5b816fffffffffffffffffffffffffffffffff16600260008673ffffffffffffffffffffffffffffffffffffffff1673ffffffffffffffffffffffffffffffffffffffff16815260200190815260200160002060008573ffffffffffffffffffffffffffffffffffffffff1673ffffffffffffffffffffffffffffffffffffffff16815260200190815260200160002060000160109054906101000a90046fffffffffffffffffffffffffffffffff166fffffffffffffffffffffffffffffffff161015610671576040517f08c379a000000000000000000000000000000000000000000000000000000000815260040161066890613bab565b60405180910390fd5b81600260008673ffffffffffffffffffffffffffffffffffffffff1673ffffffffffffffffffffffffffffffffffffffff16815260200190815260200160002060008573ffffffffffffffffffffffffffffffffffffffff1673ffffffffffffffffffffffffffffffffffffffff16815260200190815260200160002060000160108282829054906101000a90046fffffffffffffffffffffffffffffffff1661071b9190613bfa565b92506101000a8154816fffffffffffffffffffffffffffffffff02191690836fffffffffffffffffffffffffffffffff160217905550600260008573ffffffffffffffffffffffffffffffffffffffff1673ffffffffffffffffffffffffffffffffffffffff16815260200190815260200160002060008473ffffffffffffffffffffffffffffffffffffffff1673ffffffffffffffffffffffffffffffffffffffff16815260200190815260200160002060000160109054906101000a90046fffffffffffffffffffffffffffffffff1690509392505050565b600073ffffffffffffffffffffffffffffffffffffffff16600160003373ffffffffffffffffffffffffffffffffffffffff1673ffffffffffffffffffffffffffffffffffffffff16815260200190815260200160002060009054906101000a900473ffffffffffffffffffffffffffffffffffffffff1673ffffffffffffffffffffffffffffffffffffffff16146108c4576040517f08c379a00000000000000000000000000000000000000000000000000000000081526004016108bb90613ca0565b60405180910390fd5b80600160003373ffffffffffffffffffffffffffffffffffffffff1673ffffffffffffffffffffffffffffffffffffffff16815260200190815260200160002060006101000a81548173ffffffffffffffffffffffffffffffffffffffff021916908373ffffffffffffffffffffffffffffffffffffffff16021790555050565b6000600460008373ffffffffffffffffffffffffffffffffffffffff1673ffffffffffffffffffffffffffffffffffffffff168152602001908152602001600020549050919050565b7f000000000000000000000000000000000000000000000000000000000000000073ffffffffffffffffffffffffffffffffffffffff163373ffffffffffffffffffffffffffffffffffffffff1614610a1c576040517f08c379a0000000000000000000000000000000000000000000000000000000008152600401610a1390613d32565b60405180910390fd5b80600260008673ffffffffffffffffffffffffffffffffffffffff1673ffffffffffffffffffffffffffffffffffffffff16815260200190815260200160002060008573ffffffffffffffffffffffffffffffffffffffff1673ffffffffffffffffffffffffffffffffffffffff16815260200190815260200160002060000160108282829054906101000a90046fffffffffffffffffffffffffffffffff16610ac69190613d52565b92506101000a8154816fffffffffffffffffffffffffffffffff02191690836fffffffffffffffffffffffffffffffff160217905550610b0582612d61565b600260008673ffffffffffffffffffffffffffffffffffffffff1673ffffffffffffffffffffffffffffffffffffffff16815260200190815260200160002060008573ffffffffffffffffffffffffffffffffffffffff1673ffffffffffffffffffffffffffffffffffffffff16815260200190815260200160002060000160008282829054906101000a90046fffffffffffffffffffffffffffffffff16610bae9190613d52565b92506101000a8154816fffffffffffffffffffffffffffffffff02191690836fffffffffffffffffffffffffffffffff16021790555050505050565b3373ffffffffffffffffffffffffffffffffffffffff16600160008573ffffffffffffffffffffffffffffffffffffffff1673ffffffffffffffffffffffffffffffffffffffff16815260200190815260200160002060009054906101000a900473ffffffffffffffffffffffffffffffffffffffff1673ffffffffffffffffffffffffffffffffffffffff1614610cb7576040517f08c379a0000000000000000000000000000000000000000000000000000000008152600401610cae90613e0a565b60405180910390fd5b3073ffffffffffffffffffffffffffffffffffffffff168273ffffffffffffffffffffffffffffffffffffffff1603610d25576040517f08c379a0000000000000000000000000000000000000000000000000000000008152600401610d1c90613e76565b60405180910390fd5b610d308383836111f7565b610d6f576040517f08c379a0000000000000000000000000000000000000000000000000000000008152600401610d6690613f08565b60405180910390fd5b600360008473ffffffffffffffffffffffffffffffffffffffff1673ffffffffffffffffffffffffffffffffffffffff16815260200190815260200160002060008373ffffffffffffffffffffffffffffffffffffffff1673ffffffffffffffffffffffffffffffffffffffff168152602001908152602001600020600082815260200190815260200160002060000160019054906101000a90046fffffffffffffffffffffffffffffffff166fffffffffffffffffffffffffffffffff16341015610e70576040517f08c379a0000000000000000000000000000000000000000000000000000000008152600401610e6790613f74565b60405180910390fd5b6000600360008573ffffffffffffffffffffffffffffffffffffffff1673ffffffffffffffffffffffffffffffffffffffff16815260200190815260200160002060008473ffffffffffffffffffffffffffffffffffffffff1673ffffffffffffffffffffffffffffffffffffffff168152602001908152602001600020600083815260200190815260200160002060000160006101000a81548160ff0219169083151502179055506000600360008573ffffffffffffffffffffffffffffffffffffffff1673ffffffffffffffffffffffffffffffffffffffff16815260200190815260200160002060008473ffffffffffffffffffffffffffffffffffffffff1673ffffffffffffffffffffffffffffffffffffffff168152602001908152602001600020600083815260200190815260200160002060000160016101000a8154816fffffffffffffffffffffffffffffffff02191690836fffffffffffffffffffffffffffffffff1602179055508173ffffffffffffffffffffffffffffffffffffffff166342842e0e3033846040518463ffffffff1660e01b815260040161101e93929190613f94565b600060405180830381600087803b15801561103857600080fd5b505af115801561104c573d6000803e3d6000fd5b50505050505050565b60008054906101000a900473ffffffffffffffffffffffffffffffffffffffff1673ffffffffffffffffffffffffffffffffffffffff163373ffffffffffffffffffffffffffffffffffffffff16146110e3576040517f08c379a00000000000000000000000000000000000000000000000000000000081526004016110da90613b19565b60405180910390fd5b80471015611126576040517f08c379a000000000000000000000000000000000000000000000000000000000815260040161111d9061403d565b60405180910390fd5b60008060009054906101000a900473ffffffffffffffffffffffffffffffffffffffff1673ffffffffffffffffffffffffffffffffffffffff168260405161116d9061408e565b60006040518083038185875af1925050503d80600081146111aa576040519150601f19603f3d011682016040523d82523d6000602084013e6111af565b606091505b50509050806111f3576040517f08c379a00000000000000000000000000000000000000000000000000000000081526004016111ea906140ef565b60405180910390fd5b5050565b6000600360008573ffffffffffffffffffffffffffffffffffffffff1673ffffffffffffffffffffffffffffffffffffffff16815260200190815260200160002060008473ffffffffffffffffffffffffffffffffffffffff1673ffffffffffffffffffffffffffffffffffffffff168152602001908152602001600020600083815260200190815260200160002060000160009054906101000a900460ff1690509392505050565b6000600260008473ffffffffffffffffffffffffffffffffffffffff1673ffffffffffffffffffffffffffffffffffffffff16815260200190815260200160002060008373ffffffffffffffffffffffffffffffffffffffff1673ffffffffffffffffffffffffffffffffffffffff16815260200190815260200160002060000160109054906101000a90046fffffffffffffffffffffffffffffffff16905092915050565b600060149054906101000a900460ff16611395576040517f08c379a000000000000000000000000000000000000000000000000000000000815260040161138c9061415b565b60405180910390fd5b3373ffffffffffffffffffffffffffffffffffffffff16600160008473ffffffffffffffffffffffffffffffffffffffff1673ffffffffffffffffffffffffffffffffffffffff16815260200190815260200160002060009054906101000a900473ffffffffffffffffffffffffffffffffffffffff1673ffffffffffffffffffffffffffffffffffffffff1614611462576040517f08c379a000000000000000000000000000000000000000000000000000000000815260040161145990613e0a565b60405180910390fd5b3073ffffffffffffffffffffffffffffffffffffffff168173ffffffffffffffffffffffffffffffffffffffff16036114d0576040517f08c379a00000000000000000000000000000000000000000000000000000000081526004016114c790613e76565b60405180910390fd5b60006114dc8383611d3a565b1161151c576040517f08c379a0000000000000000000000000000000000000000000000000000000008152600401611513906141c7565b60405180910390fd5b60006115288383611d3a565b90506000600260008573ffffffffffffffffffffffffffffffffffffffff1673ffffffffffffffffffffffffffffffffffffffff16815260200190815260200160002060008473ffffffffffffffffffffffffffffffffffffffff1673ffffffffffffffffffffffffffffffffffffffff16815260200190815260200160002060000160006101000a8154816fffffffffffffffffffffffffffffffff02191690836fffffffffffffffffffffffffffffffff1602179055506000600260008573ffffffffffffffffffffffffffffffffffffffff1673ffffffffffffffffffffffffffffffffffffffff16815260200190815260200160002060008473ffffffffffffffffffffffffffffffffffffffff1673ffffffffffffffffffffffffffffffffffffffff16815260200190815260200160002060000160106101000a8154816fffffffffffffffffffffffffffffffff02191690836fffffffffffffffffffffffffffffffff1602179055506116c333828473ffffffffffffffffffffffffffffffffffffffff16612dc09092919063ffffffff16565b505050565b60003383836116d633610945565b30466040516020016116ed96959493929190614250565b6040516020818303038152906040528051906020012090507f000000000000000000000000000000000000000000000000000000000000000073ffffffffffffffffffffffffffffffffffffffff166117578561174984612e46565b612e7690919063ffffffff16565b73ffffffffffffffffffffffffffffffffffffffff16146117ad576040517f08c379a00000000000000000000000000000000000000000000000000000000081526004016117a490614358565b60405180910390fd5b814211156117f0576040517f08c379a00000000000000000000000000000000000000000000000000000000081526004016117e7906143c4565b60405180910390fd5b600460003373ffffffffffffffffffffffffffffffffffffffff1673ffffffffffffffffffffffffffffffffffffffff1681526020019081526020016000206000815480929190611840906143e4565b919050555082600160003373ffffffffffffffffffffffffffffffffffffffff1673ffffffffffffffffffffffffffffffffffffffff16815260200190815260200160002060006101000a81548173ffffffffffffffffffffffffffffffffffffffff021916908373ffffffffffffffffffffffffffffffffffffffff16021790555050505050565b600060149054906101000a900460ff16611918576040517f08c379a000000000000000000000000000000000000000000000000000000000815260040161190f9061415b565b60405180910390fd5b3373ffffffffffffffffffffffffffffffffffffffff16600160008573ffffffffffffffffffffffffffffffffffffffff1673ffffffffffffffffffffffffffffffffffffffff16815260200190815260200160002060009054906101000a900473ffffffffffffffffffffffffffffffffffffffff1673ffffffffffffffffffffffffffffffffffffffff16146119e5576040517f08c379a00000000000000000000000000000000000000000000000000000000081526004016119dc90613e0a565b60405180910390fd5b3073ffffffffffffffffffffffffffffffffffffffff168273ffffffffffffffffffffffffffffffffffffffff1603611a53576040517f08c379a0000000000000000000000000000000000000000000000000000000008152600401611a4a90613e76565b60405180910390fd5b611a5e8383836111f7565b611a9d576040517f08c379a0000000000000000000000000000000000000000000000000000000008152600401611a9490613f08565b60405180910390fd5b6000600360008573ffffffffffffffffffffffffffffffffffffffff1673ffffffffffffffffffffffffffffffffffffffff16815260200190815260200160002060008473ffffffffffffffffffffffffffffffffffffffff1673ffffffffffffffffffffffffffffffffffffffff168152602001908152602001600020600083815260200190815260200160002060000160006101000a81548160ff0219169083151502179055506000600360008573ffffffffffffffffffffffffffffffffffffffff1673ffffffffffffffffffffffffffffffffffffffff16815260200190815260200160002060008473ffffffffffffffffffffffffffffffffffffffff1673ffffffffffffffffffffffffffffffffffffffff168152602001908152602001600020600083815260200190815260200160002060000160016101000a8154816fffffffffffffffffffffffffffffffff02191690836fffffffffffffffffffffffffffffffff1602179055508173ffffffffffffffffffffffffffffffffffffffff166342842e0e3033846040518463ffffffff1660e01b8152600401611c4b93929190613f94565b600060405180830381600087803b158015611c6557600080fd5b505af1158015611c79573d6000803e3d6000fd5b50505050505050565b6000600360008573ffffffffffffffffffffffffffffffffffffffff1673ffffffffffffffffffffffffffffffffffffffff16815260200190815260200160002060008473ffffffffffffffffffffffffffffffffffffffff1673ffffffffffffffffffffffffffffffffffffffff168152602001908152602001600020600083815260200190815260200160002060000160019054906101000a90046fffffffffffffffffffffffffffffffff1690509392505050565b6000600260008473ffffffffffffffffffffffffffffffffffffffff1673ffffffffffffffffffffffffffffffffffffffff16815260200190815260200160002060008373ffffffffffffffffffffffffffffffffffffffff1673ffffffffffffffffffffffffffffffffffffffff16815260200190815260200160002060000160009054906101000a90046fffffffffffffffffffffffffffffffff166fffffffffffffffffffffffffffffffff16905092915050565b3373ffffffffffffffffffffffffffffffffffffffff16600160008473ffffffffffffffffffffffffffffffffffffffff1673ffffffffffffffffffffffffffffffffffffffff16815260200190815260200160002060009054906101000a900473ffffffffffffffffffffffffffffffffffffffff1673ffffffffffffffffffffffffffffffffffffffff1614611ebf576040517f08c379a0000000000000000000000000000000000000000000000000000000008152600401611eb690613e0a565b60405180910390fd5b3073ffffffffffffffffffffffffffffffffffffffff168173ffffffffffffffffffffffffffffffffffffffff1603611f2d576040517f08c379a0000000000000000000000000000000000000000000000000000000008152600401611f2490613e76565b60405180910390fd5b6000611f398383611d3a565b11611f79576040517f08c379a0000000000000000000000000000000000000000000000000000000008152600401611f70906141c7565b60405180910390fd5b600260008373ffffffffffffffffffffffffffffffffffffffff1673ffffffffffffffffffffffffffffffffffffffff16815260200190815260200160002060008273ffffffffffffffffffffffffffffffffffffffff1673ffffffffffffffffffffffffffffffffffffffff16815260200190815260200160002060000160109054906101000a90046fffffffffffffffffffffffffffffffff166fffffffffffffffffffffffffffffffff16341015612069576040517f08c379a000000000000000000000000000000000000000000000000000000000815260040161206090613f74565b60405180910390fd5b60006120758383611d3a565b90506000600260008573ffffffffffffffffffffffffffffffffffffffff1673ffffffffffffffffffffffffffffffffffffffff16815260200190815260200160002060008473ffffffffffffffffffffffffffffffffffffffff1673ffffffffffffffffffffffffffffffffffffffff16815260200190815260200160002060000160006101000a8154816fffffffffffffffffffffffffffffffff02191690836fffffffffffffffffffffffffffffffff1602179055506000600260008573ffffffffffffffffffffffffffffffffffffffff1673ffffffffffffffffffffffffffffffffffffffff16815260200190815260200160002060008473ffffffffffffffffffffffffffffffffffffffff1673ffffffffffffffffffffffffffffffffffffffff16815260200190815260200160002060000160106101000a8154816fffffffffffffffffffffffffffffffff02191690836fffffffffffffffffffffffffffffffff16021790555061221033828473ffffffffffffffffffffffffffffffffffffffff16612dc09092919063ffffffff16565b505050565b60008060009054906101000a900473ffffffffffffffffffffffffffffffffffffffff1673ffffffffffffffffffffffffffffffffffffffff163373ffffffffffffffffffffffffffffffffffffffff16146122a6576040517f08c379a000000000000000000000000000000000000000000000000000000000815260040161229d90613b19565b60405180910390fd5b816fffffffffffffffffffffffffffffffff16600360008773ffffffffffffffffffffffffffffffffffffffff1673ffffffffffffffffffffffffffffffffffffffff16815260200190815260200160002060008673ffffffffffffffffffffffffffffffffffffffff1673ffffffffffffffffffffffffffffffffffffffff168152602001908152602001600020600085815260200190815260200160002060000160019054906101000a90046fffffffffffffffffffffffffffffffff166fffffffffffffffffffffffffffffffff1610156123b9576040517f08c379a00000000000000000000000000000000000000000000000000000000081526004016123b090613bab565b60405180910390fd5b81600360008773ffffffffffffffffffffffffffffffffffffffff1673ffffffffffffffffffffffffffffffffffffffff16815260200190815260200160002060008673ffffffffffffffffffffffffffffffffffffffff1673ffffffffffffffffffffffffffffffffffffffff168152602001908152602001600020600085815260200190815260200160002060000160018282829054906101000a90046fffffffffffffffffffffffffffffffff166124749190613bfa565b92506101000a8154816fffffffffffffffffffffffffffffffff02191690836fffffffffffffffffffffffffffffffff160217905550600360008673ffffffffffffffffffffffffffffffffffffffff1673ffffffffffffffffffffffffffffffffffffffff16815260200190815260200160002060008573ffffffffffffffffffffffffffffffffffffffff1673ffffffffffffffffffffffffffffffffffffffff168152602001908152602001600020600084815260200190815260200160002060000160019054906101000a90046fffffffffffffffffffffffffffffffff169050949350505050565b7f000000000000000000000000000000000000000000000000000000000000000073ffffffffffffffffffffffffffffffffffffffff163373ffffffffffffffffffffffffffffffffffffffff16146125ef576040517f08c379a00000000000000000000000000000000000000000000000000000000081526004016125e69061449e565b60405180910390fd5b80600060146101000a81548160ff02191690831515021790555050565b60008054906101000a900473ffffffffffffffffffffffffffffffffffffffff1673ffffffffffffffffffffffffffffffffffffffff163373ffffffffffffffffffffffffffffffffffffffff161461269a576040517f08c379a000000000000000000000000000000000000000000000000000000000815260040161269190614530565b60405180910390fd5b6000600560008060009054906101000a900473ffffffffffffffffffffffffffffffffffffffff1673ffffffffffffffffffffffffffffffffffffffff1673ffffffffffffffffffffffffffffffffffffffff16815260200190815260200160002060008373ffffffffffffffffffffffffffffffffffffffff1673ffffffffffffffffffffffffffffffffffffffff168152602001908152602001600020541161277a576040517f08c379a0000000000000000000000000000000000000000000000000000000008152600401612771906145c2565b60405180910390fd5b4262127500600560008060009054906101000a900473ffffffffffffffffffffffffffffffffffffffff1673ffffffffffffffffffffffffffffffffffffffff1673ffffffffffffffffffffffffffffffffffffffff16815260200190815260200160002060008473ffffffffffffffffffffffffffffffffffffffff1673ffffffffffffffffffffffffffffffffffffffff1681526020019081526020016000205461282791906145e2565b10612867576040517f08c379a000000000000000000000000000000000000000000000000000000000815260040161285e906146aa565b60405180910390fd5b426213c680600560008060009054906101000a900473ffffffffffffffffffffffffffffffffffffffff1673ffffffffffffffffffffffffffffffffffffffff1673ffffffffffffffffffffffffffffffffffffffff16815260200190815260200160002060008473ffffffffffffffffffffffffffffffffffffffff1673ffffffffffffffffffffffffffffffffffffffff1681526020019081526020016000205461291491906145e2565b11612954576040517f08c379a000000000000000000000000000000000000000000000000000000000815260040161294b90614762565b60405180910390fd5b806000806101000a81548173ffffffffffffffffffffffffffffffffffffffff021916908373ffffffffffffffffffffffffffffffffffffffff16021790555050565b60008054906101000a900473ffffffffffffffffffffffffffffffffffffffff1673ffffffffffffffffffffffffffffffffffffffff163373ffffffffffffffffffffffffffffffffffffffff1614612a25576040517f08c379a0000000000000000000000000000000000000000000000000000000008152600401612a1c90614530565b60405180910390fd5b42600560008060009054906101000a900473ffffffffffffffffffffffffffffffffffffffff1673ffffffffffffffffffffffffffffffffffffffff1673ffffffffffffffffffffffffffffffffffffffff16815260200190815260200160002060008373ffffffffffffffffffffffffffffffffffffffff1673ffffffffffffffffffffffffffffffffffffffff1681526020019081526020016000208190555050565b6000600160008373ffffffffffffffffffffffffffffffffffffffff1673ffffffffffffffffffffffffffffffffffffffff16815260200190815260200160002060009054906101000a900473ffffffffffffffffffffffffffffffffffffffff169050919050565b7f000000000000000000000000000000000000000000000000000000000000000073ffffffffffffffffffffffffffffffffffffffff163373ffffffffffffffffffffffffffffffffffffffff1614612bc1576040517f08c379a0000000000000000000000000000000000000000000000000000000008152600401612bb890613d32565b60405180910390fd5b80600360008673ffffffffffffffffffffffffffffffffffffffff1673ffffffffffffffffffffffffffffffffffffffff16815260200190815260200160002060008573ffffffffffffffffffffffffffffffffffffffff1673ffffffffffffffffffffffffffffffffffffffff168152602001908152602001600020600084815260200190815260200160002060000160018282829054906101000a90046fffffffffffffffffffffffffffffffff16612c7c9190613d52565b92506101000a8154816fffffffffffffffffffffffffffffffff02191690836fffffffffffffffffffffffffffffffff1602179055506001600360008673ffffffffffffffffffffffffffffffffffffffff1673ffffffffffffffffffffffffffffffffffffffff16815260200190815260200160002060008573ffffffffffffffffffffffffffffffffffffffff1673ffffffffffffffffffffffffffffffffffffffff168152602001908152602001600020600084815260200190815260200160002060000160006101000a81548160ff02191690831515021790555050505050565b60006fffffffffffffffffffffffffffffffff8016821115612db8576040517f08c379a0000000000000000000000000000000000000000000000000000000008152600401612daf906147f4565b60405180910390fd5b819050919050565b612e418363a9059cbb60e01b8484604051602401612ddf929190614814565b604051602081830303815290604052907bffffffffffffffffffffffffffffffffffffffffffffffffffffffff19166020820180517bffffffffffffffffffffffffffffffffffffffffffffffffffffffff8381831617835250505050612e9d565b505050565b600081604051602001612e5991906148bf565b604051602081830303815290604052805190602001209050919050565b6000806000612e858585612f64565b91509150612e9281612fe5565b819250505092915050565b6000612eff826040518060400160405280602081526020017f5361666545524332303a206c6f772d6c6576656c2063616c6c206661696c65648152508573ffffffffffffffffffffffffffffffffffffffff166131b19092919063ffffffff16565b9050600081511115612f5f5780806020019051810190612f1f91906148fa565b612f5e576040517f08c379a0000000000000000000000000000000000000000000000000000000008152600401612f5590614999565b60405180910390fd5b5b505050565b6000806041835103612fa55760008060006020860151925060408601519150606086015160001a9050612f99878285856131c9565b94509450505050612fde565b6040835103612fd5576000806020850151915060408501519050612fca8683836132d5565b935093505050612fde565b60006002915091505b9250929050565b60006004811115612ff957612ff86149b9565b5b81600481111561300c5761300b6149b9565b5b03156131ae5760016004811115613026576130256149b9565b5b816004811115613039576130386149b9565b5b03613079576040517f08c379a000000000000000000000000000000000000000000000000000000000815260040161307090614a34565b60405180910390fd5b6002600481111561308d5761308c6149b9565b5b8160048111156130a05761309f6149b9565b5b036130e0576040517f08c379a00000000000000000000000000000000000000000000000000000000081526004016130d790614aa0565b60405180910390fd5b600360048111156130f4576130f36149b9565b5b816004811115613107576131066149b9565b5b03613147576040517f08c379a000000000000000000000000000000000000000000000000000000000815260040161313e90614b32565b60405180910390fd5b60048081111561315a576131596149b9565b5b81600481111561316d5761316c6149b9565b5b036131ad576040517f08c379a00000000000000000000000000000000000000000000000000000000081526004016131a490614bc4565b60405180910390fd5b5b50565b60606131c08484600085613334565b90509392505050565b6000807f7fffffffffffffffffffffffffffffff5d576e7357a4501ddfe92f46681b20a08360001c11156132045760006003915091506132cc565b601b8560ff161415801561321c5750601c8560ff1614155b1561322e5760006004915091506132cc565b6000600187878787604051600081526020016040526040516132539493929190614c0f565b6020604051602081039080840390855afa158015613275573d6000803e3d6000fd5b505050602060405103519050600073ffffffffffffffffffffffffffffffffffffffff168173ffffffffffffffffffffffffffffffffffffffff16036132c3576000600192509250506132cc565b80600092509250505b94509492505050565b60008060007f7fffffffffffffffffffffffffffffffffffffffffffffffffffffffffffffff60001b841690506000601b60ff8660001c901c61331891906145e2565b9050613326878288856131c9565b935093505050935093915050565b606082471015613379576040517f08c379a000000000000000000000000000000000000000000000000000000000815260040161337090614cc6565b60405180910390fd5b61338285613448565b6133c1576040517f08c379a00000000000000000000000000000000000000000000000000000000081526004016133b890614d32565b60405180910390fd5b6000808673ffffffffffffffffffffffffffffffffffffffff1685876040516133ea9190614dc1565b60006040518083038185875af1925050503d8060008114613427576040519150601f19603f3d011682016040523d82523d6000602084013e61342c565b606091505b509150915061343c82828661346b565b92505050949350505050565b6000808273ffffffffffffffffffffffffffffffffffffffff163b119050919050565b6060831561347b578290506134cb565b60008351111561348e5782518084602001fd5b816040517f08c379a00000000000000000000000000000000000000000000000000000000081526004016134c29190614e1c565b60405180910390fd5b9392505050565b6000604051905090565b600080fd5b600080fd5b600073ffffffffffffffffffffffffffffffffffffffff82169050919050565b6000613511826134e6565b9050919050565b61352181613506565b811461352c57600080fd5b50565b60008135905061353e81613518565b92915050565b60006fffffffffffffffffffffffffffffffff82169050919050565b61356981613544565b811461357457600080fd5b50565b60008135905061358681613560565b92915050565b6000806000606084860312156135a5576135a46134dc565b5b60006135b38682870161352f565b93505060206135c48682870161352f565b92505060406135d586828701613577565b9150509250925092565b6135e881613544565b82525050565b600060208201905061360360008301846135df565b92915050565b60006020828403121561361f5761361e6134dc565b5b600061362d8482850161352f565b91505092915050565b6000819050919050565b61364981613636565b82525050565b60006020820190506136646000830184613640565b92915050565b61367381613636565b811461367e57600080fd5b50565b6000813590506136908161366a565b92915050565b600080600080608085870312156136b0576136af6134dc565b5b60006136be8782880161352f565b94505060206136cf8782880161352f565b93505060406136e087828801613681565b92505060606136f187828801613577565b91505092959194509250565b600080600060608486031215613716576137156134dc565b5b60006137248682870161352f565b93505060206137358682870161352f565b925050604061374686828701613681565b9150509250925092565b600060208284031215613766576137656134dc565b5b600061377484828501613681565b91505092915050565b60008115159050919050565b6137928161377d565b82525050565b60006020820190506137ad6000830184613789565b92915050565b600080604083850312156137ca576137c96134dc565b5b60006137d88582860161352f565b92505060206137e98582860161352f565b9150509250929050565b600080fd5b600080fd5b6000601f19601f8301169050919050565b7f4e487b7100000000000000000000000000000000000000000000000000000000600052604160045260246000fd5b613846826137fd565b810181811067ffffffffffffffff821117156138655761386461380e565b5b80604052505050565b60006138786134d2565b9050613884828261383d565b919050565b600067ffffffffffffffff8211156138a4576138a361380e565b5b6138ad826137fd565b9050602081019050919050565b82818337600083830152505050565b60006138dc6138d784613889565b61386e565b9050828152602081018484840111156138f8576138f76137f8565b5b6139038482856138ba565b509392505050565b600082601f8301126139205761391f6137f3565b5b81356139308482602086016138c9565b91505092915050565b600080600060608486031215613952576139516134dc565b5b600084013567ffffffffffffffff8111156139705761396f6134e1565b5b61397c8682870161390b565b935050602061398d8682870161352f565b925050604061399e86828701613681565b9150509250925092565b6139b18161377d565b81146139bc57600080fd5b50565b6000813590506139ce816139a8565b92915050565b6000602082840312156139ea576139e96134dc565b5b60006139f8848285016139bf565b91505092915050565b6000613a0c826134e6565b9050919050565b613a1c81613a01565b8114613a2757600080fd5b50565b600081359050613a3981613a13565b92915050565b600060208284031215613a5557613a546134dc565b5b6000613a6384828501613a2a565b91505092915050565b613a7581613506565b82525050565b6000602082019050613a906000830184613a6c565b92915050565b600082825260208201905092915050565b7f6d73672e73656e646572206d75737420626520666565436f6e74726f6c6c657260008201527f2e00000000000000000000000000000000000000000000000000000000000000602082015250565b6000613b03602183613a96565b9150613b0e82613aa7565b604082019050919050565b60006020820190508181036000830152613b3281613af6565b9050919050565b7f596f752063616e6e6f7420726564756365206d6f7265207468616e207468652060008201527f63757272656e74206665652e0000000000000000000000000000000000000000602082015250565b6000613b95602c83613a96565b9150613ba082613b39565b604082019050919050565b60006020820190508181036000830152613bc481613b88565b9050919050565b7f4e487b7100000000000000000000000000000000000000000000000000000000600052601160045260246000fd5b6000613c0582613544565b9150613c1083613544565b925082821015613c2357613c22613bcb565b5b828203905092915050565b7f596f7520616c726561647920686176652072656769737465726564206120726560008201527f63697069656e7420616464726573730000000000000000000000000000000000602082015250565b6000613c8a602f83613a96565b9150613c9582613c2e565b604082019050919050565b60006020820190508181036000830152613cb981613c7d565b9050919050565b7f4f6e6c7920746865207472616e73666572657220636f6e74726163742063616e60008201527f206c6f672066756e64732e000000000000000000000000000000000000000000602082015250565b6000613d1c602b83613a96565b9150613d2782613cc0565b604082019050919050565b60006020820190508181036000830152613d4b81613d0f565b9050919050565b6000613d5d82613544565b9150613d6883613544565b9250826fffffffffffffffffffffffffffffffff03821115613d8d57613d8c613bcb565b5b828201905092915050565b7f46756e6374696f6e2063616c6c6572206973206e6f7420616e20617574686f7260008201527f697a656420726563697069656e74416464726573732e00000000000000000000602082015250565b6000613df4603683613a96565b9150613dff82613d98565b604082019050919050565b60006020820190508181036000830152613e2381613de7565b9050919050565b7f546865207661756c74206973206e6f74206120746f6b656e2061646472657373600082015250565b6000613e60602083613a96565b9150613e6b82613e2a565b602082019050919050565b60006020820190508181036000830152613e8f81613e53565b9050919050565b7f496e73756666696369656e74207769746864726177616c20616c6c6f77616e6360008201527f652e000000000000000000000000000000000000000000000000000000000000602082015250565b6000613ef2602283613a96565b9150613efd82613e96565b604082019050919050565b60006020820190508181036000830152613f2181613ee5565b9050919050565b7f496e73756666696369656e74207061796d656e742e0000000000000000000000600082015250565b6000613f5e601583613a96565b9150613f6982613f28565b602082019050919050565b60006020820190508181036000830152613f8d81613f51565b9050919050565b6000606082019050613fa96000830186613a6c565b613fb66020830185613a6c565b613fc36040830184613640565b949350505050565b7f43616e6e6f74207769746864726177206d6f7265207468616e2074686520616d60008201527f6f756e7420696e2074686520636f6e74726163742e0000000000000000000000602082015250565b6000614027603583613a96565b915061403282613fcb565b604082019050919050565b600060208201905081810360008301526140568161401a565b9050919050565b600081905092915050565b50565b600061407860008361405d565b915061408382614068565b600082019050919050565b60006140998261406b565b9150819050919050565b7f5472616e73666572206661696c65640000000000000000000000000000000000600082015250565b60006140d9600f83613a96565b91506140e4826140a3565b602082019050919050565b60006020820190508181036000830152614108816140cc565b9050919050565b7f456d657267656e637920666c6167206e6f742073657400000000000000000000600082015250565b6000614145601683613a96565b91506141508261410f565b602082019050919050565b6000602082019050818103600083015261417481614138565b9050919050565b7f4e6f207769746864726177616c20616c6c6f77616e63652e0000000000000000600082015250565b60006141b1601883613a96565b91506141bc8261417b565b602082019050919050565b600060208201905081810360008301526141e0816141a4565b9050919050565b60008160601b9050919050565b60006141ff826141e7565b9050919050565b6000614211826141f4565b9050919050565b61422961422482613506565b614206565b82525050565b6000819050919050565b61424a61424582613636565b61422f565b82525050565b600061425c8289614218565b60148201915061426c8288614218565b60148201915061427c8287614239565b60208201915061428c8286614239565b60208201915061429c8285614218565b6014820191506142ac8284614239565b602082019150819050979650505050505050565b7f496e76616c6964207369676e61747572652e205369676e617475726520736f7560008201527f726365206d617920626520696e636f72726563742c206f7220612070726f766960208201527f64656420706172616d6574657220697320696e76616c69640000000000000000604082015250565b6000614342605883613a96565b915061434d826142c0565b606082019050919050565b6000602082019050818103600083015261437181614335565b9050919050565b7f5369676e61747572652065787069726564000000000000000000000000000000600082015250565b60006143ae601183613a96565b91506143b982614378565b602082019050919050565b600060208201905081810360008301526143dd816143a1565b9050919050565b60006143ef82613636565b91507fffffffffffffffffffffffffffffffffffffffffffffffffffffffffffffffff820361442157614420613bcb565b5b600182019050919050565b7f4f6e6c792063616c6c61626c6520627920696d6d757461626c6520656d65726760008201527f656e637946656552656d6f76657220726f6c6500000000000000000000000000602082015250565b6000614488603383613a96565b91506144938261442c565b604082019050919050565b600060208201905081810360008301526144b78161447b565b9050919050565b7f6d73672e73656e646572206d757374206265207468652063757272656e74206660008201527f6565436f6e74726f6c6c65722e00000000000000000000000000000000000000602082015250565b600061451a602d83613a96565b9150614525826144be565b604082019050919050565b600060208201905081810360008301526145498161450d565b9050919050565b7f5375626d697420612074696d656c6f636b2072657175657374206265666f726560008201527f2063616c6c696e6720746869732066756e6374696f6e2e000000000000000000602082015250565b60006145ac603783613a96565b91506145b782614550565b604082019050919050565b600060208201905081810360008301526145db8161459f565b9050919050565b60006145ed82613636565b91506145f883613636565b9250827fffffffffffffffffffffffffffffffffffffffffffffffffffffffffffffffff0382111561462d5761462c613bcb565b5b828201905092915050565b7f52657175657374206d757374207061737320612074776f2d7765656b2074696d60008201527f656c6f636b2e0000000000000000000000000000000000000000000000000000602082015250565b6000614694602683613a96565b915061469f82614638565b604082019050919050565b600060208201905081810360008301526146c381614687565b9050919050565b7f5265717565737420657870697265642e205265717565737473206d757374206f60008201527f636375722077697468696e20323420686f757273206f66206120636f6d706c6560208201527f7465642074696d656c6f636b2e00000000000000000000000000000000000000604082015250565b600061474c604d83613a96565b9150614757826146ca565b606082019050919050565b6000602082019050818103600083015261477b8161473f565b9050919050565b7f53616665436173743a2076616c756520646f65736e27742066697420696e203160008201527f3238206269747300000000000000000000000000000000000000000000000000602082015250565b60006147de602783613a96565b91506147e982614782565b604082019050919050565b6000602082019050818103600083015261480d816147d1565b9050919050565b60006040820190506148296000830185613a6c565b6148366020830184613640565b9392505050565b600081905092915050565b7f19457468657265756d205369676e6564204d6573736167653a0a333200000000600082015250565b600061487e601c8361483d565b915061488982614848565b601c82019050919050565b6000819050919050565b6000819050919050565b6148b96148b482614894565b61489e565b82525050565b60006148ca82614871565b91506148d682846148a8565b60208201915081905092915050565b6000815190506148f4816139a8565b92915050565b6000602082840312156149105761490f6134dc565b5b600061491e848285016148e5565b91505092915050565b7f5361666545524332303a204552433230206f7065726174696f6e20646964206e60008201527f6f74207375636365656400000000000000000000000000000000000000000000602082015250565b6000614983602a83613a96565b915061498e82614927565b604082019050919050565b600060208201905081810360008301526149b281614976565b9050919050565b7f4e487b7100000000000000000000000000000000000000000000000000000000600052602160045260246000fd5b7f45434453413a20696e76616c6964207369676e61747572650000000000000000600082015250565b6000614a1e601883613a96565b9150614a29826149e8565b602082019050919050565b60006020820190508181036000830152614a4d81614a11565b9050919050565b7f45434453413a20696e76616c6964207369676e6174757265206c656e67746800600082015250565b6000614a8a601f83613a96565b9150614a9582614a54565b602082019050919050565b60006020820190508181036000830152614ab981614a7d565b9050919050565b7f45434453413a20696e76616c6964207369676e6174757265202773272076616c60008201527f7565000000000000000000000000000000000000000000000000000000000000602082015250565b6000614b1c602283613a96565b9150614b2782614ac0565b604082019050919050565b60006020820190508181036000830152614b4b81614b0f565b9050919050565b7f45434453413a20696e76616c6964207369676e6174757265202776272076616c60008201527f7565000000000000000000000000000000000000000000000000000000000000602082015250565b6000614bae602283613a96565b9150614bb982614b52565b604082019050919050565b60006020820190508181036000830152614bdd81614ba1565b9050919050565b614bed81614894565b82525050565b600060ff82169050919050565b614c0981614bf3565b82525050565b6000608082019050614c246000830187614be4565b614c316020830186614c00565b614c3e6040830185614be4565b614c4b6060830184614be4565b95945050505050565b7f416464726573733a20696e73756666696369656e742062616c616e636520666f60008201527f722063616c6c0000000000000000000000000000000000000000000000000000602082015250565b6000614cb0602683613a96565b9150614cbb82614c54565b604082019050919050565b60006020820190508181036000830152614cdf81614ca3565b9050919050565b7f416464726573733a2063616c6c20746f206e6f6e2d636f6e7472616374000000600082015250565b6000614d1c601d83613a96565b9150614d2782614ce6565b602082019050919050565b60006020820190508181036000830152614d4b81614d0f565b9050919050565b600081519050919050565b60005b83811015614d7b578082015181840152602081019050614d60565b83811115614d8a576000848401525b50505050565b6000614d9b82614d52565b614da5818561405d565b9350614db5818560208601614d5d565b80840191505092915050565b6000614dcd8284614d90565b915081905092915050565b600081519050919050565b6000614dee82614dd8565b614df88185613a96565b9350614e08818560208601614d5d565b614e11816137fd565b840191505092915050565b60006020820190508181036000830152614e368184614de3565b90509291505056fea2646970667358221220f037784e98eb5e2d32e7b0315c8ccaa5418e8fbf79dd3682b292927c6f6b89fe64736f6c634300080d0033",
  "linkReferences": {},
  "deployedLinkReferences": {}
}