{
  "_format": "hh-sol-artifact-1",
  "contractName": "Vault",
  "sourceName": "contracts/Vault.sol",
  "abi": [
    {
      "inputs": [
        {
          "internalType": "address",
          "name": "_transferer",
          "type": "address"
        },
        {
          "internalType": "address",
          "name": "_serverSigner",
          "type": "address"
        },
        {
          "internalType": "address payable",
          "name": "_feeController",
          "type": "address"
        }
      ],
      "stateMutability": "nonpayable",
      "type": "constructor"
    },
    {
      "inputs": [
        {
          "internalType": "address",
          "name": "_originalAddress",
          "type": "address"
        },
        {
          "internalType": "address",
          "name": "_erc20Address",
          "type": "address"
        }
      ],
      "name": "canWithdrawERC20",
      "outputs": [
        {
          "internalType": "uint256",
          "name": "",
          "type": "uint256"
        }
      ],
      "stateMutability": "view",
      "type": "function"
    },
    {
      "inputs": [
        {
          "internalType": "address",
          "name": "_originalAddress",
          "type": "address"
        },
        {
          "internalType": "address",
          "name": "_erc721Address",
          "type": "address"
        },
        {
          "internalType": "uint256",
          "name": "_id",
          "type": "uint256"
        }
      ],
      "name": "canWithdrawERC721",
      "outputs": [
        {
          "internalType": "bool",
          "name": "",
          "type": "bool"
        }
      ],
      "stateMutability": "view",
      "type": "function"
    },
    {
      "inputs": [
        {
          "internalType": "address payable",
          "name": "_newFeeController",
          "type": "address"
        }
      ],
      "name": "changeFeeController",
      "outputs": [],
      "stateMutability": "nonpayable",
      "type": "function"
    },
    {
      "inputs": [
        {
          "internalType": "address",
          "name": "_newFeeController",
          "type": "address"
        }
      ],
      "name": "changeFeeControllerRequest",
      "outputs": [],
      "stateMutability": "nonpayable",
      "type": "function"
    },
    {
      "inputs": [
        {
          "internalType": "bytes",
          "name": "_signature",
          "type": "bytes"
        },
        {
          "internalType": "address",
          "name": "_newRecipientAddress",
          "type": "address"
        },
        {
          "internalType": "uint256",
          "name": "expiry",
          "type": "uint256"
        }
      ],
      "name": "changeRecipientAddress",
      "outputs": [],
      "stateMutability": "nonpayable",
      "type": "function"
    },
    {
      "inputs": [
        {
          "internalType": "address",
          "name": "_originalAddress",
          "type": "address"
        },
        {
          "internalType": "address",
          "name": "_erc20Address",
          "type": "address"
        }
      ],
      "name": "erc20Fee",
      "outputs": [
        {
          "internalType": "uint128",
          "name": "",
          "type": "uint128"
        }
      ],
      "stateMutability": "view",
      "type": "function"
    },
    {
      "inputs": [
        {
          "internalType": "address",
          "name": "_originalAddress",
          "type": "address"
        },
        {
          "internalType": "address",
          "name": "_erc721Address",
          "type": "address"
        },
        {
          "internalType": "uint256",
          "name": "_id",
          "type": "uint256"
        }
      ],
      "name": "erc721Fee",
      "outputs": [
        {
          "internalType": "uint128",
          "name": "",
          "type": "uint128"
        }
      ],
      "stateMutability": "view",
      "type": "function"
    },
    {
      "inputs": [
        {
          "internalType": "address",
          "name": "_caller",
          "type": "address"
        }
      ],
      "name": "getNonce",
      "outputs": [
        {
          "internalType": "uint256",
          "name": "",
          "type": "uint256"
        }
      ],
      "stateMutability": "view",
      "type": "function"
    },
    {
      "inputs": [
        {
          "internalType": "address",
          "name": "_originalAddress",
          "type": "address"
        },
        {
          "internalType": "address",
          "name": "_erc20Address",
          "type": "address"
        },
        {
          "internalType": "uint256",
          "name": "_amount",
          "type": "uint256"
        },
        {
          "internalType": "uint128",
          "name": "_fee",
          "type": "uint128"
        }
      ],
      "name": "logIncomingERC20",
      "outputs": [],
      "stateMutability": "nonpayable",
      "type": "function"
    },
    {
      "inputs": [
        {
          "internalType": "address",
          "name": "_originalAddress",
          "type": "address"
        },
        {
          "internalType": "address",
          "name": "_erc721Address",
          "type": "address"
        },
        {
          "internalType": "uint256",
          "name": "_id",
          "type": "uint256"
        },
        {
          "internalType": "uint128",
          "name": "_fee",
          "type": "uint128"
        }
      ],
      "name": "logIncomingERC721",
      "outputs": [],
      "stateMutability": "nonpayable",
      "type": "function"
    },
    {
      "inputs": [
        {
          "internalType": "address",
          "name": "_originalAddress",
          "type": "address"
        },
        {
          "internalType": "address",
          "name": "_erc20Address",
          "type": "address"
        },
        {
          "internalType": "uint128",
          "name": "_reduceBy",
          "type": "uint128"
        }
      ],
      "name": "reduceERC20Fee",
      "outputs": [
        {
          "internalType": "uint128",
          "name": "",
          "type": "uint128"
        }
      ],
      "stateMutability": "nonpayable",
      "type": "function"
    },
    {
      "inputs": [
        {
          "internalType": "address",
          "name": "_originalAddress",
          "type": "address"
        },
        {
          "internalType": "address",
          "name": "_erc721Address",
          "type": "address"
        },
        {
          "internalType": "uint256",
          "name": "_id",
          "type": "uint256"
        },
        {
          "internalType": "uint128",
          "name": "_reduceBy",
          "type": "uint128"
        }
      ],
      "name": "reduceERC721Fee",
      "outputs": [
        {
          "internalType": "uint128",
          "name": "",
          "type": "uint128"
        }
      ],
      "stateMutability": "nonpayable",
      "type": "function"
    },
    {
      "inputs": [
        {
          "internalType": "address",
          "name": "_recipient",
          "type": "address"
        }
      ],
      "name": "setupRecipientAddress",
      "outputs": [],
      "stateMutability": "nonpayable",
      "type": "function"
    },
    {
      "inputs": [
        {
          "internalType": "address",
          "name": "_originalAddress",
          "type": "address"
        }
      ],
      "name": "viewRecipientAddress",
      "outputs": [
        {
          "internalType": "address",
          "name": "",
          "type": "address"
        }
      ],
      "stateMutability": "view",
      "type": "function"
    },
    {
      "inputs": [
        {
          "internalType": "address",
          "name": "_originalAddress",
          "type": "address"
        },
        {
          "internalType": "address",
          "name": "_erc20Address",
          "type": "address"
        }
      ],
      "name": "withdrawERC20",
      "outputs": [],
      "stateMutability": "payable",
      "type": "function"
    },
    {
      "inputs": [
        {
          "internalType": "address",
          "name": "_originalAddress",
          "type": "address"
        },
        {
          "internalType": "address",
          "name": "_erc721Address",
          "type": "address"
        },
        {
          "internalType": "uint256",
          "name": "_id",
          "type": "uint256"
        }
      ],
      "name": "withdrawERC721",
      "outputs": [],
      "stateMutability": "payable",
      "type": "function"
    },
    {
      "inputs": [
        {
          "internalType": "uint256",
          "name": "_amount",
          "type": "uint256"
        }
      ],
      "name": "withdrawPayments",
      "outputs": [],
      "stateMutability": "nonpayable",
      "type": "function"
    }
  ],
  "bytecode": "0x60c06040523480156200001157600080fd5b50604051620046d2380380620046d2833981810160405281019062000037919062000197565b8273ffffffffffffffffffffffffffffffffffffffff1660808173ffffffffffffffffffffffffffffffffffffffff16815250508173ffffffffffffffffffffffffffffffffffffffff1660a08173ffffffffffffffffffffffffffffffffffffffff1681525050806000806101000a81548173ffffffffffffffffffffffffffffffffffffffff021916908373ffffffffffffffffffffffffffffffffffffffff160217905550505050620001f3565b600080fd5b600073ffffffffffffffffffffffffffffffffffffffff82169050919050565b60006200011a82620000ed565b9050919050565b6200012c816200010d565b81146200013857600080fd5b50565b6000815190506200014c8162000121565b92915050565b60006200015f82620000ed565b9050919050565b620001718162000152565b81146200017d57600080fd5b50565b600081519050620001918162000166565b92915050565b600080600060608486031215620001b357620001b2620000e8565b5b6000620001c3868287016200013b565b9350506020620001d6868287016200013b565b9250506040620001e98682870162000180565b9150509250925092565b60805160a0516144b26200022060003960006112e90152600081816108f401526122b301526144b26000f3fe6080604052600436106100fe5760003560e01c80636a783cc5116100955780639e74fb39116100645780639e74fb391461034d578063c5b2ae7a1461038a578063d82f767d146103b3578063d9ce6ae7146103dc578063f574e2b614610419576100fe565b80636a783cc51461028e57806379386cc8146102b757806390ffaa2a146102f45780639456fbcc14610331576100fe565b80634025feb2116100d15780634025feb2146101cf57806341975af8146101eb5780634f4a7e70146102145780634fbcae6114610251576100fe565b806309c0e14f146101035780630ca93171146101405780632d0335ab146101695780633d602dbe146101a6575b600080fd5b34801561010f57600080fd5b5061012a60048036038101906101259190612d0a565b610442565b6040516101379190612d6c565b60405180910390f35b34801561014c57600080fd5b5061016760048036038101906101629190612d87565b61075a565b005b34801561017557600080fd5b50610190600480360381019061018b9190612d87565b6108a9565b60405161019d9190612dcd565b60405180910390f35b3480156101b257600080fd5b506101cd60048036038101906101c89190612e14565b6108f2565b005b6101e960048036038101906101e49190612e7b565b610b4e565b005b3480156101f757600080fd5b50610212600480360381019061020d9190612ece565b610fb9565b005b34801561022057600080fd5b5061023b60048036038101906102369190612e7b565b61115b565b6040516102489190612f16565b60405180910390f35b34801561025d57600080fd5b5061027860048036038101906102739190612f31565b611204565b6040516102859190612d6c565b60405180910390f35b34801561029a57600080fd5b506102b560048036038101906102b091906130b7565b6112aa565b005b3480156102c357600080fd5b506102de60048036038101906102d99190612e7b565b6114ab565b6040516102eb9190612d6c565b60405180910390f35b34801561030057600080fd5b5061031b60048036038101906103169190612f31565b611563565b6040516103289190612dcd565b60405180910390f35b61034b60048036038101906103469190612f31565b61161b565b005b34801561035957600080fd5b50610374600480360381019061036f9190612e14565b611a3e565b6040516103819190612d6c565b60405180910390f35b34801561039657600080fd5b506103b160048036038101906103ac9190613164565b611d8a565b005b3480156103bf57600080fd5b506103da60048036038101906103d59190612d87565b612115565b005b3480156103e857600080fd5b5061040360048036038101906103fe9190612d87565b612248565b60405161041091906131a0565b60405180910390f35b34801561042557600080fd5b50610440600480360381019061043b9190612e14565b6122b1565b005b60008060009054906101000a900473ffffffffffffffffffffffffffffffffffffffff1673ffffffffffffffffffffffffffffffffffffffff163373ffffffffffffffffffffffffffffffffffffffff16146104d3576040517f08c379a00000000000000000000000000000000000000000000000000000000081526004016104ca9061323e565b60405180910390fd5b816fffffffffffffffffffffffffffffffff16600260008673ffffffffffffffffffffffffffffffffffffffff1673ffffffffffffffffffffffffffffffffffffffff16815260200190815260200160002060008573ffffffffffffffffffffffffffffffffffffffff1673ffffffffffffffffffffffffffffffffffffffff16815260200190815260200160002060000160109054906101000a90046fffffffffffffffffffffffffffffffff166fffffffffffffffffffffffffffffffff1610156105d5576040517f08c379a00000000000000000000000000000000000000000000000000000000081526004016105cc906132d0565b60405180910390fd5b81600260008673ffffffffffffffffffffffffffffffffffffffff1673ffffffffffffffffffffffffffffffffffffffff16815260200190815260200160002060008573ffffffffffffffffffffffffffffffffffffffff1673ffffffffffffffffffffffffffffffffffffffff16815260200190815260200160002060000160108282829054906101000a90046fffffffffffffffffffffffffffffffff1661067f919061331f565b92506101000a8154816fffffffffffffffffffffffffffffffff02191690836fffffffffffffffffffffffffffffffff160217905550600260008573ffffffffffffffffffffffffffffffffffffffff1673ffffffffffffffffffffffffffffffffffffffff16815260200190815260200160002060008473ffffffffffffffffffffffffffffffffffffffff1673ffffffffffffffffffffffffffffffffffffffff16815260200190815260200160002060000160109054906101000a90046fffffffffffffffffffffffffffffffff1690509392505050565b600073ffffffffffffffffffffffffffffffffffffffff16600160003373ffffffffffffffffffffffffffffffffffffffff1673ffffffffffffffffffffffffffffffffffffffff16815260200190815260200160002060009054906101000a900473ffffffffffffffffffffffffffffffffffffffff1673ffffffffffffffffffffffffffffffffffffffff1614610828576040517f08c379a000000000000000000000000000000000000000000000000000000000815260040161081f906133c5565b60405180910390fd5b80600160003373ffffffffffffffffffffffffffffffffffffffff1673ffffffffffffffffffffffffffffffffffffffff16815260200190815260200160002060006101000a81548173ffffffffffffffffffffffffffffffffffffffff021916908373ffffffffffffffffffffffffffffffffffffffff16021790555050565b6000600460008373ffffffffffffffffffffffffffffffffffffffff1673ffffffffffffffffffffffffffffffffffffffff168152602001908152602001600020549050919050565b7f000000000000000000000000000000000000000000000000000000000000000073ffffffffffffffffffffffffffffffffffffffff163373ffffffffffffffffffffffffffffffffffffffff1614610980576040517f08c379a000000000000000000000000000000000000000000000000000000000815260040161097790613457565b60405180910390fd5b80600260008673ffffffffffffffffffffffffffffffffffffffff1673ffffffffffffffffffffffffffffffffffffffff16815260200190815260200160002060008573ffffffffffffffffffffffffffffffffffffffff1673ffffffffffffffffffffffffffffffffffffffff16815260200190815260200160002060000160108282829054906101000a90046fffffffffffffffffffffffffffffffff16610a2a9190613477565b92506101000a8154816fffffffffffffffffffffffffffffffff02191690836fffffffffffffffffffffffffffffffff160217905550610a69826124df565b600260008673ffffffffffffffffffffffffffffffffffffffff1673ffffffffffffffffffffffffffffffffffffffff16815260200190815260200160002060008573ffffffffffffffffffffffffffffffffffffffff1673ffffffffffffffffffffffffffffffffffffffff16815260200190815260200160002060000160008282829054906101000a90046fffffffffffffffffffffffffffffffff16610b129190613477565b92506101000a8154816fffffffffffffffffffffffffffffffff02191690836fffffffffffffffffffffffffffffffff16021790555050505050565b3373ffffffffffffffffffffffffffffffffffffffff16600160008573ffffffffffffffffffffffffffffffffffffffff1673ffffffffffffffffffffffffffffffffffffffff16815260200190815260200160002060009054906101000a900473ffffffffffffffffffffffffffffffffffffffff1673ffffffffffffffffffffffffffffffffffffffff1614610c1b576040517f08c379a0000000000000000000000000000000000000000000000000000000008152600401610c129061352f565b60405180910390fd5b3073ffffffffffffffffffffffffffffffffffffffff168273ffffffffffffffffffffffffffffffffffffffff1603610c89576040517f08c379a0000000000000000000000000000000000000000000000000000000008152600401610c809061359b565b60405180910390fd5b610c9483838361115b565b610cd3576040517f08c379a0000000000000000000000000000000000000000000000000000000008152600401610cca9061362d565b60405180910390fd5b600360008473ffffffffffffffffffffffffffffffffffffffff1673ffffffffffffffffffffffffffffffffffffffff16815260200190815260200160002060008373ffffffffffffffffffffffffffffffffffffffff1673ffffffffffffffffffffffffffffffffffffffff168152602001908152602001600020600082815260200190815260200160002060000160019054906101000a90046fffffffffffffffffffffffffffffffff166fffffffffffffffffffffffffffffffff16341015610dd4576040517f08c379a0000000000000000000000000000000000000000000000000000000008152600401610dcb90613699565b60405180910390fd5b6000600360008573ffffffffffffffffffffffffffffffffffffffff1673ffffffffffffffffffffffffffffffffffffffff16815260200190815260200160002060008473ffffffffffffffffffffffffffffffffffffffff1673ffffffffffffffffffffffffffffffffffffffff168152602001908152602001600020600083815260200190815260200160002060000160006101000a81548160ff0219169083151502179055506000600360008573ffffffffffffffffffffffffffffffffffffffff1673ffffffffffffffffffffffffffffffffffffffff16815260200190815260200160002060008473ffffffffffffffffffffffffffffffffffffffff1673ffffffffffffffffffffffffffffffffffffffff168152602001908152602001600020600083815260200190815260200160002060000160016101000a8154816fffffffffffffffffffffffffffffffff02191690836fffffffffffffffffffffffffffffffff1602179055508173ffffffffffffffffffffffffffffffffffffffff166342842e0e3033846040518463ffffffff1660e01b8152600401610f82939291906136b9565b600060405180830381600087803b158015610f9c57600080fd5b505af1158015610fb0573d6000803e3d6000fd5b50505050505050565b60008054906101000a900473ffffffffffffffffffffffffffffffffffffffff1673ffffffffffffffffffffffffffffffffffffffff163373ffffffffffffffffffffffffffffffffffffffff1614611047576040517f08c379a000000000000000000000000000000000000000000000000000000000815260040161103e9061323e565b60405180910390fd5b8047101561108a576040517f08c379a000000000000000000000000000000000000000000000000000000000815260040161108190613762565b60405180910390fd5b60008060009054906101000a900473ffffffffffffffffffffffffffffffffffffffff1673ffffffffffffffffffffffffffffffffffffffff16826040516110d1906137b3565b60006040518083038185875af1925050503d806000811461110e576040519150601f19603f3d011682016040523d82523d6000602084013e611113565b606091505b5050905080611157576040517f08c379a000000000000000000000000000000000000000000000000000000000815260040161114e90613814565b60405180910390fd5b5050565b6000600360008573ffffffffffffffffffffffffffffffffffffffff1673ffffffffffffffffffffffffffffffffffffffff16815260200190815260200160002060008473ffffffffffffffffffffffffffffffffffffffff1673ffffffffffffffffffffffffffffffffffffffff168152602001908152602001600020600083815260200190815260200160002060000160009054906101000a900460ff1690509392505050565b6000600260008473ffffffffffffffffffffffffffffffffffffffff1673ffffffffffffffffffffffffffffffffffffffff16815260200190815260200160002060008373ffffffffffffffffffffffffffffffffffffffff1673ffffffffffffffffffffffffffffffffffffffff16815260200190815260200160002060000160109054906101000a90046fffffffffffffffffffffffffffffffff16905092915050565b60003383836112b8336108a9565b30466040516020016112cf9695949392919061389d565b6040516020818303038152906040528051906020012090507f000000000000000000000000000000000000000000000000000000000000000073ffffffffffffffffffffffffffffffffffffffff166113398561132b8461253e565b61256e90919063ffffffff16565b73ffffffffffffffffffffffffffffffffffffffff161461138f576040517f08c379a0000000000000000000000000000000000000000000000000000000008152600401611386906139a5565b60405180910390fd5b814211156113d2576040517f08c379a00000000000000000000000000000000000000000000000000000000081526004016113c990613a11565b60405180910390fd5b600460003373ffffffffffffffffffffffffffffffffffffffff1673ffffffffffffffffffffffffffffffffffffffff168152602001908152602001600020600081548092919061142290613a31565b919050555082600160003373ffffffffffffffffffffffffffffffffffffffff1673ffffffffffffffffffffffffffffffffffffffff16815260200190815260200160002060006101000a81548173ffffffffffffffffffffffffffffffffffffffff021916908373ffffffffffffffffffffffffffffffffffffffff16021790555050505050565b6000600360008573ffffffffffffffffffffffffffffffffffffffff1673ffffffffffffffffffffffffffffffffffffffff16815260200190815260200160002060008473ffffffffffffffffffffffffffffffffffffffff1673ffffffffffffffffffffffffffffffffffffffff168152602001908152602001600020600083815260200190815260200160002060000160019054906101000a90046fffffffffffffffffffffffffffffffff1690509392505050565b6000600260008473ffffffffffffffffffffffffffffffffffffffff1673ffffffffffffffffffffffffffffffffffffffff16815260200190815260200160002060008373ffffffffffffffffffffffffffffffffffffffff1673ffffffffffffffffffffffffffffffffffffffff16815260200190815260200160002060000160009054906101000a90046fffffffffffffffffffffffffffffffff166fffffffffffffffffffffffffffffffff16905092915050565b3373ffffffffffffffffffffffffffffffffffffffff16600160008473ffffffffffffffffffffffffffffffffffffffff1673ffffffffffffffffffffffffffffffffffffffff16815260200190815260200160002060009054906101000a900473ffffffffffffffffffffffffffffffffffffffff1673ffffffffffffffffffffffffffffffffffffffff16146116e8576040517f08c379a00000000000000000000000000000000000000000000000000000000081526004016116df9061352f565b60405180910390fd5b3073ffffffffffffffffffffffffffffffffffffffff168173ffffffffffffffffffffffffffffffffffffffff1603611756576040517f08c379a000000000000000000000000000000000000000000000000000000000815260040161174d9061359b565b60405180910390fd5b60006117628383611563565b116117a2576040517f08c379a000000000000000000000000000000000000000000000000000000000815260040161179990613ac5565b60405180910390fd5b600260008373ffffffffffffffffffffffffffffffffffffffff1673ffffffffffffffffffffffffffffffffffffffff16815260200190815260200160002060008273ffffffffffffffffffffffffffffffffffffffff1673ffffffffffffffffffffffffffffffffffffffff16815260200190815260200160002060000160109054906101000a90046fffffffffffffffffffffffffffffffff166fffffffffffffffffffffffffffffffff16341015611892576040517f08c379a000000000000000000000000000000000000000000000000000000000815260040161188990613699565b60405180910390fd5b600061189e8383611563565b90506000600260008573ffffffffffffffffffffffffffffffffffffffff1673ffffffffffffffffffffffffffffffffffffffff16815260200190815260200160002060008473ffffffffffffffffffffffffffffffffffffffff1673ffffffffffffffffffffffffffffffffffffffff16815260200190815260200160002060000160006101000a8154816fffffffffffffffffffffffffffffffff02191690836fffffffffffffffffffffffffffffffff1602179055506000600260008573ffffffffffffffffffffffffffffffffffffffff1673ffffffffffffffffffffffffffffffffffffffff16815260200190815260200160002060008473ffffffffffffffffffffffffffffffffffffffff1673ffffffffffffffffffffffffffffffffffffffff16815260200190815260200160002060000160106101000a8154816fffffffffffffffffffffffffffffffff02191690836fffffffffffffffffffffffffffffffff160217905550611a3933828473ffffffffffffffffffffffffffffffffffffffff166125959092919063ffffffff16565b505050565b60008060009054906101000a900473ffffffffffffffffffffffffffffffffffffffff1673ffffffffffffffffffffffffffffffffffffffff163373ffffffffffffffffffffffffffffffffffffffff1614611acf576040517f08c379a0000000000000000000000000000000000000000000000000000000008152600401611ac69061323e565b60405180910390fd5b816fffffffffffffffffffffffffffffffff16600360008773ffffffffffffffffffffffffffffffffffffffff1673ffffffffffffffffffffffffffffffffffffffff16815260200190815260200160002060008673ffffffffffffffffffffffffffffffffffffffff1673ffffffffffffffffffffffffffffffffffffffff168152602001908152602001600020600085815260200190815260200160002060000160019054906101000a90046fffffffffffffffffffffffffffffffff166fffffffffffffffffffffffffffffffff161015611be2576040517f08c379a0000000000000000000000000000000000000000000000000000000008152600401611bd9906132d0565b60405180910390fd5b81600360008773ffffffffffffffffffffffffffffffffffffffff1673ffffffffffffffffffffffffffffffffffffffff16815260200190815260200160002060008673ffffffffffffffffffffffffffffffffffffffff1673ffffffffffffffffffffffffffffffffffffffff168152602001908152602001600020600085815260200190815260200160002060000160018282829054906101000a90046fffffffffffffffffffffffffffffffff16611c9d919061331f565b92506101000a8154816fffffffffffffffffffffffffffffffff02191690836fffffffffffffffffffffffffffffffff160217905550600360008673ffffffffffffffffffffffffffffffffffffffff1673ffffffffffffffffffffffffffffffffffffffff16815260200190815260200160002060008573ffffffffffffffffffffffffffffffffffffffff1673ffffffffffffffffffffffffffffffffffffffff168152602001908152602001600020600084815260200190815260200160002060000160019054906101000a90046fffffffffffffffffffffffffffffffff169050949350505050565b60008054906101000a900473ffffffffffffffffffffffffffffffffffffffff1673ffffffffffffffffffffffffffffffffffffffff163373ffffffffffffffffffffffffffffffffffffffff1614611e18576040517f08c379a0000000000000000000000000000000000000000000000000000000008152600401611e0f90613b57565b60405180910390fd5b6000600560008060009054906101000a900473ffffffffffffffffffffffffffffffffffffffff1673ffffffffffffffffffffffffffffffffffffffff1673ffffffffffffffffffffffffffffffffffffffff16815260200190815260200160002060008373ffffffffffffffffffffffffffffffffffffffff1673ffffffffffffffffffffffffffffffffffffffff1681526020019081526020016000205411611ef8576040517f08c379a0000000000000000000000000000000000000000000000000000000008152600401611eef90613be9565b60405180910390fd5b4262127500600560008060009054906101000a900473ffffffffffffffffffffffffffffffffffffffff1673ffffffffffffffffffffffffffffffffffffffff1673ffffffffffffffffffffffffffffffffffffffff16815260200190815260200160002060008473ffffffffffffffffffffffffffffffffffffffff1673ffffffffffffffffffffffffffffffffffffffff16815260200190815260200160002054611fa59190613c09565b10611fe5576040517f08c379a0000000000000000000000000000000000000000000000000000000008152600401611fdc90613cd1565b60405180910390fd5b426213c680600560008060009054906101000a900473ffffffffffffffffffffffffffffffffffffffff1673ffffffffffffffffffffffffffffffffffffffff1673ffffffffffffffffffffffffffffffffffffffff16815260200190815260200160002060008473ffffffffffffffffffffffffffffffffffffffff1673ffffffffffffffffffffffffffffffffffffffff168152602001908152602001600020546120929190613c09565b116120d2576040517f08c379a00000000000000000000000000000000000000000000000000000000081526004016120c990613d89565b60405180910390fd5b806000806101000a81548173ffffffffffffffffffffffffffffffffffffffff021916908373ffffffffffffffffffffffffffffffffffffffff16021790555050565b60008054906101000a900473ffffffffffffffffffffffffffffffffffffffff1673ffffffffffffffffffffffffffffffffffffffff163373ffffffffffffffffffffffffffffffffffffffff16146121a3576040517f08c379a000000000000000000000000000000000000000000000000000000000815260040161219a90613b57565b60405180910390fd5b42600560008060009054906101000a900473ffffffffffffffffffffffffffffffffffffffff1673ffffffffffffffffffffffffffffffffffffffff1673ffffffffffffffffffffffffffffffffffffffff16815260200190815260200160002060008373ffffffffffffffffffffffffffffffffffffffff1673ffffffffffffffffffffffffffffffffffffffff1681526020019081526020016000208190555050565b6000600160008373ffffffffffffffffffffffffffffffffffffffff1673ffffffffffffffffffffffffffffffffffffffff16815260200190815260200160002060009054906101000a900473ffffffffffffffffffffffffffffffffffffffff169050919050565b7f000000000000000000000000000000000000000000000000000000000000000073ffffffffffffffffffffffffffffffffffffffff163373ffffffffffffffffffffffffffffffffffffffff161461233f576040517f08c379a000000000000000000000000000000000000000000000000000000000815260040161233690613457565b60405180910390fd5b80600360008673ffffffffffffffffffffffffffffffffffffffff1673ffffffffffffffffffffffffffffffffffffffff16815260200190815260200160002060008573ffffffffffffffffffffffffffffffffffffffff1673ffffffffffffffffffffffffffffffffffffffff168152602001908152602001600020600084815260200190815260200160002060000160018282829054906101000a90046fffffffffffffffffffffffffffffffff166123fa9190613477565b92506101000a8154816fffffffffffffffffffffffffffffffff02191690836fffffffffffffffffffffffffffffffff1602179055506001600360008673ffffffffffffffffffffffffffffffffffffffff1673ffffffffffffffffffffffffffffffffffffffff16815260200190815260200160002060008573ffffffffffffffffffffffffffffffffffffffff1673ffffffffffffffffffffffffffffffffffffffff168152602001908152602001600020600084815260200190815260200160002060000160006101000a81548160ff02191690831515021790555050505050565b60006fffffffffffffffffffffffffffffffff8016821115612536576040517f08c379a000000000000000000000000000000000000000000000000000000000815260040161252d90613e1b565b60405180910390fd5b819050919050565b6000816040516020016125519190613ebd565b604051602081830303815290604052805190602001209050919050565b600080600061257d858561261b565b9150915061258a8161269c565b819250505092915050565b6126168363a9059cbb60e01b84846040516024016125b4929190613ee3565b604051602081830303815290604052907bffffffffffffffffffffffffffffffffffffffffffffffffffffffff19166020820180517bffffffffffffffffffffffffffffffffffffffffffffffffffffffff8381831617835250505050612868565b505050565b600080604183510361265c5760008060006020860151925060408601519150606086015160001a90506126508782858561292f565b94509450505050612695565b604083510361268c576000806020850151915060408501519050612681868383612a3b565b935093505050612695565b60006002915091505b9250929050565b600060048111156126b0576126af613f0c565b5b8160048111156126c3576126c2613f0c565b5b031561286557600160048111156126dd576126dc613f0c565b5b8160048111156126f0576126ef613f0c565b5b03612730576040517f08c379a000000000000000000000000000000000000000000000000000000000815260040161272790613f87565b60405180910390fd5b6002600481111561274457612743613f0c565b5b81600481111561275757612756613f0c565b5b03612797576040517f08c379a000000000000000000000000000000000000000000000000000000000815260040161278e90613ff3565b60405180910390fd5b600360048111156127ab576127aa613f0c565b5b8160048111156127be576127bd613f0c565b5b036127fe576040517f08c379a00000000000000000000000000000000000000000000000000000000081526004016127f590614085565b60405180910390fd5b60048081111561281157612810613f0c565b5b81600481111561282457612823613f0c565b5b03612864576040517f08c379a000000000000000000000000000000000000000000000000000000000815260040161285b90614117565b60405180910390fd5b5b50565b60006128ca826040518060400160405280602081526020017f5361666545524332303a206c6f772d6c6576656c2063616c6c206661696c65648152508573ffffffffffffffffffffffffffffffffffffffff16612a9a9092919063ffffffff16565b905060008151111561292a57808060200190518101906128ea9190614163565b612929576040517f08c379a000000000000000000000000000000000000000000000000000000000815260040161292090614202565b60405180910390fd5b5b505050565b6000807f7fffffffffffffffffffffffffffffff5d576e7357a4501ddfe92f46681b20a08360001c111561296a576000600391509150612a32565b601b8560ff16141580156129825750601c8560ff1614155b15612994576000600491509150612a32565b6000600187878787604051600081526020016040526040516129b9949392919061424d565b6020604051602081039080840390855afa1580156129db573d6000803e3d6000fd5b505050602060405103519050600073ffffffffffffffffffffffffffffffffffffffff168173ffffffffffffffffffffffffffffffffffffffff1603612a2957600060019250925050612a32565b80600092509250505b94509492505050565b60008060007f7fffffffffffffffffffffffffffffffffffffffffffffffffffffffffffffff60001b841690506000601b60ff8660001c901c612a7e9190613c09565b9050612a8c8782888561292f565b935093505050935093915050565b6060612aa98484600085612ab2565b90509392505050565b606082471015612af7576040517f08c379a0000000000000000000000000000000000000000000000000000000008152600401612aee90614304565b60405180910390fd5b612b0085612bc6565b612b3f576040517f08c379a0000000000000000000000000000000000000000000000000000000008152600401612b3690614370565b60405180910390fd5b6000808673ffffffffffffffffffffffffffffffffffffffff168587604051612b6891906143ff565b60006040518083038185875af1925050503d8060008114612ba5576040519150601f19603f3d011682016040523d82523d6000602084013e612baa565b606091505b5091509150612bba828286612be9565b92505050949350505050565b6000808273ffffffffffffffffffffffffffffffffffffffff163b119050919050565b60608315612bf957829050612c49565b600083511115612c0c5782518084602001fd5b816040517f08c379a0000000000000000000000000000000000000000000000000000000008152600401612c40919061445a565b60405180910390fd5b9392505050565b6000604051905090565b600080fd5b600080fd5b600073ffffffffffffffffffffffffffffffffffffffff82169050919050565b6000612c8f82612c64565b9050919050565b612c9f81612c84565b8114612caa57600080fd5b50565b600081359050612cbc81612c96565b92915050565b60006fffffffffffffffffffffffffffffffff82169050919050565b612ce781612cc2565b8114612cf257600080fd5b50565b600081359050612d0481612cde565b92915050565b600080600060608486031215612d2357612d22612c5a565b5b6000612d3186828701612cad565b9350506020612d4286828701612cad565b9250506040612d5386828701612cf5565b9150509250925092565b612d6681612cc2565b82525050565b6000602082019050612d816000830184612d5d565b92915050565b600060208284031215612d9d57612d9c612c5a565b5b6000612dab84828501612cad565b91505092915050565b6000819050919050565b612dc781612db4565b82525050565b6000602082019050612de26000830184612dbe565b92915050565b612df181612db4565b8114612dfc57600080fd5b50565b600081359050612e0e81612de8565b92915050565b60008060008060808587031215612e2e57612e2d612c5a565b5b6000612e3c87828801612cad565b9450506020612e4d87828801612cad565b9350506040612e5e87828801612dff565b9250506060612e6f87828801612cf5565b91505092959194509250565b600080600060608486031215612e9457612e93612c5a565b5b6000612ea286828701612cad565b9350506020612eb386828701612cad565b9250506040612ec486828701612dff565b9150509250925092565b600060208284031215612ee457612ee3612c5a565b5b6000612ef284828501612dff565b91505092915050565b60008115159050919050565b612f1081612efb565b82525050565b6000602082019050612f2b6000830184612f07565b92915050565b60008060408385031215612f4857612f47612c5a565b5b6000612f5685828601612cad565b9250506020612f6785828601612cad565b9150509250929050565b600080fd5b600080fd5b6000601f19601f8301169050919050565b7f4e487b7100000000000000000000000000000000000000000000000000000000600052604160045260246000fd5b612fc482612f7b565b810181811067ffffffffffffffff82111715612fe357612fe2612f8c565b5b80604052505050565b6000612ff6612c50565b90506130028282612fbb565b919050565b600067ffffffffffffffff82111561302257613021612f8c565b5b61302b82612f7b565b9050602081019050919050565b82818337600083830152505050565b600061305a61305584613007565b612fec565b90508281526020810184848401111561307657613075612f76565b5b613081848285613038565b509392505050565b600082601f83011261309e5761309d612f71565b5b81356130ae848260208601613047565b91505092915050565b6000806000606084860312156130d0576130cf612c5a565b5b600084013567ffffffffffffffff8111156130ee576130ed612c5f565b5b6130fa86828701613089565b935050602061310b86828701612cad565b925050604061311c86828701612dff565b9150509250925092565b600061313182612c64565b9050919050565b61314181613126565b811461314c57600080fd5b50565b60008135905061315e81613138565b92915050565b60006020828403121561317a57613179612c5a565b5b60006131888482850161314f565b91505092915050565b61319a81612c84565b82525050565b60006020820190506131b56000830184613191565b92915050565b600082825260208201905092915050565b7f6d73672e73656e646572206d75737420626520666565436f6e74726f6c6c657260008201527f2e00000000000000000000000000000000000000000000000000000000000000602082015250565b60006132286021836131bb565b9150613233826131cc565b604082019050919050565b600060208201905081810360008301526132578161321b565b9050919050565b7f596f752063616e6e6f7420726564756365206d6f7265207468616e207468652060008201527f63757272656e74206665652e0000000000000000000000000000000000000000602082015250565b60006132ba602c836131bb565b91506132c58261325e565b604082019050919050565b600060208201905081810360008301526132e9816132ad565b9050919050565b7f4e487b7100000000000000000000000000000000000000000000000000000000600052601160045260246000fd5b600061332a82612cc2565b915061333583612cc2565b925082821015613348576133476132f0565b5b828203905092915050565b7f596f7520616c726561647920686176652072656769737465726564206120726560008201527f63697069656e7420616464726573730000000000000000000000000000000000602082015250565b60006133af602f836131bb565b91506133ba82613353565b604082019050919050565b600060208201905081810360008301526133de816133a2565b9050919050565b7f4f6e6c7920746865207472616e73666572657220636f6e74726163742063616e60008201527f206c6f672066756e64732e000000000000000000000000000000000000000000602082015250565b6000613441602b836131bb565b915061344c826133e5565b604082019050919050565b6000602082019050818103600083015261347081613434565b9050919050565b600061348282612cc2565b915061348d83612cc2565b9250826fffffffffffffffffffffffffffffffff038211156134b2576134b16132f0565b5b828201905092915050565b7f46756e6374696f6e2063616c6c6572206973206e6f7420616e20617574686f7260008201527f697a656420726563697069656e74416464726573732e00000000000000000000602082015250565b60006135196036836131bb565b9150613524826134bd565b604082019050919050565b600060208201905081810360008301526135488161350c565b9050919050565b7f546865207661756c74206973206e6f74206120746f6b656e2061646472657373600082015250565b60006135856020836131bb565b91506135908261354f565b602082019050919050565b600060208201905081810360008301526135b481613578565b9050919050565b7f496e73756666696369656e74207769746864726177616c20616c6c6f77616e6360008201527f652e000000000000000000000000000000000000000000000000000000000000602082015250565b60006136176022836131bb565b9150613622826135bb565b604082019050919050565b600060208201905081810360008301526136468161360a565b9050919050565b7f496e73756666696369656e74207061796d656e742e0000000000000000000000600082015250565b60006136836015836131bb565b915061368e8261364d565b602082019050919050565b600060208201905081810360008301526136b281613676565b9050919050565b60006060820190506136ce6000830186613191565b6136db6020830185613191565b6136e86040830184612dbe565b949350505050565b7f43616e6e6f74207769746864726177206d6f7265207468616e2074686520616d60008201527f6f756e7420696e2074686520636f6e74726163742e0000000000000000000000602082015250565b600061374c6035836131bb565b9150613757826136f0565b604082019050919050565b6000602082019050818103600083015261377b8161373f565b9050919050565b600081905092915050565b50565b600061379d600083613782565b91506137a88261378d565b600082019050919050565b60006137be82613790565b9150819050919050565b7f5472616e73666572206661696c65640000000000000000000000000000000000600082015250565b60006137fe600f836131bb565b9150613809826137c8565b602082019050919050565b6000602082019050818103600083015261382d816137f1565b9050919050565b60008160601b9050919050565b600061384c82613834565b9050919050565b600061385e82613841565b9050919050565b61387661387182612c84565b613853565b82525050565b6000819050919050565b61389761389282612db4565b61387c565b82525050565b60006138a98289613865565b6014820191506138b98288613865565b6014820191506138c98287613886565b6020820191506138d98286613886565b6020820191506138e98285613865565b6014820191506138f98284613886565b602082019150819050979650505050505050565b7f496e76616c6964207369676e61747572652e205369676e617475726520736f7560008201527f726365206d617920626520696e636f72726563742c206f7220612070726f766960208201527f64656420706172616d6574657220697320696e76616c69640000000000000000604082015250565b600061398f6058836131bb565b915061399a8261390d565b606082019050919050565b600060208201905081810360008301526139be81613982565b9050919050565b7f5369676e61747572652065787069726564000000000000000000000000000000600082015250565b60006139fb6011836131bb565b9150613a06826139c5565b602082019050919050565b60006020820190508181036000830152613a2a816139ee565b9050919050565b6000613a3c82612db4565b91507fffffffffffffffffffffffffffffffffffffffffffffffffffffffffffffffff8203613a6e57613a6d6132f0565b5b600182019050919050565b7f4e6f207769746864726177616c20616c6c6f77616e63652e0000000000000000600082015250565b6000613aaf6018836131bb565b9150613aba82613a79565b602082019050919050565b60006020820190508181036000830152613ade81613aa2565b9050919050565b7f6d73672e73656e646572206d757374206265207468652063757272656e74206660008201527f6565436f6e74726f6c6c65722e00000000000000000000000000000000000000602082015250565b6000613b41602d836131bb565b9150613b4c82613ae5565b604082019050919050565b60006020820190508181036000830152613b7081613b34565b9050919050565b7f5375626d697420612074696d656c6f636b2072657175657374206265666f726560008201527f2063616c6c696e6720746869732066756e6374696f6e2e000000000000000000602082015250565b6000613bd36037836131bb565b9150613bde82613b77565b604082019050919050565b60006020820190508181036000830152613c0281613bc6565b9050919050565b6000613c1482612db4565b9150613c1f83612db4565b9250827fffffffffffffffffffffffffffffffffffffffffffffffffffffffffffffffff03821115613c5457613c536132f0565b5b828201905092915050565b7f52657175657374206d757374207061737320612074776f2d7765656b2074696d60008201527f656c6f636b2e0000000000000000000000000000000000000000000000000000602082015250565b6000613cbb6026836131bb565b9150613cc682613c5f565b604082019050919050565b60006020820190508181036000830152613cea81613cae565b9050919050565b7f5265717565737420657870697265642e205265717565737473206d757374206f60008201527f636375722077697468696e20323420686f757273206f66206120636f6d706c6560208201527f7465642074696d656c6f636b2e00000000000000000000000000000000000000604082015250565b6000613d73604d836131bb565b9150613d7e82613cf1565b606082019050919050565b60006020820190508181036000830152613da281613d66565b9050919050565b7f53616665436173743a2076616c756520646f65736e27742066697420696e203160008201527f3238206269747300000000000000000000000000000000000000000000000000602082015250565b6000613e056027836131bb565b9150613e1082613da9565b604082019050919050565b60006020820190508181036000830152613e3481613df8565b9050919050565b600081905092915050565b7f19457468657265756d205369676e6564204d6573736167653a0a333200000000600082015250565b6000613e7c601c83613e3b565b9150613e8782613e46565b601c82019050919050565b6000819050919050565b6000819050919050565b613eb7613eb282613e92565b613e9c565b82525050565b6000613ec882613e6f565b9150613ed48284613ea6565b60208201915081905092915050565b6000604082019050613ef86000830185613191565b613f056020830184612dbe565b9392505050565b7f4e487b7100000000000000000000000000000000000000000000000000000000600052602160045260246000fd5b7f45434453413a20696e76616c6964207369676e61747572650000000000000000600082015250565b6000613f716018836131bb565b9150613f7c82613f3b565b602082019050919050565b60006020820190508181036000830152613fa081613f64565b9050919050565b7f45434453413a20696e76616c6964207369676e6174757265206c656e67746800600082015250565b6000613fdd601f836131bb565b9150613fe882613fa7565b602082019050919050565b6000602082019050818103600083015261400c81613fd0565b9050919050565b7f45434453413a20696e76616c6964207369676e6174757265202773272076616c60008201527f7565000000000000000000000000000000000000000000000000000000000000602082015250565b600061406f6022836131bb565b915061407a82614013565b604082019050919050565b6000602082019050818103600083015261409e81614062565b9050919050565b7f45434453413a20696e76616c6964207369676e6174757265202776272076616c60008201527f7565000000000000000000000000000000000000000000000000000000000000602082015250565b60006141016022836131bb565b915061410c826140a5565b604082019050919050565b60006020820190508181036000830152614130816140f4565b9050919050565b61414081612efb565b811461414b57600080fd5b50565b60008151905061415d81614137565b92915050565b60006020828403121561417957614178612c5a565b5b60006141878482850161414e565b91505092915050565b7f5361666545524332303a204552433230206f7065726174696f6e20646964206e60008201527f6f74207375636365656400000000000000000000000000000000000000000000602082015250565b60006141ec602a836131bb565b91506141f782614190565b604082019050919050565b6000602082019050818103600083015261421b816141df565b9050919050565b61422b81613e92565b82525050565b600060ff82169050919050565b61424781614231565b82525050565b60006080820190506142626000830187614222565b61426f602083018661423e565b61427c6040830185614222565b6142896060830184614222565b95945050505050565b7f416464726573733a20696e73756666696369656e742062616c616e636520666f60008201527f722063616c6c0000000000000000000000000000000000000000000000000000602082015250565b60006142ee6026836131bb565b91506142f982614292565b604082019050919050565b6000602082019050818103600083015261431d816142e1565b9050919050565b7f416464726573733a2063616c6c20746f206e6f6e2d636f6e7472616374000000600082015250565b600061435a601d836131bb565b915061436582614324565b602082019050919050565b600060208201905081810360008301526143898161434d565b9050919050565b600081519050919050565b60005b838110156143b957808201518184015260208101905061439e565b838111156143c8576000848401525b50505050565b60006143d982614390565b6143e38185613782565b93506143f381856020860161439b565b80840191505092915050565b600061440b82846143ce565b915081905092915050565b600081519050919050565b600061442c82614416565b61443681856131bb565b935061444681856020860161439b565b61444f81612f7b565b840191505092915050565b600060208201905081810360008301526144748184614421565b90509291505056fea2646970667358221220d9bef616fa3fd687784cf918227bfc4af1cab2f62b7a40c0930c3231e5deac9064736f6c634300080d0033",
  "linkReferences": {},
  "deployedLinkReferences": {}
}