{
  "_format": "hh-sol-artifact-1",
  "contractName": "Vault",
  "sourceName": "contracts/Vault.sol",
  "abi": [
    {
      "inputs": [
        {
          "internalType": "address",
          "name": "_transferer",
          "type": "address"
        },
        {
          "internalType": "address",
          "name": "_serverSigner",
          "type": "address"
        },
        {
          "internalType": "address payable",
          "name": "_feeController",
          "type": "address"
        },
        {
          "internalType": "address",
          "name": "_emergencyFeeRemover",
          "type": "address"
        }
      ],
      "stateMutability": "nonpayable",
      "type": "constructor"
    },
    {
      "inputs": [
        {
          "internalType": "address",
          "name": "_originalAddress",
          "type": "address"
        },
        {
          "internalType": "address",
          "name": "_erc20Address",
          "type": "address"
        }
      ],
      "name": "canWithdrawERC20",
      "outputs": [
        {
          "internalType": "uint256",
          "name": "",
          "type": "uint256"
        }
      ],
      "stateMutability": "view",
      "type": "function"
    },
    {
      "inputs": [
        {
          "internalType": "address",
          "name": "_originalAddress",
          "type": "address"
        },
        {
          "internalType": "address",
          "name": "_erc721Address",
          "type": "address"
        },
        {
          "internalType": "uint256",
          "name": "_id",
          "type": "uint256"
        }
      ],
      "name": "canWithdrawERC721",
      "outputs": [
        {
          "internalType": "bool",
          "name": "",
          "type": "bool"
        }
      ],
      "stateMutability": "view",
      "type": "function"
    },
    {
      "inputs": [],
      "name": "changeFeeController",
      "outputs": [],
      "stateMutability": "nonpayable",
      "type": "function"
    },
    {
      "inputs": [
        {
          "internalType": "address payable",
          "name": "_newFeeController",
          "type": "address"
        }
      ],
      "name": "changeFeeControllerRequest",
      "outputs": [],
      "stateMutability": "nonpayable",
      "type": "function"
    },
    {
      "inputs": [
        {
          "internalType": "bytes",
          "name": "_signature",
          "type": "bytes"
        },
        {
          "internalType": "address",
          "name": "_newRecipientAddress",
          "type": "address"
        },
        {
          "internalType": "uint256",
          "name": "expiry",
          "type": "uint256"
        }
      ],
      "name": "changeRecipientAddress",
      "outputs": [],
      "stateMutability": "nonpayable",
      "type": "function"
    },
    {
      "inputs": [
        {
          "internalType": "address",
          "name": "_originalAddress",
          "type": "address"
        },
        {
          "internalType": "address",
          "name": "_erc20Address",
          "type": "address"
        }
      ],
      "name": "erc20Fee",
      "outputs": [
        {
          "internalType": "uint128",
          "name": "",
          "type": "uint128"
        }
      ],
      "stateMutability": "view",
      "type": "function"
    },
    {
      "inputs": [
        {
          "internalType": "address",
          "name": "_originalAddress",
          "type": "address"
        },
        {
          "internalType": "address",
          "name": "_erc721Address",
          "type": "address"
        },
        {
          "internalType": "uint256",
          "name": "_id",
          "type": "uint256"
        }
      ],
      "name": "erc721Fee",
      "outputs": [
        {
          "internalType": "uint128",
          "name": "",
          "type": "uint128"
        }
      ],
      "stateMutability": "view",
      "type": "function"
    },
    {
      "inputs": [
        {
          "internalType": "address",
          "name": "_caller",
          "type": "address"
        }
      ],
      "name": "getNonce",
      "outputs": [
        {
          "internalType": "uint256",
          "name": "",
          "type": "uint256"
        }
      ],
      "stateMutability": "view",
      "type": "function"
    },
    {
      "inputs": [
        {
          "internalType": "address",
          "name": "_originalAddress",
          "type": "address"
        },
        {
          "internalType": "address",
          "name": "_erc20Address",
          "type": "address"
        },
        {
          "internalType": "uint256",
          "name": "_amount",
          "type": "uint256"
        },
        {
          "internalType": "uint128",
          "name": "_fee",
          "type": "uint128"
        }
      ],
      "name": "logIncomingERC20",
      "outputs": [],
      "stateMutability": "nonpayable",
      "type": "function"
    },
    {
      "inputs": [
        {
          "internalType": "address",
          "name": "_originalAddress",
          "type": "address"
        },
        {
          "internalType": "address",
          "name": "_erc721Address",
          "type": "address"
        },
        {
          "internalType": "uint256",
          "name": "_id",
          "type": "uint256"
        },
        {
          "internalType": "uint128",
          "name": "_fee",
          "type": "uint128"
        }
      ],
      "name": "logIncomingERC721",
      "outputs": [],
      "stateMutability": "nonpayable",
      "type": "function"
    },
    {
      "inputs": [],
      "name": "pendingFeeController",
      "outputs": [
        {
          "internalType": "address payable",
          "name": "newFeeController",
          "type": "address"
        },
        {
          "internalType": "uint256",
          "name": "blocktime",
          "type": "uint256"
        }
      ],
      "stateMutability": "view",
      "type": "function"
    },
    {
      "inputs": [
        {
          "internalType": "address",
          "name": "_originalAddress",
          "type": "address"
        },
        {
          "internalType": "address",
          "name": "_erc20Address",
          "type": "address"
        },
        {
          "internalType": "uint128",
          "name": "_reduceBy",
          "type": "uint128"
        }
      ],
      "name": "reduceERC20Fee",
      "outputs": [
        {
          "internalType": "uint128",
          "name": "",
          "type": "uint128"
        }
      ],
      "stateMutability": "nonpayable",
      "type": "function"
    },
    {
      "inputs": [
        {
          "internalType": "address",
          "name": "_originalAddress",
          "type": "address"
        },
        {
          "internalType": "address",
          "name": "_erc721Address",
          "type": "address"
        },
        {
          "internalType": "uint256",
          "name": "_id",
          "type": "uint256"
        },
        {
          "internalType": "uint128",
          "name": "_reduceBy",
          "type": "uint128"
        }
      ],
      "name": "reduceERC721Fee",
      "outputs": [
        {
          "internalType": "uint128",
          "name": "",
          "type": "uint128"
        }
      ],
      "stateMutability": "nonpayable",
      "type": "function"
    },
    {
      "inputs": [
        {
          "internalType": "address",
          "name": "_recipient",
          "type": "address"
        }
      ],
      "name": "setupRecipientAddress",
      "outputs": [],
      "stateMutability": "nonpayable",
      "type": "function"
    },
    {
      "inputs": [
        {
          "internalType": "bool",
          "name": "_newSetting",
          "type": "bool"
        }
      ],
      "name": "toggleEmergencyFlag",
      "outputs": [],
      "stateMutability": "nonpayable",
      "type": "function"
    },
    {
      "inputs": [
        {
          "internalType": "address",
          "name": "_originalAddress",
          "type": "address"
        }
      ],
      "name": "viewRecipientAddress",
      "outputs": [
        {
          "internalType": "address",
          "name": "",
          "type": "address"
        }
      ],
      "stateMutability": "view",
      "type": "function"
    },
    {
      "inputs": [
        {
          "internalType": "address",
          "name": "_originalAddress",
          "type": "address"
        },
        {
          "internalType": "address",
          "name": "_erc20Address",
          "type": "address"
        }
      ],
      "name": "withdrawERC20",
      "outputs": [],
      "stateMutability": "payable",
      "type": "function"
    },
    {
      "inputs": [
        {
          "internalType": "address",
          "name": "_originalAddress",
          "type": "address"
        },
        {
          "internalType": "address",
          "name": "_erc20Address",
          "type": "address"
        }
      ],
      "name": "withdrawERC20WithoutFees",
      "outputs": [],
      "stateMutability": "nonpayable",
      "type": "function"
    },
    {
      "inputs": [
        {
          "internalType": "address",
          "name": "_originalAddress",
          "type": "address"
        },
        {
          "internalType": "address",
          "name": "_erc721Address",
          "type": "address"
        },
        {
          "internalType": "uint256",
          "name": "_id",
          "type": "uint256"
        }
      ],
      "name": "withdrawERC721",
      "outputs": [],
      "stateMutability": "payable",
      "type": "function"
    },
    {
      "inputs": [
        {
          "internalType": "address",
          "name": "_originalAddress",
          "type": "address"
        },
        {
          "internalType": "address",
          "name": "_erc721Address",
          "type": "address"
        },
        {
          "internalType": "uint256",
          "name": "_id",
          "type": "uint256"
        }
      ],
      "name": "withdrawERC721WithoutFees",
      "outputs": [],
      "stateMutability": "nonpayable",
      "type": "function"
    },
    {
      "inputs": [
        {
          "internalType": "uint256",
          "name": "_amount",
          "type": "uint256"
        }
      ],
      "name": "withdrawPayments",
      "outputs": [],
      "stateMutability": "nonpayable",
      "type": "function"
    }
  ],
  "bytecode": "0x60e060405260008060146101000a81548160ff0219169083151502179055503480156200002b57600080fd5b5060405162004fcb38038062004fcb8339818101604052810190620000519190620001e6565b8373ffffffffffffffffffffffffffffffffffffffff1660808173ffffffffffffffffffffffffffffffffffffffff16815250508273ffffffffffffffffffffffffffffffffffffffff1660a08173ffffffffffffffffffffffffffffffffffffffff1681525050816000806101000a81548173ffffffffffffffffffffffffffffffffffffffff021916908373ffffffffffffffffffffffffffffffffffffffff1602179055508073ffffffffffffffffffffffffffffffffffffffff1660c08173ffffffffffffffffffffffffffffffffffffffff16815250505050505062000258565b600080fd5b600073ffffffffffffffffffffffffffffffffffffffff82169050919050565b600062000169826200013c565b9050919050565b6200017b816200015c565b81146200018757600080fd5b50565b6000815190506200019b8162000170565b92915050565b6000620001ae826200013c565b9050919050565b620001c081620001a1565b8114620001cc57600080fd5b50565b600081519050620001e081620001b5565b92915050565b6000806000806080858703121562000203576200020262000137565b5b600062000213878288016200018a565b945050602062000226878288016200018a565b93505060406200023987828801620001cf565b92505060606200024c878288016200018a565b91505092959194509250565b60805160a05160c051614d3c6200028f60003960006125ba0152600061175e0152600081816109e70152612a240152614d3c6000f3fe60806040526004361061012a5760003560e01c80636a783cc5116100ab5780639e74fb391161006f5780639e74fb39146103f7578063bd0d687b14610434578063d82f767d1461045d578063d9ce6ae714610486578063dcedf668146104c3578063f574e2b6146104da5761012a565b80636a783cc51461030f57806371558aba1461033857806379386cc81461036157806390ffaa2a1461039e5780639456fbcc146103db5761012a565b80634025feb2116100f25780634025feb21461022757806341975af8146102435780634f4a7e701461026c5780634fbcae61146102a957806356ff2ec2146102e65761012a565b806309c0e14f1461012f5780630a6c1fb11461016c5780630ca93171146101985780632d0335ab146101c15780633d602dbe146101fe575b600080fd5b34801561013b57600080fd5b506101566004803603810190610151919061341c565b610503565b604051610163919061347e565b60405180910390f35b34801561017857600080fd5b5061018161081b565b60405161018f9291906134d3565b60405180910390f35b3480156101a457600080fd5b506101bf60048036038101906101ba91906134fc565b61084d565b005b3480156101cd57600080fd5b506101e860048036038101906101e391906134fc565b61099c565b6040516101f59190613529565b60405180910390f35b34801561020a57600080fd5b5061022560048036038101906102209190613570565b6109e5565b005b610241600480360381019061023c91906135d7565b610c41565b005b34801561024f57600080fd5b5061026a6004803603810190610265919061362a565b6110ac565b005b34801561027857600080fd5b50610293600480360381019061028e91906135d7565b61124e565b6040516102a09190613672565b60405180910390f35b3480156102b557600080fd5b506102d060048036038101906102cb919061368d565b6112f7565b6040516102dd919061347e565b60405180910390f35b3480156102f257600080fd5b5061030d6004803603810190610308919061368d565b61139d565b005b34801561031b57600080fd5b5061033660048036038101906103319190613813565b61171f565b005b34801561034457600080fd5b5061035f600480360381019061035a91906135d7565b611920565b005b34801561036d57600080fd5b50610388600480360381019061038391906135d7565b611cd9565b604051610395919061347e565b60405180910390f35b3480156103aa57600080fd5b506103c560048036038101906103c0919061368d565b611d91565b6040516103d29190613529565b60405180910390f35b6103f560048036038101906103f0919061368d565b611e49565b005b34801561040357600080fd5b5061041e60048036038101906104199190613570565b61226c565b60405161042b919061347e565b60405180910390f35b34801561044057600080fd5b5061045b600480360381019061045691906138ae565b6125b8565b005b34801561046957600080fd5b50610484600480360381019061047f9190613907565b612663565b005b34801561049257600080fd5b506104ad60048036038101906104a891906134fc565b612775565b6040516104ba9190613943565b60405180910390f35b3480156104cf57600080fd5b506104d86127de565b005b3480156104e657600080fd5b5061050160048036038101906104fc9190613570565b612a22565b005b60008060009054906101000a900473ffffffffffffffffffffffffffffffffffffffff1673ffffffffffffffffffffffffffffffffffffffff163373ffffffffffffffffffffffffffffffffffffffff1614610594576040517f08c379a000000000000000000000000000000000000000000000000000000000815260040161058b906139e1565b60405180910390fd5b816fffffffffffffffffffffffffffffffff16600460008673ffffffffffffffffffffffffffffffffffffffff1673ffffffffffffffffffffffffffffffffffffffff16815260200190815260200160002060008573ffffffffffffffffffffffffffffffffffffffff1673ffffffffffffffffffffffffffffffffffffffff16815260200190815260200160002060000160109054906101000a90046fffffffffffffffffffffffffffffffff166fffffffffffffffffffffffffffffffff161015610696576040517f08c379a000000000000000000000000000000000000000000000000000000000815260040161068d90613a73565b60405180910390fd5b81600460008673ffffffffffffffffffffffffffffffffffffffff1673ffffffffffffffffffffffffffffffffffffffff16815260200190815260200160002060008573ffffffffffffffffffffffffffffffffffffffff1673ffffffffffffffffffffffffffffffffffffffff16815260200190815260200160002060000160108282829054906101000a90046fffffffffffffffffffffffffffffffff166107409190613ac2565b92506101000a8154816fffffffffffffffffffffffffffffffff02191690836fffffffffffffffffffffffffffffffff160217905550600460008573ffffffffffffffffffffffffffffffffffffffff1673ffffffffffffffffffffffffffffffffffffffff16815260200190815260200160002060008473ffffffffffffffffffffffffffffffffffffffff1673ffffffffffffffffffffffffffffffffffffffff16815260200190815260200160002060000160109054906101000a90046fffffffffffffffffffffffffffffffff1690509392505050565b60018060000160009054906101000a900473ffffffffffffffffffffffffffffffffffffffff16908060010154905082565b600073ffffffffffffffffffffffffffffffffffffffff16600360003373ffffffffffffffffffffffffffffffffffffffff1673ffffffffffffffffffffffffffffffffffffffff16815260200190815260200160002060009054906101000a900473ffffffffffffffffffffffffffffffffffffffff1673ffffffffffffffffffffffffffffffffffffffff161461091b576040517f08c379a000000000000000000000000000000000000000000000000000000000815260040161091290613b68565b60405180910390fd5b80600360003373ffffffffffffffffffffffffffffffffffffffff1673ffffffffffffffffffffffffffffffffffffffff16815260200190815260200160002060006101000a81548173ffffffffffffffffffffffffffffffffffffffff021916908373ffffffffffffffffffffffffffffffffffffffff16021790555050565b6000600660008373ffffffffffffffffffffffffffffffffffffffff1673ffffffffffffffffffffffffffffffffffffffff168152602001908152602001600020549050919050565b7f000000000000000000000000000000000000000000000000000000000000000073ffffffffffffffffffffffffffffffffffffffff163373ffffffffffffffffffffffffffffffffffffffff1614610a73576040517f08c379a0000000000000000000000000000000000000000000000000000000008152600401610a6a90613bfa565b60405180910390fd5b80600460008673ffffffffffffffffffffffffffffffffffffffff1673ffffffffffffffffffffffffffffffffffffffff16815260200190815260200160002060008573ffffffffffffffffffffffffffffffffffffffff1673ffffffffffffffffffffffffffffffffffffffff16815260200190815260200160002060000160108282829054906101000a90046fffffffffffffffffffffffffffffffff16610b1d9190613c1a565b92506101000a8154816fffffffffffffffffffffffffffffffff02191690836fffffffffffffffffffffffffffffffff160217905550610b5c82612c50565b600460008673ffffffffffffffffffffffffffffffffffffffff1673ffffffffffffffffffffffffffffffffffffffff16815260200190815260200160002060008573ffffffffffffffffffffffffffffffffffffffff1673ffffffffffffffffffffffffffffffffffffffff16815260200190815260200160002060000160008282829054906101000a90046fffffffffffffffffffffffffffffffff16610c059190613c1a565b92506101000a8154816fffffffffffffffffffffffffffffffff02191690836fffffffffffffffffffffffffffffffff16021790555050505050565b3373ffffffffffffffffffffffffffffffffffffffff16600360008573ffffffffffffffffffffffffffffffffffffffff1673ffffffffffffffffffffffffffffffffffffffff16815260200190815260200160002060009054906101000a900473ffffffffffffffffffffffffffffffffffffffff1673ffffffffffffffffffffffffffffffffffffffff1614610d0e576040517f08c379a0000000000000000000000000000000000000000000000000000000008152600401610d0590613cd2565b60405180910390fd5b3073ffffffffffffffffffffffffffffffffffffffff168273ffffffffffffffffffffffffffffffffffffffff1603610d7c576040517f08c379a0000000000000000000000000000000000000000000000000000000008152600401610d7390613d3e565b60405180910390fd5b610d8783838361124e565b610dc6576040517f08c379a0000000000000000000000000000000000000000000000000000000008152600401610dbd90613dd0565b60405180910390fd5b600560008473ffffffffffffffffffffffffffffffffffffffff1673ffffffffffffffffffffffffffffffffffffffff16815260200190815260200160002060008373ffffffffffffffffffffffffffffffffffffffff1673ffffffffffffffffffffffffffffffffffffffff168152602001908152602001600020600082815260200190815260200160002060000160019054906101000a90046fffffffffffffffffffffffffffffffff166fffffffffffffffffffffffffffffffff16341015610ec7576040517f08c379a0000000000000000000000000000000000000000000000000000000008152600401610ebe90613e3c565b60405180910390fd5b6000600560008573ffffffffffffffffffffffffffffffffffffffff1673ffffffffffffffffffffffffffffffffffffffff16815260200190815260200160002060008473ffffffffffffffffffffffffffffffffffffffff1673ffffffffffffffffffffffffffffffffffffffff168152602001908152602001600020600083815260200190815260200160002060000160006101000a81548160ff0219169083151502179055506000600560008573ffffffffffffffffffffffffffffffffffffffff1673ffffffffffffffffffffffffffffffffffffffff16815260200190815260200160002060008473ffffffffffffffffffffffffffffffffffffffff1673ffffffffffffffffffffffffffffffffffffffff168152602001908152602001600020600083815260200190815260200160002060000160016101000a8154816fffffffffffffffffffffffffffffffff02191690836fffffffffffffffffffffffffffffffff1602179055508173ffffffffffffffffffffffffffffffffffffffff166342842e0e3033846040518463ffffffff1660e01b815260040161107593929190613e5c565b600060405180830381600087803b15801561108f57600080fd5b505af11580156110a3573d6000803e3d6000fd5b50505050505050565b60008054906101000a900473ffffffffffffffffffffffffffffffffffffffff1673ffffffffffffffffffffffffffffffffffffffff163373ffffffffffffffffffffffffffffffffffffffff161461113a576040517f08c379a0000000000000000000000000000000000000000000000000000000008152600401611131906139e1565b60405180910390fd5b8047101561117d576040517f08c379a000000000000000000000000000000000000000000000000000000000815260040161117490613f05565b60405180910390fd5b60008060009054906101000a900473ffffffffffffffffffffffffffffffffffffffff1673ffffffffffffffffffffffffffffffffffffffff16826040516111c490613f56565b60006040518083038185875af1925050503d8060008114611201576040519150601f19603f3d011682016040523d82523d6000602084013e611206565b606091505b505090508061124a576040517f08c379a000000000000000000000000000000000000000000000000000000000815260040161124190613fb7565b60405180910390fd5b5050565b6000600560008573ffffffffffffffffffffffffffffffffffffffff1673ffffffffffffffffffffffffffffffffffffffff16815260200190815260200160002060008473ffffffffffffffffffffffffffffffffffffffff1673ffffffffffffffffffffffffffffffffffffffff168152602001908152602001600020600083815260200190815260200160002060000160009054906101000a900460ff1690509392505050565b6000600460008473ffffffffffffffffffffffffffffffffffffffff1673ffffffffffffffffffffffffffffffffffffffff16815260200190815260200160002060008373ffffffffffffffffffffffffffffffffffffffff1673ffffffffffffffffffffffffffffffffffffffff16815260200190815260200160002060000160109054906101000a90046fffffffffffffffffffffffffffffffff16905092915050565b600060149054906101000a900460ff166113ec576040517f08c379a00000000000000000000000000000000000000000000000000000000081526004016113e390614023565b60405180910390fd5b3373ffffffffffffffffffffffffffffffffffffffff16600360008473ffffffffffffffffffffffffffffffffffffffff1673ffffffffffffffffffffffffffffffffffffffff16815260200190815260200160002060009054906101000a900473ffffffffffffffffffffffffffffffffffffffff1673ffffffffffffffffffffffffffffffffffffffff16146114b9576040517f08c379a00000000000000000000000000000000000000000000000000000000081526004016114b090613cd2565b60405180910390fd5b3073ffffffffffffffffffffffffffffffffffffffff168173ffffffffffffffffffffffffffffffffffffffff1603611527576040517f08c379a000000000000000000000000000000000000000000000000000000000815260040161151e90613d3e565b60405180910390fd5b60006115338383611d91565b11611573576040517f08c379a000000000000000000000000000000000000000000000000000000000815260040161156a9061408f565b60405180910390fd5b600061157f8383611d91565b90506000600460008573ffffffffffffffffffffffffffffffffffffffff1673ffffffffffffffffffffffffffffffffffffffff16815260200190815260200160002060008473ffffffffffffffffffffffffffffffffffffffff1673ffffffffffffffffffffffffffffffffffffffff16815260200190815260200160002060000160006101000a8154816fffffffffffffffffffffffffffffffff02191690836fffffffffffffffffffffffffffffffff1602179055506000600460008573ffffffffffffffffffffffffffffffffffffffff1673ffffffffffffffffffffffffffffffffffffffff16815260200190815260200160002060008473ffffffffffffffffffffffffffffffffffffffff1673ffffffffffffffffffffffffffffffffffffffff16815260200190815260200160002060000160106101000a8154816fffffffffffffffffffffffffffffffff02191690836fffffffffffffffffffffffffffffffff16021790555061171a33828473ffffffffffffffffffffffffffffffffffffffff16612caf9092919063ffffffff16565b505050565b600033838361172d3361099c565b304660405160200161174496959493929190614118565b6040516020818303038152906040528051906020012090507f000000000000000000000000000000000000000000000000000000000000000073ffffffffffffffffffffffffffffffffffffffff166117ae856117a084612d35565b612d6590919063ffffffff16565b73ffffffffffffffffffffffffffffffffffffffff1614611804576040517f08c379a00000000000000000000000000000000000000000000000000000000081526004016117fb90614220565b60405180910390fd5b81421115611847576040517f08c379a000000000000000000000000000000000000000000000000000000000815260040161183e9061428c565b60405180910390fd5b600660003373ffffffffffffffffffffffffffffffffffffffff1673ffffffffffffffffffffffffffffffffffffffff1681526020019081526020016000206000815480929190611897906142ac565b919050555082600360003373ffffffffffffffffffffffffffffffffffffffff1673ffffffffffffffffffffffffffffffffffffffff16815260200190815260200160002060006101000a81548173ffffffffffffffffffffffffffffffffffffffff021916908373ffffffffffffffffffffffffffffffffffffffff16021790555050505050565b600060149054906101000a900460ff1661196f576040517f08c379a000000000000000000000000000000000000000000000000000000000815260040161196690614023565b60405180910390fd5b3373ffffffffffffffffffffffffffffffffffffffff16600360008573ffffffffffffffffffffffffffffffffffffffff1673ffffffffffffffffffffffffffffffffffffffff16815260200190815260200160002060009054906101000a900473ffffffffffffffffffffffffffffffffffffffff1673ffffffffffffffffffffffffffffffffffffffff1614611a3c576040517f08c379a0000000000000000000000000000000000000000000000000000000008152600401611a3390613cd2565b60405180910390fd5b3073ffffffffffffffffffffffffffffffffffffffff168273ffffffffffffffffffffffffffffffffffffffff1603611aaa576040517f08c379a0000000000000000000000000000000000000000000000000000000008152600401611aa190613d3e565b60405180910390fd5b611ab583838361124e565b611af4576040517f08c379a0000000000000000000000000000000000000000000000000000000008152600401611aeb90613dd0565b60405180910390fd5b6000600560008573ffffffffffffffffffffffffffffffffffffffff1673ffffffffffffffffffffffffffffffffffffffff16815260200190815260200160002060008473ffffffffffffffffffffffffffffffffffffffff1673ffffffffffffffffffffffffffffffffffffffff168152602001908152602001600020600083815260200190815260200160002060000160006101000a81548160ff0219169083151502179055506000600560008573ffffffffffffffffffffffffffffffffffffffff1673ffffffffffffffffffffffffffffffffffffffff16815260200190815260200160002060008473ffffffffffffffffffffffffffffffffffffffff1673ffffffffffffffffffffffffffffffffffffffff168152602001908152602001600020600083815260200190815260200160002060000160016101000a8154816fffffffffffffffffffffffffffffffff02191690836fffffffffffffffffffffffffffffffff1602179055508173ffffffffffffffffffffffffffffffffffffffff166342842e0e3033846040518463ffffffff1660e01b8152600401611ca293929190613e5c565b600060405180830381600087803b158015611cbc57600080fd5b505af1158015611cd0573d6000803e3d6000fd5b50505050505050565b6000600560008573ffffffffffffffffffffffffffffffffffffffff1673ffffffffffffffffffffffffffffffffffffffff16815260200190815260200160002060008473ffffffffffffffffffffffffffffffffffffffff1673ffffffffffffffffffffffffffffffffffffffff168152602001908152602001600020600083815260200190815260200160002060000160019054906101000a90046fffffffffffffffffffffffffffffffff1690509392505050565b6000600460008473ffffffffffffffffffffffffffffffffffffffff1673ffffffffffffffffffffffffffffffffffffffff16815260200190815260200160002060008373ffffffffffffffffffffffffffffffffffffffff1673ffffffffffffffffffffffffffffffffffffffff16815260200190815260200160002060000160009054906101000a90046fffffffffffffffffffffffffffffffff166fffffffffffffffffffffffffffffffff16905092915050565b3373ffffffffffffffffffffffffffffffffffffffff16600360008473ffffffffffffffffffffffffffffffffffffffff1673ffffffffffffffffffffffffffffffffffffffff16815260200190815260200160002060009054906101000a900473ffffffffffffffffffffffffffffffffffffffff1673ffffffffffffffffffffffffffffffffffffffff1614611f16576040517f08c379a0000000000000000000000000000000000000000000000000000000008152600401611f0d90613cd2565b60405180910390fd5b3073ffffffffffffffffffffffffffffffffffffffff168173ffffffffffffffffffffffffffffffffffffffff1603611f84576040517f08c379a0000000000000000000000000000000000000000000000000000000008152600401611f7b90613d3e565b60405180910390fd5b6000611f908383611d91565b11611fd0576040517f08c379a0000000000000000000000000000000000000000000000000000000008152600401611fc79061408f565b60405180910390fd5b600460008373ffffffffffffffffffffffffffffffffffffffff1673ffffffffffffffffffffffffffffffffffffffff16815260200190815260200160002060008273ffffffffffffffffffffffffffffffffffffffff1673ffffffffffffffffffffffffffffffffffffffff16815260200190815260200160002060000160109054906101000a90046fffffffffffffffffffffffffffffffff166fffffffffffffffffffffffffffffffff163410156120c0576040517f08c379a00000000000000000000000000000000000000000000000000000000081526004016120b790613e3c565b60405180910390fd5b60006120cc8383611d91565b90506000600460008573ffffffffffffffffffffffffffffffffffffffff1673ffffffffffffffffffffffffffffffffffffffff16815260200190815260200160002060008473ffffffffffffffffffffffffffffffffffffffff1673ffffffffffffffffffffffffffffffffffffffff16815260200190815260200160002060000160006101000a8154816fffffffffffffffffffffffffffffffff02191690836fffffffffffffffffffffffffffffffff1602179055506000600460008573ffffffffffffffffffffffffffffffffffffffff1673ffffffffffffffffffffffffffffffffffffffff16815260200190815260200160002060008473ffffffffffffffffffffffffffffffffffffffff1673ffffffffffffffffffffffffffffffffffffffff16815260200190815260200160002060000160106101000a8154816fffffffffffffffffffffffffffffffff02191690836fffffffffffffffffffffffffffffffff16021790555061226733828473ffffffffffffffffffffffffffffffffffffffff16612caf9092919063ffffffff16565b505050565b60008060009054906101000a900473ffffffffffffffffffffffffffffffffffffffff1673ffffffffffffffffffffffffffffffffffffffff163373ffffffffffffffffffffffffffffffffffffffff16146122fd576040517f08c379a00000000000000000000000000000000000000000000000000000000081526004016122f4906139e1565b60405180910390fd5b816fffffffffffffffffffffffffffffffff16600560008773ffffffffffffffffffffffffffffffffffffffff1673ffffffffffffffffffffffffffffffffffffffff16815260200190815260200160002060008673ffffffffffffffffffffffffffffffffffffffff1673ffffffffffffffffffffffffffffffffffffffff168152602001908152602001600020600085815260200190815260200160002060000160019054906101000a90046fffffffffffffffffffffffffffffffff166fffffffffffffffffffffffffffffffff161015612410576040517f08c379a000000000000000000000000000000000000000000000000000000000815260040161240790613a73565b60405180910390fd5b81600560008773ffffffffffffffffffffffffffffffffffffffff1673ffffffffffffffffffffffffffffffffffffffff16815260200190815260200160002060008673ffffffffffffffffffffffffffffffffffffffff1673ffffffffffffffffffffffffffffffffffffffff168152602001908152602001600020600085815260200190815260200160002060000160018282829054906101000a90046fffffffffffffffffffffffffffffffff166124cb9190613ac2565b92506101000a8154816fffffffffffffffffffffffffffffffff02191690836fffffffffffffffffffffffffffffffff160217905550600560008673ffffffffffffffffffffffffffffffffffffffff1673ffffffffffffffffffffffffffffffffffffffff16815260200190815260200160002060008573ffffffffffffffffffffffffffffffffffffffff1673ffffffffffffffffffffffffffffffffffffffff168152602001908152602001600020600084815260200190815260200160002060000160019054906101000a90046fffffffffffffffffffffffffffffffff169050949350505050565b7f000000000000000000000000000000000000000000000000000000000000000073ffffffffffffffffffffffffffffffffffffffff163373ffffffffffffffffffffffffffffffffffffffff1614612646576040517f08c379a000000000000000000000000000000000000000000000000000000000815260040161263d90614366565b60405180910390fd5b80600060146101000a81548160ff02191690831515021790555050565b60008054906101000a900473ffffffffffffffffffffffffffffffffffffffff1673ffffffffffffffffffffffffffffffffffffffff163373ffffffffffffffffffffffffffffffffffffffff16146126f1576040517f08c379a00000000000000000000000000000000000000000000000000000000081526004016126e8906143f8565b60405180910390fd5b60405180604001604052808273ffffffffffffffffffffffffffffffffffffffff16815260200142815250600160008201518160000160006101000a81548173ffffffffffffffffffffffffffffffffffffffff021916908373ffffffffffffffffffffffffffffffffffffffff1602179055506020820151816001015590505050565b6000600360008373ffffffffffffffffffffffffffffffffffffffff1673ffffffffffffffffffffffffffffffffffffffff16815260200190815260200160002060009054906101000a900473ffffffffffffffffffffffffffffffffffffffff169050919050565b60008054906101000a900473ffffffffffffffffffffffffffffffffffffffff1673ffffffffffffffffffffffffffffffffffffffff163373ffffffffffffffffffffffffffffffffffffffff161461286c576040517f08c379a0000000000000000000000000000000000000000000000000000000008152600401612863906143f8565b60405180910390fd5b60006001800154116128b3576040517f08c379a00000000000000000000000000000000000000000000000000000000081526004016128aa9061448a565b60405180910390fd5b426212750060018001546128c791906144aa565b10612907576040517f08c379a00000000000000000000000000000000000000000000000000000000081526004016128fe90614572565b60405180910390fd5b426213c680600180015461291b91906144aa565b1161295b576040517f08c379a00000000000000000000000000000000000000000000000000000000081526004016129529061462a565b60405180910390fd5b600160000160009054906101000a900473ffffffffffffffffffffffffffffffffffffffff166000806101000a81548173ffffffffffffffffffffffffffffffffffffffff021916908373ffffffffffffffffffffffffffffffffffffffff1602179055506129c8613332565b80600160008201518160000160006101000a81548173ffffffffffffffffffffffffffffffffffffffff021916908373ffffffffffffffffffffffffffffffffffffffff1602179055506020820151816001015590505050565b7f000000000000000000000000000000000000000000000000000000000000000073ffffffffffffffffffffffffffffffffffffffff163373ffffffffffffffffffffffffffffffffffffffff1614612ab0576040517f08c379a0000000000000000000000000000000000000000000000000000000008152600401612aa790613bfa565b60405180910390fd5b80600560008673ffffffffffffffffffffffffffffffffffffffff1673ffffffffffffffffffffffffffffffffffffffff16815260200190815260200160002060008573ffffffffffffffffffffffffffffffffffffffff1673ffffffffffffffffffffffffffffffffffffffff168152602001908152602001600020600084815260200190815260200160002060000160018282829054906101000a90046fffffffffffffffffffffffffffffffff16612b6b9190613c1a565b92506101000a8154816fffffffffffffffffffffffffffffffff02191690836fffffffffffffffffffffffffffffffff1602179055506001600560008673ffffffffffffffffffffffffffffffffffffffff1673ffffffffffffffffffffffffffffffffffffffff16815260200190815260200160002060008573ffffffffffffffffffffffffffffffffffffffff1673ffffffffffffffffffffffffffffffffffffffff168152602001908152602001600020600084815260200190815260200160002060000160006101000a81548160ff02191690831515021790555050505050565b60006fffffffffffffffffffffffffffffffff8016821115612ca7576040517f08c379a0000000000000000000000000000000000000000000000000000000008152600401612c9e906146bc565b60405180910390fd5b819050919050565b612d308363a9059cbb60e01b8484604051602401612cce9291906146dc565b604051602081830303815290604052907bffffffffffffffffffffffffffffffffffffffffffffffffffffffff19166020820180517bffffffffffffffffffffffffffffffffffffffffffffffffffffffff8381831617835250505050612d8c565b505050565b600081604051602001612d489190614787565b604051602081830303815290604052805190602001209050919050565b6000806000612d748585612e53565b91509150612d8181612ea4565b819250505092915050565b6000612dee826040518060400160405280602081526020017f5361666545524332303a206c6f772d6c6576656c2063616c6c206661696c65648152508573ffffffffffffffffffffffffffffffffffffffff166130709092919063ffffffff16565b9050600081511115612e4e5780806020019051810190612e0e91906147c2565b612e4d576040517f08c379a0000000000000000000000000000000000000000000000000000000008152600401612e4490614861565b60405180910390fd5b5b505050565b6000806041835103612e945760008060006020860151925060408601519150606086015160001a9050612e8887828585613088565b94509450505050612e9d565b60006002915091505b9250929050565b60006004811115612eb857612eb7614881565b5b816004811115612ecb57612eca614881565b5b031561306d5760016004811115612ee557612ee4614881565b5b816004811115612ef857612ef7614881565b5b03612f38576040517f08c379a0000000000000000000000000000000000000000000000000000000008152600401612f2f906148fc565b60405180910390fd5b60026004811115612f4c57612f4b614881565b5b816004811115612f5f57612f5e614881565b5b03612f9f576040517f08c379a0000000000000000000000000000000000000000000000000000000008152600401612f9690614968565b60405180910390fd5b60036004811115612fb357612fb2614881565b5b816004811115612fc657612fc5614881565b5b03613006576040517f08c379a0000000000000000000000000000000000000000000000000000000008152600401612ffd906149fa565b60405180910390fd5b60048081111561301957613018614881565b5b81600481111561302c5761302b614881565b5b0361306c576040517f08c379a000000000000000000000000000000000000000000000000000000000815260040161306390614a8c565b60405180910390fd5b5b50565b606061307f8484600085613194565b90509392505050565b6000807f7fffffffffffffffffffffffffffffff5d576e7357a4501ddfe92f46681b20a08360001c11156130c357600060039150915061318b565b601b8560ff16141580156130db5750601c8560ff1614155b156130ed57600060049150915061318b565b6000600187878787604051600081526020016040526040516131129493929190614ad7565b6020604051602081039080840390855afa158015613134573d6000803e3d6000fd5b505050602060405103519050600073ffffffffffffffffffffffffffffffffffffffff168173ffffffffffffffffffffffffffffffffffffffff16036131825760006001925092505061318b565b80600092509250505b94509492505050565b6060824710156131d9576040517f08c379a00000000000000000000000000000000000000000000000000000000081526004016131d090614b8e565b60405180910390fd5b6131e2856132a8565b613221576040517f08c379a000000000000000000000000000000000000000000000000000000000815260040161321890614bfa565b60405180910390fd5b6000808673ffffffffffffffffffffffffffffffffffffffff16858760405161324a9190614c89565b60006040518083038185875af1925050503d8060008114613287576040519150601f19603f3d011682016040523d82523d6000602084013e61328c565b606091505b509150915061329c8282866132cb565b92505050949350505050565b6000808273ffffffffffffffffffffffffffffffffffffffff163b119050919050565b606083156132db5782905061332b565b6000835111156132ee5782518084602001fd5b816040517f08c379a00000000000000000000000000000000000000000000000000000000081526004016133229190614ce4565b60405180910390fd5b9392505050565b6040518060400160405280600073ffffffffffffffffffffffffffffffffffffffff168152602001600081525090565b6000604051905090565b600080fd5b600080fd5b600073ffffffffffffffffffffffffffffffffffffffff82169050919050565b60006133a182613376565b9050919050565b6133b181613396565b81146133bc57600080fd5b50565b6000813590506133ce816133a8565b92915050565b60006fffffffffffffffffffffffffffffffff82169050919050565b6133f9816133d4565b811461340457600080fd5b50565b600081359050613416816133f0565b92915050565b6000806000606084860312156134355761343461336c565b5b6000613443868287016133bf565b9350506020613454868287016133bf565b925050604061346586828701613407565b9150509250925092565b613478816133d4565b82525050565b6000602082019050613493600083018461346f565b92915050565b60006134a482613376565b9050919050565b6134b481613499565b82525050565b6000819050919050565b6134cd816134ba565b82525050565b60006040820190506134e860008301856134ab565b6134f560208301846134c4565b9392505050565b6000602082840312156135125761351161336c565b5b6000613520848285016133bf565b91505092915050565b600060208201905061353e60008301846134c4565b92915050565b61354d816134ba565b811461355857600080fd5b50565b60008135905061356a81613544565b92915050565b6000806000806080858703121561358a5761358961336c565b5b6000613598878288016133bf565b94505060206135a9878288016133bf565b93505060406135ba8782880161355b565b92505060606135cb87828801613407565b91505092959194509250565b6000806000606084860312156135f0576135ef61336c565b5b60006135fe868287016133bf565b935050602061360f868287016133bf565b92505060406136208682870161355b565b9150509250925092565b6000602082840312156136405761363f61336c565b5b600061364e8482850161355b565b91505092915050565b60008115159050919050565b61366c81613657565b82525050565b60006020820190506136876000830184613663565b92915050565b600080604083850312156136a4576136a361336c565b5b60006136b2858286016133bf565b92505060206136c3858286016133bf565b9150509250929050565b600080fd5b600080fd5b6000601f19601f8301169050919050565b7f4e487b7100000000000000000000000000000000000000000000000000000000600052604160045260246000fd5b613720826136d7565b810181811067ffffffffffffffff8211171561373f5761373e6136e8565b5b80604052505050565b6000613752613362565b905061375e8282613717565b919050565b600067ffffffffffffffff82111561377e5761377d6136e8565b5b613787826136d7565b9050602081019050919050565b82818337600083830152505050565b60006137b66137b184613763565b613748565b9050828152602081018484840111156137d2576137d16136d2565b5b6137dd848285613794565b509392505050565b600082601f8301126137fa576137f96136cd565b5b813561380a8482602086016137a3565b91505092915050565b60008060006060848603121561382c5761382b61336c565b5b600084013567ffffffffffffffff81111561384a57613849613371565b5b613856868287016137e5565b9350506020613867868287016133bf565b92505060406138788682870161355b565b9150509250925092565b61388b81613657565b811461389657600080fd5b50565b6000813590506138a881613882565b92915050565b6000602082840312156138c4576138c361336c565b5b60006138d284828501613899565b91505092915050565b6138e481613499565b81146138ef57600080fd5b50565b600081359050613901816138db565b92915050565b60006020828403121561391d5761391c61336c565b5b600061392b848285016138f2565b91505092915050565b61393d81613396565b82525050565b60006020820190506139586000830184613934565b92915050565b600082825260208201905092915050565b7f6d73672e73656e646572206d75737420626520666565436f6e74726f6c6c657260008201527f2e00000000000000000000000000000000000000000000000000000000000000602082015250565b60006139cb60218361395e565b91506139d68261396f565b604082019050919050565b600060208201905081810360008301526139fa816139be565b9050919050565b7f596f752063616e6e6f7420726564756365206d6f7265207468616e207468652060008201527f63757272656e74206665652e0000000000000000000000000000000000000000602082015250565b6000613a5d602c8361395e565b9150613a6882613a01565b604082019050919050565b60006020820190508181036000830152613a8c81613a50565b9050919050565b7f4e487b7100000000000000000000000000000000000000000000000000000000600052601160045260246000fd5b6000613acd826133d4565b9150613ad8836133d4565b925082821015613aeb57613aea613a93565b5b828203905092915050565b7f596f7520616c726561647920686176652072656769737465726564206120726560008201527f63697069656e7420616464726573730000000000000000000000000000000000602082015250565b6000613b52602f8361395e565b9150613b5d82613af6565b604082019050919050565b60006020820190508181036000830152613b8181613b45565b9050919050565b7f4f6e6c7920746865207472616e73666572657220636f6e74726163742063616e60008201527f206c6f672066756e64732e000000000000000000000000000000000000000000602082015250565b6000613be4602b8361395e565b9150613bef82613b88565b604082019050919050565b60006020820190508181036000830152613c1381613bd7565b9050919050565b6000613c25826133d4565b9150613c30836133d4565b9250826fffffffffffffffffffffffffffffffff03821115613c5557613c54613a93565b5b828201905092915050565b7f46756e6374696f6e2063616c6c6572206973206e6f7420616e20617574686f7260008201527f697a656420726563697069656e74416464726573732e00000000000000000000602082015250565b6000613cbc60368361395e565b9150613cc782613c60565b604082019050919050565b60006020820190508181036000830152613ceb81613caf565b9050919050565b7f546865207661756c74206973206e6f74206120746f6b656e2061646472657373600082015250565b6000613d2860208361395e565b9150613d3382613cf2565b602082019050919050565b60006020820190508181036000830152613d5781613d1b565b9050919050565b7f496e73756666696369656e74207769746864726177616c20616c6c6f77616e6360008201527f652e000000000000000000000000000000000000000000000000000000000000602082015250565b6000613dba60228361395e565b9150613dc582613d5e565b604082019050919050565b60006020820190508181036000830152613de981613dad565b9050919050565b7f496e73756666696369656e74207061796d656e742e0000000000000000000000600082015250565b6000613e2660158361395e565b9150613e3182613df0565b602082019050919050565b60006020820190508181036000830152613e5581613e19565b9050919050565b6000606082019050613e716000830186613934565b613e7e6020830185613934565b613e8b60408301846134c4565b949350505050565b7f43616e6e6f74207769746864726177206d6f7265207468616e2074686520616d60008201527f6f756e7420696e2074686520636f6e74726163742e0000000000000000000000602082015250565b6000613eef60358361395e565b9150613efa82613e93565b604082019050919050565b60006020820190508181036000830152613f1e81613ee2565b9050919050565b600081905092915050565b50565b6000613f40600083613f25565b9150613f4b82613f30565b600082019050919050565b6000613f6182613f33565b9150819050919050565b7f5472616e73666572206661696c65640000000000000000000000000000000000600082015250565b6000613fa1600f8361395e565b9150613fac82613f6b565b602082019050919050565b60006020820190508181036000830152613fd081613f94565b9050919050565b7f456d657267656e637920666c6167206e6f742073657400000000000000000000600082015250565b600061400d60168361395e565b915061401882613fd7565b602082019050919050565b6000602082019050818103600083015261403c81614000565b9050919050565b7f4e6f207769746864726177616c20616c6c6f77616e63652e0000000000000000600082015250565b600061407960188361395e565b915061408482614043565b602082019050919050565b600060208201905081810360008301526140a88161406c565b9050919050565b60008160601b9050919050565b60006140c7826140af565b9050919050565b60006140d9826140bc565b9050919050565b6140f16140ec82613396565b6140ce565b82525050565b6000819050919050565b61411261410d826134ba565b6140f7565b82525050565b600061412482896140e0565b60148201915061413482886140e0565b6014820191506141448287614101565b6020820191506141548286614101565b60208201915061416482856140e0565b6014820191506141748284614101565b602082019150819050979650505050505050565b7f496e76616c6964207369676e61747572652e205369676e617475726520736f7560008201527f726365206d617920626520696e636f72726563742c206f7220612070726f766960208201527f64656420706172616d6574657220697320696e76616c69640000000000000000604082015250565b600061420a60588361395e565b915061421582614188565b606082019050919050565b60006020820190508181036000830152614239816141fd565b9050919050565b7f5369676e61747572652065787069726564000000000000000000000000000000600082015250565b600061427660118361395e565b915061428182614240565b602082019050919050565b600060208201905081810360008301526142a581614269565b9050919050565b60006142b7826134ba565b91507fffffffffffffffffffffffffffffffffffffffffffffffffffffffffffffffff82036142e9576142e8613a93565b5b600182019050919050565b7f4f6e6c792063616c6c61626c6520627920696d6d757461626c6520656d65726760008201527f656e637946656552656d6f76657220726f6c6500000000000000000000000000602082015250565b600061435060338361395e565b915061435b826142f4565b604082019050919050565b6000602082019050818103600083015261437f81614343565b9050919050565b7f6d73672e73656e646572206d757374206265207468652063757272656e74206660008201527f6565436f6e74726f6c6c65722e00000000000000000000000000000000000000602082015250565b60006143e2602d8361395e565b91506143ed82614386565b604082019050919050565b60006020820190508181036000830152614411816143d5565b9050919050565b7f5375626d697420612074696d656c6f636b2072657175657374206265666f726560008201527f2063616c6c696e6720746869732066756e6374696f6e2e000000000000000000602082015250565b600061447460378361395e565b915061447f82614418565b604082019050919050565b600060208201905081810360008301526144a381614467565b9050919050565b60006144b5826134ba565b91506144c0836134ba565b9250827fffffffffffffffffffffffffffffffffffffffffffffffffffffffffffffffff038211156144f5576144f4613a93565b5b828201905092915050565b7f52657175657374206d757374207061737320612074776f2d7765656b2074696d60008201527f656c6f636b2e0000000000000000000000000000000000000000000000000000602082015250565b600061455c60268361395e565b915061456782614500565b604082019050919050565b6000602082019050818103600083015261458b8161454f565b9050919050565b7f5265717565737420657870697265642e205265717565737473206d757374206f60008201527f636375722077697468696e20323420686f757273206f66206120636f6d706c6560208201527f7465642074696d656c6f636b2e00000000000000000000000000000000000000604082015250565b6000614614604d8361395e565b915061461f82614592565b606082019050919050565b6000602082019050818103600083015261464381614607565b9050919050565b7f53616665436173743a2076616c756520646f65736e27742066697420696e203160008201527f3238206269747300000000000000000000000000000000000000000000000000602082015250565b60006146a660278361395e565b91506146b18261464a565b604082019050919050565b600060208201905081810360008301526146d581614699565b9050919050565b60006040820190506146f16000830185613934565b6146fe60208301846134c4565b9392505050565b600081905092915050565b7f19457468657265756d205369676e6564204d6573736167653a0a333200000000600082015250565b6000614746601c83614705565b915061475182614710565b601c82019050919050565b6000819050919050565b6000819050919050565b61478161477c8261475c565b614766565b82525050565b600061479282614739565b915061479e8284614770565b60208201915081905092915050565b6000815190506147bc81613882565b92915050565b6000602082840312156147d8576147d761336c565b5b60006147e6848285016147ad565b91505092915050565b7f5361666545524332303a204552433230206f7065726174696f6e20646964206e60008201527f6f74207375636365656400000000000000000000000000000000000000000000602082015250565b600061484b602a8361395e565b9150614856826147ef565b604082019050919050565b6000602082019050818103600083015261487a8161483e565b9050919050565b7f4e487b7100000000000000000000000000000000000000000000000000000000600052602160045260246000fd5b7f45434453413a20696e76616c6964207369676e61747572650000000000000000600082015250565b60006148e660188361395e565b91506148f1826148b0565b602082019050919050565b60006020820190508181036000830152614915816148d9565b9050919050565b7f45434453413a20696e76616c6964207369676e6174757265206c656e67746800600082015250565b6000614952601f8361395e565b915061495d8261491c565b602082019050919050565b6000602082019050818103600083015261498181614945565b9050919050565b7f45434453413a20696e76616c6964207369676e6174757265202773272076616c60008201527f7565000000000000000000000000000000000000000000000000000000000000602082015250565b60006149e460228361395e565b91506149ef82614988565b604082019050919050565b60006020820190508181036000830152614a13816149d7565b9050919050565b7f45434453413a20696e76616c6964207369676e6174757265202776272076616c60008201527f7565000000000000000000000000000000000000000000000000000000000000602082015250565b6000614a7660228361395e565b9150614a8182614a1a565b604082019050919050565b60006020820190508181036000830152614aa581614a69565b9050919050565b614ab58161475c565b82525050565b600060ff82169050919050565b614ad181614abb565b82525050565b6000608082019050614aec6000830187614aac565b614af96020830186614ac8565b614b066040830185614aac565b614b136060830184614aac565b95945050505050565b7f416464726573733a20696e73756666696369656e742062616c616e636520666f60008201527f722063616c6c0000000000000000000000000000000000000000000000000000602082015250565b6000614b7860268361395e565b9150614b8382614b1c565b604082019050919050565b60006020820190508181036000830152614ba781614b6b565b9050919050565b7f416464726573733a2063616c6c20746f206e6f6e2d636f6e7472616374000000600082015250565b6000614be4601d8361395e565b9150614bef82614bae565b602082019050919050565b60006020820190508181036000830152614c1381614bd7565b9050919050565b600081519050919050565b60005b83811015614c43578082015181840152602081019050614c28565b83811115614c52576000848401525b50505050565b6000614c6382614c1a565b614c6d8185613f25565b9350614c7d818560208601614c25565b80840191505092915050565b6000614c958284614c58565b915081905092915050565b600081519050919050565b6000614cb682614ca0565b614cc0818561395e565b9350614cd0818560208601614c25565b614cd9816136d7565b840191505092915050565b60006020820190508181036000830152614cfe8184614cab565b90509291505056fea26469706673582212203c7ba8614ae72ab60f2e91bfbb7c2337d1cafc725bffe360e9e32b38e9e60e7c64736f6c634300080d0033",
  "linkReferences": {},
  "deployedLinkReferences": {}
}