{
  "_format": "hh-sol-artifact-1",
  "contractName": "Vault",
  "sourceName": "contracts/Vault.sol",
  "abi": [
    {
      "inputs": [
        {
          "internalType": "address",
          "name": "_transferer",
          "type": "address"
        },
        {
          "internalType": "address",
          "name": "_serverSigner",
          "type": "address"
        },
        {
          "internalType": "address payable",
          "name": "_feeController",
          "type": "address"
        }
      ],
      "stateMutability": "nonpayable",
      "type": "constructor"
    },
    {
      "inputs": [
        {
          "internalType": "address",
          "name": "_originalAddress",
          "type": "address"
        },
        {
          "internalType": "address",
          "name": "_erc20Address",
          "type": "address"
        }
      ],
      "name": "canWithdrawERC20",
      "outputs": [
        {
          "internalType": "uint256",
          "name": "",
          "type": "uint256"
        }
      ],
      "stateMutability": "view",
      "type": "function"
    },
    {
      "inputs": [
        {
          "internalType": "address",
          "name": "_originalAddress",
          "type": "address"
        },
        {
          "internalType": "address",
          "name": "_erc721Address",
          "type": "address"
        },
        {
          "internalType": "uint256",
          "name": "_id",
          "type": "uint256"
        }
      ],
      "name": "canWithdrawERC721",
      "outputs": [
        {
          "internalType": "bool",
          "name": "",
          "type": "bool"
        }
      ],
      "stateMutability": "view",
      "type": "function"
    },
    {
      "inputs": [
        {
          "internalType": "address payable",
          "name": "_newFeeController",
          "type": "address"
        }
      ],
      "name": "changeFeeController",
      "outputs": [],
      "stateMutability": "nonpayable",
      "type": "function"
    },
    {
      "inputs": [
        {
          "internalType": "bytes",
          "name": "_signature",
          "type": "bytes"
        },
        {
          "internalType": "address",
          "name": "_newRecipientAddress",
          "type": "address"
        },
        {
          "internalType": "uint256",
          "name": "expiry",
          "type": "uint256"
        }
      ],
      "name": "changeRecipientAddress",
      "outputs": [],
      "stateMutability": "nonpayable",
      "type": "function"
    },
    {
      "inputs": [
        {
          "internalType": "address",
          "name": "_originalAddress",
          "type": "address"
        },
        {
          "internalType": "address",
          "name": "_erc20Address",
          "type": "address"
        }
      ],
      "name": "erc20Fee",
      "outputs": [
        {
          "internalType": "uint128",
          "name": "",
          "type": "uint128"
        }
      ],
      "stateMutability": "view",
      "type": "function"
    },
    {
      "inputs": [
        {
          "internalType": "address",
          "name": "_originalAddress",
          "type": "address"
        },
        {
          "internalType": "address",
          "name": "_erc721Address",
          "type": "address"
        },
        {
          "internalType": "uint256",
          "name": "_id",
          "type": "uint256"
        }
      ],
      "name": "erc721Fee",
      "outputs": [
        {
          "internalType": "uint128",
          "name": "",
          "type": "uint128"
        }
      ],
      "stateMutability": "view",
      "type": "function"
    },
    {
      "inputs": [
        {
          "internalType": "address",
          "name": "_originalAddress",
          "type": "address"
        },
        {
          "internalType": "address",
          "name": "_erc20Address",
          "type": "address"
        },
        {
          "internalType": "uint256",
          "name": "_amount",
          "type": "uint256"
        },
        {
          "internalType": "uint128",
          "name": "_fee",
          "type": "uint128"
        }
      ],
      "name": "logIncomingERC20",
      "outputs": [],
      "stateMutability": "nonpayable",
      "type": "function"
    },
    {
      "inputs": [
        {
          "internalType": "address",
          "name": "_originalAddress",
          "type": "address"
        },
        {
          "internalType": "address",
          "name": "_erc721Address",
          "type": "address"
        },
        {
          "internalType": "uint256",
          "name": "_id",
          "type": "uint256"
        },
        {
          "internalType": "uint128",
          "name": "_fee",
          "type": "uint128"
        }
      ],
      "name": "logIncomingERC721",
      "outputs": [],
      "stateMutability": "nonpayable",
      "type": "function"
    },
    {
      "inputs": [
        {
          "internalType": "address",
          "name": "_originalAddress",
          "type": "address"
        },
        {
          "internalType": "address",
          "name": "_erc20Address",
          "type": "address"
        },
        {
          "internalType": "uint128",
          "name": "_reduceBy",
          "type": "uint128"
        }
      ],
      "name": "reduceERC20Fee",
      "outputs": [
        {
          "internalType": "uint128",
          "name": "",
          "type": "uint128"
        }
      ],
      "stateMutability": "nonpayable",
      "type": "function"
    },
    {
      "inputs": [
        {
          "internalType": "address",
          "name": "_originalAddress",
          "type": "address"
        },
        {
          "internalType": "address",
          "name": "_erc721Address",
          "type": "address"
        },
        {
          "internalType": "uint128",
          "name": "_id",
          "type": "uint128"
        },
        {
          "internalType": "uint128",
          "name": "_reduceBy",
          "type": "uint128"
        }
      ],
      "name": "reduceERC721Fee",
      "outputs": [
        {
          "internalType": "uint128",
          "name": "",
          "type": "uint128"
        }
      ],
      "stateMutability": "nonpayable",
      "type": "function"
    },
    {
      "inputs": [
        {
          "internalType": "address",
          "name": "_recipient",
          "type": "address"
        }
      ],
      "name": "setupRecipientAddress",
      "outputs": [],
      "stateMutability": "nonpayable",
      "type": "function"
    },
    {
      "inputs": [
        {
          "internalType": "address",
          "name": "_originalAddress",
          "type": "address"
        }
      ],
      "name": "viewRecipientAddress",
      "outputs": [
        {
          "internalType": "address",
          "name": "",
          "type": "address"
        }
      ],
      "stateMutability": "view",
      "type": "function"
    },
    {
      "inputs": [
        {
          "internalType": "address",
          "name": "_originalAddress",
          "type": "address"
        },
        {
          "internalType": "address",
          "name": "_erc20Address",
          "type": "address"
        }
      ],
      "name": "withdrawERC20",
      "outputs": [],
      "stateMutability": "payable",
      "type": "function"
    },
    {
      "inputs": [
        {
          "internalType": "address",
          "name": "_originalAddress",
          "type": "address"
        },
        {
          "internalType": "address",
          "name": "_erc721Address",
          "type": "address"
        },
        {
          "internalType": "uint256",
          "name": "_id",
          "type": "uint256"
        }
      ],
      "name": "withdrawERC721",
      "outputs": [],
      "stateMutability": "payable",
      "type": "function"
    },
    {
      "inputs": [
        {
          "internalType": "uint256",
          "name": "_amount",
          "type": "uint256"
        }
      ],
      "name": "withdrawPayments",
      "outputs": [],
      "stateMutability": "nonpayable",
      "type": "function"
    }
  ],
  "bytecode": "0x60c06040523480156200001157600080fd5b5060405162003e8f38038062003e8f833981810160405281019062000037919062000197565b8273ffffffffffffffffffffffffffffffffffffffff1660808173ffffffffffffffffffffffffffffffffffffffff16815250508173ffffffffffffffffffffffffffffffffffffffff1660a08173ffffffffffffffffffffffffffffffffffffffff1681525050806000806101000a81548173ffffffffffffffffffffffffffffffffffffffff021916908373ffffffffffffffffffffffffffffffffffffffff160217905550505050620001f3565b600080fd5b600073ffffffffffffffffffffffffffffffffffffffff82169050919050565b60006200011a82620000ed565b9050919050565b6200012c816200010d565b81146200013857600080fd5b50565b6000815190506200014c8162000121565b92915050565b60006200015f82620000ed565b9050919050565b620001718162000152565b81146200017d57600080fd5b50565b600081519050620001918162000166565b92915050565b600080600060608486031215620001b357620001b2620000e8565b5b6000620001c3868287016200013b565b9350506020620001d6868287016200013b565b9250506040620001e98682870162000180565b9150509250925092565b60805160a051613c6f6200022060003960006111ab01526000818161082f0152611dfc0152613c6f6000f3fe6080604052600436106100e85760003560e01c80636a783cc51161008a5780639456fbcc116100595780639456fbcc1461031b578063c5b2ae7a14610337578063d9ce6ae714610360578063f574e2b61461039d576100e8565b80636a783cc51461023b57806377d955b51461026457806379386cc8146102a157806390ffaa2a146102de576100e8565b80634025feb2116100c65780634025feb21461017c57806341975af8146101985780634f4a7e70146101c15780634fbcae61146101fe576100e8565b806309c0e14f146100ed5780630ca931711461012a5780633d602dbe14610153575b600080fd5b3480156100f957600080fd5b50610114600480360381019061010f91906127f4565b6103c6565b6040516101219190612856565b60405180910390f35b34801561013657600080fd5b50610151600480360381019061014c9190612871565b6106de565b005b34801561015f57600080fd5b5061017a600480360381019061017591906128d4565b61082d565b005b6101966004803603810190610191919061293b565b610a81565b005b3480156101a457600080fd5b506101bf60048036038101906101ba919061298e565b610eec565b005b3480156101cd57600080fd5b506101e860048036038101906101e3919061293b565b611027565b6040516101f591906129d6565b60405180910390f35b34801561020a57600080fd5b50610225600480360381019061022091906129f1565b6110d0565b6040516102329190612856565b60405180910390f35b34801561024757600080fd5b50610262600480360381019061025d9190612b77565b611176565b005b34801561027057600080fd5b5061028b60048036038101906102869190612be6565b6113ab565b6040516102989190612856565b60405180910390f35b3480156102ad57600080fd5b506102c860048036038101906102c3919061293b565b61172d565b6040516102d59190612856565b60405180910390f35b3480156102ea57600080fd5b50610305600480360381019061030091906129f1565b6117e5565b6040516103129190612c5c565b60405180910390f35b610335600480360381019061033091906129f1565b61189d565b005b34801561034357600080fd5b5061035e60048036038101906103599190612cb5565b611cc0565b005b34801561036c57600080fd5b5061038760048036038101906103829190612871565b611d91565b6040516103949190612cf1565b60405180910390f35b3480156103a957600080fd5b506103c460048036038101906103bf91906128d4565b611dfa565b005b60008060009054906101000a900473ffffffffffffffffffffffffffffffffffffffff1673ffffffffffffffffffffffffffffffffffffffff163373ffffffffffffffffffffffffffffffffffffffff1614610457576040517f08c379a000000000000000000000000000000000000000000000000000000000815260040161044e90612d8f565b60405180910390fd5b816fffffffffffffffffffffffffffffffff16600260008673ffffffffffffffffffffffffffffffffffffffff1673ffffffffffffffffffffffffffffffffffffffff16815260200190815260200160002060008573ffffffffffffffffffffffffffffffffffffffff1673ffffffffffffffffffffffffffffffffffffffff16815260200190815260200160002060000160109054906101000a90046fffffffffffffffffffffffffffffffff166fffffffffffffffffffffffffffffffff161015610559576040517f08c379a000000000000000000000000000000000000000000000000000000000815260040161055090612e21565b60405180910390fd5b81600260008673ffffffffffffffffffffffffffffffffffffffff1673ffffffffffffffffffffffffffffffffffffffff16815260200190815260200160002060008573ffffffffffffffffffffffffffffffffffffffff1673ffffffffffffffffffffffffffffffffffffffff16815260200190815260200160002060000160108282829054906101000a90046fffffffffffffffffffffffffffffffff166106039190612e70565b92506101000a8154816fffffffffffffffffffffffffffffffff02191690836fffffffffffffffffffffffffffffffff160217905550600260008573ffffffffffffffffffffffffffffffffffffffff1673ffffffffffffffffffffffffffffffffffffffff16815260200190815260200160002060008473ffffffffffffffffffffffffffffffffffffffff1673ffffffffffffffffffffffffffffffffffffffff16815260200190815260200160002060000160109054906101000a90046fffffffffffffffffffffffffffffffff1690509392505050565b600073ffffffffffffffffffffffffffffffffffffffff16600160003373ffffffffffffffffffffffffffffffffffffffff1673ffffffffffffffffffffffffffffffffffffffff16815260200190815260200160002060009054906101000a900473ffffffffffffffffffffffffffffffffffffffff1673ffffffffffffffffffffffffffffffffffffffff16146107ac576040517f08c379a00000000000000000000000000000000000000000000000000000000081526004016107a390612f16565b60405180910390fd5b80600160003373ffffffffffffffffffffffffffffffffffffffff1673ffffffffffffffffffffffffffffffffffffffff16815260200190815260200160002060006101000a81548173ffffffffffffffffffffffffffffffffffffffff021916908373ffffffffffffffffffffffffffffffffffffffff16021790555050565b7f000000000000000000000000000000000000000000000000000000000000000073ffffffffffffffffffffffffffffffffffffffff163373ffffffffffffffffffffffffffffffffffffffff16146108bb576040517f08c379a00000000000000000000000000000000000000000000000000000000081526004016108b290612fa8565b60405180910390fd5b80600260008673ffffffffffffffffffffffffffffffffffffffff1673ffffffffffffffffffffffffffffffffffffffff16815260200190815260200160002060008573ffffffffffffffffffffffffffffffffffffffff1673ffffffffffffffffffffffffffffffffffffffff16815260200190815260200160002060000160108282829054906101000a90046fffffffffffffffffffffffffffffffff166109659190612fc8565b92506101000a8154816fffffffffffffffffffffffffffffffff02191690836fffffffffffffffffffffffffffffffff16021790555081600260008673ffffffffffffffffffffffffffffffffffffffff1673ffffffffffffffffffffffffffffffffffffffff16815260200190815260200160002060008573ffffffffffffffffffffffffffffffffffffffff1673ffffffffffffffffffffffffffffffffffffffff16815260200190815260200160002060000160008282829054906101000a90046fffffffffffffffffffffffffffffffff16610a459190612fc8565b92506101000a8154816fffffffffffffffffffffffffffffffff02191690836fffffffffffffffffffffffffffffffff16021790555050505050565b3373ffffffffffffffffffffffffffffffffffffffff16600160008573ffffffffffffffffffffffffffffffffffffffff1673ffffffffffffffffffffffffffffffffffffffff16815260200190815260200160002060009054906101000a900473ffffffffffffffffffffffffffffffffffffffff1673ffffffffffffffffffffffffffffffffffffffff1614610b4e576040517f08c379a0000000000000000000000000000000000000000000000000000000008152600401610b4590613080565b60405180910390fd5b3073ffffffffffffffffffffffffffffffffffffffff168273ffffffffffffffffffffffffffffffffffffffff1603610bbc576040517f08c379a0000000000000000000000000000000000000000000000000000000008152600401610bb3906130ec565b60405180910390fd5b610bc7838383611027565b610c06576040517f08c379a0000000000000000000000000000000000000000000000000000000008152600401610bfd9061317e565b60405180910390fd5b600360008473ffffffffffffffffffffffffffffffffffffffff1673ffffffffffffffffffffffffffffffffffffffff16815260200190815260200160002060008373ffffffffffffffffffffffffffffffffffffffff1673ffffffffffffffffffffffffffffffffffffffff168152602001908152602001600020600082815260200190815260200160002060000160019054906101000a90046fffffffffffffffffffffffffffffffff166fffffffffffffffffffffffffffffffff16341015610d07576040517f08c379a0000000000000000000000000000000000000000000000000000000008152600401610cfe906131ea565b60405180910390fd5b6000600360008573ffffffffffffffffffffffffffffffffffffffff1673ffffffffffffffffffffffffffffffffffffffff16815260200190815260200160002060008473ffffffffffffffffffffffffffffffffffffffff1673ffffffffffffffffffffffffffffffffffffffff168152602001908152602001600020600083815260200190815260200160002060000160006101000a81548160ff0219169083151502179055506000600360008573ffffffffffffffffffffffffffffffffffffffff1673ffffffffffffffffffffffffffffffffffffffff16815260200190815260200160002060008473ffffffffffffffffffffffffffffffffffffffff1673ffffffffffffffffffffffffffffffffffffffff168152602001908152602001600020600083815260200190815260200160002060000160016101000a8154816fffffffffffffffffffffffffffffffff02191690836fffffffffffffffffffffffffffffffff1602179055508173ffffffffffffffffffffffffffffffffffffffff166323b872dd3033846040518463ffffffff1660e01b8152600401610eb59392919061320a565b600060405180830381600087803b158015610ecf57600080fd5b505af1158015610ee3573d6000803e3d6000fd5b50505050505050565b60008054906101000a900473ffffffffffffffffffffffffffffffffffffffff1673ffffffffffffffffffffffffffffffffffffffff163373ffffffffffffffffffffffffffffffffffffffff1614610f7a576040517f08c379a0000000000000000000000000000000000000000000000000000000008152600401610f7190612d8f565b60405180910390fd5b80471015610fbd576040517f08c379a0000000000000000000000000000000000000000000000000000000008152600401610fb4906132b3565b60405180910390fd5b60008054906101000a900473ffffffffffffffffffffffffffffffffffffffff1673ffffffffffffffffffffffffffffffffffffffff166108fc829081150290604051600060405180830381858888f19350505050158015611023573d6000803e3d6000fd5b5050565b6000600360008573ffffffffffffffffffffffffffffffffffffffff1673ffffffffffffffffffffffffffffffffffffffff16815260200190815260200160002060008473ffffffffffffffffffffffffffffffffffffffff1673ffffffffffffffffffffffffffffffffffffffff168152602001908152602001600020600083815260200190815260200160002060000160009054906101000a900460ff1690509392505050565b6000600260008473ffffffffffffffffffffffffffffffffffffffff1673ffffffffffffffffffffffffffffffffffffffff16815260200190815260200160002060008373ffffffffffffffffffffffffffffffffffffffff1673ffffffffffffffffffffffffffffffffffffffff16815260200190815260200160002060000160109054906101000a90046fffffffffffffffffffffffffffffffff16905092915050565b6000338383304660405160200161119195949392919061333c565b6040516020818303038152906040528051906020012090507f000000000000000000000000000000000000000000000000000000000000000073ffffffffffffffffffffffffffffffffffffffff166111fb856111ed84612028565b61205890919063ffffffff16565b73ffffffffffffffffffffffffffffffffffffffff1614611251576040517f08c379a000000000000000000000000000000000000000000000000000000000815260040161124890613433565b60405180910390fd5b81421115611294576040517f08c379a000000000000000000000000000000000000000000000000000000000815260040161128b9061349f565b60405180910390fd5b600015156004600083815260200190815260200160002060009054906101000a900460ff161515146112fb576040517f08c379a00000000000000000000000000000000000000000000000000000000081526004016112f29061350b565b60405180910390fd5b60016004600083815260200190815260200160002060006101000a81548160ff02191690831515021790555082600160003373ffffffffffffffffffffffffffffffffffffffff1673ffffffffffffffffffffffffffffffffffffffff16815260200190815260200160002060006101000a81548173ffffffffffffffffffffffffffffffffffffffff021916908373ffffffffffffffffffffffffffffffffffffffff16021790555050505050565b60008060009054906101000a900473ffffffffffffffffffffffffffffffffffffffff1673ffffffffffffffffffffffffffffffffffffffff163373ffffffffffffffffffffffffffffffffffffffff161461143c576040517f08c379a000000000000000000000000000000000000000000000000000000000815260040161143390612d8f565b60405180910390fd5b816fffffffffffffffffffffffffffffffff16600360008773ffffffffffffffffffffffffffffffffffffffff1673ffffffffffffffffffffffffffffffffffffffff16815260200190815260200160002060008673ffffffffffffffffffffffffffffffffffffffff1673ffffffffffffffffffffffffffffffffffffffff1681526020019081526020016000206000856fffffffffffffffffffffffffffffffff16815260200190815260200160002060000160019054906101000a90046fffffffffffffffffffffffffffffffff166fffffffffffffffffffffffffffffffff161015611561576040517f08c379a000000000000000000000000000000000000000000000000000000000815260040161155890612e21565b60405180910390fd5b81600360008773ffffffffffffffffffffffffffffffffffffffff1673ffffffffffffffffffffffffffffffffffffffff16815260200190815260200160002060008673ffffffffffffffffffffffffffffffffffffffff1673ffffffffffffffffffffffffffffffffffffffff1681526020019081526020016000206000856fffffffffffffffffffffffffffffffff16815260200190815260200160002060000160018282829054906101000a90046fffffffffffffffffffffffffffffffff1661162e9190612e70565b92506101000a8154816fffffffffffffffffffffffffffffffff02191690836fffffffffffffffffffffffffffffffff160217905550600360008673ffffffffffffffffffffffffffffffffffffffff1673ffffffffffffffffffffffffffffffffffffffff16815260200190815260200160002060008573ffffffffffffffffffffffffffffffffffffffff1673ffffffffffffffffffffffffffffffffffffffff1681526020019081526020016000206000846fffffffffffffffffffffffffffffffff16815260200190815260200160002060000160019054906101000a90046fffffffffffffffffffffffffffffffff169050949350505050565b6000600360008573ffffffffffffffffffffffffffffffffffffffff1673ffffffffffffffffffffffffffffffffffffffff16815260200190815260200160002060008473ffffffffffffffffffffffffffffffffffffffff1673ffffffffffffffffffffffffffffffffffffffff168152602001908152602001600020600083815260200190815260200160002060000160019054906101000a90046fffffffffffffffffffffffffffffffff1690509392505050565b6000600260008473ffffffffffffffffffffffffffffffffffffffff1673ffffffffffffffffffffffffffffffffffffffff16815260200190815260200160002060008373ffffffffffffffffffffffffffffffffffffffff1673ffffffffffffffffffffffffffffffffffffffff16815260200190815260200160002060000160009054906101000a90046fffffffffffffffffffffffffffffffff166fffffffffffffffffffffffffffffffff16905092915050565b3373ffffffffffffffffffffffffffffffffffffffff16600160008473ffffffffffffffffffffffffffffffffffffffff1673ffffffffffffffffffffffffffffffffffffffff16815260200190815260200160002060009054906101000a900473ffffffffffffffffffffffffffffffffffffffff1673ffffffffffffffffffffffffffffffffffffffff161461196a576040517f08c379a000000000000000000000000000000000000000000000000000000000815260040161196190613080565b60405180910390fd5b3073ffffffffffffffffffffffffffffffffffffffff168173ffffffffffffffffffffffffffffffffffffffff16036119d8576040517f08c379a00000000000000000000000000000000000000000000000000000000081526004016119cf906130ec565b60405180910390fd5b60006119e483836117e5565b11611a24576040517f08c379a0000000000000000000000000000000000000000000000000000000008152600401611a1b90613577565b60405180910390fd5b600260008373ffffffffffffffffffffffffffffffffffffffff1673ffffffffffffffffffffffffffffffffffffffff16815260200190815260200160002060008273ffffffffffffffffffffffffffffffffffffffff1673ffffffffffffffffffffffffffffffffffffffff16815260200190815260200160002060000160109054906101000a90046fffffffffffffffffffffffffffffffff166fffffffffffffffffffffffffffffffff16341015611b14576040517f08c379a0000000000000000000000000000000000000000000000000000000008152600401611b0b906131ea565b60405180910390fd5b6000611b2083836117e5565b90506000600260008573ffffffffffffffffffffffffffffffffffffffff1673ffffffffffffffffffffffffffffffffffffffff16815260200190815260200160002060008473ffffffffffffffffffffffffffffffffffffffff1673ffffffffffffffffffffffffffffffffffffffff16815260200190815260200160002060000160006101000a8154816fffffffffffffffffffffffffffffffff02191690836fffffffffffffffffffffffffffffffff1602179055506000600260008573ffffffffffffffffffffffffffffffffffffffff1673ffffffffffffffffffffffffffffffffffffffff16815260200190815260200160002060008473ffffffffffffffffffffffffffffffffffffffff1673ffffffffffffffffffffffffffffffffffffffff16815260200190815260200160002060000160106101000a8154816fffffffffffffffffffffffffffffffff02191690836fffffffffffffffffffffffffffffffff160217905550611cbb33828473ffffffffffffffffffffffffffffffffffffffff1661207f9092919063ffffffff16565b505050565b60008054906101000a900473ffffffffffffffffffffffffffffffffffffffff1673ffffffffffffffffffffffffffffffffffffffff163373ffffffffffffffffffffffffffffffffffffffff1614611d4e576040517f08c379a0000000000000000000000000000000000000000000000000000000008152600401611d4590612d8f565b60405180910390fd5b806000806101000a81548173ffffffffffffffffffffffffffffffffffffffff021916908373ffffffffffffffffffffffffffffffffffffffff16021790555050565b6000600160008373ffffffffffffffffffffffffffffffffffffffff1673ffffffffffffffffffffffffffffffffffffffff16815260200190815260200160002060009054906101000a900473ffffffffffffffffffffffffffffffffffffffff169050919050565b7f000000000000000000000000000000000000000000000000000000000000000073ffffffffffffffffffffffffffffffffffffffff163373ffffffffffffffffffffffffffffffffffffffff1614611e88576040517f08c379a0000000000000000000000000000000000000000000000000000000008152600401611e7f90612fa8565b60405180910390fd5b80600360008673ffffffffffffffffffffffffffffffffffffffff1673ffffffffffffffffffffffffffffffffffffffff16815260200190815260200160002060008573ffffffffffffffffffffffffffffffffffffffff1673ffffffffffffffffffffffffffffffffffffffff168152602001908152602001600020600084815260200190815260200160002060000160018282829054906101000a90046fffffffffffffffffffffffffffffffff16611f439190612fc8565b92506101000a8154816fffffffffffffffffffffffffffffffff02191690836fffffffffffffffffffffffffffffffff1602179055506001600360008673ffffffffffffffffffffffffffffffffffffffff1673ffffffffffffffffffffffffffffffffffffffff16815260200190815260200160002060008573ffffffffffffffffffffffffffffffffffffffff1673ffffffffffffffffffffffffffffffffffffffff168152602001908152602001600020600084815260200190815260200160002060000160006101000a81548160ff02191690831515021790555050505050565b60008160405160200161203b9190613619565b604051602081830303815290604052805190602001209050919050565b60008060006120678585612105565b9150915061207481612186565b819250505092915050565b6121008363a9059cbb60e01b848460405160240161209e92919061363f565b604051602081830303815290604052907bffffffffffffffffffffffffffffffffffffffffffffffffffffffff19166020820180517bffffffffffffffffffffffffffffffffffffffffffffffffffffffff8381831617835250505050612352565b505050565b60008060418351036121465760008060006020860151925060408601519150606086015160001a905061213a87828585612419565b9450945050505061217f565b604083510361217657600080602085015191506040850151905061216b868383612525565b93509350505061217f565b60006002915091505b9250929050565b6000600481111561219a57612199613668565b5b8160048111156121ad576121ac613668565b5b031561234f57600160048111156121c7576121c6613668565b5b8160048111156121da576121d9613668565b5b0361221a576040517f08c379a0000000000000000000000000000000000000000000000000000000008152600401612211906136e3565b60405180910390fd5b6002600481111561222e5761222d613668565b5b81600481111561224157612240613668565b5b03612281576040517f08c379a00000000000000000000000000000000000000000000000000000000081526004016122789061374f565b60405180910390fd5b6003600481111561229557612294613668565b5b8160048111156122a8576122a7613668565b5b036122e8576040517f08c379a00000000000000000000000000000000000000000000000000000000081526004016122df906137e1565b60405180910390fd5b6004808111156122fb576122fa613668565b5b81600481111561230e5761230d613668565b5b0361234e576040517f08c379a000000000000000000000000000000000000000000000000000000000815260040161234590613873565b60405180910390fd5b5b50565b60006123b4826040518060400160405280602081526020017f5361666545524332303a206c6f772d6c6576656c2063616c6c206661696c65648152508573ffffffffffffffffffffffffffffffffffffffff166125849092919063ffffffff16565b905060008151111561241457808060200190518101906123d491906138bf565b612413576040517f08c379a000000000000000000000000000000000000000000000000000000000815260040161240a9061395e565b60405180910390fd5b5b505050565b6000807f7fffffffffffffffffffffffffffffff5d576e7357a4501ddfe92f46681b20a08360001c111561245457600060039150915061251c565b601b8560ff161415801561246c5750601c8560ff1614155b1561247e57600060049150915061251c565b6000600187878787604051600081526020016040526040516124a394939291906139a9565b6020604051602081039080840390855afa1580156124c5573d6000803e3d6000fd5b505050602060405103519050600073ffffffffffffffffffffffffffffffffffffffff168173ffffffffffffffffffffffffffffffffffffffff16036125135760006001925092505061251c565b80600092509250505b94509492505050565b60008060007f7fffffffffffffffffffffffffffffffffffffffffffffffffffffffffffffff60001b841690506000601b60ff8660001c901c61256891906139ee565b905061257687828885612419565b935093505050935093915050565b6060612593848460008561259c565b90509392505050565b6060824710156125e1576040517f08c379a00000000000000000000000000000000000000000000000000000000081526004016125d890613ab6565b60405180910390fd5b6125ea856126b0565b612629576040517f08c379a000000000000000000000000000000000000000000000000000000000815260040161262090613b22565b60405180910390fd5b6000808673ffffffffffffffffffffffffffffffffffffffff1685876040516126529190613bbc565b60006040518083038185875af1925050503d806000811461268f576040519150601f19603f3d011682016040523d82523d6000602084013e612694565b606091505b50915091506126a48282866126d3565b92505050949350505050565b6000808273ffffffffffffffffffffffffffffffffffffffff163b119050919050565b606083156126e357829050612733565b6000835111156126f65782518084602001fd5b816040517f08c379a000000000000000000000000000000000000000000000000000000000815260040161272a9190613c17565b60405180910390fd5b9392505050565b6000604051905090565b600080fd5b600080fd5b600073ffffffffffffffffffffffffffffffffffffffff82169050919050565b60006127798261274e565b9050919050565b6127898161276e565b811461279457600080fd5b50565b6000813590506127a681612780565b92915050565b60006fffffffffffffffffffffffffffffffff82169050919050565b6127d1816127ac565b81146127dc57600080fd5b50565b6000813590506127ee816127c8565b92915050565b60008060006060848603121561280d5761280c612744565b5b600061281b86828701612797565b935050602061282c86828701612797565b925050604061283d868287016127df565b9150509250925092565b612850816127ac565b82525050565b600060208201905061286b6000830184612847565b92915050565b60006020828403121561288757612886612744565b5b600061289584828501612797565b91505092915050565b6000819050919050565b6128b18161289e565b81146128bc57600080fd5b50565b6000813590506128ce816128a8565b92915050565b600080600080608085870312156128ee576128ed612744565b5b60006128fc87828801612797565b945050602061290d87828801612797565b935050604061291e878288016128bf565b925050606061292f878288016127df565b91505092959194509250565b60008060006060848603121561295457612953612744565b5b600061296286828701612797565b935050602061297386828701612797565b9250506040612984868287016128bf565b9150509250925092565b6000602082840312156129a4576129a3612744565b5b60006129b2848285016128bf565b91505092915050565b60008115159050919050565b6129d0816129bb565b82525050565b60006020820190506129eb60008301846129c7565b92915050565b60008060408385031215612a0857612a07612744565b5b6000612a1685828601612797565b9250506020612a2785828601612797565b9150509250929050565b600080fd5b600080fd5b6000601f19601f8301169050919050565b7f4e487b7100000000000000000000000000000000000000000000000000000000600052604160045260246000fd5b612a8482612a3b565b810181811067ffffffffffffffff82111715612aa357612aa2612a4c565b5b80604052505050565b6000612ab661273a565b9050612ac28282612a7b565b919050565b600067ffffffffffffffff821115612ae257612ae1612a4c565b5b612aeb82612a3b565b9050602081019050919050565b82818337600083830152505050565b6000612b1a612b1584612ac7565b612aac565b905082815260208101848484011115612b3657612b35612a36565b5b612b41848285612af8565b509392505050565b600082601f830112612b5e57612b5d612a31565b5b8135612b6e848260208601612b07565b91505092915050565b600080600060608486031215612b9057612b8f612744565b5b600084013567ffffffffffffffff811115612bae57612bad612749565b5b612bba86828701612b49565b9350506020612bcb86828701612797565b9250506040612bdc868287016128bf565b9150509250925092565b60008060008060808587031215612c0057612bff612744565b5b6000612c0e87828801612797565b9450506020612c1f87828801612797565b9350506040612c30878288016127df565b9250506060612c41878288016127df565b91505092959194509250565b612c568161289e565b82525050565b6000602082019050612c716000830184612c4d565b92915050565b6000612c828261274e565b9050919050565b612c9281612c77565b8114612c9d57600080fd5b50565b600081359050612caf81612c89565b92915050565b600060208284031215612ccb57612cca612744565b5b6000612cd984828501612ca0565b91505092915050565b612ceb8161276e565b82525050565b6000602082019050612d066000830184612ce2565b92915050565b600082825260208201905092915050565b7f6d73672e73656e646572206d75737420626520666565436f6e74726f6c6c657260008201527f2e00000000000000000000000000000000000000000000000000000000000000602082015250565b6000612d79602183612d0c565b9150612d8482612d1d565b604082019050919050565b60006020820190508181036000830152612da881612d6c565b9050919050565b7f596f752063616e6e6f7420726564756365206d6f7265207468616e207468652060008201527f63757272656e74206665652e0000000000000000000000000000000000000000602082015250565b6000612e0b602c83612d0c565b9150612e1682612daf565b604082019050919050565b60006020820190508181036000830152612e3a81612dfe565b9050919050565b7f4e487b7100000000000000000000000000000000000000000000000000000000600052601160045260246000fd5b6000612e7b826127ac565b9150612e86836127ac565b925082821015612e9957612e98612e41565b5b828203905092915050565b7f596f7520616c726561647920686176652072656769737465726564206120726560008201527f63697069656e7420616464726573730000000000000000000000000000000000602082015250565b6000612f00602f83612d0c565b9150612f0b82612ea4565b604082019050919050565b60006020820190508181036000830152612f2f81612ef3565b9050919050565b7f4f6e6c7920746865207472616e73666572657220636f6e74726163742063616e60008201527f206c6f672066756e64732e000000000000000000000000000000000000000000602082015250565b6000612f92602b83612d0c565b9150612f9d82612f36565b604082019050919050565b60006020820190508181036000830152612fc181612f85565b9050919050565b6000612fd3826127ac565b9150612fde836127ac565b9250826fffffffffffffffffffffffffffffffff0382111561300357613002612e41565b5b828201905092915050565b7f46756e6374696f6e2063616c6c6572206973206e6f7420616e20617574686f7260008201527f697a656420726563697069656e74416464726573732e00000000000000000000602082015250565b600061306a603683612d0c565b91506130758261300e565b604082019050919050565b600060208201905081810360008301526130998161305d565b9050919050565b7f546865207661756c74206973206e6f74206120746f6b656e2061646472657373600082015250565b60006130d6602083612d0c565b91506130e1826130a0565b602082019050919050565b60006020820190508181036000830152613105816130c9565b9050919050565b7f496e73756666696369656e74207769746864726177616c20616c6c6f77616e6360008201527f652e000000000000000000000000000000000000000000000000000000000000602082015250565b6000613168602283612d0c565b91506131738261310c565b604082019050919050565b600060208201905081810360008301526131978161315b565b9050919050565b7f496e73756666696369656e74207061796d656e742e0000000000000000000000600082015250565b60006131d4601583612d0c565b91506131df8261319e565b602082019050919050565b60006020820190508181036000830152613203816131c7565b9050919050565b600060608201905061321f6000830186612ce2565b61322c6020830185612ce2565b6132396040830184612c4d565b949350505050565b7f43616e6e6f74207769746864726177206d6f7265207468616e2074686520616d60008201527f6f756e7420696e2074686520636f6e74726163742e0000000000000000000000602082015250565b600061329d603583612d0c565b91506132a882613241565b604082019050919050565b600060208201905081810360008301526132cc81613290565b9050919050565b60008160601b9050919050565b60006132eb826132d3565b9050919050565b60006132fd826132e0565b9050919050565b6133156133108261276e565b6132f2565b82525050565b6000819050919050565b6133366133318261289e565b61331b565b82525050565b60006133488288613304565b6014820191506133588287613304565b6014820191506133688286613325565b6020820191506133788285613304565b6014820191506133888284613325565b6020820191508190509695505050505050565b7f496e76616c6964207369676e61747572652e205369676e617475726520736f7560008201527f726365206d617920626520696e636f72726563742c206f7220612070726f766960208201527f64656420706172616d6574657220697320696e76616c69640000000000000000604082015250565b600061341d605883612d0c565b91506134288261339b565b606082019050919050565b6000602082019050818103600083015261344c81613410565b9050919050565b7f5369676e61747572652065787069726564000000000000000000000000000000600082015250565b6000613489601183612d0c565b915061349482613453565b602082019050919050565b600060208201905081810360008301526134b88161347c565b9050919050565b7f416c726561647920757365642074686973207369676e61747572650000000000600082015250565b60006134f5601b83612d0c565b9150613500826134bf565b602082019050919050565b60006020820190508181036000830152613524816134e8565b9050919050565b7f4e6f207769746864726177616c20616c6c6f77616e63652e0000000000000000600082015250565b6000613561601883612d0c565b915061356c8261352b565b602082019050919050565b6000602082019050818103600083015261359081613554565b9050919050565b600081905092915050565b7f19457468657265756d205369676e6564204d6573736167653a0a333200000000600082015250565b60006135d8601c83613597565b91506135e3826135a2565b601c82019050919050565b6000819050919050565b6000819050919050565b61361361360e826135ee565b6135f8565b82525050565b6000613624826135cb565b91506136308284613602565b60208201915081905092915050565b60006040820190506136546000830185612ce2565b6136616020830184612c4d565b9392505050565b7f4e487b7100000000000000000000000000000000000000000000000000000000600052602160045260246000fd5b7f45434453413a20696e76616c6964207369676e61747572650000000000000000600082015250565b60006136cd601883612d0c565b91506136d882613697565b602082019050919050565b600060208201905081810360008301526136fc816136c0565b9050919050565b7f45434453413a20696e76616c6964207369676e6174757265206c656e67746800600082015250565b6000613739601f83612d0c565b915061374482613703565b602082019050919050565b600060208201905081810360008301526137688161372c565b9050919050565b7f45434453413a20696e76616c6964207369676e6174757265202773272076616c60008201527f7565000000000000000000000000000000000000000000000000000000000000602082015250565b60006137cb602283612d0c565b91506137d68261376f565b604082019050919050565b600060208201905081810360008301526137fa816137be565b9050919050565b7f45434453413a20696e76616c6964207369676e6174757265202776272076616c60008201527f7565000000000000000000000000000000000000000000000000000000000000602082015250565b600061385d602283612d0c565b915061386882613801565b604082019050919050565b6000602082019050818103600083015261388c81613850565b9050919050565b61389c816129bb565b81146138a757600080fd5b50565b6000815190506138b981613893565b92915050565b6000602082840312156138d5576138d4612744565b5b60006138e3848285016138aa565b91505092915050565b7f5361666545524332303a204552433230206f7065726174696f6e20646964206e60008201527f6f74207375636365656400000000000000000000000000000000000000000000602082015250565b6000613948602a83612d0c565b9150613953826138ec565b604082019050919050565b600060208201905081810360008301526139778161393b565b9050919050565b613987816135ee565b82525050565b600060ff82169050919050565b6139a38161398d565b82525050565b60006080820190506139be600083018761397e565b6139cb602083018661399a565b6139d8604083018561397e565b6139e5606083018461397e565b95945050505050565b60006139f98261289e565b9150613a048361289e565b9250827fffffffffffffffffffffffffffffffffffffffffffffffffffffffffffffffff03821115613a3957613a38612e41565b5b828201905092915050565b7f416464726573733a20696e73756666696369656e742062616c616e636520666f60008201527f722063616c6c0000000000000000000000000000000000000000000000000000602082015250565b6000613aa0602683612d0c565b9150613aab82613a44565b604082019050919050565b60006020820190508181036000830152613acf81613a93565b9050919050565b7f416464726573733a2063616c6c20746f206e6f6e2d636f6e7472616374000000600082015250565b6000613b0c601d83612d0c565b9150613b1782613ad6565b602082019050919050565b60006020820190508181036000830152613b3b81613aff565b9050919050565b600081519050919050565b600081905092915050565b60005b83811015613b76578082015181840152602081019050613b5b565b83811115613b85576000848401525b50505050565b6000613b9682613b42565b613ba08185613b4d565b9350613bb0818560208601613b58565b80840191505092915050565b6000613bc88284613b8b565b915081905092915050565b600081519050919050565b6000613be982613bd3565b613bf38185612d0c565b9350613c03818560208601613b58565b613c0c81612a3b565b840191505092915050565b60006020820190508181036000830152613c318184613bde565b90509291505056fea264697066735822122035e75f50a09887650b711caf6e24a83e9a42f6f4179fc1c5740e2e2eb4ee5e3864736f6c634300080d0033",
  "linkReferences": {},
  "deployedLinkReferences": {}
}