{
  "_format": "hh-sol-artifact-1",
  "contractName": "Vault",
  "sourceName": "contracts/Vault.sol",
  "abi": [
    {
      "inputs": [
        {
          "internalType": "address",
          "name": "_transferer",
          "type": "address"
        },
        {
          "internalType": "address",
          "name": "_serverSigner",
          "type": "address"
        },
        {
          "internalType": "address payable",
          "name": "_feeController",
          "type": "address"
        }
      ],
      "stateMutability": "nonpayable",
      "type": "constructor"
    },
    {
      "inputs": [
        {
          "internalType": "address",
          "name": "_originalAddress",
          "type": "address"
        },
        {
          "internalType": "address",
          "name": "_erc20Address",
          "type": "address"
        }
      ],
      "name": "canWithdrawERC20",
      "outputs": [
        {
          "internalType": "uint256",
          "name": "",
          "type": "uint256"
        }
      ],
      "stateMutability": "view",
      "type": "function"
    },
    {
      "inputs": [
        {
          "internalType": "address",
          "name": "_originalAddress",
          "type": "address"
        },
        {
          "internalType": "address",
          "name": "_erc721Address",
          "type": "address"
        },
        {
          "internalType": "uint256",
          "name": "_id",
          "type": "uint256"
        }
      ],
      "name": "canWithdrawERC721",
      "outputs": [
        {
          "internalType": "bool",
          "name": "",
          "type": "bool"
        }
      ],
      "stateMutability": "view",
      "type": "function"
    },
    {
      "inputs": [
        {
          "internalType": "address payable",
          "name": "_newFeeController",
          "type": "address"
        }
      ],
      "name": "changeFeeController",
      "outputs": [],
      "stateMutability": "nonpayable",
      "type": "function"
    },
    {
      "inputs": [
        {
          "internalType": "address",
          "name": "_newFeeController",
          "type": "address"
        }
      ],
      "name": "changeFeeControllerRequest",
      "outputs": [],
      "stateMutability": "nonpayable",
      "type": "function"
    },
    {
      "inputs": [
        {
          "internalType": "bytes",
          "name": "_signature",
          "type": "bytes"
        },
        {
          "internalType": "address",
          "name": "_newRecipientAddress",
          "type": "address"
        },
        {
          "internalType": "uint256",
          "name": "expiry",
          "type": "uint256"
        }
      ],
      "name": "changeRecipientAddress",
      "outputs": [],
      "stateMutability": "nonpayable",
      "type": "function"
    },
    {
      "inputs": [
        {
          "internalType": "address",
          "name": "_originalAddress",
          "type": "address"
        },
        {
          "internalType": "address",
          "name": "_erc20Address",
          "type": "address"
        }
      ],
      "name": "erc20Fee",
      "outputs": [
        {
          "internalType": "uint128",
          "name": "",
          "type": "uint128"
        }
      ],
      "stateMutability": "view",
      "type": "function"
    },
    {
      "inputs": [
        {
          "internalType": "address",
          "name": "_originalAddress",
          "type": "address"
        },
        {
          "internalType": "address",
          "name": "_erc721Address",
          "type": "address"
        },
        {
          "internalType": "uint256",
          "name": "_id",
          "type": "uint256"
        }
      ],
      "name": "erc721Fee",
      "outputs": [
        {
          "internalType": "uint128",
          "name": "",
          "type": "uint128"
        }
      ],
      "stateMutability": "view",
      "type": "function"
    },
    {
      "inputs": [
        {
          "internalType": "address",
          "name": "_originalAddress",
          "type": "address"
        },
        {
          "internalType": "address",
          "name": "_erc20Address",
          "type": "address"
        },
        {
          "internalType": "uint256",
          "name": "_amount",
          "type": "uint256"
        },
        {
          "internalType": "uint128",
          "name": "_fee",
          "type": "uint128"
        }
      ],
      "name": "logIncomingERC20",
      "outputs": [],
      "stateMutability": "nonpayable",
      "type": "function"
    },
    {
      "inputs": [
        {
          "internalType": "address",
          "name": "_originalAddress",
          "type": "address"
        },
        {
          "internalType": "address",
          "name": "_erc721Address",
          "type": "address"
        },
        {
          "internalType": "uint256",
          "name": "_id",
          "type": "uint256"
        },
        {
          "internalType": "uint128",
          "name": "_fee",
          "type": "uint128"
        }
      ],
      "name": "logIncomingERC721",
      "outputs": [],
      "stateMutability": "nonpayable",
      "type": "function"
    },
    {
      "inputs": [
        {
          "internalType": "address",
          "name": "_originalAddress",
          "type": "address"
        },
        {
          "internalType": "address",
          "name": "_erc20Address",
          "type": "address"
        },
        {
          "internalType": "uint128",
          "name": "_reduceBy",
          "type": "uint128"
        }
      ],
      "name": "reduceERC20Fee",
      "outputs": [
        {
          "internalType": "uint128",
          "name": "",
          "type": "uint128"
        }
      ],
      "stateMutability": "nonpayable",
      "type": "function"
    },
    {
      "inputs": [
        {
          "internalType": "address",
          "name": "_originalAddress",
          "type": "address"
        },
        {
          "internalType": "address",
          "name": "_erc721Address",
          "type": "address"
        },
        {
          "internalType": "uint256",
          "name": "_id",
          "type": "uint256"
        },
        {
          "internalType": "uint128",
          "name": "_reduceBy",
          "type": "uint128"
        }
      ],
      "name": "reduceERC721Fee",
      "outputs": [
        {
          "internalType": "uint128",
          "name": "",
          "type": "uint128"
        }
      ],
      "stateMutability": "nonpayable",
      "type": "function"
    },
    {
      "inputs": [
        {
          "internalType": "address",
          "name": "_recipient",
          "type": "address"
        }
      ],
      "name": "setupRecipientAddress",
      "outputs": [],
      "stateMutability": "nonpayable",
      "type": "function"
    },
    {
      "inputs": [
        {
          "internalType": "address",
          "name": "_originalAddress",
          "type": "address"
        }
      ],
      "name": "viewRecipientAddress",
      "outputs": [
        {
          "internalType": "address",
          "name": "",
          "type": "address"
        }
      ],
      "stateMutability": "view",
      "type": "function"
    },
    {
      "inputs": [
        {
          "internalType": "address",
          "name": "_originalAddress",
          "type": "address"
        },
        {
          "internalType": "address",
          "name": "_erc20Address",
          "type": "address"
        }
      ],
      "name": "withdrawERC20",
      "outputs": [],
      "stateMutability": "payable",
      "type": "function"
    },
    {
      "inputs": [
        {
          "internalType": "address",
          "name": "_originalAddress",
          "type": "address"
        },
        {
          "internalType": "address",
          "name": "_erc721Address",
          "type": "address"
        },
        {
          "internalType": "uint256",
          "name": "_id",
          "type": "uint256"
        }
      ],
      "name": "withdrawERC721",
      "outputs": [],
      "stateMutability": "payable",
      "type": "function"
    },
    {
      "inputs": [
        {
          "internalType": "uint256",
          "name": "_amount",
          "type": "uint256"
        }
      ],
      "name": "withdrawPayments",
      "outputs": [],
      "stateMutability": "nonpayable",
      "type": "function"
    }
  ],
  "bytecode": "0x60c06040523480156200001157600080fd5b50604051620045f9380380620045f9833981810160405281019062000037919062000197565b8273ffffffffffffffffffffffffffffffffffffffff1660808173ffffffffffffffffffffffffffffffffffffffff16815250508173ffffffffffffffffffffffffffffffffffffffff1660a08173ffffffffffffffffffffffffffffffffffffffff1681525050806000806101000a81548173ffffffffffffffffffffffffffffffffffffffff021916908373ffffffffffffffffffffffffffffffffffffffff160217905550505050620001f3565b600080fd5b600073ffffffffffffffffffffffffffffffffffffffff82169050919050565b60006200011a82620000ed565b9050919050565b6200012c816200010d565b81146200013857600080fd5b50565b6000815190506200014c8162000121565b92915050565b60006200015f82620000ed565b9050919050565b620001718162000152565b81146200017d57600080fd5b50565b600081519050620001918162000166565b92915050565b600080600060608486031215620001b357620001b2620000e8565b5b6000620001c3868287016200013b565b9350506020620001d6868287016200013b565b9250506040620001e98682870162000180565b9150509250925092565b60805160a0516143d962000220600039600061124e015260008181610863015261225601526143d96000f3fe6080604052600436106100f35760003560e01c806379386cc81161008a578063c5b2ae7a11610059578063c5b2ae7a14610342578063d82f767d1461036b578063d9ce6ae714610394578063f574e2b6146103d1576100f3565b806379386cc81461026f57806390ffaa2a146102ac5780639456fbcc146102e95780639e74fb3914610305576100f3565b806341975af8116100c657806341975af8146101a35780634f4a7e70146101cc5780634fbcae61146102095780636a783cc514610246576100f3565b806309c0e14f146100f85780630ca93171146101355780633d602dbe1461015e5780634025feb214610187575b600080fd5b34801561010457600080fd5b5061011f600480360381019061011a9190612c1e565b6103fa565b60405161012c9190612c80565b60405180910390f35b34801561014157600080fd5b5061015c60048036038101906101579190612c9b565b610712565b005b34801561016a57600080fd5b5061018560048036038101906101809190612cfe565b610861565b005b6101a1600480360381019061019c9190612d65565b610abd565b005b3480156101af57600080fd5b506101ca60048036038101906101c59190612db8565b610f28565b005b3480156101d857600080fd5b506101f360048036038101906101ee9190612d65565b6110ca565b6040516102009190612e00565b60405180910390f35b34801561021557600080fd5b50610230600480360381019061022b9190612e1b565b611173565b60405161023d9190612c80565b60405180910390f35b34801561025257600080fd5b5061026d60048036038101906102689190612fa1565b611219565b005b34801561027b57600080fd5b5061029660048036038101906102919190612d65565b61144e565b6040516102a39190612c80565b60405180910390f35b3480156102b857600080fd5b506102d360048036038101906102ce9190612e1b565b611506565b6040516102e0919061301f565b60405180910390f35b61030360048036038101906102fe9190612e1b565b6115be565b005b34801561031157600080fd5b5061032c60048036038101906103279190612cfe565b6119e1565b6040516103399190612c80565b60405180910390f35b34801561034e57600080fd5b5061036960048036038101906103649190613078565b611d2d565b005b34801561037757600080fd5b50610392600480360381019061038d9190612c9b565b6120b8565b005b3480156103a057600080fd5b506103bb60048036038101906103b69190612c9b565b6121eb565b6040516103c891906130b4565b60405180910390f35b3480156103dd57600080fd5b506103f860048036038101906103f39190612cfe565b612254565b005b60008060009054906101000a900473ffffffffffffffffffffffffffffffffffffffff1673ffffffffffffffffffffffffffffffffffffffff163373ffffffffffffffffffffffffffffffffffffffff161461048b576040517f08c379a000000000000000000000000000000000000000000000000000000000815260040161048290613152565b60405180910390fd5b816fffffffffffffffffffffffffffffffff16600260008673ffffffffffffffffffffffffffffffffffffffff1673ffffffffffffffffffffffffffffffffffffffff16815260200190815260200160002060008573ffffffffffffffffffffffffffffffffffffffff1673ffffffffffffffffffffffffffffffffffffffff16815260200190815260200160002060000160109054906101000a90046fffffffffffffffffffffffffffffffff166fffffffffffffffffffffffffffffffff16101561058d576040517f08c379a0000000000000000000000000000000000000000000000000000000008152600401610584906131e4565b60405180910390fd5b81600260008673ffffffffffffffffffffffffffffffffffffffff1673ffffffffffffffffffffffffffffffffffffffff16815260200190815260200160002060008573ffffffffffffffffffffffffffffffffffffffff1673ffffffffffffffffffffffffffffffffffffffff16815260200190815260200160002060000160108282829054906101000a90046fffffffffffffffffffffffffffffffff166106379190613233565b92506101000a8154816fffffffffffffffffffffffffffffffff02191690836fffffffffffffffffffffffffffffffff160217905550600260008573ffffffffffffffffffffffffffffffffffffffff1673ffffffffffffffffffffffffffffffffffffffff16815260200190815260200160002060008473ffffffffffffffffffffffffffffffffffffffff1673ffffffffffffffffffffffffffffffffffffffff16815260200190815260200160002060000160109054906101000a90046fffffffffffffffffffffffffffffffff1690509392505050565b600073ffffffffffffffffffffffffffffffffffffffff16600160003373ffffffffffffffffffffffffffffffffffffffff1673ffffffffffffffffffffffffffffffffffffffff16815260200190815260200160002060009054906101000a900473ffffffffffffffffffffffffffffffffffffffff1673ffffffffffffffffffffffffffffffffffffffff16146107e0576040517f08c379a00000000000000000000000000000000000000000000000000000000081526004016107d7906132d9565b60405180910390fd5b80600160003373ffffffffffffffffffffffffffffffffffffffff1673ffffffffffffffffffffffffffffffffffffffff16815260200190815260200160002060006101000a81548173ffffffffffffffffffffffffffffffffffffffff021916908373ffffffffffffffffffffffffffffffffffffffff16021790555050565b7f000000000000000000000000000000000000000000000000000000000000000073ffffffffffffffffffffffffffffffffffffffff163373ffffffffffffffffffffffffffffffffffffffff16146108ef576040517f08c379a00000000000000000000000000000000000000000000000000000000081526004016108e69061336b565b60405180910390fd5b80600260008673ffffffffffffffffffffffffffffffffffffffff1673ffffffffffffffffffffffffffffffffffffffff16815260200190815260200160002060008573ffffffffffffffffffffffffffffffffffffffff1673ffffffffffffffffffffffffffffffffffffffff16815260200190815260200160002060000160108282829054906101000a90046fffffffffffffffffffffffffffffffff16610999919061338b565b92506101000a8154816fffffffffffffffffffffffffffffffff02191690836fffffffffffffffffffffffffffffffff1602179055506109d882612482565b600260008673ffffffffffffffffffffffffffffffffffffffff1673ffffffffffffffffffffffffffffffffffffffff16815260200190815260200160002060008573ffffffffffffffffffffffffffffffffffffffff1673ffffffffffffffffffffffffffffffffffffffff16815260200190815260200160002060000160008282829054906101000a90046fffffffffffffffffffffffffffffffff16610a81919061338b565b92506101000a8154816fffffffffffffffffffffffffffffffff02191690836fffffffffffffffffffffffffffffffff16021790555050505050565b3373ffffffffffffffffffffffffffffffffffffffff16600160008573ffffffffffffffffffffffffffffffffffffffff1673ffffffffffffffffffffffffffffffffffffffff16815260200190815260200160002060009054906101000a900473ffffffffffffffffffffffffffffffffffffffff1673ffffffffffffffffffffffffffffffffffffffff1614610b8a576040517f08c379a0000000000000000000000000000000000000000000000000000000008152600401610b8190613443565b60405180910390fd5b3073ffffffffffffffffffffffffffffffffffffffff168273ffffffffffffffffffffffffffffffffffffffff1603610bf8576040517f08c379a0000000000000000000000000000000000000000000000000000000008152600401610bef906134af565b60405180910390fd5b610c038383836110ca565b610c42576040517f08c379a0000000000000000000000000000000000000000000000000000000008152600401610c3990613541565b60405180910390fd5b600360008473ffffffffffffffffffffffffffffffffffffffff1673ffffffffffffffffffffffffffffffffffffffff16815260200190815260200160002060008373ffffffffffffffffffffffffffffffffffffffff1673ffffffffffffffffffffffffffffffffffffffff168152602001908152602001600020600082815260200190815260200160002060000160019054906101000a90046fffffffffffffffffffffffffffffffff166fffffffffffffffffffffffffffffffff16341015610d43576040517f08c379a0000000000000000000000000000000000000000000000000000000008152600401610d3a906135ad565b60405180910390fd5b6000600360008573ffffffffffffffffffffffffffffffffffffffff1673ffffffffffffffffffffffffffffffffffffffff16815260200190815260200160002060008473ffffffffffffffffffffffffffffffffffffffff1673ffffffffffffffffffffffffffffffffffffffff168152602001908152602001600020600083815260200190815260200160002060000160006101000a81548160ff0219169083151502179055506000600360008573ffffffffffffffffffffffffffffffffffffffff1673ffffffffffffffffffffffffffffffffffffffff16815260200190815260200160002060008473ffffffffffffffffffffffffffffffffffffffff1673ffffffffffffffffffffffffffffffffffffffff168152602001908152602001600020600083815260200190815260200160002060000160016101000a8154816fffffffffffffffffffffffffffffffff02191690836fffffffffffffffffffffffffffffffff1602179055508173ffffffffffffffffffffffffffffffffffffffff166342842e0e3033846040518463ffffffff1660e01b8152600401610ef1939291906135cd565b600060405180830381600087803b158015610f0b57600080fd5b505af1158015610f1f573d6000803e3d6000fd5b50505050505050565b60008054906101000a900473ffffffffffffffffffffffffffffffffffffffff1673ffffffffffffffffffffffffffffffffffffffff163373ffffffffffffffffffffffffffffffffffffffff1614610fb6576040517f08c379a0000000000000000000000000000000000000000000000000000000008152600401610fad90613152565b60405180910390fd5b80471015610ff9576040517f08c379a0000000000000000000000000000000000000000000000000000000008152600401610ff090613676565b60405180910390fd5b60008060009054906101000a900473ffffffffffffffffffffffffffffffffffffffff1673ffffffffffffffffffffffffffffffffffffffff1682604051611040906136c7565b60006040518083038185875af1925050503d806000811461107d576040519150601f19603f3d011682016040523d82523d6000602084013e611082565b606091505b50509050806110c6576040517f08c379a00000000000000000000000000000000000000000000000000000000081526004016110bd90613728565b60405180910390fd5b5050565b6000600360008573ffffffffffffffffffffffffffffffffffffffff1673ffffffffffffffffffffffffffffffffffffffff16815260200190815260200160002060008473ffffffffffffffffffffffffffffffffffffffff1673ffffffffffffffffffffffffffffffffffffffff168152602001908152602001600020600083815260200190815260200160002060000160009054906101000a900460ff1690509392505050565b6000600260008473ffffffffffffffffffffffffffffffffffffffff1673ffffffffffffffffffffffffffffffffffffffff16815260200190815260200160002060008373ffffffffffffffffffffffffffffffffffffffff1673ffffffffffffffffffffffffffffffffffffffff16815260200190815260200160002060000160109054906101000a90046fffffffffffffffffffffffffffffffff16905092915050565b600033838330466040516020016112349594939291906137b1565b6040516020818303038152906040528051906020012090507f000000000000000000000000000000000000000000000000000000000000000073ffffffffffffffffffffffffffffffffffffffff1661129e85611290846124e1565b61251190919063ffffffff16565b73ffffffffffffffffffffffffffffffffffffffff16146112f4576040517f08c379a00000000000000000000000000000000000000000000000000000000081526004016112eb906138a8565b60405180910390fd5b81421115611337576040517f08c379a000000000000000000000000000000000000000000000000000000000815260040161132e90613914565b60405180910390fd5b600015156004600083815260200190815260200160002060009054906101000a900460ff1615151461139e576040517f08c379a000000000000000000000000000000000000000000000000000000000815260040161139590613980565b60405180910390fd5b60016004600083815260200190815260200160002060006101000a81548160ff02191690831515021790555082600160003373ffffffffffffffffffffffffffffffffffffffff1673ffffffffffffffffffffffffffffffffffffffff16815260200190815260200160002060006101000a81548173ffffffffffffffffffffffffffffffffffffffff021916908373ffffffffffffffffffffffffffffffffffffffff16021790555050505050565b6000600360008573ffffffffffffffffffffffffffffffffffffffff1673ffffffffffffffffffffffffffffffffffffffff16815260200190815260200160002060008473ffffffffffffffffffffffffffffffffffffffff1673ffffffffffffffffffffffffffffffffffffffff168152602001908152602001600020600083815260200190815260200160002060000160019054906101000a90046fffffffffffffffffffffffffffffffff1690509392505050565b6000600260008473ffffffffffffffffffffffffffffffffffffffff1673ffffffffffffffffffffffffffffffffffffffff16815260200190815260200160002060008373ffffffffffffffffffffffffffffffffffffffff1673ffffffffffffffffffffffffffffffffffffffff16815260200190815260200160002060000160009054906101000a90046fffffffffffffffffffffffffffffffff166fffffffffffffffffffffffffffffffff16905092915050565b3373ffffffffffffffffffffffffffffffffffffffff16600160008473ffffffffffffffffffffffffffffffffffffffff1673ffffffffffffffffffffffffffffffffffffffff16815260200190815260200160002060009054906101000a900473ffffffffffffffffffffffffffffffffffffffff1673ffffffffffffffffffffffffffffffffffffffff161461168b576040517f08c379a000000000000000000000000000000000000000000000000000000000815260040161168290613443565b60405180910390fd5b3073ffffffffffffffffffffffffffffffffffffffff168173ffffffffffffffffffffffffffffffffffffffff16036116f9576040517f08c379a00000000000000000000000000000000000000000000000000000000081526004016116f0906134af565b60405180910390fd5b60006117058383611506565b11611745576040517f08c379a000000000000000000000000000000000000000000000000000000000815260040161173c906139ec565b60405180910390fd5b600260008373ffffffffffffffffffffffffffffffffffffffff1673ffffffffffffffffffffffffffffffffffffffff16815260200190815260200160002060008273ffffffffffffffffffffffffffffffffffffffff1673ffffffffffffffffffffffffffffffffffffffff16815260200190815260200160002060000160109054906101000a90046fffffffffffffffffffffffffffffffff166fffffffffffffffffffffffffffffffff16341015611835576040517f08c379a000000000000000000000000000000000000000000000000000000000815260040161182c906135ad565b60405180910390fd5b60006118418383611506565b90506000600260008573ffffffffffffffffffffffffffffffffffffffff1673ffffffffffffffffffffffffffffffffffffffff16815260200190815260200160002060008473ffffffffffffffffffffffffffffffffffffffff1673ffffffffffffffffffffffffffffffffffffffff16815260200190815260200160002060000160006101000a8154816fffffffffffffffffffffffffffffffff02191690836fffffffffffffffffffffffffffffffff1602179055506000600260008573ffffffffffffffffffffffffffffffffffffffff1673ffffffffffffffffffffffffffffffffffffffff16815260200190815260200160002060008473ffffffffffffffffffffffffffffffffffffffff1673ffffffffffffffffffffffffffffffffffffffff16815260200190815260200160002060000160106101000a8154816fffffffffffffffffffffffffffffffff02191690836fffffffffffffffffffffffffffffffff1602179055506119dc33828473ffffffffffffffffffffffffffffffffffffffff166125389092919063ffffffff16565b505050565b60008060009054906101000a900473ffffffffffffffffffffffffffffffffffffffff1673ffffffffffffffffffffffffffffffffffffffff163373ffffffffffffffffffffffffffffffffffffffff1614611a72576040517f08c379a0000000000000000000000000000000000000000000000000000000008152600401611a6990613152565b60405180910390fd5b816fffffffffffffffffffffffffffffffff16600360008773ffffffffffffffffffffffffffffffffffffffff1673ffffffffffffffffffffffffffffffffffffffff16815260200190815260200160002060008673ffffffffffffffffffffffffffffffffffffffff1673ffffffffffffffffffffffffffffffffffffffff168152602001908152602001600020600085815260200190815260200160002060000160019054906101000a90046fffffffffffffffffffffffffffffffff166fffffffffffffffffffffffffffffffff161015611b85576040517f08c379a0000000000000000000000000000000000000000000000000000000008152600401611b7c906131e4565b60405180910390fd5b81600360008773ffffffffffffffffffffffffffffffffffffffff1673ffffffffffffffffffffffffffffffffffffffff16815260200190815260200160002060008673ffffffffffffffffffffffffffffffffffffffff1673ffffffffffffffffffffffffffffffffffffffff168152602001908152602001600020600085815260200190815260200160002060000160018282829054906101000a90046fffffffffffffffffffffffffffffffff16611c409190613233565b92506101000a8154816fffffffffffffffffffffffffffffffff02191690836fffffffffffffffffffffffffffffffff160217905550600360008673ffffffffffffffffffffffffffffffffffffffff1673ffffffffffffffffffffffffffffffffffffffff16815260200190815260200160002060008573ffffffffffffffffffffffffffffffffffffffff1673ffffffffffffffffffffffffffffffffffffffff168152602001908152602001600020600084815260200190815260200160002060000160019054906101000a90046fffffffffffffffffffffffffffffffff169050949350505050565b60008054906101000a900473ffffffffffffffffffffffffffffffffffffffff1673ffffffffffffffffffffffffffffffffffffffff163373ffffffffffffffffffffffffffffffffffffffff1614611dbb576040517f08c379a0000000000000000000000000000000000000000000000000000000008152600401611db290613a7e565b60405180910390fd5b6000600560008060009054906101000a900473ffffffffffffffffffffffffffffffffffffffff1673ffffffffffffffffffffffffffffffffffffffff1673ffffffffffffffffffffffffffffffffffffffff16815260200190815260200160002060008373ffffffffffffffffffffffffffffffffffffffff1673ffffffffffffffffffffffffffffffffffffffff1681526020019081526020016000205411611e9b576040517f08c379a0000000000000000000000000000000000000000000000000000000008152600401611e9290613b10565b60405180910390fd5b4262127500600560008060009054906101000a900473ffffffffffffffffffffffffffffffffffffffff1673ffffffffffffffffffffffffffffffffffffffff1673ffffffffffffffffffffffffffffffffffffffff16815260200190815260200160002060008473ffffffffffffffffffffffffffffffffffffffff1673ffffffffffffffffffffffffffffffffffffffff16815260200190815260200160002054611f489190613b30565b10611f88576040517f08c379a0000000000000000000000000000000000000000000000000000000008152600401611f7f90613bf8565b60405180910390fd5b426213c680600560008060009054906101000a900473ffffffffffffffffffffffffffffffffffffffff1673ffffffffffffffffffffffffffffffffffffffff1673ffffffffffffffffffffffffffffffffffffffff16815260200190815260200160002060008473ffffffffffffffffffffffffffffffffffffffff1673ffffffffffffffffffffffffffffffffffffffff168152602001908152602001600020546120359190613b30565b11612075576040517f08c379a000000000000000000000000000000000000000000000000000000000815260040161206c90613cb0565b60405180910390fd5b806000806101000a81548173ffffffffffffffffffffffffffffffffffffffff021916908373ffffffffffffffffffffffffffffffffffffffff16021790555050565b60008054906101000a900473ffffffffffffffffffffffffffffffffffffffff1673ffffffffffffffffffffffffffffffffffffffff163373ffffffffffffffffffffffffffffffffffffffff1614612146576040517f08c379a000000000000000000000000000000000000000000000000000000000815260040161213d90613a7e565b60405180910390fd5b42600560008060009054906101000a900473ffffffffffffffffffffffffffffffffffffffff1673ffffffffffffffffffffffffffffffffffffffff1673ffffffffffffffffffffffffffffffffffffffff16815260200190815260200160002060008373ffffffffffffffffffffffffffffffffffffffff1673ffffffffffffffffffffffffffffffffffffffff1681526020019081526020016000208190555050565b6000600160008373ffffffffffffffffffffffffffffffffffffffff1673ffffffffffffffffffffffffffffffffffffffff16815260200190815260200160002060009054906101000a900473ffffffffffffffffffffffffffffffffffffffff169050919050565b7f000000000000000000000000000000000000000000000000000000000000000073ffffffffffffffffffffffffffffffffffffffff163373ffffffffffffffffffffffffffffffffffffffff16146122e2576040517f08c379a00000000000000000000000000000000000000000000000000000000081526004016122d99061336b565b60405180910390fd5b80600360008673ffffffffffffffffffffffffffffffffffffffff1673ffffffffffffffffffffffffffffffffffffffff16815260200190815260200160002060008573ffffffffffffffffffffffffffffffffffffffff1673ffffffffffffffffffffffffffffffffffffffff168152602001908152602001600020600084815260200190815260200160002060000160018282829054906101000a90046fffffffffffffffffffffffffffffffff1661239d919061338b565b92506101000a8154816fffffffffffffffffffffffffffffffff02191690836fffffffffffffffffffffffffffffffff1602179055506001600360008673ffffffffffffffffffffffffffffffffffffffff1673ffffffffffffffffffffffffffffffffffffffff16815260200190815260200160002060008573ffffffffffffffffffffffffffffffffffffffff1673ffffffffffffffffffffffffffffffffffffffff168152602001908152602001600020600084815260200190815260200160002060000160006101000a81548160ff02191690831515021790555050505050565b60006fffffffffffffffffffffffffffffffff80168211156124d9576040517f08c379a00000000000000000000000000000000000000000000000000000000081526004016124d090613d42565b60405180910390fd5b819050919050565b6000816040516020016124f49190613de4565b604051602081830303815290604052805190602001209050919050565b600080600061252085856125be565b9150915061252d8161260f565b819250505092915050565b6125b98363a9059cbb60e01b8484604051602401612557929190613e0a565b604051602081830303815290604052907bffffffffffffffffffffffffffffffffffffffffffffffffffffffff19166020820180517bffffffffffffffffffffffffffffffffffffffffffffffffffffffff83818316178352505050506127db565b505050565b60008060418351036125ff5760008060006020860151925060408601519150606086015160001a90506125f3878285856128a2565b94509450505050612608565b60006002915091505b9250929050565b6000600481111561262357612622613e33565b5b81600481111561263657612635613e33565b5b03156127d857600160048111156126505761264f613e33565b5b81600481111561266357612662613e33565b5b036126a3576040517f08c379a000000000000000000000000000000000000000000000000000000000815260040161269a90613eae565b60405180910390fd5b600260048111156126b7576126b6613e33565b5b8160048111156126ca576126c9613e33565b5b0361270a576040517f08c379a000000000000000000000000000000000000000000000000000000000815260040161270190613f1a565b60405180910390fd5b6003600481111561271e5761271d613e33565b5b81600481111561273157612730613e33565b5b03612771576040517f08c379a000000000000000000000000000000000000000000000000000000000815260040161276890613fac565b60405180910390fd5b60048081111561278457612783613e33565b5b81600481111561279757612796613e33565b5b036127d7576040517f08c379a00000000000000000000000000000000000000000000000000000000081526004016127ce9061403e565b60405180910390fd5b5b50565b600061283d826040518060400160405280602081526020017f5361666545524332303a206c6f772d6c6576656c2063616c6c206661696c65648152508573ffffffffffffffffffffffffffffffffffffffff166129ae9092919063ffffffff16565b905060008151111561289d578080602001905181019061285d919061408a565b61289c576040517f08c379a000000000000000000000000000000000000000000000000000000000815260040161289390614129565b60405180910390fd5b5b505050565b6000807f7fffffffffffffffffffffffffffffff5d576e7357a4501ddfe92f46681b20a08360001c11156128dd5760006003915091506129a5565b601b8560ff16141580156128f55750601c8560ff1614155b156129075760006004915091506129a5565b60006001878787876040516000815260200160405260405161292c9493929190614174565b6020604051602081039080840390855afa15801561294e573d6000803e3d6000fd5b505050602060405103519050600073ffffffffffffffffffffffffffffffffffffffff168173ffffffffffffffffffffffffffffffffffffffff160361299c576000600192509250506129a5565b80600092509250505b94509492505050565b60606129bd84846000856129c6565b90509392505050565b606082471015612a0b576040517f08c379a0000000000000000000000000000000000000000000000000000000008152600401612a029061422b565b60405180910390fd5b612a1485612ada565b612a53576040517f08c379a0000000000000000000000000000000000000000000000000000000008152600401612a4a90614297565b60405180910390fd5b6000808673ffffffffffffffffffffffffffffffffffffffff168587604051612a7c9190614326565b60006040518083038185875af1925050503d8060008114612ab9576040519150601f19603f3d011682016040523d82523d6000602084013e612abe565b606091505b5091509150612ace828286612afd565b92505050949350505050565b6000808273ffffffffffffffffffffffffffffffffffffffff163b119050919050565b60608315612b0d57829050612b5d565b600083511115612b205782518084602001fd5b816040517f08c379a0000000000000000000000000000000000000000000000000000000008152600401612b549190614381565b60405180910390fd5b9392505050565b6000604051905090565b600080fd5b600080fd5b600073ffffffffffffffffffffffffffffffffffffffff82169050919050565b6000612ba382612b78565b9050919050565b612bb381612b98565b8114612bbe57600080fd5b50565b600081359050612bd081612baa565b92915050565b60006fffffffffffffffffffffffffffffffff82169050919050565b612bfb81612bd6565b8114612c0657600080fd5b50565b600081359050612c1881612bf2565b92915050565b600080600060608486031215612c3757612c36612b6e565b5b6000612c4586828701612bc1565b9350506020612c5686828701612bc1565b9250506040612c6786828701612c09565b9150509250925092565b612c7a81612bd6565b82525050565b6000602082019050612c956000830184612c71565b92915050565b600060208284031215612cb157612cb0612b6e565b5b6000612cbf84828501612bc1565b91505092915050565b6000819050919050565b612cdb81612cc8565b8114612ce657600080fd5b50565b600081359050612cf881612cd2565b92915050565b60008060008060808587031215612d1857612d17612b6e565b5b6000612d2687828801612bc1565b9450506020612d3787828801612bc1565b9350506040612d4887828801612ce9565b9250506060612d5987828801612c09565b91505092959194509250565b600080600060608486031215612d7e57612d7d612b6e565b5b6000612d8c86828701612bc1565b9350506020612d9d86828701612bc1565b9250506040612dae86828701612ce9565b9150509250925092565b600060208284031215612dce57612dcd612b6e565b5b6000612ddc84828501612ce9565b91505092915050565b60008115159050919050565b612dfa81612de5565b82525050565b6000602082019050612e156000830184612df1565b92915050565b60008060408385031215612e3257612e31612b6e565b5b6000612e4085828601612bc1565b9250506020612e5185828601612bc1565b9150509250929050565b600080fd5b600080fd5b6000601f19601f8301169050919050565b7f4e487b7100000000000000000000000000000000000000000000000000000000600052604160045260246000fd5b612eae82612e65565b810181811067ffffffffffffffff82111715612ecd57612ecc612e76565b5b80604052505050565b6000612ee0612b64565b9050612eec8282612ea5565b919050565b600067ffffffffffffffff821115612f0c57612f0b612e76565b5b612f1582612e65565b9050602081019050919050565b82818337600083830152505050565b6000612f44612f3f84612ef1565b612ed6565b905082815260208101848484011115612f6057612f5f612e60565b5b612f6b848285612f22565b509392505050565b600082601f830112612f8857612f87612e5b565b5b8135612f98848260208601612f31565b91505092915050565b600080600060608486031215612fba57612fb9612b6e565b5b600084013567ffffffffffffffff811115612fd857612fd7612b73565b5b612fe486828701612f73565b9350506020612ff586828701612bc1565b925050604061300686828701612ce9565b9150509250925092565b61301981612cc8565b82525050565b60006020820190506130346000830184613010565b92915050565b600061304582612b78565b9050919050565b6130558161303a565b811461306057600080fd5b50565b6000813590506130728161304c565b92915050565b60006020828403121561308e5761308d612b6e565b5b600061309c84828501613063565b91505092915050565b6130ae81612b98565b82525050565b60006020820190506130c960008301846130a5565b92915050565b600082825260208201905092915050565b7f6d73672e73656e646572206d75737420626520666565436f6e74726f6c6c657260008201527f2e00000000000000000000000000000000000000000000000000000000000000602082015250565b600061313c6021836130cf565b9150613147826130e0565b604082019050919050565b6000602082019050818103600083015261316b8161312f565b9050919050565b7f596f752063616e6e6f7420726564756365206d6f7265207468616e207468652060008201527f63757272656e74206665652e0000000000000000000000000000000000000000602082015250565b60006131ce602c836130cf565b91506131d982613172565b604082019050919050565b600060208201905081810360008301526131fd816131c1565b9050919050565b7f4e487b7100000000000000000000000000000000000000000000000000000000600052601160045260246000fd5b600061323e82612bd6565b915061324983612bd6565b92508282101561325c5761325b613204565b5b828203905092915050565b7f596f7520616c726561647920686176652072656769737465726564206120726560008201527f63697069656e7420616464726573730000000000000000000000000000000000602082015250565b60006132c3602f836130cf565b91506132ce82613267565b604082019050919050565b600060208201905081810360008301526132f2816132b6565b9050919050565b7f4f6e6c7920746865207472616e73666572657220636f6e74726163742063616e60008201527f206c6f672066756e64732e000000000000000000000000000000000000000000602082015250565b6000613355602b836130cf565b9150613360826132f9565b604082019050919050565b6000602082019050818103600083015261338481613348565b9050919050565b600061339682612bd6565b91506133a183612bd6565b9250826fffffffffffffffffffffffffffffffff038211156133c6576133c5613204565b5b828201905092915050565b7f46756e6374696f6e2063616c6c6572206973206e6f7420616e20617574686f7260008201527f697a656420726563697069656e74416464726573732e00000000000000000000602082015250565b600061342d6036836130cf565b9150613438826133d1565b604082019050919050565b6000602082019050818103600083015261345c81613420565b9050919050565b7f546865207661756c74206973206e6f74206120746f6b656e2061646472657373600082015250565b60006134996020836130cf565b91506134a482613463565b602082019050919050565b600060208201905081810360008301526134c88161348c565b9050919050565b7f496e73756666696369656e74207769746864726177616c20616c6c6f77616e6360008201527f652e000000000000000000000000000000000000000000000000000000000000602082015250565b600061352b6022836130cf565b9150613536826134cf565b604082019050919050565b6000602082019050818103600083015261355a8161351e565b9050919050565b7f496e73756666696369656e74207061796d656e742e0000000000000000000000600082015250565b60006135976015836130cf565b91506135a282613561565b602082019050919050565b600060208201905081810360008301526135c68161358a565b9050919050565b60006060820190506135e260008301866130a5565b6135ef60208301856130a5565b6135fc6040830184613010565b949350505050565b7f43616e6e6f74207769746864726177206d6f7265207468616e2074686520616d60008201527f6f756e7420696e2074686520636f6e74726163742e0000000000000000000000602082015250565b60006136606035836130cf565b915061366b82613604565b604082019050919050565b6000602082019050818103600083015261368f81613653565b9050919050565b600081905092915050565b50565b60006136b1600083613696565b91506136bc826136a1565b600082019050919050565b60006136d2826136a4565b9150819050919050565b7f5472616e73666572206661696c65640000000000000000000000000000000000600082015250565b6000613712600f836130cf565b915061371d826136dc565b602082019050919050565b6000602082019050818103600083015261374181613705565b9050919050565b60008160601b9050919050565b600061376082613748565b9050919050565b600061377282613755565b9050919050565b61378a61378582612b98565b613767565b82525050565b6000819050919050565b6137ab6137a682612cc8565b613790565b82525050565b60006137bd8288613779565b6014820191506137cd8287613779565b6014820191506137dd828661379a565b6020820191506137ed8285613779565b6014820191506137fd828461379a565b6020820191508190509695505050505050565b7f496e76616c6964207369676e61747572652e205369676e617475726520736f7560008201527f726365206d617920626520696e636f72726563742c206f7220612070726f766960208201527f64656420706172616d6574657220697320696e76616c69640000000000000000604082015250565b60006138926058836130cf565b915061389d82613810565b606082019050919050565b600060208201905081810360008301526138c181613885565b9050919050565b7f5369676e61747572652065787069726564000000000000000000000000000000600082015250565b60006138fe6011836130cf565b9150613909826138c8565b602082019050919050565b6000602082019050818103600083015261392d816138f1565b9050919050565b7f416c726561647920757365642074686973207369676e61747572650000000000600082015250565b600061396a601b836130cf565b915061397582613934565b602082019050919050565b600060208201905081810360008301526139998161395d565b9050919050565b7f4e6f207769746864726177616c20616c6c6f77616e63652e0000000000000000600082015250565b60006139d66018836130cf565b91506139e1826139a0565b602082019050919050565b60006020820190508181036000830152613a05816139c9565b9050919050565b7f6d73672e73656e646572206d757374206265207468652063757272656e74206660008201527f6565436f6e74726f6c6c65722e00000000000000000000000000000000000000602082015250565b6000613a68602d836130cf565b9150613a7382613a0c565b604082019050919050565b60006020820190508181036000830152613a9781613a5b565b9050919050565b7f5375626d697420612074696d656c6f636b2072657175657374206265666f726560008201527f2063616c6c696e6720746869732066756e6374696f6e2e000000000000000000602082015250565b6000613afa6037836130cf565b9150613b0582613a9e565b604082019050919050565b60006020820190508181036000830152613b2981613aed565b9050919050565b6000613b3b82612cc8565b9150613b4683612cc8565b9250827fffffffffffffffffffffffffffffffffffffffffffffffffffffffffffffffff03821115613b7b57613b7a613204565b5b828201905092915050565b7f52657175657374206d757374207061737320612074776f2d7765656b2074696d60008201527f656c6f636b2e0000000000000000000000000000000000000000000000000000602082015250565b6000613be26026836130cf565b9150613bed82613b86565b604082019050919050565b60006020820190508181036000830152613c1181613bd5565b9050919050565b7f5265717565737420657870697265642e205265717565737473206d757374206f60008201527f636375722077697468696e20323420686f757273206f66206120636f6d706c6560208201527f7465642074696d656c6f636b2e00000000000000000000000000000000000000604082015250565b6000613c9a604d836130cf565b9150613ca582613c18565b606082019050919050565b60006020820190508181036000830152613cc981613c8d565b9050919050565b7f53616665436173743a2076616c756520646f65736e27742066697420696e203160008201527f3238206269747300000000000000000000000000000000000000000000000000602082015250565b6000613d2c6027836130cf565b9150613d3782613cd0565b604082019050919050565b60006020820190508181036000830152613d5b81613d1f565b9050919050565b600081905092915050565b7f19457468657265756d205369676e6564204d6573736167653a0a333200000000600082015250565b6000613da3601c83613d62565b9150613dae82613d6d565b601c82019050919050565b6000819050919050565b6000819050919050565b613dde613dd982613db9565b613dc3565b82525050565b6000613def82613d96565b9150613dfb8284613dcd565b60208201915081905092915050565b6000604082019050613e1f60008301856130a5565b613e2c6020830184613010565b9392505050565b7f4e487b7100000000000000000000000000000000000000000000000000000000600052602160045260246000fd5b7f45434453413a20696e76616c6964207369676e61747572650000000000000000600082015250565b6000613e986018836130cf565b9150613ea382613e62565b602082019050919050565b60006020820190508181036000830152613ec781613e8b565b9050919050565b7f45434453413a20696e76616c6964207369676e6174757265206c656e67746800600082015250565b6000613f04601f836130cf565b9150613f0f82613ece565b602082019050919050565b60006020820190508181036000830152613f3381613ef7565b9050919050565b7f45434453413a20696e76616c6964207369676e6174757265202773272076616c60008201527f7565000000000000000000000000000000000000000000000000000000000000602082015250565b6000613f966022836130cf565b9150613fa182613f3a565b604082019050919050565b60006020820190508181036000830152613fc581613f89565b9050919050565b7f45434453413a20696e76616c6964207369676e6174757265202776272076616c60008201527f7565000000000000000000000000000000000000000000000000000000000000602082015250565b60006140286022836130cf565b915061403382613fcc565b604082019050919050565b600060208201905081810360008301526140578161401b565b9050919050565b61406781612de5565b811461407257600080fd5b50565b6000815190506140848161405e565b92915050565b6000602082840312156140a05761409f612b6e565b5b60006140ae84828501614075565b91505092915050565b7f5361666545524332303a204552433230206f7065726174696f6e20646964206e60008201527f6f74207375636365656400000000000000000000000000000000000000000000602082015250565b6000614113602a836130cf565b915061411e826140b7565b604082019050919050565b6000602082019050818103600083015261414281614106565b9050919050565b61415281613db9565b82525050565b600060ff82169050919050565b61416e81614158565b82525050565b60006080820190506141896000830187614149565b6141966020830186614165565b6141a36040830185614149565b6141b06060830184614149565b95945050505050565b7f416464726573733a20696e73756666696369656e742062616c616e636520666f60008201527f722063616c6c0000000000000000000000000000000000000000000000000000602082015250565b60006142156026836130cf565b9150614220826141b9565b604082019050919050565b6000602082019050818103600083015261424481614208565b9050919050565b7f416464726573733a2063616c6c20746f206e6f6e2d636f6e7472616374000000600082015250565b6000614281601d836130cf565b915061428c8261424b565b602082019050919050565b600060208201905081810360008301526142b081614274565b9050919050565b600081519050919050565b60005b838110156142e05780820151818401526020810190506142c5565b838111156142ef576000848401525b50505050565b6000614300826142b7565b61430a8185613696565b935061431a8185602086016142c2565b80840191505092915050565b600061433282846142f5565b915081905092915050565b600081519050919050565b60006143538261433d565b61435d81856130cf565b935061436d8185602086016142c2565b61437681612e65565b840191505092915050565b6000602082019050818103600083015261439b8184614348565b90509291505056fea26469706673582212207e1765409d3fb49ded94d2555caec1a9a8e90c1005b9750645d95d89e16eae6264736f6c634300080d0033",
  "linkReferences": {},
  "deployedLinkReferences": {}
}