{
  "_format": "hh-sol-artifact-1",
  "contractName": "Vault",
  "sourceName": "contracts/Vault.sol",
  "abi": [
    {
      "inputs": [
        {
          "internalType": "address",
          "name": "_transferer",
          "type": "address"
        },
        {
          "internalType": "address",
          "name": "_serverSigner",
          "type": "address"
        },
        {
          "internalType": "address payable",
          "name": "_feeController",
          "type": "address"
        }
      ],
      "stateMutability": "nonpayable",
      "type": "constructor"
    },
    {
      "inputs": [
        {
          "internalType": "address",
          "name": "_originalAddress",
          "type": "address"
        },
        {
          "internalType": "address",
          "name": "_erc20Address",
          "type": "address"
        }
      ],
      "name": "canWithdrawERC20",
      "outputs": [
        {
          "internalType": "uint256",
          "name": "",
          "type": "uint256"
        }
      ],
      "stateMutability": "view",
      "type": "function"
    },
    {
      "inputs": [
        {
          "internalType": "address",
          "name": "_originalAddress",
          "type": "address"
        },
        {
          "internalType": "address",
          "name": "_erc721Address",
          "type": "address"
        },
        {
          "internalType": "uint256",
          "name": "_id",
          "type": "uint256"
        }
      ],
      "name": "canWithdrawERC721",
      "outputs": [
        {
          "internalType": "bool",
          "name": "",
          "type": "bool"
        }
      ],
      "stateMutability": "view",
      "type": "function"
    },
    {
      "inputs": [
        {
          "internalType": "address payable",
          "name": "_newFeeController",
          "type": "address"
        }
      ],
      "name": "changeFeeController",
      "outputs": [],
      "stateMutability": "nonpayable",
      "type": "function"
    },
    {
      "inputs": [
        {
          "internalType": "bytes32",
          "name": "_data",
          "type": "bytes32"
        },
        {
          "internalType": "bytes",
          "name": "_signature",
          "type": "bytes"
        },
        {
          "internalType": "address",
          "name": "_newRecipientAddress",
          "type": "address"
        },
        {
          "internalType": "uint256",
          "name": "expiry",
          "type": "uint256"
        }
      ],
      "name": "changeRecipientAddress",
      "outputs": [],
      "stateMutability": "nonpayable",
      "type": "function"
    },
    {
      "inputs": [
        {
          "internalType": "address",
          "name": "_originalAddress",
          "type": "address"
        },
        {
          "internalType": "address",
          "name": "_erc20Address",
          "type": "address"
        }
      ],
      "name": "erc20Fee",
      "outputs": [
        {
          "internalType": "uint128",
          "name": "",
          "type": "uint128"
        }
      ],
      "stateMutability": "view",
      "type": "function"
    },
    {
      "inputs": [
        {
          "internalType": "address",
          "name": "_originalAddress",
          "type": "address"
        },
        {
          "internalType": "address",
          "name": "_erc721Address",
          "type": "address"
        },
        {
          "internalType": "uint256",
          "name": "_id",
          "type": "uint256"
        }
      ],
      "name": "erc721Fee",
      "outputs": [
        {
          "internalType": "uint128",
          "name": "",
          "type": "uint128"
        }
      ],
      "stateMutability": "view",
      "type": "function"
    },
    {
      "inputs": [
        {
          "internalType": "address",
          "name": "_originalAddress",
          "type": "address"
        },
        {
          "internalType": "address",
          "name": "_erc20Address",
          "type": "address"
        },
        {
          "internalType": "uint256",
          "name": "_amount",
          "type": "uint256"
        },
        {
          "internalType": "uint128",
          "name": "_fee",
          "type": "uint128"
        }
      ],
      "name": "logIncomingERC20",
      "outputs": [],
      "stateMutability": "nonpayable",
      "type": "function"
    },
    {
      "inputs": [
        {
          "internalType": "address",
          "name": "_originalAddress",
          "type": "address"
        },
        {
          "internalType": "address",
          "name": "_erc721Address",
          "type": "address"
        },
        {
          "internalType": "uint256",
          "name": "_id",
          "type": "uint256"
        },
        {
          "internalType": "uint128",
          "name": "_fee",
          "type": "uint128"
        }
      ],
      "name": "logIncomingERC721",
      "outputs": [],
      "stateMutability": "nonpayable",
      "type": "function"
    },
    {
      "inputs": [
        {
          "internalType": "address",
          "name": "_originalAddress",
          "type": "address"
        },
        {
          "internalType": "address",
          "name": "_erc20Address",
          "type": "address"
        },
        {
          "internalType": "uint128",
          "name": "_reduceBy",
          "type": "uint128"
        }
      ],
      "name": "reduceERC20Fee",
      "outputs": [
        {
          "internalType": "uint128",
          "name": "",
          "type": "uint128"
        }
      ],
      "stateMutability": "nonpayable",
      "type": "function"
    },
    {
      "inputs": [
        {
          "internalType": "address",
          "name": "_originalAddress",
          "type": "address"
        },
        {
          "internalType": "address",
          "name": "_erc721Address",
          "type": "address"
        },
        {
          "internalType": "uint128",
          "name": "_id",
          "type": "uint128"
        },
        {
          "internalType": "uint128",
          "name": "_reduceBy",
          "type": "uint128"
        }
      ],
      "name": "reduceERC721Fee",
      "outputs": [
        {
          "internalType": "uint128",
          "name": "",
          "type": "uint128"
        }
      ],
      "stateMutability": "nonpayable",
      "type": "function"
    },
    {
      "inputs": [
        {
          "internalType": "address",
          "name": "_recipient",
          "type": "address"
        }
      ],
      "name": "setupRecipientAddress",
      "outputs": [],
      "stateMutability": "nonpayable",
      "type": "function"
    },
    {
      "inputs": [
        {
          "internalType": "address",
          "name": "_originalAddress",
          "type": "address"
        }
      ],
      "name": "viewRecipientAddress",
      "outputs": [
        {
          "internalType": "address",
          "name": "",
          "type": "address"
        }
      ],
      "stateMutability": "view",
      "type": "function"
    },
    {
      "inputs": [
        {
          "internalType": "address",
          "name": "_originalAddress",
          "type": "address"
        },
        {
          "internalType": "address",
          "name": "_erc20Address",
          "type": "address"
        }
      ],
      "name": "withdrawERC20",
      "outputs": [],
      "stateMutability": "payable",
      "type": "function"
    },
    {
      "inputs": [
        {
          "internalType": "address",
          "name": "_originalAddress",
          "type": "address"
        },
        {
          "internalType": "address",
          "name": "_erc721Address",
          "type": "address"
        },
        {
          "internalType": "uint256",
          "name": "_id",
          "type": "uint256"
        }
      ],
      "name": "withdrawERC721",
      "outputs": [],
      "stateMutability": "payable",
      "type": "function"
    },
    {
      "inputs": [
        {
          "internalType": "uint256",
          "name": "_amount",
          "type": "uint256"
        }
      ],
      "name": "withdrawPayments",
      "outputs": [],
      "stateMutability": "nonpayable",
      "type": "function"
    }
  ],
  "bytecode": "0x60c06040523480156200001157600080fd5b5060405162003f5238038062003f52833981810160405281019062000037919062000197565b8273ffffffffffffffffffffffffffffffffffffffff1660808173ffffffffffffffffffffffffffffffffffffffff16815250508173ffffffffffffffffffffffffffffffffffffffff1660a08173ffffffffffffffffffffffffffffffffffffffff1681525050806000806101000a81548173ffffffffffffffffffffffffffffffffffffffff021916908373ffffffffffffffffffffffffffffffffffffffff160217905550505050620001f3565b600080fd5b600073ffffffffffffffffffffffffffffffffffffffff82169050919050565b60006200011a82620000ed565b9050919050565b6200012c816200010d565b81146200013857600080fd5b50565b6000815190506200014c8162000121565b92915050565b60006200015f82620000ed565b9050919050565b620001718162000152565b81146200017d57600080fd5b50565b600081519050620001918162000166565b92915050565b600080600060608486031215620001b357620001b2620000e8565b5b6000620001c3868287016200013b565b9350506020620001d6868287016200013b565b9250506040620001e98682870162000180565b9150509250925092565b60805160a051613d3262000220600039600061102901526000818161082f0152611e350152613d326000f3fe6080604052600436106100e85760003560e01c80634fbcae611161008a5780639456fbcc116100595780639456fbcc1461031b578063c5b2ae7a14610337578063d9ce6ae714610360578063f574e2b61461039d576100e8565b80634fbcae611461022757806377d955b51461026457806379386cc8146102a157806390ffaa2a146102de576100e8565b80634025feb2116100c65780634025feb21461017c57806341975af8146101985780634aaaa6d5146101c15780634f4a7e70146101ea576100e8565b806309c0e14f146100ed5780630ca931711461012a5780633d602dbe14610153575b600080fd5b3480156100f957600080fd5b50610114600480360381019061010f919061282d565b6103c6565b604051610121919061288f565b60405180910390f35b34801561013657600080fd5b50610151600480360381019061014c91906128aa565b6106de565b005b34801561015f57600080fd5b5061017a6004803603810190610175919061290d565b61082d565b005b61019660048036038101906101919190612974565b610a81565b005b3480156101a457600080fd5b506101bf60048036038101906101ba91906129c7565b610eec565b005b3480156101cd57600080fd5b506101e860048036038101906101e39190612b70565b611027565b005b3480156101f657600080fd5b50610211600480360381019061020c9190612974565b611295565b60405161021e9190612c0e565b60405180910390f35b34801561023357600080fd5b5061024e60048036038101906102499190612c29565b61133e565b60405161025b919061288f565b60405180910390f35b34801561027057600080fd5b5061028b60048036038101906102869190612c69565b6113e4565b604051610298919061288f565b60405180910390f35b3480156102ad57600080fd5b506102c860048036038101906102c39190612974565b611766565b6040516102d5919061288f565b60405180910390f35b3480156102ea57600080fd5b5061030560048036038101906103009190612c29565b61181e565b6040516103129190612cdf565b60405180910390f35b61033560048036038101906103309190612c29565b6118d6565b005b34801561034357600080fd5b5061035e60048036038101906103599190612d38565b611cf9565b005b34801561036c57600080fd5b50610387600480360381019061038291906128aa565b611dca565b6040516103949190612d74565b60405180910390f35b3480156103a957600080fd5b506103c460048036038101906103bf919061290d565b611e33565b005b60008060009054906101000a900473ffffffffffffffffffffffffffffffffffffffff1673ffffffffffffffffffffffffffffffffffffffff163373ffffffffffffffffffffffffffffffffffffffff1614610457576040517f08c379a000000000000000000000000000000000000000000000000000000000815260040161044e90612e12565b60405180910390fd5b816fffffffffffffffffffffffffffffffff16600260008673ffffffffffffffffffffffffffffffffffffffff1673ffffffffffffffffffffffffffffffffffffffff16815260200190815260200160002060008573ffffffffffffffffffffffffffffffffffffffff1673ffffffffffffffffffffffffffffffffffffffff16815260200190815260200160002060000160109054906101000a90046fffffffffffffffffffffffffffffffff166fffffffffffffffffffffffffffffffff161015610559576040517f08c379a000000000000000000000000000000000000000000000000000000000815260040161055090612ea4565b60405180910390fd5b81600260008673ffffffffffffffffffffffffffffffffffffffff1673ffffffffffffffffffffffffffffffffffffffff16815260200190815260200160002060008573ffffffffffffffffffffffffffffffffffffffff1673ffffffffffffffffffffffffffffffffffffffff16815260200190815260200160002060000160108282829054906101000a90046fffffffffffffffffffffffffffffffff166106039190612ef3565b92506101000a8154816fffffffffffffffffffffffffffffffff02191690836fffffffffffffffffffffffffffffffff160217905550600260008573ffffffffffffffffffffffffffffffffffffffff1673ffffffffffffffffffffffffffffffffffffffff16815260200190815260200160002060008473ffffffffffffffffffffffffffffffffffffffff1673ffffffffffffffffffffffffffffffffffffffff16815260200190815260200160002060000160109054906101000a90046fffffffffffffffffffffffffffffffff1690509392505050565b600073ffffffffffffffffffffffffffffffffffffffff16600160003373ffffffffffffffffffffffffffffffffffffffff1673ffffffffffffffffffffffffffffffffffffffff16815260200190815260200160002060009054906101000a900473ffffffffffffffffffffffffffffffffffffffff1673ffffffffffffffffffffffffffffffffffffffff16146107ac576040517f08c379a00000000000000000000000000000000000000000000000000000000081526004016107a390612f99565b60405180910390fd5b80600160003373ffffffffffffffffffffffffffffffffffffffff1673ffffffffffffffffffffffffffffffffffffffff16815260200190815260200160002060006101000a81548173ffffffffffffffffffffffffffffffffffffffff021916908373ffffffffffffffffffffffffffffffffffffffff16021790555050565b7f000000000000000000000000000000000000000000000000000000000000000073ffffffffffffffffffffffffffffffffffffffff163373ffffffffffffffffffffffffffffffffffffffff16146108bb576040517f08c379a00000000000000000000000000000000000000000000000000000000081526004016108b29061302b565b60405180910390fd5b80600260008673ffffffffffffffffffffffffffffffffffffffff1673ffffffffffffffffffffffffffffffffffffffff16815260200190815260200160002060008573ffffffffffffffffffffffffffffffffffffffff1673ffffffffffffffffffffffffffffffffffffffff16815260200190815260200160002060000160108282829054906101000a90046fffffffffffffffffffffffffffffffff16610965919061304b565b92506101000a8154816fffffffffffffffffffffffffffffffff02191690836fffffffffffffffffffffffffffffffff16021790555081600260008673ffffffffffffffffffffffffffffffffffffffff1673ffffffffffffffffffffffffffffffffffffffff16815260200190815260200160002060008573ffffffffffffffffffffffffffffffffffffffff1673ffffffffffffffffffffffffffffffffffffffff16815260200190815260200160002060000160008282829054906101000a90046fffffffffffffffffffffffffffffffff16610a45919061304b565b92506101000a8154816fffffffffffffffffffffffffffffffff02191690836fffffffffffffffffffffffffffffffff16021790555050505050565b3373ffffffffffffffffffffffffffffffffffffffff16600160008573ffffffffffffffffffffffffffffffffffffffff1673ffffffffffffffffffffffffffffffffffffffff16815260200190815260200160002060009054906101000a900473ffffffffffffffffffffffffffffffffffffffff1673ffffffffffffffffffffffffffffffffffffffff1614610b4e576040517f08c379a0000000000000000000000000000000000000000000000000000000008152600401610b4590613103565b60405180910390fd5b3073ffffffffffffffffffffffffffffffffffffffff168273ffffffffffffffffffffffffffffffffffffffff1603610bbc576040517f08c379a0000000000000000000000000000000000000000000000000000000008152600401610bb39061316f565b60405180910390fd5b610bc7838383611295565b610c06576040517f08c379a0000000000000000000000000000000000000000000000000000000008152600401610bfd90613201565b60405180910390fd5b600360008473ffffffffffffffffffffffffffffffffffffffff1673ffffffffffffffffffffffffffffffffffffffff16815260200190815260200160002060008373ffffffffffffffffffffffffffffffffffffffff1673ffffffffffffffffffffffffffffffffffffffff168152602001908152602001600020600082815260200190815260200160002060000160019054906101000a90046fffffffffffffffffffffffffffffffff166fffffffffffffffffffffffffffffffff16341015610d07576040517f08c379a0000000000000000000000000000000000000000000000000000000008152600401610cfe9061326d565b60405180910390fd5b6000600360008573ffffffffffffffffffffffffffffffffffffffff1673ffffffffffffffffffffffffffffffffffffffff16815260200190815260200160002060008473ffffffffffffffffffffffffffffffffffffffff1673ffffffffffffffffffffffffffffffffffffffff168152602001908152602001600020600083815260200190815260200160002060000160006101000a81548160ff0219169083151502179055506000600360008573ffffffffffffffffffffffffffffffffffffffff1673ffffffffffffffffffffffffffffffffffffffff16815260200190815260200160002060008473ffffffffffffffffffffffffffffffffffffffff1673ffffffffffffffffffffffffffffffffffffffff168152602001908152602001600020600083815260200190815260200160002060000160016101000a8154816fffffffffffffffffffffffffffffffff02191690836fffffffffffffffffffffffffffffffff1602179055508173ffffffffffffffffffffffffffffffffffffffff166323b872dd3033846040518463ffffffff1660e01b8152600401610eb59392919061328d565b600060405180830381600087803b158015610ecf57600080fd5b505af1158015610ee3573d6000803e3d6000fd5b50505050505050565b60008054906101000a900473ffffffffffffffffffffffffffffffffffffffff1673ffffffffffffffffffffffffffffffffffffffff163373ffffffffffffffffffffffffffffffffffffffff1614610f7a576040517f08c379a0000000000000000000000000000000000000000000000000000000008152600401610f7190612e12565b60405180910390fd5b80471015610fbd576040517f08c379a0000000000000000000000000000000000000000000000000000000008152600401610fb490613336565b60405180910390fd5b60008054906101000a900473ffffffffffffffffffffffffffffffffffffffff1673ffffffffffffffffffffffffffffffffffffffff166108fc829081150290604051600060405180830381858888f19350505050158015611023573d6000803e3d6000fd5b5050565b7f000000000000000000000000000000000000000000000000000000000000000073ffffffffffffffffffffffffffffffffffffffff166110798461106b87612061565b61209190919063ffffffff16565b73ffffffffffffffffffffffffffffffffffffffff16146110cf576040517f08c379a00000000000000000000000000000000000000000000000000000000081526004016110c6906133c8565b60405180910390fd5b600015156004600086815260200190815260200160002060009054906101000a900460ff16151514611136576040517f08c379a000000000000000000000000000000000000000000000000000000000815260040161112d90613434565b60405180910390fd5b8333838360405160200161114c939291906134bd565b60405160208183030381529060405280519060200120146111a2576040517f08c379a00000000000000000000000000000000000000000000000000000000081526004016111999061356c565b60405180910390fd5b804211156111e5576040517f08c379a00000000000000000000000000000000000000000000000000000000081526004016111dc906135d8565b60405180910390fd5b60016004600086815260200190815260200160002060006101000a81548160ff02191690831515021790555081600160003373ffffffffffffffffffffffffffffffffffffffff1673ffffffffffffffffffffffffffffffffffffffff16815260200190815260200160002060006101000a81548173ffffffffffffffffffffffffffffffffffffffff021916908373ffffffffffffffffffffffffffffffffffffffff16021790555050505050565b6000600360008573ffffffffffffffffffffffffffffffffffffffff1673ffffffffffffffffffffffffffffffffffffffff16815260200190815260200160002060008473ffffffffffffffffffffffffffffffffffffffff1673ffffffffffffffffffffffffffffffffffffffff168152602001908152602001600020600083815260200190815260200160002060000160009054906101000a900460ff1690509392505050565b6000600260008473ffffffffffffffffffffffffffffffffffffffff1673ffffffffffffffffffffffffffffffffffffffff16815260200190815260200160002060008373ffffffffffffffffffffffffffffffffffffffff1673ffffffffffffffffffffffffffffffffffffffff16815260200190815260200160002060000160109054906101000a90046fffffffffffffffffffffffffffffffff16905092915050565b60008060009054906101000a900473ffffffffffffffffffffffffffffffffffffffff1673ffffffffffffffffffffffffffffffffffffffff163373ffffffffffffffffffffffffffffffffffffffff1614611475576040517f08c379a000000000000000000000000000000000000000000000000000000000815260040161146c90612e12565b60405180910390fd5b816fffffffffffffffffffffffffffffffff16600360008773ffffffffffffffffffffffffffffffffffffffff1673ffffffffffffffffffffffffffffffffffffffff16815260200190815260200160002060008673ffffffffffffffffffffffffffffffffffffffff1673ffffffffffffffffffffffffffffffffffffffff1681526020019081526020016000206000856fffffffffffffffffffffffffffffffff16815260200190815260200160002060000160019054906101000a90046fffffffffffffffffffffffffffffffff166fffffffffffffffffffffffffffffffff16101561159a576040517f08c379a000000000000000000000000000000000000000000000000000000000815260040161159190612ea4565b60405180910390fd5b81600360008773ffffffffffffffffffffffffffffffffffffffff1673ffffffffffffffffffffffffffffffffffffffff16815260200190815260200160002060008673ffffffffffffffffffffffffffffffffffffffff1673ffffffffffffffffffffffffffffffffffffffff1681526020019081526020016000206000856fffffffffffffffffffffffffffffffff16815260200190815260200160002060000160018282829054906101000a90046fffffffffffffffffffffffffffffffff166116679190612ef3565b92506101000a8154816fffffffffffffffffffffffffffffffff02191690836fffffffffffffffffffffffffffffffff160217905550600360008673ffffffffffffffffffffffffffffffffffffffff1673ffffffffffffffffffffffffffffffffffffffff16815260200190815260200160002060008573ffffffffffffffffffffffffffffffffffffffff1673ffffffffffffffffffffffffffffffffffffffff1681526020019081526020016000206000846fffffffffffffffffffffffffffffffff16815260200190815260200160002060000160019054906101000a90046fffffffffffffffffffffffffffffffff169050949350505050565b6000600360008573ffffffffffffffffffffffffffffffffffffffff1673ffffffffffffffffffffffffffffffffffffffff16815260200190815260200160002060008473ffffffffffffffffffffffffffffffffffffffff1673ffffffffffffffffffffffffffffffffffffffff168152602001908152602001600020600083815260200190815260200160002060000160019054906101000a90046fffffffffffffffffffffffffffffffff1690509392505050565b6000600260008473ffffffffffffffffffffffffffffffffffffffff1673ffffffffffffffffffffffffffffffffffffffff16815260200190815260200160002060008373ffffffffffffffffffffffffffffffffffffffff1673ffffffffffffffffffffffffffffffffffffffff16815260200190815260200160002060000160009054906101000a90046fffffffffffffffffffffffffffffffff166fffffffffffffffffffffffffffffffff16905092915050565b3373ffffffffffffffffffffffffffffffffffffffff16600160008473ffffffffffffffffffffffffffffffffffffffff1673ffffffffffffffffffffffffffffffffffffffff16815260200190815260200160002060009054906101000a900473ffffffffffffffffffffffffffffffffffffffff1673ffffffffffffffffffffffffffffffffffffffff16146119a3576040517f08c379a000000000000000000000000000000000000000000000000000000000815260040161199a90613103565b60405180910390fd5b3073ffffffffffffffffffffffffffffffffffffffff168173ffffffffffffffffffffffffffffffffffffffff1603611a11576040517f08c379a0000000000000000000000000000000000000000000000000000000008152600401611a089061316f565b60405180910390fd5b6000611a1d838361181e565b11611a5d576040517f08c379a0000000000000000000000000000000000000000000000000000000008152600401611a5490613644565b60405180910390fd5b600260008373ffffffffffffffffffffffffffffffffffffffff1673ffffffffffffffffffffffffffffffffffffffff16815260200190815260200160002060008273ffffffffffffffffffffffffffffffffffffffff1673ffffffffffffffffffffffffffffffffffffffff16815260200190815260200160002060000160109054906101000a90046fffffffffffffffffffffffffffffffff166fffffffffffffffffffffffffffffffff16341015611b4d576040517f08c379a0000000000000000000000000000000000000000000000000000000008152600401611b449061326d565b60405180910390fd5b6000611b59838361181e565b90506000600260008573ffffffffffffffffffffffffffffffffffffffff1673ffffffffffffffffffffffffffffffffffffffff16815260200190815260200160002060008473ffffffffffffffffffffffffffffffffffffffff1673ffffffffffffffffffffffffffffffffffffffff16815260200190815260200160002060000160006101000a8154816fffffffffffffffffffffffffffffffff02191690836fffffffffffffffffffffffffffffffff1602179055506000600260008573ffffffffffffffffffffffffffffffffffffffff1673ffffffffffffffffffffffffffffffffffffffff16815260200190815260200160002060008473ffffffffffffffffffffffffffffffffffffffff1673ffffffffffffffffffffffffffffffffffffffff16815260200190815260200160002060000160106101000a8154816fffffffffffffffffffffffffffffffff02191690836fffffffffffffffffffffffffffffffff160217905550611cf433828473ffffffffffffffffffffffffffffffffffffffff166120b89092919063ffffffff16565b505050565b60008054906101000a900473ffffffffffffffffffffffffffffffffffffffff1673ffffffffffffffffffffffffffffffffffffffff163373ffffffffffffffffffffffffffffffffffffffff1614611d87576040517f08c379a0000000000000000000000000000000000000000000000000000000008152600401611d7e90612e12565b60405180910390fd5b806000806101000a81548173ffffffffffffffffffffffffffffffffffffffff021916908373ffffffffffffffffffffffffffffffffffffffff16021790555050565b6000600160008373ffffffffffffffffffffffffffffffffffffffff1673ffffffffffffffffffffffffffffffffffffffff16815260200190815260200160002060009054906101000a900473ffffffffffffffffffffffffffffffffffffffff169050919050565b7f000000000000000000000000000000000000000000000000000000000000000073ffffffffffffffffffffffffffffffffffffffff163373ffffffffffffffffffffffffffffffffffffffff1614611ec1576040517f08c379a0000000000000000000000000000000000000000000000000000000008152600401611eb89061302b565b60405180910390fd5b80600360008673ffffffffffffffffffffffffffffffffffffffff1673ffffffffffffffffffffffffffffffffffffffff16815260200190815260200160002060008573ffffffffffffffffffffffffffffffffffffffff1673ffffffffffffffffffffffffffffffffffffffff168152602001908152602001600020600084815260200190815260200160002060000160018282829054906101000a90046fffffffffffffffffffffffffffffffff16611f7c919061304b565b92506101000a8154816fffffffffffffffffffffffffffffffff02191690836fffffffffffffffffffffffffffffffff1602179055506001600360008673ffffffffffffffffffffffffffffffffffffffff1673ffffffffffffffffffffffffffffffffffffffff16815260200190815260200160002060008573ffffffffffffffffffffffffffffffffffffffff1673ffffffffffffffffffffffffffffffffffffffff168152602001908152602001600020600084815260200190815260200160002060000160006101000a81548160ff02191690831515021790555050505050565b60008160405160200161207491906136dc565b604051602081830303815290604052805190602001209050919050565b60008060006120a0858561213e565b915091506120ad816121bf565b819250505092915050565b6121398363a9059cbb60e01b84846040516024016120d7929190613702565b604051602081830303815290604052907bffffffffffffffffffffffffffffffffffffffffffffffffffffffff19166020820180517bffffffffffffffffffffffffffffffffffffffffffffffffffffffff838183161783525050505061238b565b505050565b600080604183510361217f5760008060006020860151925060408601519150606086015160001a905061217387828585612452565b945094505050506121b8565b60408351036121af5760008060208501519150604085015190506121a486838361255e565b9350935050506121b8565b60006002915091505b9250929050565b600060048111156121d3576121d261372b565b5b8160048111156121e6576121e561372b565b5b03156123885760016004811115612200576121ff61372b565b5b8160048111156122135761221261372b565b5b03612253576040517f08c379a000000000000000000000000000000000000000000000000000000000815260040161224a906137a6565b60405180910390fd5b600260048111156122675761226661372b565b5b81600481111561227a5761227961372b565b5b036122ba576040517f08c379a00000000000000000000000000000000000000000000000000000000081526004016122b190613812565b60405180910390fd5b600360048111156122ce576122cd61372b565b5b8160048111156122e1576122e061372b565b5b03612321576040517f08c379a0000000000000000000000000000000000000000000000000000000008152600401612318906138a4565b60405180910390fd5b6004808111156123345761233361372b565b5b8160048111156123475761234661372b565b5b03612387576040517f08c379a000000000000000000000000000000000000000000000000000000000815260040161237e90613936565b60405180910390fd5b5b50565b60006123ed826040518060400160405280602081526020017f5361666545524332303a206c6f772d6c6576656c2063616c6c206661696c65648152508573ffffffffffffffffffffffffffffffffffffffff166125bd9092919063ffffffff16565b905060008151111561244d578080602001905181019061240d9190613982565b61244c576040517f08c379a000000000000000000000000000000000000000000000000000000000815260040161244390613a21565b60405180910390fd5b5b505050565b6000807f7fffffffffffffffffffffffffffffff5d576e7357a4501ddfe92f46681b20a08360001c111561248d576000600391509150612555565b601b8560ff16141580156124a55750601c8560ff1614155b156124b7576000600491509150612555565b6000600187878787604051600081526020016040526040516124dc9493929190613a6c565b6020604051602081039080840390855afa1580156124fe573d6000803e3d6000fd5b505050602060405103519050600073ffffffffffffffffffffffffffffffffffffffff168173ffffffffffffffffffffffffffffffffffffffff160361254c57600060019250925050612555565b80600092509250505b94509492505050565b60008060007f7fffffffffffffffffffffffffffffffffffffffffffffffffffffffffffffff60001b841690506000601b60ff8660001c901c6125a19190613ab1565b90506125af87828885612452565b935093505050935093915050565b60606125cc84846000856125d5565b90509392505050565b60608247101561261a576040517f08c379a000000000000000000000000000000000000000000000000000000000815260040161261190613b79565b60405180910390fd5b612623856126e9565b612662576040517f08c379a000000000000000000000000000000000000000000000000000000000815260040161265990613be5565b60405180910390fd5b6000808673ffffffffffffffffffffffffffffffffffffffff16858760405161268b9190613c7f565b60006040518083038185875af1925050503d80600081146126c8576040519150601f19603f3d011682016040523d82523d6000602084013e6126cd565b606091505b50915091506126dd82828661270c565b92505050949350505050565b6000808273ffffffffffffffffffffffffffffffffffffffff163b119050919050565b6060831561271c5782905061276c565b60008351111561272f5782518084602001fd5b816040517f08c379a00000000000000000000000000000000000000000000000000000000081526004016127639190613cda565b60405180910390fd5b9392505050565b6000604051905090565b600080fd5b600080fd5b600073ffffffffffffffffffffffffffffffffffffffff82169050919050565b60006127b282612787565b9050919050565b6127c2816127a7565b81146127cd57600080fd5b50565b6000813590506127df816127b9565b92915050565b60006fffffffffffffffffffffffffffffffff82169050919050565b61280a816127e5565b811461281557600080fd5b50565b60008135905061282781612801565b92915050565b6000806000606084860312156128465761284561277d565b5b6000612854868287016127d0565b9350506020612865868287016127d0565b925050604061287686828701612818565b9150509250925092565b612889816127e5565b82525050565b60006020820190506128a46000830184612880565b92915050565b6000602082840312156128c0576128bf61277d565b5b60006128ce848285016127d0565b91505092915050565b6000819050919050565b6128ea816128d7565b81146128f557600080fd5b50565b600081359050612907816128e1565b92915050565b600080600080608085870312156129275761292661277d565b5b6000612935878288016127d0565b9450506020612946878288016127d0565b9350506040612957878288016128f8565b925050606061296887828801612818565b91505092959194509250565b60008060006060848603121561298d5761298c61277d565b5b600061299b868287016127d0565b93505060206129ac868287016127d0565b92505060406129bd868287016128f8565b9150509250925092565b6000602082840312156129dd576129dc61277d565b5b60006129eb848285016128f8565b91505092915050565b6000819050919050565b612a07816129f4565b8114612a1257600080fd5b50565b600081359050612a24816129fe565b92915050565b600080fd5b600080fd5b6000601f19601f8301169050919050565b7f4e487b7100000000000000000000000000000000000000000000000000000000600052604160045260246000fd5b612a7d82612a34565b810181811067ffffffffffffffff82111715612a9c57612a9b612a45565b5b80604052505050565b6000612aaf612773565b9050612abb8282612a74565b919050565b600067ffffffffffffffff821115612adb57612ada612a45565b5b612ae482612a34565b9050602081019050919050565b82818337600083830152505050565b6000612b13612b0e84612ac0565b612aa5565b905082815260208101848484011115612b2f57612b2e612a2f565b5b612b3a848285612af1565b509392505050565b600082601f830112612b5757612b56612a2a565b5b8135612b67848260208601612b00565b91505092915050565b60008060008060808587031215612b8a57612b8961277d565b5b6000612b9887828801612a15565b945050602085013567ffffffffffffffff811115612bb957612bb8612782565b5b612bc587828801612b42565b9350506040612bd6878288016127d0565b9250506060612be7878288016128f8565b91505092959194509250565b60008115159050919050565b612c0881612bf3565b82525050565b6000602082019050612c236000830184612bff565b92915050565b60008060408385031215612c4057612c3f61277d565b5b6000612c4e858286016127d0565b9250506020612c5f858286016127d0565b9150509250929050565b60008060008060808587031215612c8357612c8261277d565b5b6000612c91878288016127d0565b9450506020612ca2878288016127d0565b9350506040612cb387828801612818565b9250506060612cc487828801612818565b91505092959194509250565b612cd9816128d7565b82525050565b6000602082019050612cf46000830184612cd0565b92915050565b6000612d0582612787565b9050919050565b612d1581612cfa565b8114612d2057600080fd5b50565b600081359050612d3281612d0c565b92915050565b600060208284031215612d4e57612d4d61277d565b5b6000612d5c84828501612d23565b91505092915050565b612d6e816127a7565b82525050565b6000602082019050612d896000830184612d65565b92915050565b600082825260208201905092915050565b7f6d73672e73656e646572206d75737420626520666565436f6e74726f6c6c657260008201527f2e00000000000000000000000000000000000000000000000000000000000000602082015250565b6000612dfc602183612d8f565b9150612e0782612da0565b604082019050919050565b60006020820190508181036000830152612e2b81612def565b9050919050565b7f596f752063616e6e6f7420726564756365206d6f7265207468616e207468652060008201527f63757272656e74206665652e0000000000000000000000000000000000000000602082015250565b6000612e8e602c83612d8f565b9150612e9982612e32565b604082019050919050565b60006020820190508181036000830152612ebd81612e81565b9050919050565b7f4e487b7100000000000000000000000000000000000000000000000000000000600052601160045260246000fd5b6000612efe826127e5565b9150612f09836127e5565b925082821015612f1c57612f1b612ec4565b5b828203905092915050565b7f596f7520616c726561647920686176652072656769737465726564206120726560008201527f63697069656e7420616464726573730000000000000000000000000000000000602082015250565b6000612f83602f83612d8f565b9150612f8e82612f27565b604082019050919050565b60006020820190508181036000830152612fb281612f76565b9050919050565b7f4f6e6c7920746865207472616e73666572657220636f6e74726163742063616e60008201527f206c6f672066756e64732e000000000000000000000000000000000000000000602082015250565b6000613015602b83612d8f565b915061302082612fb9565b604082019050919050565b6000602082019050818103600083015261304481613008565b9050919050565b6000613056826127e5565b9150613061836127e5565b9250826fffffffffffffffffffffffffffffffff0382111561308657613085612ec4565b5b828201905092915050565b7f46756e6374696f6e2063616c6c6572206973206e6f7420616e20617574686f7260008201527f697a656420726563697069656e74416464726573732e00000000000000000000602082015250565b60006130ed603683612d8f565b91506130f882613091565b604082019050919050565b6000602082019050818103600083015261311c816130e0565b9050919050565b7f546865207661756c74206973206e6f74206120746f6b656e2061646472657373600082015250565b6000613159602083612d8f565b915061316482613123565b602082019050919050565b600060208201905081810360008301526131888161314c565b9050919050565b7f496e73756666696369656e74207769746864726177616c20616c6c6f77616e6360008201527f652e000000000000000000000000000000000000000000000000000000000000602082015250565b60006131eb602283612d8f565b91506131f68261318f565b604082019050919050565b6000602082019050818103600083015261321a816131de565b9050919050565b7f496e73756666696369656e74207061796d656e742e0000000000000000000000600082015250565b6000613257601583612d8f565b915061326282613221565b602082019050919050565b600060208201905081810360008301526132868161324a565b9050919050565b60006060820190506132a26000830186612d65565b6132af6020830185612d65565b6132bc6040830184612cd0565b949350505050565b7f43616e6e6f74207769746864726177206d6f7265207468616e2074686520616d60008201527f6f756e7420696e2074686520636f6e74726163742e0000000000000000000000602082015250565b6000613320603583612d8f565b915061332b826132c4565b604082019050919050565b6000602082019050818103600083015261334f81613313565b9050919050565b7f5369676e6174757265206d7573742062652066726f6d2053455256455220534960008201527f474e455220726f6c650000000000000000000000000000000000000000000000602082015250565b60006133b2602983612d8f565b91506133bd82613356565b604082019050919050565b600060208201905081810360008301526133e1816133a5565b9050919050565b7f416c726561647920757365642074686973207369676e61747572650000000000600082015250565b600061341e601b83612d8f565b9150613429826133e8565b602082019050919050565b6000602082019050818103600083015261344d81613411565b9050919050565b60008160601b9050919050565b600061346c82613454565b9050919050565b600061347e82613461565b9050919050565b613496613491826127a7565b613473565b82525050565b6000819050919050565b6134b76134b2826128d7565b61349c565b82525050565b60006134c98286613485565b6014820191506134d98285613485565b6014820191506134e982846134a6565b602082019150819050949350505050565b7f50726f7669646564207369676e617475726520646f6573206e6f74206d61746360008201527f6820726571756972656420706172616d65746572730000000000000000000000602082015250565b6000613556603583612d8f565b9150613561826134fa565b604082019050919050565b6000602082019050818103600083015261358581613549565b9050919050565b7f5369676e61747572652065787069726564000000000000000000000000000000600082015250565b60006135c2601183612d8f565b91506135cd8261358c565b602082019050919050565b600060208201905081810360008301526135f1816135b5565b9050919050565b7f4e6f207769746864726177616c20616c6c6f77616e63652e0000000000000000600082015250565b600061362e601883612d8f565b9150613639826135f8565b602082019050919050565b6000602082019050818103600083015261365d81613621565b9050919050565b600081905092915050565b7f19457468657265756d205369676e6564204d6573736167653a0a333200000000600082015250565b60006136a5601c83613664565b91506136b08261366f565b601c82019050919050565b6000819050919050565b6136d66136d1826129f4565b6136bb565b82525050565b60006136e782613698565b91506136f382846136c5565b60208201915081905092915050565b60006040820190506137176000830185612d65565b6137246020830184612cd0565b9392505050565b7f4e487b7100000000000000000000000000000000000000000000000000000000600052602160045260246000fd5b7f45434453413a20696e76616c6964207369676e61747572650000000000000000600082015250565b6000613790601883612d8f565b915061379b8261375a565b602082019050919050565b600060208201905081810360008301526137bf81613783565b9050919050565b7f45434453413a20696e76616c6964207369676e6174757265206c656e67746800600082015250565b60006137fc601f83612d8f565b9150613807826137c6565b602082019050919050565b6000602082019050818103600083015261382b816137ef565b9050919050565b7f45434453413a20696e76616c6964207369676e6174757265202773272076616c60008201527f7565000000000000000000000000000000000000000000000000000000000000602082015250565b600061388e602283612d8f565b915061389982613832565b604082019050919050565b600060208201905081810360008301526138bd81613881565b9050919050565b7f45434453413a20696e76616c6964207369676e6174757265202776272076616c60008201527f7565000000000000000000000000000000000000000000000000000000000000602082015250565b6000613920602283612d8f565b915061392b826138c4565b604082019050919050565b6000602082019050818103600083015261394f81613913565b9050919050565b61395f81612bf3565b811461396a57600080fd5b50565b60008151905061397c81613956565b92915050565b6000602082840312156139985761399761277d565b5b60006139a68482850161396d565b91505092915050565b7f5361666545524332303a204552433230206f7065726174696f6e20646964206e60008201527f6f74207375636365656400000000000000000000000000000000000000000000602082015250565b6000613a0b602a83612d8f565b9150613a16826139af565b604082019050919050565b60006020820190508181036000830152613a3a816139fe565b9050919050565b613a4a816129f4565b82525050565b600060ff82169050919050565b613a6681613a50565b82525050565b6000608082019050613a816000830187613a41565b613a8e6020830186613a5d565b613a9b6040830185613a41565b613aa86060830184613a41565b95945050505050565b6000613abc826128d7565b9150613ac7836128d7565b9250827fffffffffffffffffffffffffffffffffffffffffffffffffffffffffffffffff03821115613afc57613afb612ec4565b5b828201905092915050565b7f416464726573733a20696e73756666696369656e742062616c616e636520666f60008201527f722063616c6c0000000000000000000000000000000000000000000000000000602082015250565b6000613b63602683612d8f565b9150613b6e82613b07565b604082019050919050565b60006020820190508181036000830152613b9281613b56565b9050919050565b7f416464726573733a2063616c6c20746f206e6f6e2d636f6e7472616374000000600082015250565b6000613bcf601d83612d8f565b9150613bda82613b99565b602082019050919050565b60006020820190508181036000830152613bfe81613bc2565b9050919050565b600081519050919050565b600081905092915050565b60005b83811015613c39578082015181840152602081019050613c1e565b83811115613c48576000848401525b50505050565b6000613c5982613c05565b613c638185613c10565b9350613c73818560208601613c1b565b80840191505092915050565b6000613c8b8284613c4e565b915081905092915050565b600081519050919050565b6000613cac82613c96565b613cb68185612d8f565b9350613cc6818560208601613c1b565b613ccf81612a34565b840191505092915050565b60006020820190508181036000830152613cf48184613ca1565b90509291505056fea26469706673582212206539f09f88637c97a2f819c96f6d269976a1d3c93b82b341b9c4375dee9d06f464736f6c634300080d0033",
  "linkReferences": {},
  "deployedLinkReferences": {}
}