{
  "_format": "hh-sol-artifact-1",
  "contractName": "Vault",
  "sourceName": "contracts/Vault.sol",
  "abi": [
    {
      "inputs": [
        {
          "internalType": "address",
          "name": "_transferer",
          "type": "address"
        },
        {
          "internalType": "address",
          "name": "_serverSigner",
          "type": "address"
        },
        {
          "internalType": "address payable",
          "name": "_feeController",
          "type": "address"
        }
      ],
      "stateMutability": "nonpayable",
      "type": "constructor"
    },
    {
      "inputs": [
        {
          "internalType": "address",
          "name": "_originalAddress",
          "type": "address"
        },
        {
          "internalType": "address",
          "name": "_erc20Address",
          "type": "address"
        }
      ],
      "name": "canWithdrawERC20",
      "outputs": [
        {
          "internalType": "uint256",
          "name": "",
          "type": "uint256"
        }
      ],
      "stateMutability": "view",
      "type": "function"
    },
    {
      "inputs": [
        {
          "internalType": "address",
          "name": "_originalAddress",
          "type": "address"
        },
        {
          "internalType": "address",
          "name": "_erc721Address",
          "type": "address"
        },
        {
          "internalType": "uint256",
          "name": "_id",
          "type": "uint256"
        }
      ],
      "name": "canWithdrawERC721",
      "outputs": [
        {
          "internalType": "bool",
          "name": "",
          "type": "bool"
        }
      ],
      "stateMutability": "view",
      "type": "function"
    },
    {
      "inputs": [
        {
          "internalType": "address payable",
          "name": "_newFeeController",
          "type": "address"
        }
      ],
      "name": "changeFeeController",
      "outputs": [],
      "stateMutability": "nonpayable",
      "type": "function"
    },
    {
      "inputs": [
        {
          "internalType": "bytes32",
          "name": "_data",
          "type": "bytes32"
        },
        {
          "internalType": "bytes",
          "name": "_signature",
          "type": "bytes"
        },
        {
          "internalType": "address",
          "name": "_newRecipientAddress",
          "type": "address"
        }
      ],
      "name": "changeRecipientAddress",
      "outputs": [],
      "stateMutability": "nonpayable",
      "type": "function"
    },
    {
      "inputs": [
        {
          "internalType": "address",
          "name": "_originalAddress",
          "type": "address"
        },
        {
          "internalType": "address",
          "name": "_erc20Address",
          "type": "address"
        }
      ],
      "name": "erc20Fee",
      "outputs": [
        {
          "internalType": "uint128",
          "name": "",
          "type": "uint128"
        }
      ],
      "stateMutability": "view",
      "type": "function"
    },
    {
      "inputs": [
        {
          "internalType": "address",
          "name": "_originalAddress",
          "type": "address"
        },
        {
          "internalType": "address",
          "name": "_erc721Address",
          "type": "address"
        },
        {
          "internalType": "uint256",
          "name": "_id",
          "type": "uint256"
        }
      ],
      "name": "erc721Fee",
      "outputs": [
        {
          "internalType": "uint128",
          "name": "",
          "type": "uint128"
        }
      ],
      "stateMutability": "view",
      "type": "function"
    },
    {
      "inputs": [
        {
          "internalType": "address",
          "name": "_originalAddress",
          "type": "address"
        },
        {
          "internalType": "address",
          "name": "_erc20Address",
          "type": "address"
        },
        {
          "internalType": "uint256",
          "name": "_amount",
          "type": "uint256"
        },
        {
          "internalType": "uint128",
          "name": "_fee",
          "type": "uint128"
        }
      ],
      "name": "logIncomingERC20",
      "outputs": [],
      "stateMutability": "nonpayable",
      "type": "function"
    },
    {
      "inputs": [
        {
          "internalType": "address",
          "name": "_originalAddress",
          "type": "address"
        },
        {
          "internalType": "address",
          "name": "_erc721Address",
          "type": "address"
        },
        {
          "internalType": "uint256",
          "name": "_id",
          "type": "uint256"
        },
        {
          "internalType": "uint128",
          "name": "_fee",
          "type": "uint128"
        }
      ],
      "name": "logIncomingERC721",
      "outputs": [],
      "stateMutability": "nonpayable",
      "type": "function"
    },
    {
      "inputs": [
        {
          "internalType": "address",
          "name": "_originalAddress",
          "type": "address"
        },
        {
          "internalType": "address",
          "name": "_erc20Address",
          "type": "address"
        },
        {
          "internalType": "uint128",
          "name": "_reduceBy",
          "type": "uint128"
        }
      ],
      "name": "reduceERC20Fee",
      "outputs": [
        {
          "internalType": "uint128",
          "name": "",
          "type": "uint128"
        }
      ],
      "stateMutability": "nonpayable",
      "type": "function"
    },
    {
      "inputs": [
        {
          "internalType": "address",
          "name": "_originalAddress",
          "type": "address"
        },
        {
          "internalType": "address",
          "name": "_erc721Address",
          "type": "address"
        },
        {
          "internalType": "uint128",
          "name": "_id",
          "type": "uint128"
        },
        {
          "internalType": "uint128",
          "name": "_reduceBy",
          "type": "uint128"
        }
      ],
      "name": "reduceERC721Fee",
      "outputs": [
        {
          "internalType": "uint128",
          "name": "",
          "type": "uint128"
        }
      ],
      "stateMutability": "nonpayable",
      "type": "function"
    },
    {
      "inputs": [
        {
          "internalType": "address",
          "name": "_recipient",
          "type": "address"
        }
      ],
      "name": "setupRecipientAddress",
      "outputs": [],
      "stateMutability": "nonpayable",
      "type": "function"
    },
    {
      "inputs": [
        {
          "internalType": "address",
          "name": "_originalAddress",
          "type": "address"
        }
      ],
      "name": "viewRecipientAddress",
      "outputs": [
        {
          "internalType": "address",
          "name": "",
          "type": "address"
        }
      ],
      "stateMutability": "view",
      "type": "function"
    },
    {
      "inputs": [
        {
          "internalType": "address",
          "name": "_originalAddress",
          "type": "address"
        },
        {
          "internalType": "address",
          "name": "_erc20Address",
          "type": "address"
        }
      ],
      "name": "withdrawERC20",
      "outputs": [],
      "stateMutability": "payable",
      "type": "function"
    },
    {
      "inputs": [
        {
          "internalType": "address",
          "name": "_originalAddress",
          "type": "address"
        },
        {
          "internalType": "address",
          "name": "_erc721Address",
          "type": "address"
        },
        {
          "internalType": "uint256",
          "name": "_id",
          "type": "uint256"
        }
      ],
      "name": "withdrawERC721",
      "outputs": [],
      "stateMutability": "payable",
      "type": "function"
    },
    {
      "inputs": [
        {
          "internalType": "uint256",
          "name": "_amount",
          "type": "uint256"
        }
      ],
      "name": "withdrawPayments",
      "outputs": [],
      "stateMutability": "nonpayable",
      "type": "function"
    }
  ],
  "bytecode": "0x60806040523480156200001157600080fd5b50604051620036e5380380620036e58339818101604052810190620000379190620001b1565b826000806101000a81548173ffffffffffffffffffffffffffffffffffffffff021916908373ffffffffffffffffffffffffffffffffffffffff16021790555081600160006101000a81548173ffffffffffffffffffffffffffffffffffffffff021916908373ffffffffffffffffffffffffffffffffffffffff16021790555080600260006101000a81548173ffffffffffffffffffffffffffffffffffffffff021916908373ffffffffffffffffffffffffffffffffffffffff1602179055505050506200020d565b600080fd5b600073ffffffffffffffffffffffffffffffffffffffff82169050919050565b6000620001348262000107565b9050919050565b620001468162000127565b81146200015257600080fd5b50565b60008151905062000166816200013b565b92915050565b6000620001798262000107565b9050919050565b6200018b816200016c565b81146200019757600080fd5b50565b600081519050620001ab8162000180565b92915050565b600080600060608486031215620001cd57620001cc62000102565b5b6000620001dd8682870162000155565b9350506020620001f08682870162000155565b925050604062000203868287016200019a565b9150509250925092565b6134c8806200021d6000396000f3fe6080604052600436106100e85760003560e01c806377d955b51161008a578063a7deb2d611610059578063a7deb2d61461030e578063c5b2ae7a14610337578063d9ce6ae714610360578063f574e2b61461039d576100e8565b806377d955b51461023b57806379386cc81461027857806390ffaa2a146102b55780639456fbcc146102f2576100e8565b80634025feb2116100c65780634025feb21461017c57806341975af8146101985780634f4a7e70146101c15780634fbcae61146101fe576100e8565b806309c0e14f146100ed5780630ca931711461012a5780633d602dbe14610153575b600080fd5b3480156100f957600080fd5b50610114600480360381019061010f91906123d4565b6103c6565b6040516101219190612436565b60405180910390f35b34801561013657600080fd5b50610151600480360381019061014c9190612451565b6106df565b005b34801561015f57600080fd5b5061017a600480360381019061017591906124b4565b61082e565b005b6101966004803603810190610191919061251b565b610a82565b005b3480156101a457600080fd5b506101bf60048036038101906101ba919061256e565b610e7f565b005b3480156101cd57600080fd5b506101e860048036038101906101e3919061251b565b610fbe565b6040516101f591906125b6565b60405180910390f35b34801561020a57600080fd5b50610225600480360381019061022091906125d1565b611067565b6040516102329190612436565b60405180910390f35b34801561024757600080fd5b50610262600480360381019061025d9190612611565b61110d565b60405161026f9190612436565b60405180910390f35b34801561028457600080fd5b5061029f600480360381019061029a919061251b565b611490565b6040516102ac9190612436565b60405180910390f35b3480156102c157600080fd5b506102dc60048036038101906102d791906125d1565b611548565b6040516102e99190612687565b60405180910390f35b61030c600480360381019061030791906125d1565b611600565b005b34801561031a57600080fd5b506103356004803603810190610330919061281e565b611a09565b005b34801561034357600080fd5b5061035e600480360381019061035991906128cb565b611ba0565b005b34801561036c57600080fd5b5061038760048036038101906103829190612451565b611c74565b6040516103949190612907565b60405180910390f35b3480156103a957600080fd5b506103c460048036038101906103bf91906124b4565b611cdd565b005b6000600260009054906101000a900473ffffffffffffffffffffffffffffffffffffffff1673ffffffffffffffffffffffffffffffffffffffff163373ffffffffffffffffffffffffffffffffffffffff1614610458576040517f08c379a000000000000000000000000000000000000000000000000000000000815260040161044f906129a5565b60405180910390fd5b816fffffffffffffffffffffffffffffffff16600460008673ffffffffffffffffffffffffffffffffffffffff1673ffffffffffffffffffffffffffffffffffffffff16815260200190815260200160002060008573ffffffffffffffffffffffffffffffffffffffff1673ffffffffffffffffffffffffffffffffffffffff16815260200190815260200160002060000160109054906101000a90046fffffffffffffffffffffffffffffffff166fffffffffffffffffffffffffffffffff16101561055a576040517f08c379a000000000000000000000000000000000000000000000000000000000815260040161055190612a37565b60405180910390fd5b81600460008673ffffffffffffffffffffffffffffffffffffffff1673ffffffffffffffffffffffffffffffffffffffff16815260200190815260200160002060008573ffffffffffffffffffffffffffffffffffffffff1673ffffffffffffffffffffffffffffffffffffffff16815260200190815260200160002060000160108282829054906101000a90046fffffffffffffffffffffffffffffffff166106049190612a86565b92506101000a8154816fffffffffffffffffffffffffffffffff02191690836fffffffffffffffffffffffffffffffff160217905550600460008573ffffffffffffffffffffffffffffffffffffffff1673ffffffffffffffffffffffffffffffffffffffff16815260200190815260200160002060008473ffffffffffffffffffffffffffffffffffffffff1673ffffffffffffffffffffffffffffffffffffffff16815260200190815260200160002060000160109054906101000a90046fffffffffffffffffffffffffffffffff1690509392505050565b600073ffffffffffffffffffffffffffffffffffffffff16600360003373ffffffffffffffffffffffffffffffffffffffff1673ffffffffffffffffffffffffffffffffffffffff16815260200190815260200160002060009054906101000a900473ffffffffffffffffffffffffffffffffffffffff1673ffffffffffffffffffffffffffffffffffffffff16146107ad576040517f08c379a00000000000000000000000000000000000000000000000000000000081526004016107a490612b2c565b60405180910390fd5b80600360003373ffffffffffffffffffffffffffffffffffffffff1673ffffffffffffffffffffffffffffffffffffffff16815260200190815260200160002060006101000a81548173ffffffffffffffffffffffffffffffffffffffff021916908373ffffffffffffffffffffffffffffffffffffffff16021790555050565b60008054906101000a900473ffffffffffffffffffffffffffffffffffffffff1673ffffffffffffffffffffffffffffffffffffffff163373ffffffffffffffffffffffffffffffffffffffff16146108bc576040517f08c379a00000000000000000000000000000000000000000000000000000000081526004016108b390612bbe565b60405180910390fd5b80600460008673ffffffffffffffffffffffffffffffffffffffff1673ffffffffffffffffffffffffffffffffffffffff16815260200190815260200160002060008573ffffffffffffffffffffffffffffffffffffffff1673ffffffffffffffffffffffffffffffffffffffff16815260200190815260200160002060000160108282829054906101000a90046fffffffffffffffffffffffffffffffff166109669190612bde565b92506101000a8154816fffffffffffffffffffffffffffffffff02191690836fffffffffffffffffffffffffffffffff16021790555081600460008673ffffffffffffffffffffffffffffffffffffffff1673ffffffffffffffffffffffffffffffffffffffff16815260200190815260200160002060008573ffffffffffffffffffffffffffffffffffffffff1673ffffffffffffffffffffffffffffffffffffffff16815260200190815260200160002060000160008282829054906101000a90046fffffffffffffffffffffffffffffffff16610a469190612bde565b92506101000a8154816fffffffffffffffffffffffffffffffff02191690836fffffffffffffffffffffffffffffffff16021790555050505050565b3373ffffffffffffffffffffffffffffffffffffffff16600360008573ffffffffffffffffffffffffffffffffffffffff1673ffffffffffffffffffffffffffffffffffffffff16815260200190815260200160002060009054906101000a900473ffffffffffffffffffffffffffffffffffffffff1673ffffffffffffffffffffffffffffffffffffffff1614610b4f576040517f08c379a0000000000000000000000000000000000000000000000000000000008152600401610b4690612c96565b60405180910390fd5b610b5a838383610fbe565b610b99576040517f08c379a0000000000000000000000000000000000000000000000000000000008152600401610b9090612d28565b60405180910390fd5b600560008473ffffffffffffffffffffffffffffffffffffffff1673ffffffffffffffffffffffffffffffffffffffff16815260200190815260200160002060008373ffffffffffffffffffffffffffffffffffffffff1673ffffffffffffffffffffffffffffffffffffffff168152602001908152602001600020600082815260200190815260200160002060000160019054906101000a90046fffffffffffffffffffffffffffffffff166fffffffffffffffffffffffffffffffff16341015610c9a576040517f08c379a0000000000000000000000000000000000000000000000000000000008152600401610c9190612d94565b60405180910390fd5b6000600560008573ffffffffffffffffffffffffffffffffffffffff1673ffffffffffffffffffffffffffffffffffffffff16815260200190815260200160002060008473ffffffffffffffffffffffffffffffffffffffff1673ffffffffffffffffffffffffffffffffffffffff168152602001908152602001600020600083815260200190815260200160002060000160006101000a81548160ff0219169083151502179055506000600560008573ffffffffffffffffffffffffffffffffffffffff1673ffffffffffffffffffffffffffffffffffffffff16815260200190815260200160002060008473ffffffffffffffffffffffffffffffffffffffff1673ffffffffffffffffffffffffffffffffffffffff168152602001908152602001600020600083815260200190815260200160002060000160016101000a8154816fffffffffffffffffffffffffffffffff02191690836fffffffffffffffffffffffffffffffff1602179055508173ffffffffffffffffffffffffffffffffffffffff166323b872dd3033846040518463ffffffff1660e01b8152600401610e4893929190612db4565b600060405180830381600087803b158015610e6257600080fd5b505af1158015610e76573d6000803e3d6000fd5b50505050505050565b600260009054906101000a900473ffffffffffffffffffffffffffffffffffffffff1673ffffffffffffffffffffffffffffffffffffffff163373ffffffffffffffffffffffffffffffffffffffff1614610f0f576040517f08c379a0000000000000000000000000000000000000000000000000000000008152600401610f06906129a5565b60405180910390fd5b80471015610f52576040517f08c379a0000000000000000000000000000000000000000000000000000000008152600401610f4990612e5d565b60405180910390fd5b600260009054906101000a900473ffffffffffffffffffffffffffffffffffffffff1673ffffffffffffffffffffffffffffffffffffffff166108fc829081150290604051600060405180830381858888f19350505050158015610fba573d6000803e3d6000fd5b5050565b6000600560008573ffffffffffffffffffffffffffffffffffffffff1673ffffffffffffffffffffffffffffffffffffffff16815260200190815260200160002060008473ffffffffffffffffffffffffffffffffffffffff1673ffffffffffffffffffffffffffffffffffffffff168152602001908152602001600020600083815260200190815260200160002060000160009054906101000a900460ff1690509392505050565b6000600460008473ffffffffffffffffffffffffffffffffffffffff1673ffffffffffffffffffffffffffffffffffffffff16815260200190815260200160002060008373ffffffffffffffffffffffffffffffffffffffff1673ffffffffffffffffffffffffffffffffffffffff16815260200190815260200160002060000160109054906101000a90046fffffffffffffffffffffffffffffffff16905092915050565b6000600260009054906101000a900473ffffffffffffffffffffffffffffffffffffffff1673ffffffffffffffffffffffffffffffffffffffff163373ffffffffffffffffffffffffffffffffffffffff161461119f576040517f08c379a0000000000000000000000000000000000000000000000000000000008152600401611196906129a5565b60405180910390fd5b816fffffffffffffffffffffffffffffffff16600560008773ffffffffffffffffffffffffffffffffffffffff1673ffffffffffffffffffffffffffffffffffffffff16815260200190815260200160002060008673ffffffffffffffffffffffffffffffffffffffff1673ffffffffffffffffffffffffffffffffffffffff1681526020019081526020016000206000856fffffffffffffffffffffffffffffffff16815260200190815260200160002060000160019054906101000a90046fffffffffffffffffffffffffffffffff166fffffffffffffffffffffffffffffffff1610156112c4576040517f08c379a00000000000000000000000000000000000000000000000000000000081526004016112bb90612a37565b60405180910390fd5b81600560008773ffffffffffffffffffffffffffffffffffffffff1673ffffffffffffffffffffffffffffffffffffffff16815260200190815260200160002060008673ffffffffffffffffffffffffffffffffffffffff1673ffffffffffffffffffffffffffffffffffffffff1681526020019081526020016000206000856fffffffffffffffffffffffffffffffff16815260200190815260200160002060000160018282829054906101000a90046fffffffffffffffffffffffffffffffff166113919190612a86565b92506101000a8154816fffffffffffffffffffffffffffffffff02191690836fffffffffffffffffffffffffffffffff160217905550600560008673ffffffffffffffffffffffffffffffffffffffff1673ffffffffffffffffffffffffffffffffffffffff16815260200190815260200160002060008573ffffffffffffffffffffffffffffffffffffffff1673ffffffffffffffffffffffffffffffffffffffff1681526020019081526020016000206000846fffffffffffffffffffffffffffffffff16815260200190815260200160002060000160019054906101000a90046fffffffffffffffffffffffffffffffff169050949350505050565b6000600560008573ffffffffffffffffffffffffffffffffffffffff1673ffffffffffffffffffffffffffffffffffffffff16815260200190815260200160002060008473ffffffffffffffffffffffffffffffffffffffff1673ffffffffffffffffffffffffffffffffffffffff168152602001908152602001600020600083815260200190815260200160002060000160019054906101000a90046fffffffffffffffffffffffffffffffff1690509392505050565b6000600460008473ffffffffffffffffffffffffffffffffffffffff1673ffffffffffffffffffffffffffffffffffffffff16815260200190815260200160002060008373ffffffffffffffffffffffffffffffffffffffff1673ffffffffffffffffffffffffffffffffffffffff16815260200190815260200160002060000160009054906101000a90046fffffffffffffffffffffffffffffffff166fffffffffffffffffffffffffffffffff16905092915050565b3373ffffffffffffffffffffffffffffffffffffffff16600360008473ffffffffffffffffffffffffffffffffffffffff1673ffffffffffffffffffffffffffffffffffffffff16815260200190815260200160002060009054906101000a900473ffffffffffffffffffffffffffffffffffffffff1673ffffffffffffffffffffffffffffffffffffffff16146116cd576040517f08c379a00000000000000000000000000000000000000000000000000000000081526004016116c490612c96565b60405180910390fd5b60006116d98383611548565b11611719576040517f08c379a000000000000000000000000000000000000000000000000000000000815260040161171090612ec9565b60405180910390fd5b600460008373ffffffffffffffffffffffffffffffffffffffff1673ffffffffffffffffffffffffffffffffffffffff16815260200190815260200160002060008273ffffffffffffffffffffffffffffffffffffffff1673ffffffffffffffffffffffffffffffffffffffff16815260200190815260200160002060000160109054906101000a90046fffffffffffffffffffffffffffffffff166fffffffffffffffffffffffffffffffff16341015611809576040517f08c379a000000000000000000000000000000000000000000000000000000000815260040161180090612d94565b60405180910390fd5b60006118158383611548565b90506000600460008573ffffffffffffffffffffffffffffffffffffffff1673ffffffffffffffffffffffffffffffffffffffff16815260200190815260200160002060008473ffffffffffffffffffffffffffffffffffffffff1673ffffffffffffffffffffffffffffffffffffffff16815260200190815260200160002060000160006101000a8154816fffffffffffffffffffffffffffffffff02191690836fffffffffffffffffffffffffffffffff1602179055506000600460008573ffffffffffffffffffffffffffffffffffffffff1673ffffffffffffffffffffffffffffffffffffffff16815260200190815260200160002060008473ffffffffffffffffffffffffffffffffffffffff1673ffffffffffffffffffffffffffffffffffffffff16815260200190815260200160002060000160106101000a8154816fffffffffffffffffffffffffffffffff02191690836fffffffffffffffffffffffffffffffff1602179055508173ffffffffffffffffffffffffffffffffffffffff1663a9059cbb33836040518363ffffffff1660e01b81526004016119c0929190612ee9565b6020604051808303816000875af11580156119df573d6000803e3d6000fd5b505050506040513d601f19601f82011682018060405250810190611a039190612f3e565b50505050565b600160009054906101000a900473ffffffffffffffffffffffffffffffffffffffff1673ffffffffffffffffffffffffffffffffffffffff16611a5d83611a4f86611f0b565b611f3b90919063ffffffff16565b73ffffffffffffffffffffffffffffffffffffffff1614611ab3576040517f08c379a0000000000000000000000000000000000000000000000000000000008152600401611aaa90612fdd565b60405180910390fd5b823382604051602001611ac7929190613045565b6040516020818303038152906040528051906020012014611b1d576040517f08c379a0000000000000000000000000000000000000000000000000000000008152600401611b14906130e3565b60405180910390fd5b80600360003373ffffffffffffffffffffffffffffffffffffffff1673ffffffffffffffffffffffffffffffffffffffff16815260200190815260200160002060006101000a81548173ffffffffffffffffffffffffffffffffffffffff021916908373ffffffffffffffffffffffffffffffffffffffff160217905550505050565b600260009054906101000a900473ffffffffffffffffffffffffffffffffffffffff1673ffffffffffffffffffffffffffffffffffffffff163373ffffffffffffffffffffffffffffffffffffffff1614611c30576040517f08c379a0000000000000000000000000000000000000000000000000000000008152600401611c27906129a5565b60405180910390fd5b80600260006101000a81548173ffffffffffffffffffffffffffffffffffffffff021916908373ffffffffffffffffffffffffffffffffffffffff16021790555050565b6000600360008373ffffffffffffffffffffffffffffffffffffffff1673ffffffffffffffffffffffffffffffffffffffff16815260200190815260200160002060009054906101000a900473ffffffffffffffffffffffffffffffffffffffff169050919050565b60008054906101000a900473ffffffffffffffffffffffffffffffffffffffff1673ffffffffffffffffffffffffffffffffffffffff163373ffffffffffffffffffffffffffffffffffffffff1614611d6b576040517f08c379a0000000000000000000000000000000000000000000000000000000008152600401611d6290612bbe565b60405180910390fd5b80600560008673ffffffffffffffffffffffffffffffffffffffff1673ffffffffffffffffffffffffffffffffffffffff16815260200190815260200160002060008573ffffffffffffffffffffffffffffffffffffffff1673ffffffffffffffffffffffffffffffffffffffff168152602001908152602001600020600084815260200190815260200160002060000160018282829054906101000a90046fffffffffffffffffffffffffffffffff16611e269190612bde565b92506101000a8154816fffffffffffffffffffffffffffffffff02191690836fffffffffffffffffffffffffffffffff1602179055506001600560008673ffffffffffffffffffffffffffffffffffffffff1673ffffffffffffffffffffffffffffffffffffffff16815260200190815260200160002060008573ffffffffffffffffffffffffffffffffffffffff1673ffffffffffffffffffffffffffffffffffffffff168152602001908152602001600020600084815260200190815260200160002060000160006101000a81548160ff02191690831515021790555050505050565b600081604051602001611f1e919061317b565b604051602081830303815290604052805190602001209050919050565b6000806000611f4a8585611f62565b91509150611f5781611fe3565b819250505092915050565b6000806041835103611fa35760008060006020860151925060408601519150606086015160001a9050611f97878285856121af565b94509450505050611fdc565b6040835103611fd3576000806020850151915060408501519050611fc88683836122bb565b935093505050611fdc565b60006002915091505b9250929050565b60006004811115611ff757611ff66131a1565b5b81600481111561200a576120096131a1565b5b03156121ac5760016004811115612024576120236131a1565b5b816004811115612037576120366131a1565b5b03612077576040517f08c379a000000000000000000000000000000000000000000000000000000000815260040161206e9061321c565b60405180910390fd5b6002600481111561208b5761208a6131a1565b5b81600481111561209e5761209d6131a1565b5b036120de576040517f08c379a00000000000000000000000000000000000000000000000000000000081526004016120d590613288565b60405180910390fd5b600360048111156120f2576120f16131a1565b5b816004811115612105576121046131a1565b5b03612145576040517f08c379a000000000000000000000000000000000000000000000000000000000815260040161213c9061331a565b60405180910390fd5b600480811115612158576121576131a1565b5b81600481111561216b5761216a6131a1565b5b036121ab576040517f08c379a00000000000000000000000000000000000000000000000000000000081526004016121a2906133ac565b60405180910390fd5b5b50565b6000807f7fffffffffffffffffffffffffffffff5d576e7357a4501ddfe92f46681b20a08360001c11156121ea5760006003915091506122b2565b601b8560ff16141580156122025750601c8560ff1614155b156122145760006004915091506122b2565b60006001878787876040516000815260200160405260405161223994939291906133f7565b6020604051602081039080840390855afa15801561225b573d6000803e3d6000fd5b505050602060405103519050600073ffffffffffffffffffffffffffffffffffffffff168173ffffffffffffffffffffffffffffffffffffffff16036122a9576000600192509250506122b2565b80600092509250505b94509492505050565b60008060007f7fffffffffffffffffffffffffffffffffffffffffffffffffffffffffffffff60001b841690506000601b60ff8660001c901c6122fe919061343c565b905061230c878288856121af565b935093505050935093915050565b6000604051905090565b600080fd5b600080fd5b600073ffffffffffffffffffffffffffffffffffffffff82169050919050565b60006123598261232e565b9050919050565b6123698161234e565b811461237457600080fd5b50565b60008135905061238681612360565b92915050565b60006fffffffffffffffffffffffffffffffff82169050919050565b6123b18161238c565b81146123bc57600080fd5b50565b6000813590506123ce816123a8565b92915050565b6000806000606084860312156123ed576123ec612324565b5b60006123fb86828701612377565b935050602061240c86828701612377565b925050604061241d868287016123bf565b9150509250925092565b6124308161238c565b82525050565b600060208201905061244b6000830184612427565b92915050565b60006020828403121561246757612466612324565b5b600061247584828501612377565b91505092915050565b6000819050919050565b6124918161247e565b811461249c57600080fd5b50565b6000813590506124ae81612488565b92915050565b600080600080608085870312156124ce576124cd612324565b5b60006124dc87828801612377565b94505060206124ed87828801612377565b93505060406124fe8782880161249f565b925050606061250f878288016123bf565b91505092959194509250565b60008060006060848603121561253457612533612324565b5b600061254286828701612377565b935050602061255386828701612377565b92505060406125648682870161249f565b9150509250925092565b60006020828403121561258457612583612324565b5b60006125928482850161249f565b91505092915050565b60008115159050919050565b6125b08161259b565b82525050565b60006020820190506125cb60008301846125a7565b92915050565b600080604083850312156125e8576125e7612324565b5b60006125f685828601612377565b925050602061260785828601612377565b9150509250929050565b6000806000806080858703121561262b5761262a612324565b5b600061263987828801612377565b945050602061264a87828801612377565b935050604061265b878288016123bf565b925050606061266c878288016123bf565b91505092959194509250565b6126818161247e565b82525050565b600060208201905061269c6000830184612678565b92915050565b6000819050919050565b6126b5816126a2565b81146126c057600080fd5b50565b6000813590506126d2816126ac565b92915050565b600080fd5b600080fd5b6000601f19601f8301169050919050565b7f4e487b7100000000000000000000000000000000000000000000000000000000600052604160045260246000fd5b61272b826126e2565b810181811067ffffffffffffffff8211171561274a576127496126f3565b5b80604052505050565b600061275d61231a565b90506127698282612722565b919050565b600067ffffffffffffffff821115612789576127886126f3565b5b612792826126e2565b9050602081019050919050565b82818337600083830152505050565b60006127c16127bc8461276e565b612753565b9050828152602081018484840111156127dd576127dc6126dd565b5b6127e884828561279f565b509392505050565b600082601f830112612805576128046126d8565b5b81356128158482602086016127ae565b91505092915050565b60008060006060848603121561283757612836612324565b5b6000612845868287016126c3565b935050602084013567ffffffffffffffff81111561286657612865612329565b5b612872868287016127f0565b925050604061288386828701612377565b9150509250925092565b60006128988261232e565b9050919050565b6128a88161288d565b81146128b357600080fd5b50565b6000813590506128c58161289f565b92915050565b6000602082840312156128e1576128e0612324565b5b60006128ef848285016128b6565b91505092915050565b6129018161234e565b82525050565b600060208201905061291c60008301846128f8565b92915050565b600082825260208201905092915050565b7f6d73672e73656e646572206d75737420626520666565436f6e74726f6c6c657260008201527f2e00000000000000000000000000000000000000000000000000000000000000602082015250565b600061298f602183612922565b915061299a82612933565b604082019050919050565b600060208201905081810360008301526129be81612982565b9050919050565b7f596f752063616e6e6f7420726564756365206d6f7265207468616e207468652060008201527f63757272656e74206665652e0000000000000000000000000000000000000000602082015250565b6000612a21602c83612922565b9150612a2c826129c5565b604082019050919050565b60006020820190508181036000830152612a5081612a14565b9050919050565b7f4e487b7100000000000000000000000000000000000000000000000000000000600052601160045260246000fd5b6000612a918261238c565b9150612a9c8361238c565b925082821015612aaf57612aae612a57565b5b828203905092915050565b7f596f7520616c726561647920686176652072656769737465726564206120726560008201527f63697069656e7420616464726573730000000000000000000000000000000000602082015250565b6000612b16602f83612922565b9150612b2182612aba565b604082019050919050565b60006020820190508181036000830152612b4581612b09565b9050919050565b7f4f6e6c7920746865207472616e73666572657220636f6e74726163742063616e60008201527f206c6f672066756e64732e000000000000000000000000000000000000000000602082015250565b6000612ba8602b83612922565b9150612bb382612b4c565b604082019050919050565b60006020820190508181036000830152612bd781612b9b565b9050919050565b6000612be98261238c565b9150612bf48361238c565b9250826fffffffffffffffffffffffffffffffff03821115612c1957612c18612a57565b5b828201905092915050565b7f46756e6374696f6e2063616c6c6572206973206e6f7420616e20617574686f7260008201527f697a656420726563697069656e74416464726573732e00000000000000000000602082015250565b6000612c80603683612922565b9150612c8b82612c24565b604082019050919050565b60006020820190508181036000830152612caf81612c73565b9050919050565b7f496e73756666696369656e74207769746864726177616c20616c6c6f77616e6360008201527f652e000000000000000000000000000000000000000000000000000000000000602082015250565b6000612d12602283612922565b9150612d1d82612cb6565b604082019050919050565b60006020820190508181036000830152612d4181612d05565b9050919050565b7f496e73756666696369656e74207061796d656e742e0000000000000000000000600082015250565b6000612d7e601583612922565b9150612d8982612d48565b602082019050919050565b60006020820190508181036000830152612dad81612d71565b9050919050565b6000606082019050612dc960008301866128f8565b612dd660208301856128f8565b612de36040830184612678565b949350505050565b7f43616e6e6f74207769746864726177206d6f7265207468616e2074686520616d60008201527f6f756e7420696e2074686520636f6e74726163742e0000000000000000000000602082015250565b6000612e47603583612922565b9150612e5282612deb565b604082019050919050565b60006020820190508181036000830152612e7681612e3a565b9050919050565b7f4e6f207769746864726177616c20616c6c6f77616e63652e0000000000000000600082015250565b6000612eb3601883612922565b9150612ebe82612e7d565b602082019050919050565b60006020820190508181036000830152612ee281612ea6565b9050919050565b6000604082019050612efe60008301856128f8565b612f0b6020830184612678565b9392505050565b612f1b8161259b565b8114612f2657600080fd5b50565b600081519050612f3881612f12565b92915050565b600060208284031215612f5457612f53612324565b5b6000612f6284828501612f29565b91505092915050565b7f5369676e6174757265206d7573742062652066726f6d2053455256455220534960008201527f474e455220726f6c650000000000000000000000000000000000000000000000602082015250565b6000612fc7602983612922565b9150612fd282612f6b565b604082019050919050565b60006020820190508181036000830152612ff681612fba565b9050919050565b60008160601b9050919050565b600061301582612ffd565b9050919050565b60006130278261300a565b9050919050565b61303f61303a8261234e565b61301c565b82525050565b6000613051828561302e565b601482019150613061828461302e565b6014820191508190509392505050565b7f50726f7669646564207369676e617475726520646f6573206e6f74206d61746360008201527f6820726571756972656420706172616d65746572730000000000000000000000602082015250565b60006130cd603583612922565b91506130d882613071565b604082019050919050565b600060208201905081810360008301526130fc816130c0565b9050919050565b600081905092915050565b7f19457468657265756d205369676e6564204d6573736167653a0a333200000000600082015250565b6000613144601c83613103565b915061314f8261310e565b601c82019050919050565b6000819050919050565b613175613170826126a2565b61315a565b82525050565b600061318682613137565b91506131928284613164565b60208201915081905092915050565b7f4e487b7100000000000000000000000000000000000000000000000000000000600052602160045260246000fd5b7f45434453413a20696e76616c6964207369676e61747572650000000000000000600082015250565b6000613206601883612922565b9150613211826131d0565b602082019050919050565b60006020820190508181036000830152613235816131f9565b9050919050565b7f45434453413a20696e76616c6964207369676e6174757265206c656e67746800600082015250565b6000613272601f83612922565b915061327d8261323c565b602082019050919050565b600060208201905081810360008301526132a181613265565b9050919050565b7f45434453413a20696e76616c6964207369676e6174757265202773272076616c60008201527f7565000000000000000000000000000000000000000000000000000000000000602082015250565b6000613304602283612922565b915061330f826132a8565b604082019050919050565b60006020820190508181036000830152613333816132f7565b9050919050565b7f45434453413a20696e76616c6964207369676e6174757265202776272076616c60008201527f7565000000000000000000000000000000000000000000000000000000000000602082015250565b6000613396602283612922565b91506133a18261333a565b604082019050919050565b600060208201905081810360008301526133c581613389565b9050919050565b6133d5816126a2565b82525050565b600060ff82169050919050565b6133f1816133db565b82525050565b600060808201905061340c60008301876133cc565b61341960208301866133e8565b61342660408301856133cc565b61343360608301846133cc565b95945050505050565b60006134478261247e565b91506134528361247e565b9250827fffffffffffffffffffffffffffffffffffffffffffffffffffffffffffffffff0382111561348757613486612a57565b5b82820190509291505056fea2646970667358221220e789ea2dc054c0db72c4a0beb98c8ef51e99186af07642777682d8a086d554af64736f6c634300080d0033",
  "linkReferences": {},
  "deployedLinkReferences": {}
}