{
  "_format": "hh-sol-artifact-1",
  "contractName": "Vault",
  "sourceName": "contracts/Vault.sol",
  "abi": [
    {
      "inputs": [],
      "stateMutability": "nonpayable",
      "type": "constructor"
    },
    {
      "anonymous": false,
      "inputs": [
        {
          "indexed": true,
          "internalType": "bytes32",
          "name": "role",
          "type": "bytes32"
        },
        {
          "indexed": true,
          "internalType": "bytes32",
          "name": "previousAdminRole",
          "type": "bytes32"
        },
        {
          "indexed": true,
          "internalType": "bytes32",
          "name": "newAdminRole",
          "type": "bytes32"
        }
      ],
      "name": "RoleAdminChanged",
      "type": "event"
    },
    {
      "anonymous": false,
      "inputs": [
        {
          "indexed": true,
          "internalType": "bytes32",
          "name": "role",
          "type": "bytes32"
        },
        {
          "indexed": true,
          "internalType": "address",
          "name": "account",
          "type": "address"
        },
        {
          "indexed": true,
          "internalType": "address",
          "name": "sender",
          "type": "address"
        }
      ],
      "name": "RoleGranted",
      "type": "event"
    },
    {
      "anonymous": false,
      "inputs": [
        {
          "indexed": true,
          "internalType": "bytes32",
          "name": "role",
          "type": "bytes32"
        },
        {
          "indexed": true,
          "internalType": "address",
          "name": "account",
          "type": "address"
        },
        {
          "indexed": true,
          "internalType": "address",
          "name": "sender",
          "type": "address"
        }
      ],
      "name": "RoleRevoked",
      "type": "event"
    },
    {
      "inputs": [],
      "name": "ADMIN",
      "outputs": [
        {
          "internalType": "bytes32",
          "name": "",
          "type": "bytes32"
        }
      ],
      "stateMutability": "view",
      "type": "function"
    },
    {
      "inputs": [],
      "name": "DEFAULT_ADMIN_ROLE",
      "outputs": [
        {
          "internalType": "bytes32",
          "name": "",
          "type": "bytes32"
        }
      ],
      "stateMutability": "view",
      "type": "function"
    },
    {
      "inputs": [],
      "name": "FLASHBOT",
      "outputs": [
        {
          "internalType": "bytes32",
          "name": "",
          "type": "bytes32"
        }
      ],
      "stateMutability": "view",
      "type": "function"
    },
    {
      "inputs": [],
      "name": "SERVER_SIGNER",
      "outputs": [
        {
          "internalType": "bytes32",
          "name": "",
          "type": "bytes32"
        }
      ],
      "stateMutability": "view",
      "type": "function"
    },
    {
      "inputs": [
        {
          "internalType": "address",
          "name": "_originalAddress",
          "type": "address"
        },
        {
          "internalType": "address",
          "name": "_erc20Address",
          "type": "address"
        }
      ],
      "name": "canWithdrawERC20",
      "outputs": [
        {
          "internalType": "uint256",
          "name": "",
          "type": "uint256"
        }
      ],
      "stateMutability": "view",
      "type": "function"
    },
    {
      "inputs": [
        {
          "internalType": "address",
          "name": "_originalAddress",
          "type": "address"
        },
        {
          "internalType": "address",
          "name": "_erc721Address",
          "type": "address"
        },
        {
          "internalType": "uint256",
          "name": "_id",
          "type": "uint256"
        }
      ],
      "name": "canWithdrawERC721",
      "outputs": [
        {
          "internalType": "bool",
          "name": "",
          "type": "bool"
        }
      ],
      "stateMutability": "view",
      "type": "function"
    },
    {
      "inputs": [
        {
          "internalType": "bytes32",
          "name": "_data",
          "type": "bytes32"
        },
        {
          "internalType": "bytes",
          "name": "_signature",
          "type": "bytes"
        },
        {
          "internalType": "address",
          "name": "_newRecipientAddress",
          "type": "address"
        }
      ],
      "name": "changeRecipientAddress",
      "outputs": [],
      "stateMutability": "nonpayable",
      "type": "function"
    },
    {
      "inputs": [],
      "name": "contractFee",
      "outputs": [
        {
          "internalType": "uint256",
          "name": "",
          "type": "uint256"
        }
      ],
      "stateMutability": "view",
      "type": "function"
    },
    {
      "inputs": [
        {
          "internalType": "bytes32",
          "name": "role",
          "type": "bytes32"
        }
      ],
      "name": "getRoleAdmin",
      "outputs": [
        {
          "internalType": "bytes32",
          "name": "",
          "type": "bytes32"
        }
      ],
      "stateMutability": "view",
      "type": "function"
    },
    {
      "inputs": [
        {
          "internalType": "bytes32",
          "name": "role",
          "type": "bytes32"
        },
        {
          "internalType": "address",
          "name": "account",
          "type": "address"
        }
      ],
      "name": "grantRole",
      "outputs": [],
      "stateMutability": "nonpayable",
      "type": "function"
    },
    {
      "inputs": [
        {
          "internalType": "bytes32",
          "name": "role",
          "type": "bytes32"
        },
        {
          "internalType": "address",
          "name": "account",
          "type": "address"
        }
      ],
      "name": "hasRole",
      "outputs": [
        {
          "internalType": "bool",
          "name": "",
          "type": "bool"
        }
      ],
      "stateMutability": "view",
      "type": "function"
    },
    {
      "inputs": [
        {
          "internalType": "address",
          "name": "_originalAddress",
          "type": "address"
        },
        {
          "internalType": "address",
          "name": "_erc20Address",
          "type": "address"
        },
        {
          "internalType": "uint256",
          "name": "_amount",
          "type": "uint256"
        }
      ],
      "name": "logIncomingERC20",
      "outputs": [],
      "stateMutability": "nonpayable",
      "type": "function"
    },
    {
      "inputs": [
        {
          "internalType": "address",
          "name": "_originalAddress",
          "type": "address"
        },
        {
          "internalType": "address",
          "name": "_erc721Address",
          "type": "address"
        },
        {
          "internalType": "uint256",
          "name": "_id",
          "type": "uint256"
        }
      ],
      "name": "logIncomingERC721",
      "outputs": [],
      "stateMutability": "nonpayable",
      "type": "function"
    },
    {
      "inputs": [
        {
          "internalType": "address",
          "name": "operator",
          "type": "address"
        },
        {
          "internalType": "address",
          "name": "from",
          "type": "address"
        },
        {
          "internalType": "uint256",
          "name": "tokenId",
          "type": "uint256"
        },
        {
          "internalType": "bytes",
          "name": "data",
          "type": "bytes"
        }
      ],
      "name": "onERC721Received",
      "outputs": [
        {
          "internalType": "bytes4",
          "name": "",
          "type": "bytes4"
        }
      ],
      "stateMutability": "nonpayable",
      "type": "function"
    },
    {
      "inputs": [
        {
          "internalType": "bytes32",
          "name": "role",
          "type": "bytes32"
        },
        {
          "internalType": "address",
          "name": "account",
          "type": "address"
        }
      ],
      "name": "renounceRole",
      "outputs": [],
      "stateMutability": "nonpayable",
      "type": "function"
    },
    {
      "inputs": [
        {
          "internalType": "bytes32",
          "name": "role",
          "type": "bytes32"
        },
        {
          "internalType": "address",
          "name": "account",
          "type": "address"
        }
      ],
      "name": "revokeRole",
      "outputs": [],
      "stateMutability": "nonpayable",
      "type": "function"
    },
    {
      "inputs": [
        {
          "internalType": "address",
          "name": "_recipient",
          "type": "address"
        }
      ],
      "name": "setupRecipientAddress",
      "outputs": [],
      "stateMutability": "nonpayable",
      "type": "function"
    },
    {
      "inputs": [
        {
          "internalType": "bytes4",
          "name": "interfaceId",
          "type": "bytes4"
        }
      ],
      "name": "supportsInterface",
      "outputs": [
        {
          "internalType": "bool",
          "name": "",
          "type": "bool"
        }
      ],
      "stateMutability": "view",
      "type": "function"
    },
    {
      "inputs": [
        {
          "internalType": "address",
          "name": "_originalAddress",
          "type": "address"
        }
      ],
      "name": "viewRecipientAddress",
      "outputs": [
        {
          "internalType": "address",
          "name": "",
          "type": "address"
        }
      ],
      "stateMutability": "view",
      "type": "function"
    },
    {
      "inputs": [
        {
          "internalType": "address",
          "name": "_originalAddress",
          "type": "address"
        },
        {
          "internalType": "address",
          "name": "_erc20Address",
          "type": "address"
        },
        {
          "internalType": "uint256",
          "name": "_amount",
          "type": "uint256"
        }
      ],
      "name": "withdrawERC20",
      "outputs": [],
      "stateMutability": "nonpayable",
      "type": "function"
    },
    {
      "inputs": [
        {
          "internalType": "address",
          "name": "_originalAddress",
          "type": "address"
        },
        {
          "internalType": "address",
          "name": "_erc721Address",
          "type": "address"
        },
        {
          "internalType": "uint256",
          "name": "_id",
          "type": "uint256"
        }
      ],
      "name": "withdrawERC721",
      "outputs": [],
      "stateMutability": "nonpayable",
      "type": "function"
    }
  ],
  "bytecode": "0x60806040523480156200001157600080fd5b50620000447fdf8b4c520ffe197c5343c6f5aec59570151ef9a492f2c624fd45ddde6135ec42336200012060201b60201c565b620000767fdf8b4c520ffe197c5343c6f5aec59570151ef9a492f2c624fd45ddde6135ec42806200013660201b60201c565b620000c87f3963944e094b29a821d27cef214f95dda3f2612bb509ab0636a0fac6798eaaae7fdf8b4c520ffe197c5343c6f5aec59570151ef9a492f2c624fd45ddde6135ec426200013660201b60201c565b6200011a7ffc3a1e563867388b9f5c581f4f6d997cb469f94216c1cd6bc4c6df5a2bcbe3217fdf8b4c520ffe197c5343c6f5aec59570151ef9a492f2c624fd45ddde6135ec426200013660201b60201c565b6200031b565b6200013282826200019960201b60201c565b5050565b600062000149836200028a60201b60201c565b905081600080858152602001908152602001600020600101819055508181847fbd79b86ffe0ab8e8776151514217cd7cacd52c909f66475c3af44e129f0b00ff60405160405180910390a4505050565b620001ab8282620002a960201b60201c565b6200028657600160008084815260200190815260200160002060000160008373ffffffffffffffffffffffffffffffffffffffff1673ffffffffffffffffffffffffffffffffffffffff16815260200190815260200160002060006101000a81548160ff0219169083151502179055506200022b6200031360201b60201c565b73ffffffffffffffffffffffffffffffffffffffff168173ffffffffffffffffffffffffffffffffffffffff16837f2f8788117e7eff1d82e926ec794901d17c78024a50270940304540a733656f0d60405160405180910390a45b5050565b6000806000838152602001908152602001600020600101549050919050565b600080600084815260200190815260200160002060000160008373ffffffffffffffffffffffffffffffffffffffff1673ffffffffffffffffffffffffffffffffffffffff16815260200190815260200160002060009054906101000a900460ff16905092915050565b600033905090565b612aa0806200032b6000396000f3fe608060405234801561001057600080fd5b50600436106101375760003560e01c80634f4a7e70116100b8578063a217fddf1161007c578063a217fddf1461035e578063a7deb2d61461037c578063af08ef9a14610398578063d41977cd146103b4578063d547741f146103d2578063d9ce6ae7146103ee57610137565b80634f4a7e7014610292578063781be87d146102c257806390ffaa2a146102e057806391d148541461031057806397f472661461034057610137565b80632f2ff15d116100ff5780632f2ff15d1461020657806336568abe146102225780634025feb21461023e57806344004cc11461025a5780634761a63d1461027657610137565b806301ffc9a71461013c5780630ca931711461016c578063150b7a0214610188578063248a9ca3146101b85780632a0acc6a146101e8575b600080fd5b61015660048036038101906101519190611a16565b61041e565b6040516101639190611a5e565b60405180910390f35b61018660048036038101906101819190611ad7565b610498565b005b6101a2600480360381019061019d9190611b9f565b6105b1565b6040516101af9190611c36565b60405180910390f35b6101d260048036038101906101cd9190611c87565b6105c6565b6040516101df9190611cc3565b60405180910390f35b6101f06105e5565b6040516101fd9190611cc3565b60405180910390f35b610220600480360381019061021b9190611cde565b610609565b005b61023c60048036038101906102379190611cde565b61062a565b005b61025860048036038101906102539190611d1e565b6106ad565b005b610274600480360381019061026f9190611d1e565b6108de565b005b610290600480360381019061028b9190611d1e565b610b0e565b005b6102ac60048036038101906102a79190611d1e565b610bbf565b6040516102b99190611a5e565b60405180910390f35b6102ca610c65565b6040516102d79190611cc3565b60405180910390f35b6102fa60048036038101906102f59190611d71565b610c89565b6040516103079190611dc0565b60405180910390f35b61032a60048036038101906103259190611cde565b610d10565b6040516103379190611a5e565b60405180910390f35b610348610d7a565b6040516103559190611cc3565b60405180910390f35b610366610d9e565b6040516103739190611cc3565b60405180910390f35b61039660048036038101906103919190611f1c565b610da5565b005b6103b260048036038101906103ad9190611d1e565b610f15565b005b6103bc610feb565b6040516103c99190611dc0565b60405180910390f35b6103ec60048036038101906103e79190611cde565b610ff1565b005b61040860048036038101906104039190611ad7565b611012565b6040516104159190611f9a565b60405180910390f35b60007f7965db0b000000000000000000000000000000000000000000000000000000007bffffffffffffffffffffffffffffffffffffffffffffffffffffffff1916827bffffffffffffffffffffffffffffffffffffffffffffffffffffffff1916148061049157506104908261107b565b5b9050919050565b600073ffffffffffffffffffffffffffffffffffffffff16600260003373ffffffffffffffffffffffffffffffffffffffff1673ffffffffffffffffffffffffffffffffffffffff16815260200190815260200160002060009054906101000a900473ffffffffffffffffffffffffffffffffffffffff1673ffffffffffffffffffffffffffffffffffffffff161461053057600080fd5b80600260003373ffffffffffffffffffffffffffffffffffffffff1673ffffffffffffffffffffffffffffffffffffffff16815260200190815260200160002060006101000a81548173ffffffffffffffffffffffffffffffffffffffff021916908373ffffffffffffffffffffffffffffffffffffffff16021790555050565b600063150b7a0260e01b905095945050505050565b6000806000838152602001908152602001600020600101549050919050565b7fdf8b4c520ffe197c5343c6f5aec59570151ef9a492f2c624fd45ddde6135ec4281565b610612826105c6565b61061b816110e5565b61062583836110f9565b505050565b6106326111d9565b73ffffffffffffffffffffffffffffffffffffffff168173ffffffffffffffffffffffffffffffffffffffff161461069f576040517f08c379a000000000000000000000000000000000000000000000000000000000815260040161069690612038565b60405180910390fd5b6106a982826111e1565b5050565b3373ffffffffffffffffffffffffffffffffffffffff16600260008573ffffffffffffffffffffffffffffffffffffffff1673ffffffffffffffffffffffffffffffffffffffff16815260200190815260200160002060009054906101000a900473ffffffffffffffffffffffffffffffffffffffff1673ffffffffffffffffffffffffffffffffffffffff161461077a576040517f08c379a0000000000000000000000000000000000000000000000000000000008152600401610771906120ca565b60405180910390fd5b610785838383610bbf565b6107c4576040517f08c379a00000000000000000000000000000000000000000000000000000000081526004016107bb9061215c565b60405180910390fd5b6000600460008573ffffffffffffffffffffffffffffffffffffffff1673ffffffffffffffffffffffffffffffffffffffff16815260200190815260200160002060008473ffffffffffffffffffffffffffffffffffffffff1673ffffffffffffffffffffffffffffffffffffffff168152602001908152602001600020600083815260200190815260200160002060006101000a81548160ff0219169083151502179055508173ffffffffffffffffffffffffffffffffffffffff166323b872dd3033846040518463ffffffff1660e01b81526004016108a79392919061217c565b600060405180830381600087803b1580156108c157600080fd5b505af11580156108d5573d6000803e3d6000fd5b50505050505050565b3373ffffffffffffffffffffffffffffffffffffffff16600260008573ffffffffffffffffffffffffffffffffffffffff1673ffffffffffffffffffffffffffffffffffffffff16815260200190815260200160002060009054906101000a900473ffffffffffffffffffffffffffffffffffffffff1673ffffffffffffffffffffffffffffffffffffffff16146109ab576040517f08c379a00000000000000000000000000000000000000000000000000000000081526004016109a2906120ca565b60405180910390fd5b806109b68484610c89565b10156109f7576040517f08c379a00000000000000000000000000000000000000000000000000000000081526004016109ee9061215c565b60405180910390fd5b80600360008573ffffffffffffffffffffffffffffffffffffffff1673ffffffffffffffffffffffffffffffffffffffff16815260200190815260200160002060008473ffffffffffffffffffffffffffffffffffffffff1673ffffffffffffffffffffffffffffffffffffffff1681526020019081526020016000206000828254610a8391906121e2565b925050819055508173ffffffffffffffffffffffffffffffffffffffff1663a9059cbb33836040518363ffffffff1660e01b8152600401610ac5929190612216565b6020604051808303816000875af1158015610ae4573d6000803e3d6000fd5b505050506040513d601f19601f82011682018060405250810190610b08919061226b565b50505050565b7ffc3a1e563867388b9f5c581f4f6d997cb469f94216c1cd6bc4c6df5a2bcbe321610b38816110e5565b81600360008673ffffffffffffffffffffffffffffffffffffffff1673ffffffffffffffffffffffffffffffffffffffff16815260200190815260200160002060008573ffffffffffffffffffffffffffffffffffffffff1673ffffffffffffffffffffffffffffffffffffffff1681526020019081526020016000208190555050505050565b6000600460008573ffffffffffffffffffffffffffffffffffffffff1673ffffffffffffffffffffffffffffffffffffffff16815260200190815260200160002060008473ffffffffffffffffffffffffffffffffffffffff1673ffffffffffffffffffffffffffffffffffffffff168152602001908152602001600020600083815260200190815260200160002060009054906101000a900460ff1690509392505050565b7f3963944e094b29a821d27cef214f95dda3f2612bb509ab0636a0fac6798eaaae81565b6000600360008473ffffffffffffffffffffffffffffffffffffffff1673ffffffffffffffffffffffffffffffffffffffff16815260200190815260200160002060008373ffffffffffffffffffffffffffffffffffffffff1673ffffffffffffffffffffffffffffffffffffffff16815260200190815260200160002054905092915050565b600080600084815260200190815260200160002060000160008373ffffffffffffffffffffffffffffffffffffffff1673ffffffffffffffffffffffffffffffffffffffff16815260200190815260200160002060009054906101000a900460ff16905092915050565b7ffc3a1e563867388b9f5c581f4f6d997cb469f94216c1cd6bc4c6df5a2bcbe32181565b6000801b81565b610de97f3963944e094b29a821d27cef214f95dda3f2612bb509ab0636a0fac6798eaaae610de484610dd6876112c2565b6112f290919063ffffffff16565b610d10565b610e28576040517f08c379a0000000000000000000000000000000000000000000000000000000008152600401610e1f9061230a565b60405180910390fd5b823382604051602001610e3c929190612372565b6040516020818303038152906040528051906020012014610e92576040517f08c379a0000000000000000000000000000000000000000000000000000000008152600401610e8990612410565b60405180910390fd5b80600260003373ffffffffffffffffffffffffffffffffffffffff1673ffffffffffffffffffffffffffffffffffffffff16815260200190815260200160002060006101000a81548173ffffffffffffffffffffffffffffffffffffffff021916908373ffffffffffffffffffffffffffffffffffffffff160217905550505050565b7ffc3a1e563867388b9f5c581f4f6d997cb469f94216c1cd6bc4c6df5a2bcbe321610f3f816110e5565b6001600460008673ffffffffffffffffffffffffffffffffffffffff1673ffffffffffffffffffffffffffffffffffffffff16815260200190815260200160002060008573ffffffffffffffffffffffffffffffffffffffff1673ffffffffffffffffffffffffffffffffffffffff168152602001908152602001600020600084815260200190815260200160002060006101000a81548160ff02191690831515021790555050505050565b60015481565b610ffa826105c6565b611003816110e5565b61100d83836111e1565b505050565b6000600260008373ffffffffffffffffffffffffffffffffffffffff1673ffffffffffffffffffffffffffffffffffffffff16815260200190815260200160002060009054906101000a900473ffffffffffffffffffffffffffffffffffffffff169050919050565b60007f01ffc9a7000000000000000000000000000000000000000000000000000000007bffffffffffffffffffffffffffffffffffffffffffffffffffffffff1916827bffffffffffffffffffffffffffffffffffffffffffffffffffffffff1916149050919050565b6110f6816110f16111d9565b611319565b50565b6111038282610d10565b6111d557600160008084815260200190815260200160002060000160008373ffffffffffffffffffffffffffffffffffffffff1673ffffffffffffffffffffffffffffffffffffffff16815260200190815260200160002060006101000a81548160ff02191690831515021790555061117a6111d9565b73ffffffffffffffffffffffffffffffffffffffff168173ffffffffffffffffffffffffffffffffffffffff16837f2f8788117e7eff1d82e926ec794901d17c78024a50270940304540a733656f0d60405160405180910390a45b5050565b600033905090565b6111eb8282610d10565b156112be57600080600084815260200190815260200160002060000160008373ffffffffffffffffffffffffffffffffffffffff1673ffffffffffffffffffffffffffffffffffffffff16815260200190815260200160002060006101000a81548160ff0219169083151502179055506112636111d9565b73ffffffffffffffffffffffffffffffffffffffff168173ffffffffffffffffffffffffffffffffffffffff16837ff6391f5c32d9c69d2a47ea670b442974b53935d1edc7fd64eb21e047a839171b60405160405180910390a45b5050565b6000816040516020016112d591906124a8565b604051602081830303815290604052805190602001209050919050565b600080600061130185856113b6565b9150915061130e81611437565b819250505092915050565b6113238282610d10565b6113b2576113488173ffffffffffffffffffffffffffffffffffffffff166014611603565b6113568360001c6020611603565b6040516020016113679291906125d5565b6040516020818303038152906040526040517f08c379a00000000000000000000000000000000000000000000000000000000081526004016113a99190612648565b60405180910390fd5b5050565b60008060418351036113f75760008060006020860151925060408601519150606086015160001a90506113eb8782858561183f565b94509450505050611430565b604083510361142757600080602085015191506040850151905061141c86838361194b565b935093505050611430565b60006002915091505b9250929050565b6000600481111561144b5761144a61266a565b5b81600481111561145e5761145d61266a565b5b031561160057600160048111156114785761147761266a565b5b81600481111561148b5761148a61266a565b5b036114cb576040517f08c379a00000000000000000000000000000000000000000000000000000000081526004016114c2906126e5565b60405180910390fd5b600260048111156114df576114de61266a565b5b8160048111156114f2576114f161266a565b5b03611532576040517f08c379a000000000000000000000000000000000000000000000000000000000815260040161152990612751565b60405180910390fd5b600360048111156115465761154561266a565b5b8160048111156115595761155861266a565b5b03611599576040517f08c379a0000000000000000000000000000000000000000000000000000000008152600401611590906127e3565b60405180910390fd5b6004808111156115ac576115ab61266a565b5b8160048111156115bf576115be61266a565b5b036115ff576040517f08c379a00000000000000000000000000000000000000000000000000000000081526004016115f690612875565b60405180910390fd5b5b50565b6060600060028360026116169190612895565b61162091906128ef565b67ffffffffffffffff81111561163957611638611df1565b5b6040519080825280601f01601f19166020018201604052801561166b5781602001600182028036833780820191505090505b5090507f3000000000000000000000000000000000000000000000000000000000000000816000815181106116a3576116a2612945565b5b60200101907effffffffffffffffffffffffffffffffffffffffffffffffffffffffffffff1916908160001a9053507f78000000000000000000000000000000000000000000000000000000000000008160018151811061170757611706612945565b5b60200101907effffffffffffffffffffffffffffffffffffffffffffffffffffffffffffff1916908160001a905350600060018460026117479190612895565b61175191906128ef565b90505b60018111156117f1577f3031323334353637383961626364656600000000000000000000000000000000600f86166010811061179357611792612945565b5b1a60f81b8282815181106117aa576117a9612945565b5b60200101907effffffffffffffffffffffffffffffffffffffffffffffffffffffffffffff1916908160001a905350600485901c9450806117ea90612974565b9050611754565b5060008414611835576040517f08c379a000000000000000000000000000000000000000000000000000000000815260040161182c906129e9565b60405180910390fd5b8091505092915050565b6000807f7fffffffffffffffffffffffffffffff5d576e7357a4501ddfe92f46681b20a08360001c111561187a576000600391509150611942565b601b8560ff16141580156118925750601c8560ff1614155b156118a4576000600491509150611942565b6000600187878787604051600081526020016040526040516118c99493929190612a25565b6020604051602081039080840390855afa1580156118eb573d6000803e3d6000fd5b505050602060405103519050600073ffffffffffffffffffffffffffffffffffffffff168173ffffffffffffffffffffffffffffffffffffffff160361193957600060019250925050611942565b80600092509250505b94509492505050565b60008060007f7fffffffffffffffffffffffffffffffffffffffffffffffffffffffffffffff60001b841690506000601b60ff8660001c901c61198e91906128ef565b905061199c8782888561183f565b935093505050935093915050565b6000604051905090565b600080fd5b600080fd5b60007fffffffff0000000000000000000000000000000000000000000000000000000082169050919050565b6119f3816119be565b81146119fe57600080fd5b50565b600081359050611a10816119ea565b92915050565b600060208284031215611a2c57611a2b6119b4565b5b6000611a3a84828501611a01565b91505092915050565b60008115159050919050565b611a5881611a43565b82525050565b6000602082019050611a736000830184611a4f565b92915050565b600073ffffffffffffffffffffffffffffffffffffffff82169050919050565b6000611aa482611a79565b9050919050565b611ab481611a99565b8114611abf57600080fd5b50565b600081359050611ad181611aab565b92915050565b600060208284031215611aed57611aec6119b4565b5b6000611afb84828501611ac2565b91505092915050565b6000819050919050565b611b1781611b04565b8114611b2257600080fd5b50565b600081359050611b3481611b0e565b92915050565b600080fd5b600080fd5b600080fd5b60008083601f840112611b5f57611b5e611b3a565b5b8235905067ffffffffffffffff811115611b7c57611b7b611b3f565b5b602083019150836001820283011115611b9857611b97611b44565b5b9250929050565b600080600080600060808688031215611bbb57611bba6119b4565b5b6000611bc988828901611ac2565b9550506020611bda88828901611ac2565b9450506040611beb88828901611b25565b935050606086013567ffffffffffffffff811115611c0c57611c0b6119b9565b5b611c1888828901611b49565b92509250509295509295909350565b611c30816119be565b82525050565b6000602082019050611c4b6000830184611c27565b92915050565b6000819050919050565b611c6481611c51565b8114611c6f57600080fd5b50565b600081359050611c8181611c5b565b92915050565b600060208284031215611c9d57611c9c6119b4565b5b6000611cab84828501611c72565b91505092915050565b611cbd81611c51565b82525050565b6000602082019050611cd86000830184611cb4565b92915050565b60008060408385031215611cf557611cf46119b4565b5b6000611d0385828601611c72565b9250506020611d1485828601611ac2565b9150509250929050565b600080600060608486031215611d3757611d366119b4565b5b6000611d4586828701611ac2565b9350506020611d5686828701611ac2565b9250506040611d6786828701611b25565b9150509250925092565b60008060408385031215611d8857611d876119b4565b5b6000611d9685828601611ac2565b9250506020611da785828601611ac2565b9150509250929050565b611dba81611b04565b82525050565b6000602082019050611dd56000830184611db1565b92915050565b600080fd5b6000601f19601f8301169050919050565b7f4e487b7100000000000000000000000000000000000000000000000000000000600052604160045260246000fd5b611e2982611de0565b810181811067ffffffffffffffff82111715611e4857611e47611df1565b5b80604052505050565b6000611e5b6119aa565b9050611e678282611e20565b919050565b600067ffffffffffffffff821115611e8757611e86611df1565b5b611e9082611de0565b9050602081019050919050565b82818337600083830152505050565b6000611ebf611eba84611e6c565b611e51565b905082815260208101848484011115611edb57611eda611ddb565b5b611ee6848285611e9d565b509392505050565b600082601f830112611f0357611f02611b3a565b5b8135611f13848260208601611eac565b91505092915050565b600080600060608486031215611f3557611f346119b4565b5b6000611f4386828701611c72565b935050602084013567ffffffffffffffff811115611f6457611f636119b9565b5b611f7086828701611eee565b9250506040611f8186828701611ac2565b9150509250925092565b611f9481611a99565b82525050565b6000602082019050611faf6000830184611f8b565b92915050565b600082825260208201905092915050565b7f416363657373436f6e74726f6c3a2063616e206f6e6c792072656e6f756e636560008201527f20726f6c657320666f722073656c660000000000000000000000000000000000602082015250565b6000612022602f83611fb5565b915061202d82611fc6565b604082019050919050565b6000602082019050818103600083015261205181612015565b9050919050565b7f46756e6374696f6e2063616c6c6572206973206e6f7420616e20617574686f7260008201527f697a656420726563697069656e74416464726573732e00000000000000000000602082015250565b60006120b4603683611fb5565b91506120bf82612058565b604082019050919050565b600060208201905081810360008301526120e3816120a7565b9050919050565b7f496e73756666696369656e74207769746864726177616c20616c6c6f77616e6360008201527f652e000000000000000000000000000000000000000000000000000000000000602082015250565b6000612146602283611fb5565b9150612151826120ea565b604082019050919050565b6000602082019050818103600083015261217581612139565b9050919050565b60006060820190506121916000830186611f8b565b61219e6020830185611f8b565b6121ab6040830184611db1565b949350505050565b7f4e487b7100000000000000000000000000000000000000000000000000000000600052601160045260246000fd5b60006121ed82611b04565b91506121f883611b04565b92508282101561220b5761220a6121b3565b5b828203905092915050565b600060408201905061222b6000830185611f8b565b6122386020830184611db1565b9392505050565b61224881611a43565b811461225357600080fd5b50565b6000815190506122658161223f565b92915050565b600060208284031215612281576122806119b4565b5b600061228f84828501612256565b91505092915050565b7f5369676e6174757265206d7573742062652066726f6d2053455256455220534960008201527f474e455220726f6c650000000000000000000000000000000000000000000000602082015250565b60006122f4602983611fb5565b91506122ff82612298565b604082019050919050565b60006020820190508181036000830152612323816122e7565b9050919050565b60008160601b9050919050565b60006123428261232a565b9050919050565b600061235482612337565b9050919050565b61236c61236782611a99565b612349565b82525050565b600061237e828561235b565b60148201915061238e828461235b565b6014820191508190509392505050565b7f50726f7669646564207369676e617475726520646f6573206e6f74206d61746360008201527f6820726571756972656420706172616d65746572730000000000000000000000602082015250565b60006123fa603583611fb5565b91506124058261239e565b604082019050919050565b60006020820190508181036000830152612429816123ed565b9050919050565b600081905092915050565b7f19457468657265756d205369676e6564204d6573736167653a0a333200000000600082015250565b6000612471601c83612430565b915061247c8261243b565b601c82019050919050565b6000819050919050565b6124a261249d82611c51565b612487565b82525050565b60006124b382612464565b91506124bf8284612491565b60208201915081905092915050565b7f416363657373436f6e74726f6c3a206163636f756e7420000000000000000000600082015250565b6000612504601783612430565b915061250f826124ce565b601782019050919050565b600081519050919050565b60005b83811015612543578082015181840152602081019050612528565b83811115612552576000848401525b50505050565b60006125638261251a565b61256d8185612430565b935061257d818560208601612525565b80840191505092915050565b7f206973206d697373696e6720726f6c6520000000000000000000000000000000600082015250565b60006125bf601183612430565b91506125ca82612589565b601182019050919050565b60006125e0826124f7565b91506125ec8285612558565b91506125f7826125b2565b91506126038284612558565b91508190509392505050565b600061261a8261251a565b6126248185611fb5565b9350612634818560208601612525565b61263d81611de0565b840191505092915050565b60006020820190508181036000830152612662818461260f565b905092915050565b7f4e487b7100000000000000000000000000000000000000000000000000000000600052602160045260246000fd5b7f45434453413a20696e76616c6964207369676e61747572650000000000000000600082015250565b60006126cf601883611fb5565b91506126da82612699565b602082019050919050565b600060208201905081810360008301526126fe816126c2565b9050919050565b7f45434453413a20696e76616c6964207369676e6174757265206c656e67746800600082015250565b600061273b601f83611fb5565b915061274682612705565b602082019050919050565b6000602082019050818103600083015261276a8161272e565b9050919050565b7f45434453413a20696e76616c6964207369676e6174757265202773272076616c60008201527f7565000000000000000000000000000000000000000000000000000000000000602082015250565b60006127cd602283611fb5565b91506127d882612771565b604082019050919050565b600060208201905081810360008301526127fc816127c0565b9050919050565b7f45434453413a20696e76616c6964207369676e6174757265202776272076616c60008201527f7565000000000000000000000000000000000000000000000000000000000000602082015250565b600061285f602283611fb5565b915061286a82612803565b604082019050919050565b6000602082019050818103600083015261288e81612852565b9050919050565b60006128a082611b04565b91506128ab83611b04565b9250817fffffffffffffffffffffffffffffffffffffffffffffffffffffffffffffffff04831182151516156128e4576128e36121b3565b5b828202905092915050565b60006128fa82611b04565b915061290583611b04565b9250827fffffffffffffffffffffffffffffffffffffffffffffffffffffffffffffffff0382111561293a576129396121b3565b5b828201905092915050565b7f4e487b7100000000000000000000000000000000000000000000000000000000600052603260045260246000fd5b600061297f82611b04565b915060008203612992576129916121b3565b5b600182039050919050565b7f537472696e67733a20686578206c656e67746820696e73756666696369656e74600082015250565b60006129d3602083611fb5565b91506129de8261299d565b602082019050919050565b60006020820190508181036000830152612a02816129c6565b9050919050565b600060ff82169050919050565b612a1f81612a09565b82525050565b6000608082019050612a3a6000830187611cb4565b612a476020830186612a16565b612a546040830185611cb4565b612a616060830184611cb4565b9594505050505056fea26469706673582212202db4ccd6ac1b2f7ce56148932de31946366b8f6fa64ea9d3c39c62a839fe14e664736f6c634300080d0033",
  "linkReferences": {},
  "deployedLinkReferences": {}
}