{
  "_format": "hh-sol-artifact-1",
  "contractName": "Vault",
  "sourceName": "contracts/Vault.sol",
  "abi": [
    {
      "inputs": [
        {
          "internalType": "address",
          "name": "_transferer",
          "type": "address"
        },
        {
          "internalType": "address",
          "name": "_serverSigner",
          "type": "address"
        },
        {
          "internalType": "address payable",
          "name": "_feeController",
          "type": "address"
        }
      ],
      "stateMutability": "nonpayable",
      "type": "constructor"
    },
    {
      "inputs": [
        {
          "internalType": "address",
          "name": "_originalAddress",
          "type": "address"
        },
        {
          "internalType": "address",
          "name": "_erc20Address",
          "type": "address"
        }
      ],
      "name": "canWithdrawERC20",
      "outputs": [
        {
          "internalType": "uint256",
          "name": "",
          "type": "uint256"
        }
      ],
      "stateMutability": "view",
      "type": "function"
    },
    {
      "inputs": [
        {
          "internalType": "address",
          "name": "_originalAddress",
          "type": "address"
        },
        {
          "internalType": "address",
          "name": "_erc721Address",
          "type": "address"
        },
        {
          "internalType": "uint256",
          "name": "_id",
          "type": "uint256"
        }
      ],
      "name": "canWithdrawERC721",
      "outputs": [
        {
          "internalType": "bool",
          "name": "",
          "type": "bool"
        }
      ],
      "stateMutability": "view",
      "type": "function"
    },
    {
      "inputs": [
        {
          "internalType": "address payable",
          "name": "_newFeeController",
          "type": "address"
        }
      ],
      "name": "changeFeeController",
      "outputs": [],
      "stateMutability": "nonpayable",
      "type": "function"
    },
    {
      "inputs": [
        {
          "internalType": "bytes",
          "name": "_signature",
          "type": "bytes"
        },
        {
          "internalType": "address",
          "name": "_newRecipientAddress",
          "type": "address"
        },
        {
          "internalType": "uint256",
          "name": "expiry",
          "type": "uint256"
        }
      ],
      "name": "changeRecipientAddress",
      "outputs": [],
      "stateMutability": "nonpayable",
      "type": "function"
    },
    {
      "inputs": [
        {
          "internalType": "address",
          "name": "_originalAddress",
          "type": "address"
        },
        {
          "internalType": "address",
          "name": "_erc20Address",
          "type": "address"
        }
      ],
      "name": "erc20Fee",
      "outputs": [
        {
          "internalType": "uint128",
          "name": "",
          "type": "uint128"
        }
      ],
      "stateMutability": "view",
      "type": "function"
    },
    {
      "inputs": [
        {
          "internalType": "address",
          "name": "_originalAddress",
          "type": "address"
        },
        {
          "internalType": "address",
          "name": "_erc721Address",
          "type": "address"
        },
        {
          "internalType": "uint256",
          "name": "_id",
          "type": "uint256"
        }
      ],
      "name": "erc721Fee",
      "outputs": [
        {
          "internalType": "uint128",
          "name": "",
          "type": "uint128"
        }
      ],
      "stateMutability": "view",
      "type": "function"
    },
    {
      "inputs": [
        {
          "internalType": "address",
          "name": "_originalAddress",
          "type": "address"
        },
        {
          "internalType": "address",
          "name": "_erc20Address",
          "type": "address"
        },
        {
          "internalType": "uint256",
          "name": "_amount",
          "type": "uint256"
        },
        {
          "internalType": "uint128",
          "name": "_fee",
          "type": "uint128"
        }
      ],
      "name": "logIncomingERC20",
      "outputs": [],
      "stateMutability": "nonpayable",
      "type": "function"
    },
    {
      "inputs": [
        {
          "internalType": "address",
          "name": "_originalAddress",
          "type": "address"
        },
        {
          "internalType": "address",
          "name": "_erc721Address",
          "type": "address"
        },
        {
          "internalType": "uint256",
          "name": "_id",
          "type": "uint256"
        },
        {
          "internalType": "uint128",
          "name": "_fee",
          "type": "uint128"
        }
      ],
      "name": "logIncomingERC721",
      "outputs": [],
      "stateMutability": "nonpayable",
      "type": "function"
    },
    {
      "inputs": [
        {
          "internalType": "address",
          "name": "_originalAddress",
          "type": "address"
        },
        {
          "internalType": "address",
          "name": "_erc20Address",
          "type": "address"
        },
        {
          "internalType": "uint128",
          "name": "_reduceBy",
          "type": "uint128"
        }
      ],
      "name": "reduceERC20Fee",
      "outputs": [
        {
          "internalType": "uint128",
          "name": "",
          "type": "uint128"
        }
      ],
      "stateMutability": "nonpayable",
      "type": "function"
    },
    {
      "inputs": [
        {
          "internalType": "address",
          "name": "_originalAddress",
          "type": "address"
        },
        {
          "internalType": "address",
          "name": "_erc721Address",
          "type": "address"
        },
        {
          "internalType": "uint256",
          "name": "_id",
          "type": "uint256"
        },
        {
          "internalType": "uint128",
          "name": "_reduceBy",
          "type": "uint128"
        }
      ],
      "name": "reduceERC721Fee",
      "outputs": [
        {
          "internalType": "uint128",
          "name": "",
          "type": "uint128"
        }
      ],
      "stateMutability": "nonpayable",
      "type": "function"
    },
    {
      "inputs": [
        {
          "internalType": "address",
          "name": "_recipient",
          "type": "address"
        }
      ],
      "name": "setupRecipientAddress",
      "outputs": [],
      "stateMutability": "nonpayable",
      "type": "function"
    },
    {
      "inputs": [
        {
          "internalType": "address",
          "name": "_originalAddress",
          "type": "address"
        }
      ],
      "name": "viewRecipientAddress",
      "outputs": [
        {
          "internalType": "address",
          "name": "",
          "type": "address"
        }
      ],
      "stateMutability": "view",
      "type": "function"
    },
    {
      "inputs": [
        {
          "internalType": "address",
          "name": "_originalAddress",
          "type": "address"
        },
        {
          "internalType": "address",
          "name": "_erc20Address",
          "type": "address"
        }
      ],
      "name": "withdrawERC20",
      "outputs": [],
      "stateMutability": "payable",
      "type": "function"
    },
    {
      "inputs": [
        {
          "internalType": "address",
          "name": "_originalAddress",
          "type": "address"
        },
        {
          "internalType": "address",
          "name": "_erc721Address",
          "type": "address"
        },
        {
          "internalType": "uint256",
          "name": "_id",
          "type": "uint256"
        }
      ],
      "name": "withdrawERC721",
      "outputs": [],
      "stateMutability": "payable",
      "type": "function"
    },
    {
      "inputs": [
        {
          "internalType": "uint256",
          "name": "_amount",
          "type": "uint256"
        }
      ],
      "name": "withdrawPayments",
      "outputs": [],
      "stateMutability": "nonpayable",
      "type": "function"
    }
  ],
  "bytecode": "0x60c06040523480156200001157600080fd5b5060405162003f1438038062003f14833981810160405281019062000037919062000197565b8273ffffffffffffffffffffffffffffffffffffffff1660808173ffffffffffffffffffffffffffffffffffffffff16815250508173ffffffffffffffffffffffffffffffffffffffff1660a08173ffffffffffffffffffffffffffffffffffffffff1681525050806000806101000a81548173ffffffffffffffffffffffffffffffffffffffff021916908373ffffffffffffffffffffffffffffffffffffffff160217905550505050620001f3565b600080fd5b600073ffffffffffffffffffffffffffffffffffffffff82169050919050565b60006200011a82620000ed565b9050919050565b6200012c816200010d565b81146200013857600080fd5b50565b6000815190506200014c8162000121565b92915050565b60006200015f82620000ed565b9050919050565b620001718162000152565b81146200017d57600080fd5b50565b600081519050620001918162000166565b92915050565b600080600060608486031215620001b357620001b2620000e8565b5b6000620001c3868287016200013b565b9350506020620001d6868287016200013b565b9250506040620001e98682870162000180565b9150509250925092565b60805160a051613cf462000220600039600061121a01526000818161082f0152611e350152613cf46000f3fe6080604052600436106100e85760003560e01c80636a783cc51161008a5780639e74fb39116100595780639e74fb39146102fa578063c5b2ae7a14610337578063d9ce6ae714610360578063f574e2b61461039d576100e8565b80636a783cc51461023b57806379386cc81461026457806390ffaa2a146102a15780639456fbcc146102de576100e8565b80634025feb2116100c65780634025feb21461017c57806341975af8146101985780634f4a7e70146101c15780634fbcae61146101fe576100e8565b806309c0e14f146100ed5780630ca931711461012a5780633d602dbe14610153575b600080fd5b3480156100f957600080fd5b50610114600480360381019061010f91906127fd565b6103c6565b604051610121919061285f565b60405180910390f35b34801561013657600080fd5b50610151600480360381019061014c919061287a565b6106de565b005b34801561015f57600080fd5b5061017a600480360381019061017591906128dd565b61082d565b005b61019660048036038101906101919190612944565b610a89565b005b3480156101a457600080fd5b506101bf60048036038101906101ba9190612997565b610ef4565b005b3480156101cd57600080fd5b506101e860048036038101906101e39190612944565b611096565b6040516101f591906129df565b60405180910390f35b34801561020a57600080fd5b50610225600480360381019061022091906129fa565b61113f565b604051610232919061285f565b60405180910390f35b34801561024757600080fd5b50610262600480360381019061025d9190612b80565b6111e5565b005b34801561027057600080fd5b5061028b60048036038101906102869190612944565b61141a565b604051610298919061285f565b60405180910390f35b3480156102ad57600080fd5b506102c860048036038101906102c391906129fa565b6114d2565b6040516102d59190612bfe565b60405180910390f35b6102f860048036038101906102f391906129fa565b61158a565b005b34801561030657600080fd5b50610321600480360381019061031c91906128dd565b6119ad565b60405161032e919061285f565b60405180910390f35b34801561034357600080fd5b5061035e60048036038101906103599190612c57565b611cf9565b005b34801561036c57600080fd5b506103876004803603810190610382919061287a565b611dca565b6040516103949190612c93565b60405180910390f35b3480156103a957600080fd5b506103c460048036038101906103bf91906128dd565b611e33565b005b60008060009054906101000a900473ffffffffffffffffffffffffffffffffffffffff1673ffffffffffffffffffffffffffffffffffffffff163373ffffffffffffffffffffffffffffffffffffffff1614610457576040517f08c379a000000000000000000000000000000000000000000000000000000000815260040161044e90612d31565b60405180910390fd5b816fffffffffffffffffffffffffffffffff16600260008673ffffffffffffffffffffffffffffffffffffffff1673ffffffffffffffffffffffffffffffffffffffff16815260200190815260200160002060008573ffffffffffffffffffffffffffffffffffffffff1673ffffffffffffffffffffffffffffffffffffffff16815260200190815260200160002060000160109054906101000a90046fffffffffffffffffffffffffffffffff166fffffffffffffffffffffffffffffffff161015610559576040517f08c379a000000000000000000000000000000000000000000000000000000000815260040161055090612dc3565b60405180910390fd5b81600260008673ffffffffffffffffffffffffffffffffffffffff1673ffffffffffffffffffffffffffffffffffffffff16815260200190815260200160002060008573ffffffffffffffffffffffffffffffffffffffff1673ffffffffffffffffffffffffffffffffffffffff16815260200190815260200160002060000160108282829054906101000a90046fffffffffffffffffffffffffffffffff166106039190612e12565b92506101000a8154816fffffffffffffffffffffffffffffffff02191690836fffffffffffffffffffffffffffffffff160217905550600260008573ffffffffffffffffffffffffffffffffffffffff1673ffffffffffffffffffffffffffffffffffffffff16815260200190815260200160002060008473ffffffffffffffffffffffffffffffffffffffff1673ffffffffffffffffffffffffffffffffffffffff16815260200190815260200160002060000160109054906101000a90046fffffffffffffffffffffffffffffffff1690509392505050565b600073ffffffffffffffffffffffffffffffffffffffff16600160003373ffffffffffffffffffffffffffffffffffffffff1673ffffffffffffffffffffffffffffffffffffffff16815260200190815260200160002060009054906101000a900473ffffffffffffffffffffffffffffffffffffffff1673ffffffffffffffffffffffffffffffffffffffff16146107ac576040517f08c379a00000000000000000000000000000000000000000000000000000000081526004016107a390612eb8565b60405180910390fd5b80600160003373ffffffffffffffffffffffffffffffffffffffff1673ffffffffffffffffffffffffffffffffffffffff16815260200190815260200160002060006101000a81548173ffffffffffffffffffffffffffffffffffffffff021916908373ffffffffffffffffffffffffffffffffffffffff16021790555050565b7f000000000000000000000000000000000000000000000000000000000000000073ffffffffffffffffffffffffffffffffffffffff163373ffffffffffffffffffffffffffffffffffffffff16146108bb576040517f08c379a00000000000000000000000000000000000000000000000000000000081526004016108b290612f4a565b60405180910390fd5b80600260008673ffffffffffffffffffffffffffffffffffffffff1673ffffffffffffffffffffffffffffffffffffffff16815260200190815260200160002060008573ffffffffffffffffffffffffffffffffffffffff1673ffffffffffffffffffffffffffffffffffffffff16815260200190815260200160002060000160108282829054906101000a90046fffffffffffffffffffffffffffffffff166109659190612f6a565b92506101000a8154816fffffffffffffffffffffffffffffffff02191690836fffffffffffffffffffffffffffffffff1602179055506109a482612061565b600260008673ffffffffffffffffffffffffffffffffffffffff1673ffffffffffffffffffffffffffffffffffffffff16815260200190815260200160002060008573ffffffffffffffffffffffffffffffffffffffff1673ffffffffffffffffffffffffffffffffffffffff16815260200190815260200160002060000160008282829054906101000a90046fffffffffffffffffffffffffffffffff16610a4d9190612f6a565b92506101000a8154816fffffffffffffffffffffffffffffffff02191690836fffffffffffffffffffffffffffffffff16021790555050505050565b3373ffffffffffffffffffffffffffffffffffffffff16600160008573ffffffffffffffffffffffffffffffffffffffff1673ffffffffffffffffffffffffffffffffffffffff16815260200190815260200160002060009054906101000a900473ffffffffffffffffffffffffffffffffffffffff1673ffffffffffffffffffffffffffffffffffffffff1614610b56576040517f08c379a0000000000000000000000000000000000000000000000000000000008152600401610b4d90613022565b60405180910390fd5b3073ffffffffffffffffffffffffffffffffffffffff168273ffffffffffffffffffffffffffffffffffffffff1603610bc4576040517f08c379a0000000000000000000000000000000000000000000000000000000008152600401610bbb9061308e565b60405180910390fd5b610bcf838383611096565b610c0e576040517f08c379a0000000000000000000000000000000000000000000000000000000008152600401610c0590613120565b60405180910390fd5b600360008473ffffffffffffffffffffffffffffffffffffffff1673ffffffffffffffffffffffffffffffffffffffff16815260200190815260200160002060008373ffffffffffffffffffffffffffffffffffffffff1673ffffffffffffffffffffffffffffffffffffffff168152602001908152602001600020600082815260200190815260200160002060000160019054906101000a90046fffffffffffffffffffffffffffffffff166fffffffffffffffffffffffffffffffff16341015610d0f576040517f08c379a0000000000000000000000000000000000000000000000000000000008152600401610d069061318c565b60405180910390fd5b6000600360008573ffffffffffffffffffffffffffffffffffffffff1673ffffffffffffffffffffffffffffffffffffffff16815260200190815260200160002060008473ffffffffffffffffffffffffffffffffffffffff1673ffffffffffffffffffffffffffffffffffffffff168152602001908152602001600020600083815260200190815260200160002060000160006101000a81548160ff0219169083151502179055506000600360008573ffffffffffffffffffffffffffffffffffffffff1673ffffffffffffffffffffffffffffffffffffffff16815260200190815260200160002060008473ffffffffffffffffffffffffffffffffffffffff1673ffffffffffffffffffffffffffffffffffffffff168152602001908152602001600020600083815260200190815260200160002060000160016101000a8154816fffffffffffffffffffffffffffffffff02191690836fffffffffffffffffffffffffffffffff1602179055508173ffffffffffffffffffffffffffffffffffffffff166342842e0e3033846040518463ffffffff1660e01b8152600401610ebd939291906131ac565b600060405180830381600087803b158015610ed757600080fd5b505af1158015610eeb573d6000803e3d6000fd5b50505050505050565b60008054906101000a900473ffffffffffffffffffffffffffffffffffffffff1673ffffffffffffffffffffffffffffffffffffffff163373ffffffffffffffffffffffffffffffffffffffff1614610f82576040517f08c379a0000000000000000000000000000000000000000000000000000000008152600401610f7990612d31565b60405180910390fd5b80471015610fc5576040517f08c379a0000000000000000000000000000000000000000000000000000000008152600401610fbc90613255565b60405180910390fd5b60008060009054906101000a900473ffffffffffffffffffffffffffffffffffffffff1673ffffffffffffffffffffffffffffffffffffffff168260405161100c906132a6565b60006040518083038185875af1925050503d8060008114611049576040519150601f19603f3d011682016040523d82523d6000602084013e61104e565b606091505b5050905080611092576040517f08c379a000000000000000000000000000000000000000000000000000000000815260040161108990613307565b60405180910390fd5b5050565b6000600360008573ffffffffffffffffffffffffffffffffffffffff1673ffffffffffffffffffffffffffffffffffffffff16815260200190815260200160002060008473ffffffffffffffffffffffffffffffffffffffff1673ffffffffffffffffffffffffffffffffffffffff168152602001908152602001600020600083815260200190815260200160002060000160009054906101000a900460ff1690509392505050565b6000600260008473ffffffffffffffffffffffffffffffffffffffff1673ffffffffffffffffffffffffffffffffffffffff16815260200190815260200160002060008373ffffffffffffffffffffffffffffffffffffffff1673ffffffffffffffffffffffffffffffffffffffff16815260200190815260200160002060000160109054906101000a90046fffffffffffffffffffffffffffffffff16905092915050565b60003383833046604051602001611200959493929190613390565b6040516020818303038152906040528051906020012090507f000000000000000000000000000000000000000000000000000000000000000073ffffffffffffffffffffffffffffffffffffffff1661126a8561125c846120c0565b6120f090919063ffffffff16565b73ffffffffffffffffffffffffffffffffffffffff16146112c0576040517f08c379a00000000000000000000000000000000000000000000000000000000081526004016112b790613487565b60405180910390fd5b81421115611303576040517f08c379a00000000000000000000000000000000000000000000000000000000081526004016112fa906134f3565b60405180910390fd5b600015156004600083815260200190815260200160002060009054906101000a900460ff1615151461136a576040517f08c379a00000000000000000000000000000000000000000000000000000000081526004016113619061355f565b60405180910390fd5b60016004600083815260200190815260200160002060006101000a81548160ff02191690831515021790555082600160003373ffffffffffffffffffffffffffffffffffffffff1673ffffffffffffffffffffffffffffffffffffffff16815260200190815260200160002060006101000a81548173ffffffffffffffffffffffffffffffffffffffff021916908373ffffffffffffffffffffffffffffffffffffffff16021790555050505050565b6000600360008573ffffffffffffffffffffffffffffffffffffffff1673ffffffffffffffffffffffffffffffffffffffff16815260200190815260200160002060008473ffffffffffffffffffffffffffffffffffffffff1673ffffffffffffffffffffffffffffffffffffffff168152602001908152602001600020600083815260200190815260200160002060000160019054906101000a90046fffffffffffffffffffffffffffffffff1690509392505050565b6000600260008473ffffffffffffffffffffffffffffffffffffffff1673ffffffffffffffffffffffffffffffffffffffff16815260200190815260200160002060008373ffffffffffffffffffffffffffffffffffffffff1673ffffffffffffffffffffffffffffffffffffffff16815260200190815260200160002060000160009054906101000a90046fffffffffffffffffffffffffffffffff166fffffffffffffffffffffffffffffffff16905092915050565b3373ffffffffffffffffffffffffffffffffffffffff16600160008473ffffffffffffffffffffffffffffffffffffffff1673ffffffffffffffffffffffffffffffffffffffff16815260200190815260200160002060009054906101000a900473ffffffffffffffffffffffffffffffffffffffff1673ffffffffffffffffffffffffffffffffffffffff1614611657576040517f08c379a000000000000000000000000000000000000000000000000000000000815260040161164e90613022565b60405180910390fd5b3073ffffffffffffffffffffffffffffffffffffffff168173ffffffffffffffffffffffffffffffffffffffff16036116c5576040517f08c379a00000000000000000000000000000000000000000000000000000000081526004016116bc9061308e565b60405180910390fd5b60006116d183836114d2565b11611711576040517f08c379a0000000000000000000000000000000000000000000000000000000008152600401611708906135cb565b60405180910390fd5b600260008373ffffffffffffffffffffffffffffffffffffffff1673ffffffffffffffffffffffffffffffffffffffff16815260200190815260200160002060008273ffffffffffffffffffffffffffffffffffffffff1673ffffffffffffffffffffffffffffffffffffffff16815260200190815260200160002060000160109054906101000a90046fffffffffffffffffffffffffffffffff166fffffffffffffffffffffffffffffffff16341015611801576040517f08c379a00000000000000000000000000000000000000000000000000000000081526004016117f89061318c565b60405180910390fd5b600061180d83836114d2565b90506000600260008573ffffffffffffffffffffffffffffffffffffffff1673ffffffffffffffffffffffffffffffffffffffff16815260200190815260200160002060008473ffffffffffffffffffffffffffffffffffffffff1673ffffffffffffffffffffffffffffffffffffffff16815260200190815260200160002060000160006101000a8154816fffffffffffffffffffffffffffffffff02191690836fffffffffffffffffffffffffffffffff1602179055506000600260008573ffffffffffffffffffffffffffffffffffffffff1673ffffffffffffffffffffffffffffffffffffffff16815260200190815260200160002060008473ffffffffffffffffffffffffffffffffffffffff1673ffffffffffffffffffffffffffffffffffffffff16815260200190815260200160002060000160106101000a8154816fffffffffffffffffffffffffffffffff02191690836fffffffffffffffffffffffffffffffff1602179055506119a833828473ffffffffffffffffffffffffffffffffffffffff166121179092919063ffffffff16565b505050565b60008060009054906101000a900473ffffffffffffffffffffffffffffffffffffffff1673ffffffffffffffffffffffffffffffffffffffff163373ffffffffffffffffffffffffffffffffffffffff1614611a3e576040517f08c379a0000000000000000000000000000000000000000000000000000000008152600401611a3590612d31565b60405180910390fd5b816fffffffffffffffffffffffffffffffff16600360008773ffffffffffffffffffffffffffffffffffffffff1673ffffffffffffffffffffffffffffffffffffffff16815260200190815260200160002060008673ffffffffffffffffffffffffffffffffffffffff1673ffffffffffffffffffffffffffffffffffffffff168152602001908152602001600020600085815260200190815260200160002060000160019054906101000a90046fffffffffffffffffffffffffffffffff166fffffffffffffffffffffffffffffffff161015611b51576040517f08c379a0000000000000000000000000000000000000000000000000000000008152600401611b4890612dc3565b60405180910390fd5b81600360008773ffffffffffffffffffffffffffffffffffffffff1673ffffffffffffffffffffffffffffffffffffffff16815260200190815260200160002060008673ffffffffffffffffffffffffffffffffffffffff1673ffffffffffffffffffffffffffffffffffffffff168152602001908152602001600020600085815260200190815260200160002060000160018282829054906101000a90046fffffffffffffffffffffffffffffffff16611c0c9190612e12565b92506101000a8154816fffffffffffffffffffffffffffffffff02191690836fffffffffffffffffffffffffffffffff160217905550600360008673ffffffffffffffffffffffffffffffffffffffff1673ffffffffffffffffffffffffffffffffffffffff16815260200190815260200160002060008573ffffffffffffffffffffffffffffffffffffffff1673ffffffffffffffffffffffffffffffffffffffff168152602001908152602001600020600084815260200190815260200160002060000160019054906101000a90046fffffffffffffffffffffffffffffffff169050949350505050565b60008054906101000a900473ffffffffffffffffffffffffffffffffffffffff1673ffffffffffffffffffffffffffffffffffffffff163373ffffffffffffffffffffffffffffffffffffffff1614611d87576040517f08c379a0000000000000000000000000000000000000000000000000000000008152600401611d7e90612d31565b60405180910390fd5b806000806101000a81548173ffffffffffffffffffffffffffffffffffffffff021916908373ffffffffffffffffffffffffffffffffffffffff16021790555050565b6000600160008373ffffffffffffffffffffffffffffffffffffffff1673ffffffffffffffffffffffffffffffffffffffff16815260200190815260200160002060009054906101000a900473ffffffffffffffffffffffffffffffffffffffff169050919050565b7f000000000000000000000000000000000000000000000000000000000000000073ffffffffffffffffffffffffffffffffffffffff163373ffffffffffffffffffffffffffffffffffffffff1614611ec1576040517f08c379a0000000000000000000000000000000000000000000000000000000008152600401611eb890612f4a565b60405180910390fd5b80600360008673ffffffffffffffffffffffffffffffffffffffff1673ffffffffffffffffffffffffffffffffffffffff16815260200190815260200160002060008573ffffffffffffffffffffffffffffffffffffffff1673ffffffffffffffffffffffffffffffffffffffff168152602001908152602001600020600084815260200190815260200160002060000160018282829054906101000a90046fffffffffffffffffffffffffffffffff16611f7c9190612f6a565b92506101000a8154816fffffffffffffffffffffffffffffffff02191690836fffffffffffffffffffffffffffffffff1602179055506001600360008673ffffffffffffffffffffffffffffffffffffffff1673ffffffffffffffffffffffffffffffffffffffff16815260200190815260200160002060008573ffffffffffffffffffffffffffffffffffffffff1673ffffffffffffffffffffffffffffffffffffffff168152602001908152602001600020600084815260200190815260200160002060000160006101000a81548160ff02191690831515021790555050505050565b60006fffffffffffffffffffffffffffffffff80168211156120b8576040517f08c379a00000000000000000000000000000000000000000000000000000000081526004016120af9061365d565b60405180910390fd5b819050919050565b6000816040516020016120d391906136ff565b604051602081830303815290604052805190602001209050919050565b60008060006120ff858561219d565b9150915061210c816121ee565b819250505092915050565b6121988363a9059cbb60e01b8484604051602401612136929190613725565b604051602081830303815290604052907bffffffffffffffffffffffffffffffffffffffffffffffffffffffff19166020820180517bffffffffffffffffffffffffffffffffffffffffffffffffffffffff83818316178352505050506123ba565b505050565b60008060418351036121de5760008060006020860151925060408601519150606086015160001a90506121d287828585612481565b945094505050506121e7565b60006002915091505b9250929050565b600060048111156122025761220161374e565b5b8160048111156122155761221461374e565b5b03156123b7576001600481111561222f5761222e61374e565b5b8160048111156122425761224161374e565b5b03612282576040517f08c379a0000000000000000000000000000000000000000000000000000000008152600401612279906137c9565b60405180910390fd5b600260048111156122965761229561374e565b5b8160048111156122a9576122a861374e565b5b036122e9576040517f08c379a00000000000000000000000000000000000000000000000000000000081526004016122e090613835565b60405180910390fd5b600360048111156122fd576122fc61374e565b5b8160048111156123105761230f61374e565b5b03612350576040517f08c379a0000000000000000000000000000000000000000000000000000000008152600401612347906138c7565b60405180910390fd5b6004808111156123635761236261374e565b5b8160048111156123765761237561374e565b5b036123b6576040517f08c379a00000000000000000000000000000000000000000000000000000000081526004016123ad90613959565b60405180910390fd5b5b50565b600061241c826040518060400160405280602081526020017f5361666545524332303a206c6f772d6c6576656c2063616c6c206661696c65648152508573ffffffffffffffffffffffffffffffffffffffff1661258d9092919063ffffffff16565b905060008151111561247c578080602001905181019061243c91906139a5565b61247b576040517f08c379a000000000000000000000000000000000000000000000000000000000815260040161247290613a44565b60405180910390fd5b5b505050565b6000807f7fffffffffffffffffffffffffffffff5d576e7357a4501ddfe92f46681b20a08360001c11156124bc576000600391509150612584565b601b8560ff16141580156124d45750601c8560ff1614155b156124e6576000600491509150612584565b60006001878787876040516000815260200160405260405161250b9493929190613a8f565b6020604051602081039080840390855afa15801561252d573d6000803e3d6000fd5b505050602060405103519050600073ffffffffffffffffffffffffffffffffffffffff168173ffffffffffffffffffffffffffffffffffffffff160361257b57600060019250925050612584565b80600092509250505b94509492505050565b606061259c84846000856125a5565b90509392505050565b6060824710156125ea576040517f08c379a00000000000000000000000000000000000000000000000000000000081526004016125e190613b46565b60405180910390fd5b6125f3856126b9565b612632576040517f08c379a000000000000000000000000000000000000000000000000000000000815260040161262990613bb2565b60405180910390fd5b6000808673ffffffffffffffffffffffffffffffffffffffff16858760405161265b9190613c41565b60006040518083038185875af1925050503d8060008114612698576040519150601f19603f3d011682016040523d82523d6000602084013e61269d565b606091505b50915091506126ad8282866126dc565b92505050949350505050565b6000808273ffffffffffffffffffffffffffffffffffffffff163b119050919050565b606083156126ec5782905061273c565b6000835111156126ff5782518084602001fd5b816040517f08c379a00000000000000000000000000000000000000000000000000000000081526004016127339190613c9c565b60405180910390fd5b9392505050565b6000604051905090565b600080fd5b600080fd5b600073ffffffffffffffffffffffffffffffffffffffff82169050919050565b600061278282612757565b9050919050565b61279281612777565b811461279d57600080fd5b50565b6000813590506127af81612789565b92915050565b60006fffffffffffffffffffffffffffffffff82169050919050565b6127da816127b5565b81146127e557600080fd5b50565b6000813590506127f7816127d1565b92915050565b6000806000606084860312156128165761281561274d565b5b6000612824868287016127a0565b9350506020612835868287016127a0565b9250506040612846868287016127e8565b9150509250925092565b612859816127b5565b82525050565b60006020820190506128746000830184612850565b92915050565b6000602082840312156128905761288f61274d565b5b600061289e848285016127a0565b91505092915050565b6000819050919050565b6128ba816128a7565b81146128c557600080fd5b50565b6000813590506128d7816128b1565b92915050565b600080600080608085870312156128f7576128f661274d565b5b6000612905878288016127a0565b9450506020612916878288016127a0565b9350506040612927878288016128c8565b9250506060612938878288016127e8565b91505092959194509250565b60008060006060848603121561295d5761295c61274d565b5b600061296b868287016127a0565b935050602061297c868287016127a0565b925050604061298d868287016128c8565b9150509250925092565b6000602082840312156129ad576129ac61274d565b5b60006129bb848285016128c8565b91505092915050565b60008115159050919050565b6129d9816129c4565b82525050565b60006020820190506129f460008301846129d0565b92915050565b60008060408385031215612a1157612a1061274d565b5b6000612a1f858286016127a0565b9250506020612a30858286016127a0565b9150509250929050565b600080fd5b600080fd5b6000601f19601f8301169050919050565b7f4e487b7100000000000000000000000000000000000000000000000000000000600052604160045260246000fd5b612a8d82612a44565b810181811067ffffffffffffffff82111715612aac57612aab612a55565b5b80604052505050565b6000612abf612743565b9050612acb8282612a84565b919050565b600067ffffffffffffffff821115612aeb57612aea612a55565b5b612af482612a44565b9050602081019050919050565b82818337600083830152505050565b6000612b23612b1e84612ad0565b612ab5565b905082815260208101848484011115612b3f57612b3e612a3f565b5b612b4a848285612b01565b509392505050565b600082601f830112612b6757612b66612a3a565b5b8135612b77848260208601612b10565b91505092915050565b600080600060608486031215612b9957612b9861274d565b5b600084013567ffffffffffffffff811115612bb757612bb6612752565b5b612bc386828701612b52565b9350506020612bd4868287016127a0565b9250506040612be5868287016128c8565b9150509250925092565b612bf8816128a7565b82525050565b6000602082019050612c136000830184612bef565b92915050565b6000612c2482612757565b9050919050565b612c3481612c19565b8114612c3f57600080fd5b50565b600081359050612c5181612c2b565b92915050565b600060208284031215612c6d57612c6c61274d565b5b6000612c7b84828501612c42565b91505092915050565b612c8d81612777565b82525050565b6000602082019050612ca86000830184612c84565b92915050565b600082825260208201905092915050565b7f6d73672e73656e646572206d75737420626520666565436f6e74726f6c6c657260008201527f2e00000000000000000000000000000000000000000000000000000000000000602082015250565b6000612d1b602183612cae565b9150612d2682612cbf565b604082019050919050565b60006020820190508181036000830152612d4a81612d0e565b9050919050565b7f596f752063616e6e6f7420726564756365206d6f7265207468616e207468652060008201527f63757272656e74206665652e0000000000000000000000000000000000000000602082015250565b6000612dad602c83612cae565b9150612db882612d51565b604082019050919050565b60006020820190508181036000830152612ddc81612da0565b9050919050565b7f4e487b7100000000000000000000000000000000000000000000000000000000600052601160045260246000fd5b6000612e1d826127b5565b9150612e28836127b5565b925082821015612e3b57612e3a612de3565b5b828203905092915050565b7f596f7520616c726561647920686176652072656769737465726564206120726560008201527f63697069656e7420616464726573730000000000000000000000000000000000602082015250565b6000612ea2602f83612cae565b9150612ead82612e46565b604082019050919050565b60006020820190508181036000830152612ed181612e95565b9050919050565b7f4f6e6c7920746865207472616e73666572657220636f6e74726163742063616e60008201527f206c6f672066756e64732e000000000000000000000000000000000000000000602082015250565b6000612f34602b83612cae565b9150612f3f82612ed8565b604082019050919050565b60006020820190508181036000830152612f6381612f27565b9050919050565b6000612f75826127b5565b9150612f80836127b5565b9250826fffffffffffffffffffffffffffffffff03821115612fa557612fa4612de3565b5b828201905092915050565b7f46756e6374696f6e2063616c6c6572206973206e6f7420616e20617574686f7260008201527f697a656420726563697069656e74416464726573732e00000000000000000000602082015250565b600061300c603683612cae565b915061301782612fb0565b604082019050919050565b6000602082019050818103600083015261303b81612fff565b9050919050565b7f546865207661756c74206973206e6f74206120746f6b656e2061646472657373600082015250565b6000613078602083612cae565b915061308382613042565b602082019050919050565b600060208201905081810360008301526130a78161306b565b9050919050565b7f496e73756666696369656e74207769746864726177616c20616c6c6f77616e6360008201527f652e000000000000000000000000000000000000000000000000000000000000602082015250565b600061310a602283612cae565b9150613115826130ae565b604082019050919050565b60006020820190508181036000830152613139816130fd565b9050919050565b7f496e73756666696369656e74207061796d656e742e0000000000000000000000600082015250565b6000613176601583612cae565b915061318182613140565b602082019050919050565b600060208201905081810360008301526131a581613169565b9050919050565b60006060820190506131c16000830186612c84565b6131ce6020830185612c84565b6131db6040830184612bef565b949350505050565b7f43616e6e6f74207769746864726177206d6f7265207468616e2074686520616d60008201527f6f756e7420696e2074686520636f6e74726163742e0000000000000000000000602082015250565b600061323f603583612cae565b915061324a826131e3565b604082019050919050565b6000602082019050818103600083015261326e81613232565b9050919050565b600081905092915050565b50565b6000613290600083613275565b915061329b82613280565b600082019050919050565b60006132b182613283565b9150819050919050565b7f5472616e73666572206661696c65640000000000000000000000000000000000600082015250565b60006132f1600f83612cae565b91506132fc826132bb565b602082019050919050565b60006020820190508181036000830152613320816132e4565b9050919050565b60008160601b9050919050565b600061333f82613327565b9050919050565b600061335182613334565b9050919050565b61336961336482612777565b613346565b82525050565b6000819050919050565b61338a613385826128a7565b61336f565b82525050565b600061339c8288613358565b6014820191506133ac8287613358565b6014820191506133bc8286613379565b6020820191506133cc8285613358565b6014820191506133dc8284613379565b6020820191508190509695505050505050565b7f496e76616c6964207369676e61747572652e205369676e617475726520736f7560008201527f726365206d617920626520696e636f72726563742c206f7220612070726f766960208201527f64656420706172616d6574657220697320696e76616c69640000000000000000604082015250565b6000613471605883612cae565b915061347c826133ef565b606082019050919050565b600060208201905081810360008301526134a081613464565b9050919050565b7f5369676e61747572652065787069726564000000000000000000000000000000600082015250565b60006134dd601183612cae565b91506134e8826134a7565b602082019050919050565b6000602082019050818103600083015261350c816134d0565b9050919050565b7f416c726561647920757365642074686973207369676e61747572650000000000600082015250565b6000613549601b83612cae565b915061355482613513565b602082019050919050565b600060208201905081810360008301526135788161353c565b9050919050565b7f4e6f207769746864726177616c20616c6c6f77616e63652e0000000000000000600082015250565b60006135b5601883612cae565b91506135c08261357f565b602082019050919050565b600060208201905081810360008301526135e4816135a8565b9050919050565b7f53616665436173743a2076616c756520646f65736e27742066697420696e203160008201527f3238206269747300000000000000000000000000000000000000000000000000602082015250565b6000613647602783612cae565b9150613652826135eb565b604082019050919050565b600060208201905081810360008301526136768161363a565b9050919050565b600081905092915050565b7f19457468657265756d205369676e6564204d6573736167653a0a333200000000600082015250565b60006136be601c8361367d565b91506136c982613688565b601c82019050919050565b6000819050919050565b6000819050919050565b6136f96136f4826136d4565b6136de565b82525050565b600061370a826136b1565b915061371682846136e8565b60208201915081905092915050565b600060408201905061373a6000830185612c84565b6137476020830184612bef565b9392505050565b7f4e487b7100000000000000000000000000000000000000000000000000000000600052602160045260246000fd5b7f45434453413a20696e76616c6964207369676e61747572650000000000000000600082015250565b60006137b3601883612cae565b91506137be8261377d565b602082019050919050565b600060208201905081810360008301526137e2816137a6565b9050919050565b7f45434453413a20696e76616c6964207369676e6174757265206c656e67746800600082015250565b600061381f601f83612cae565b915061382a826137e9565b602082019050919050565b6000602082019050818103600083015261384e81613812565b9050919050565b7f45434453413a20696e76616c6964207369676e6174757265202773272076616c60008201527f7565000000000000000000000000000000000000000000000000000000000000602082015250565b60006138b1602283612cae565b91506138bc82613855565b604082019050919050565b600060208201905081810360008301526138e0816138a4565b9050919050565b7f45434453413a20696e76616c6964207369676e6174757265202776272076616c60008201527f7565000000000000000000000000000000000000000000000000000000000000602082015250565b6000613943602283612cae565b915061394e826138e7565b604082019050919050565b6000602082019050818103600083015261397281613936565b9050919050565b613982816129c4565b811461398d57600080fd5b50565b60008151905061399f81613979565b92915050565b6000602082840312156139bb576139ba61274d565b5b60006139c984828501613990565b91505092915050565b7f5361666545524332303a204552433230206f7065726174696f6e20646964206e60008201527f6f74207375636365656400000000000000000000000000000000000000000000602082015250565b6000613a2e602a83612cae565b9150613a39826139d2565b604082019050919050565b60006020820190508181036000830152613a5d81613a21565b9050919050565b613a6d816136d4565b82525050565b600060ff82169050919050565b613a8981613a73565b82525050565b6000608082019050613aa46000830187613a64565b613ab16020830186613a80565b613abe6040830185613a64565b613acb6060830184613a64565b95945050505050565b7f416464726573733a20696e73756666696369656e742062616c616e636520666f60008201527f722063616c6c0000000000000000000000000000000000000000000000000000602082015250565b6000613b30602683612cae565b9150613b3b82613ad4565b604082019050919050565b60006020820190508181036000830152613b5f81613b23565b9050919050565b7f416464726573733a2063616c6c20746f206e6f6e2d636f6e7472616374000000600082015250565b6000613b9c601d83612cae565b9150613ba782613b66565b602082019050919050565b60006020820190508181036000830152613bcb81613b8f565b9050919050565b600081519050919050565b60005b83811015613bfb578082015181840152602081019050613be0565b83811115613c0a576000848401525b50505050565b6000613c1b82613bd2565b613c258185613275565b9350613c35818560208601613bdd565b80840191505092915050565b6000613c4d8284613c10565b915081905092915050565b600081519050919050565b6000613c6e82613c58565b613c788185612cae565b9350613c88818560208601613bdd565b613c9181612a44565b840191505092915050565b60006020820190508181036000830152613cb68184613c63565b90509291505056fea2646970667358221220d2f41e82dba2035679f99ce867f2fc1b306ac6d32e7c484db0306853a71fec8864736f6c634300080d0033",
  "linkReferences": {},
  "deployedLinkReferences": {}
}