{
  "_format": "hh-sol-artifact-1",
  "contractName": "Vault",
  "sourceName": "contracts/Vault.sol",
  "abi": [
    {
      "anonymous": false,
      "inputs": [
        {
          "indexed": true,
          "internalType": "address",
          "name": "previousOwner",
          "type": "address"
        },
        {
          "indexed": true,
          "internalType": "address",
          "name": "newOwner",
          "type": "address"
        }
      ],
      "name": "OwnershipTransferred",
      "type": "event"
    },
    {
      "inputs": [],
      "name": "contractFee",
      "outputs": [
        {
          "internalType": "uint256",
          "name": "",
          "type": "uint256"
        }
      ],
      "stateMutability": "view",
      "type": "function"
    },
    {
      "inputs": [
        {
          "internalType": "address",
          "name": "claimerAddress",
          "type": "address"
        },
        {
          "internalType": "address",
          "name": "erc721Address",
          "type": "address"
        }
      ],
      "name": "getERC721Balance",
      "outputs": [
        {
          "internalType": "uint256[]",
          "name": "",
          "type": "uint256[]"
        }
      ],
      "stateMutability": "view",
      "type": "function"
    },
    {
      "inputs": [
        {
          "internalType": "address",
          "name": "claimerAddress",
          "type": "address"
        },
        {
          "internalType": "address",
          "name": "erc721Address",
          "type": "address"
        },
        {
          "internalType": "uint256",
          "name": "id",
          "type": "uint256"
        }
      ],
      "name": "logIncomingERC721",
      "outputs": [],
      "stateMutability": "nonpayable",
      "type": "function"
    },
    {
      "inputs": [
        {
          "internalType": "address",
          "name": "operator",
          "type": "address"
        },
        {
          "internalType": "address",
          "name": "from",
          "type": "address"
        },
        {
          "internalType": "uint256",
          "name": "tokenId",
          "type": "uint256"
        },
        {
          "internalType": "bytes",
          "name": "data",
          "type": "bytes"
        }
      ],
      "name": "onERC721Received",
      "outputs": [
        {
          "internalType": "bytes4",
          "name": "",
          "type": "bytes4"
        }
      ],
      "stateMutability": "nonpayable",
      "type": "function"
    },
    {
      "inputs": [],
      "name": "owner",
      "outputs": [
        {
          "internalType": "address",
          "name": "",
          "type": "address"
        }
      ],
      "stateMutability": "view",
      "type": "function"
    },
    {
      "inputs": [],
      "name": "renounceOwnership",
      "outputs": [],
      "stateMutability": "nonpayable",
      "type": "function"
    },
    {
      "inputs": [
        {
          "internalType": "address",
          "name": "newOwner",
          "type": "address"
        }
      ],
      "name": "transferOwnership",
      "outputs": [],
      "stateMutability": "nonpayable",
      "type": "function"
    }
  ],
  "bytecode": "0x608060405234801561001057600080fd5b5061002d61002261003260201b60201c565b61003a60201b60201c565b6100fe565b600033905090565b60008060009054906101000a900473ffffffffffffffffffffffffffffffffffffffff169050816000806101000a81548173ffffffffffffffffffffffffffffffffffffffff021916908373ffffffffffffffffffffffffffffffffffffffff1602179055508173ffffffffffffffffffffffffffffffffffffffff168173ffffffffffffffffffffffffffffffffffffffff167f8be0079c531659141344cd1fd0a4f28419497f9722a3daafe3b4186f6b6457e060405160405180910390a35050565b610a868061010d6000396000f3fe608060405234801561001057600080fd5b506004361061007d5760003560e01c80638da5cb5b1161005b5780638da5cb5b146100ec578063af08ef9a1461010a578063d41977cd14610126578063f2fde38b146101445761007d565b8063150b7a02146100825780632b207fde146100b2578063715018a6146100e2575b600080fd5b61009c6004803603810190610097919061066f565b610160565b6040516100a99190610732565b60405180910390f35b6100cc60048036038101906100c7919061074d565b610175565b6040516100d9919061084b565b60405180910390f35b6100ea61024a565b005b6100f46102d2565b604051610101919061087c565b60405180910390f35b610124600480360381019061011f9190610897565b6102fb565b005b61012e6103a3565b60405161013b91906108f9565b60405180910390f35b61015e60048036038101906101599190610914565b6103a9565b005b600063150b7a0260e01b905095945050505050565b6060600460008473ffffffffffffffffffffffffffffffffffffffff1673ffffffffffffffffffffffffffffffffffffffff16815260200190815260200160002060008373ffffffffffffffffffffffffffffffffffffffff1673ffffffffffffffffffffffffffffffffffffffff16815260200190815260200160002080548060200260200160405190810160405280929190818152602001828054801561023d57602002820191906000526020600020905b815481526020019060010190808311610229575b5050505050905092915050565b6102526104a0565b73ffffffffffffffffffffffffffffffffffffffff166102706102d2565b73ffffffffffffffffffffffffffffffffffffffff16146102c6576040517f08c379a00000000000000000000000000000000000000000000000000000000081526004016102bd9061099e565b60405180910390fd5b6102d060006104a8565b565b60008060009054906101000a900473ffffffffffffffffffffffffffffffffffffffff16905090565b600460008473ffffffffffffffffffffffffffffffffffffffff1673ffffffffffffffffffffffffffffffffffffffff16815260200190815260200160002060008373ffffffffffffffffffffffffffffffffffffffff1673ffffffffffffffffffffffffffffffffffffffff168152602001908152602001600020819080600181540180825580915050600190039060005260206000200160009091909190915055505050565b60015481565b6103b16104a0565b73ffffffffffffffffffffffffffffffffffffffff166103cf6102d2565b73ffffffffffffffffffffffffffffffffffffffff1614610425576040517f08c379a000000000000000000000000000000000000000000000000000000000815260040161041c9061099e565b60405180910390fd5b600073ffffffffffffffffffffffffffffffffffffffff168173ffffffffffffffffffffffffffffffffffffffff1603610494576040517f08c379a000000000000000000000000000000000000000000000000000000000815260040161048b90610a30565b60405180910390fd5b61049d816104a8565b50565b600033905090565b60008060009054906101000a900473ffffffffffffffffffffffffffffffffffffffff169050816000806101000a81548173ffffffffffffffffffffffffffffffffffffffff021916908373ffffffffffffffffffffffffffffffffffffffff1602179055508173ffffffffffffffffffffffffffffffffffffffff168173ffffffffffffffffffffffffffffffffffffffff167f8be0079c531659141344cd1fd0a4f28419497f9722a3daafe3b4186f6b6457e060405160405180910390a35050565b600080fd5b600080fd5b600073ffffffffffffffffffffffffffffffffffffffff82169050919050565b60006105a182610576565b9050919050565b6105b181610596565b81146105bc57600080fd5b50565b6000813590506105ce816105a8565b92915050565b6000819050919050565b6105e7816105d4565b81146105f257600080fd5b50565b600081359050610604816105de565b92915050565b600080fd5b600080fd5b600080fd5b60008083601f84011261062f5761062e61060a565b5b8235905067ffffffffffffffff81111561064c5761064b61060f565b5b60208301915083600182028301111561066857610667610614565b5b9250929050565b60008060008060006080868803121561068b5761068a61056c565b5b6000610699888289016105bf565b95505060206106aa888289016105bf565b94505060406106bb888289016105f5565b935050606086013567ffffffffffffffff8111156106dc576106db610571565b5b6106e888828901610619565b92509250509295509295909350565b60007fffffffff0000000000000000000000000000000000000000000000000000000082169050919050565b61072c816106f7565b82525050565b60006020820190506107476000830184610723565b92915050565b600080604083850312156107645761076361056c565b5b6000610772858286016105bf565b9250506020610783858286016105bf565b9150509250929050565b600081519050919050565b600082825260208201905092915050565b6000819050602082019050919050565b6107c2816105d4565b82525050565b60006107d483836107b9565b60208301905092915050565b6000602082019050919050565b60006107f88261078d565b6108028185610798565b935061080d836107a9565b8060005b8381101561083e57815161082588826107c8565b9750610830836107e0565b925050600181019050610811565b5085935050505092915050565b6000602082019050818103600083015261086581846107ed565b905092915050565b61087681610596565b82525050565b6000602082019050610891600083018461086d565b92915050565b6000806000606084860312156108b0576108af61056c565b5b60006108be868287016105bf565b93505060206108cf868287016105bf565b92505060406108e0868287016105f5565b9150509250925092565b6108f3816105d4565b82525050565b600060208201905061090e60008301846108ea565b92915050565b60006020828403121561092a5761092961056c565b5b6000610938848285016105bf565b91505092915050565b600082825260208201905092915050565b7f4f776e61626c653a2063616c6c6572206973206e6f7420746865206f776e6572600082015250565b6000610988602083610941565b915061099382610952565b602082019050919050565b600060208201905081810360008301526109b78161097b565b9050919050565b7f4f776e61626c653a206e6577206f776e657220697320746865207a65726f206160008201527f6464726573730000000000000000000000000000000000000000000000000000602082015250565b6000610a1a602683610941565b9150610a25826109be565b604082019050919050565b60006020820190508181036000830152610a4981610a0d565b905091905056fea2646970667358221220a4fd11737942f375ea35fd7ae6817f179372e3eaa600ba628baa760e6a86b5f364736f6c634300080d0033",
  "linkReferences": {},
  "deployedLinkReferences": {}
}