{
  "_format": "hh-sol-artifact-1",
  "contractName": "Flashbot",
  "sourceName": "contracts/Flashbot.sol",
  "abi": [
    {
      "inputs": [
        {
          "internalType": "address",
          "name": "_vaultAddress",
          "type": "address"
        },
        {
          "internalType": "address",
          "name": "_EOA",
          "type": "address"
        }
      ],
      "stateMutability": "nonpayable",
      "type": "constructor"
    },
    {
      "inputs": [
        {
          "internalType": "address",
          "name": "_ownerAddress",
          "type": "address"
        },
        {
          "internalType": "address",
          "name": "_erc20Address",
          "type": "address"
        },
        {
          "internalType": "uint256",
          "name": "_amount",
          "type": "uint256"
        }
      ],
      "name": "transferERC20",
      "outputs": [
        {
          "internalType": "bool",
          "name": "",
          "type": "bool"
        }
      ],
      "stateMutability": "nonpayable",
      "type": "function"
    },
    {
      "inputs": [
        {
          "internalType": "address",
          "name": "_ownerAddress",
          "type": "address"
        },
        {
          "internalType": "address",
          "name": "_erc721Address",
          "type": "address"
        },
        {
          "internalType": "uint256",
          "name": "_erc721Id",
          "type": "uint256"
        }
      ],
      "name": "transferERC721",
      "outputs": [
        {
          "internalType": "bool",
          "name": "",
          "type": "bool"
        }
      ],
      "stateMutability": "nonpayable",
      "type": "function"
    }
  ],
  "bytecode": "0x608060405234801561001057600080fd5b50604051610b31380380610b318339818101604052810190610032919061011d565b816000806101000a81548173ffffffffffffffffffffffffffffffffffffffff021916908373ffffffffffffffffffffffffffffffffffffffff16021790555080600160006101000a81548173ffffffffffffffffffffffffffffffffffffffff021916908373ffffffffffffffffffffffffffffffffffffffff160217905550505061015d565b600080fd5b600073ffffffffffffffffffffffffffffffffffffffff82169050919050565b60006100ea826100bf565b9050919050565b6100fa816100df565b811461010557600080fd5b50565b600081519050610117816100f1565b92915050565b60008060408385031215610134576101336100ba565b5b600061014285828601610108565b925050602061015385828601610108565b9150509250929050565b6109c58061016c6000396000f3fe608060405234801561001057600080fd5b50600436106100365760003560e01c80631aca63761461003b5780639db5dbe41461006b575b600080fd5b61005560048036038101906100509190610798565b61009b565b6040516100629190610806565b60405180910390f35b61008560048036038101906100809190610798565b6103cd565b6040516100929190610806565b60405180910390f35b6000600160009054906101000a900473ffffffffffffffffffffffffffffffffffffffff1673ffffffffffffffffffffffffffffffffffffffff163373ffffffffffffffffffffffffffffffffffffffff16146100f757600080fd5b6000808473ffffffffffffffffffffffffffffffffffffffff168660008054906101000a900473ffffffffffffffffffffffffffffffffffffffff16866040516024016101469392919061083f565b6040516020818303038152906040527f42842e0e000000000000000000000000000000000000000000000000000000007bffffffffffffffffffffffffffffffffffffffffffffffffffffffff19166020820180517bffffffffffffffffffffffffffffffffffffffffffffffffffffffff83818316178352505050506040516101d091906108f0565b6000604051808303816000865af19150503d806000811461020d576040519150601f19603f3d011682016040523d82523d6000602084013e610212565b606091505b509150915081819061025a576040517f08c379a0000000000000000000000000000000000000000000000000000000008152600401610251919061096d565b60405180910390fd5b5060008060008054906101000a900473ffffffffffffffffffffffffffffffffffffffff1673ffffffffffffffffffffffffffffffffffffffff168888886040516024016102aa9392919061083f565b6040516020818303038152906040527faf08ef9a000000000000000000000000000000000000000000000000000000007bffffffffffffffffffffffffffffffffffffffffffffffffffffffff19166020820180517bffffffffffffffffffffffffffffffffffffffffffffffffffffffff838183161783525050505060405161033491906108f0565b6000604051808303816000865af19150503d8060008114610371576040519150601f19603f3d011682016040523d82523d6000602084013e610376565b606091505b50915091508181906103be576040517f08c379a00000000000000000000000000000000000000000000000000000000081526004016103b5919061096d565b60405180910390fd5b50839450505050509392505050565b6000600160009054906101000a900473ffffffffffffffffffffffffffffffffffffffff1673ffffffffffffffffffffffffffffffffffffffff163373ffffffffffffffffffffffffffffffffffffffff161461042957600080fd5b6000808473ffffffffffffffffffffffffffffffffffffffff168660008054906101000a900473ffffffffffffffffffffffffffffffffffffffff16866040516024016104789392919061083f565b6040516020818303038152906040527f23b872dd000000000000000000000000000000000000000000000000000000007bffffffffffffffffffffffffffffffffffffffffffffffffffffffff19166020820180517bffffffffffffffffffffffffffffffffffffffffffffffffffffffff838183161783525050505060405161050291906108f0565b6000604051808303816000865af19150503d806000811461053f576040519150601f19603f3d011682016040523d82523d6000602084013e610544565b606091505b509150915081819061058c576040517f08c379a0000000000000000000000000000000000000000000000000000000008152600401610583919061096d565b60405180910390fd5b5060008060008054906101000a900473ffffffffffffffffffffffffffffffffffffffff1673ffffffffffffffffffffffffffffffffffffffff168888886040516024016105dc9392919061083f565b6040516020818303038152906040527f4761a63d000000000000000000000000000000000000000000000000000000007bffffffffffffffffffffffffffffffffffffffffffffffffffffffff19166020820180517bffffffffffffffffffffffffffffffffffffffffffffffffffffffff838183161783525050505060405161066691906108f0565b6000604051808303816000865af19150503d80600081146106a3576040519150601f19603f3d011682016040523d82523d6000602084013e6106a8565b606091505b50915091508181906106f0576040517f08c379a00000000000000000000000000000000000000000000000000000000081526004016106e7919061096d565b60405180910390fd5b50839450505050509392505050565b600080fd5b600073ffffffffffffffffffffffffffffffffffffffff82169050919050565b600061072f82610704565b9050919050565b61073f81610724565b811461074a57600080fd5b50565b60008135905061075c81610736565b92915050565b6000819050919050565b61077581610762565b811461078057600080fd5b50565b6000813590506107928161076c565b92915050565b6000806000606084860312156107b1576107b06106ff565b5b60006107bf8682870161074d565b93505060206107d08682870161074d565b92505060406107e186828701610783565b9150509250925092565b60008115159050919050565b610800816107eb565b82525050565b600060208201905061081b60008301846107f7565b92915050565b61082a81610724565b82525050565b61083981610762565b82525050565b60006060820190506108546000830186610821565b6108616020830185610821565b61086e6040830184610830565b949350505050565b600081519050919050565b600081905092915050565b60005b838110156108aa57808201518184015260208101905061088f565b838111156108b9576000848401525b50505050565b60006108ca82610876565b6108d48185610881565b93506108e481856020860161088c565b80840191505092915050565b60006108fc82846108bf565b915081905092915050565b600081519050919050565b600082825260208201905092915050565b6000601f19601f8301169050919050565b600061093f82610907565b6109498185610912565b935061095981856020860161088c565b61096281610923565b840191505092915050565b600060208201905081810360008301526109878184610934565b90509291505056fea2646970667358221220154e9a530e8da5e35f77d1b6bd1ac0faf8976766908736fec028eaed8c6f9e7164736f6c634300080d0033",
  "linkReferences": {},
  "deployedLinkReferences": {}
}