{
  "_format": "hh-sol-artifact-1",
  "contractName": "Flashbot",
  "sourceName": "contracts/Flashbot.sol",
  "abi": [
    {
      "inputs": [
        {
          "internalType": "address",
          "name": "_vaultAddress",
          "type": "address"
        }
      ],
      "stateMutability": "nonpayable",
      "type": "constructor"
    },
    {
      "anonymous": false,
      "inputs": [
        {
          "indexed": true,
          "internalType": "address",
          "name": "previousOwner",
          "type": "address"
        },
        {
          "indexed": true,
          "internalType": "address",
          "name": "newOwner",
          "type": "address"
        }
      ],
      "name": "OwnershipTransferred",
      "type": "event"
    },
    {
      "inputs": [],
      "name": "depositGas",
      "outputs": [],
      "stateMutability": "payable",
      "type": "function"
    },
    {
      "inputs": [
        {
          "internalType": "address",
          "name": "_onBehalfOf",
          "type": "address"
        }
      ],
      "name": "depositGasOnBehalfOf",
      "outputs": [],
      "stateMutability": "payable",
      "type": "function"
    },
    {
      "inputs": [],
      "name": "getGasBalance",
      "outputs": [
        {
          "internalType": "uint256",
          "name": "",
          "type": "uint256"
        }
      ],
      "stateMutability": "view",
      "type": "function"
    },
    {
      "inputs": [],
      "name": "owner",
      "outputs": [
        {
          "internalType": "address",
          "name": "",
          "type": "address"
        }
      ],
      "stateMutability": "view",
      "type": "function"
    },
    {
      "inputs": [],
      "name": "renounceOwnership",
      "outputs": [],
      "stateMutability": "nonpayable",
      "type": "function"
    },
    {
      "inputs": [
        {
          "internalType": "address",
          "name": "_ownerAddress",
          "type": "address"
        },
        {
          "internalType": "address",
          "name": "_erc20Address",
          "type": "address"
        },
        {
          "internalType": "uint256",
          "name": "_amount",
          "type": "uint256"
        }
      ],
      "name": "transferERC20",
      "outputs": [
        {
          "internalType": "bool",
          "name": "",
          "type": "bool"
        }
      ],
      "stateMutability": "nonpayable",
      "type": "function"
    },
    {
      "inputs": [
        {
          "internalType": "address",
          "name": "_ownerAddress",
          "type": "address"
        },
        {
          "internalType": "address",
          "name": "_erc721Address",
          "type": "address"
        },
        {
          "internalType": "uint256",
          "name": "_erc721Id",
          "type": "uint256"
        }
      ],
      "name": "transferERC721",
      "outputs": [
        {
          "internalType": "bool",
          "name": "",
          "type": "bool"
        }
      ],
      "stateMutability": "nonpayable",
      "type": "function"
    },
    {
      "inputs": [
        {
          "internalType": "address",
          "name": "newOwner",
          "type": "address"
        }
      ],
      "name": "transferOwnership",
      "outputs": [],
      "stateMutability": "nonpayable",
      "type": "function"
    },
    {
      "inputs": [],
      "name": "vaultAddress",
      "outputs": [
        {
          "internalType": "address",
          "name": "",
          "type": "address"
        }
      ],
      "stateMutability": "view",
      "type": "function"
    },
    {
      "inputs": [
        {
          "internalType": "uint256",
          "name": "_balance",
          "type": "uint256"
        }
      ],
      "name": "withdrawGas",
      "outputs": [],
      "stateMutability": "nonpayable",
      "type": "function"
    }
  ],
  "bytecode": "0x60806040523480156200001157600080fd5b5060405162001472380380620014728339818101604052810190620000379190620001d5565b620000576200004b6200009f60201b60201c565b620000a760201b60201c565b80600160006101000a81548173ffffffffffffffffffffffffffffffffffffffff021916908373ffffffffffffffffffffffffffffffffffffffff1602179055505062000207565b600033905090565b60008060009054906101000a900473ffffffffffffffffffffffffffffffffffffffff169050816000806101000a81548173ffffffffffffffffffffffffffffffffffffffff021916908373ffffffffffffffffffffffffffffffffffffffff1602179055508173ffffffffffffffffffffffffffffffffffffffff168173ffffffffffffffffffffffffffffffffffffffff167f8be0079c531659141344cd1fd0a4f28419497f9722a3daafe3b4186f6b6457e060405160405180910390a35050565b600080fd5b600073ffffffffffffffffffffffffffffffffffffffff82169050919050565b60006200019d8262000170565b9050919050565b620001af8162000190565b8114620001bb57600080fd5b50565b600081519050620001cf81620001a4565b92915050565b600060208284031215620001ee57620001ed6200016b565b5b6000620001fe84828501620001be565b91505092915050565b61125b80620002176000396000f3fe6080604052600436106100915760003560e01c80639165754411610059578063916575441461015c5780639db5dbe414610185578063ae9bb692146101c2578063c52edc9c146101cc578063f2fde38b146101f757610091565b80631aca637614610096578063430bf08a146100d35780635eb5329a146100fe578063715018a61461011a5780638da5cb5b14610131575b600080fd5b3480156100a257600080fd5b506100bd60048036038101906100b89190610de7565b610220565b6040516100ca9190610e55565b60405180910390f35b3480156100df57600080fd5b506100e8610578565b6040516100f59190610e7f565b60405180910390f35b61011860048036038101906101139190610e9a565b61059e565b005b34801561012657600080fd5b5061012f6105f7565b005b34801561013d57600080fd5b5061014661067f565b6040516101539190610e7f565b60405180910390f35b34801561016857600080fd5b50610183600480360381019061017e9190610ec7565b6106a8565b005b34801561019157600080fd5b506101ac60048036038101906101a79190610de7565b610794565b6040516101b99190610e55565b60405180910390f35b6101ca610aec565b005b3480156101d857600080fd5b506101e1610b44565b6040516101ee9190610f03565b60405180910390f35b34801561020357600080fd5b5061021e60048036038101906102199190610e9a565b610b8b565b005b600061022a610c82565b73ffffffffffffffffffffffffffffffffffffffff1661024861067f565b73ffffffffffffffffffffffffffffffffffffffff161461029e576040517f08c379a000000000000000000000000000000000000000000000000000000000815260040161029590610f7b565b60405180910390fd5b6000808473ffffffffffffffffffffffffffffffffffffffff1686600160009054906101000a900473ffffffffffffffffffffffffffffffffffffffff16866040516024016102ef93929190610f9b565b6040516020818303038152906040527f42842e0e000000000000000000000000000000000000000000000000000000007bffffffffffffffffffffffffffffffffffffffffffffffffffffffff19166020820180517bffffffffffffffffffffffffffffffffffffffffffffffffffffffff8381831617835250505050604051610379919061104c565b6000604051808303816000865af19150503d80600081146103b6576040519150601f19603f3d011682016040523d82523d6000602084013e6103bb565b606091505b5091509150818190610403576040517f08c379a00000000000000000000000000000000000000000000000000000000081526004016103fa91906110b8565b60405180910390fd5b50600080600160009054906101000a900473ffffffffffffffffffffffffffffffffffffffff1673ffffffffffffffffffffffffffffffffffffffff1688888860405160240161045593929190610f9b565b6040516020818303038152906040527faf08ef9a000000000000000000000000000000000000000000000000000000007bffffffffffffffffffffffffffffffffffffffffffffffffffffffff19166020820180517bffffffffffffffffffffffffffffffffffffffffffffffffffffffff83818316178352505050506040516104df919061104c565b6000604051808303816000865af19150503d806000811461051c576040519150601f19603f3d011682016040523d82523d6000602084013e610521565b606091505b5091509150818190610569576040517f08c379a000000000000000000000000000000000000000000000000000000000815260040161056091906110b8565b60405180910390fd5b50839450505050509392505050565b600160009054906101000a900473ffffffffffffffffffffffffffffffffffffffff1681565b34600260008373ffffffffffffffffffffffffffffffffffffffff1673ffffffffffffffffffffffffffffffffffffffff16815260200190815260200160002060008282546105ed9190611109565b9250508190555050565b6105ff610c82565b73ffffffffffffffffffffffffffffffffffffffff1661061d61067f565b73ffffffffffffffffffffffffffffffffffffffff1614610673576040517f08c379a000000000000000000000000000000000000000000000000000000000815260040161066a90610f7b565b60405180910390fd5b61067d6000610c8a565b565b60008060009054906101000a900473ffffffffffffffffffffffffffffffffffffffff16905090565b80600260003373ffffffffffffffffffffffffffffffffffffffff1673ffffffffffffffffffffffffffffffffffffffff1681526020019081526020016000205410156106f457600080fd5b80600260003373ffffffffffffffffffffffffffffffffffffffff1673ffffffffffffffffffffffffffffffffffffffff1681526020019081526020016000206000828254610743919061115f565b925050819055503373ffffffffffffffffffffffffffffffffffffffff166108fc829081150290604051600060405180830381858888f19350505050158015610790573d6000803e3d6000fd5b5050565b600061079e610c82565b73ffffffffffffffffffffffffffffffffffffffff166107bc61067f565b73ffffffffffffffffffffffffffffffffffffffff1614610812576040517f08c379a000000000000000000000000000000000000000000000000000000000815260040161080990610f7b565b60405180910390fd5b6000808473ffffffffffffffffffffffffffffffffffffffff1686600160009054906101000a900473ffffffffffffffffffffffffffffffffffffffff168660405160240161086393929190610f9b565b6040516020818303038152906040527f23b872dd000000000000000000000000000000000000000000000000000000007bffffffffffffffffffffffffffffffffffffffffffffffffffffffff19166020820180517bffffffffffffffffffffffffffffffffffffffffffffffffffffffff83818316178352505050506040516108ed919061104c565b6000604051808303816000865af19150503d806000811461092a576040519150601f19603f3d011682016040523d82523d6000602084013e61092f565b606091505b5091509150818190610977576040517f08c379a000000000000000000000000000000000000000000000000000000000815260040161096e91906110b8565b60405180910390fd5b50600080600160009054906101000a900473ffffffffffffffffffffffffffffffffffffffff1673ffffffffffffffffffffffffffffffffffffffff168888886040516024016109c993929190610f9b565b6040516020818303038152906040527f4761a63d000000000000000000000000000000000000000000000000000000007bffffffffffffffffffffffffffffffffffffffffffffffffffffffff19166020820180517bffffffffffffffffffffffffffffffffffffffffffffffffffffffff8381831617835250505050604051610a53919061104c565b6000604051808303816000865af19150503d8060008114610a90576040519150601f19603f3d011682016040523d82523d6000602084013e610a95565b606091505b5091509150818190610add576040517f08c379a0000000000000000000000000000000000000000000000000000000008152600401610ad491906110b8565b60405180910390fd5b50839450505050509392505050565b34600260003373ffffffffffffffffffffffffffffffffffffffff1673ffffffffffffffffffffffffffffffffffffffff1681526020019081526020016000206000828254610b3b9190611109565b92505081905550565b6000600260003373ffffffffffffffffffffffffffffffffffffffff1673ffffffffffffffffffffffffffffffffffffffff16815260200190815260200160002054905090565b610b93610c82565b73ffffffffffffffffffffffffffffffffffffffff16610bb161067f565b73ffffffffffffffffffffffffffffffffffffffff1614610c07576040517f08c379a0000000000000000000000000000000000000000000000000000000008152600401610bfe90610f7b565b60405180910390fd5b600073ffffffffffffffffffffffffffffffffffffffff168173ffffffffffffffffffffffffffffffffffffffff1603610c76576040517f08c379a0000000000000000000000000000000000000000000000000000000008152600401610c6d90611205565b60405180910390fd5b610c7f81610c8a565b50565b600033905090565b60008060009054906101000a900473ffffffffffffffffffffffffffffffffffffffff169050816000806101000a81548173ffffffffffffffffffffffffffffffffffffffff021916908373ffffffffffffffffffffffffffffffffffffffff1602179055508173ffffffffffffffffffffffffffffffffffffffff168173ffffffffffffffffffffffffffffffffffffffff167f8be0079c531659141344cd1fd0a4f28419497f9722a3daafe3b4186f6b6457e060405160405180910390a35050565b600080fd5b600073ffffffffffffffffffffffffffffffffffffffff82169050919050565b6000610d7e82610d53565b9050919050565b610d8e81610d73565b8114610d9957600080fd5b50565b600081359050610dab81610d85565b92915050565b6000819050919050565b610dc481610db1565b8114610dcf57600080fd5b50565b600081359050610de181610dbb565b92915050565b600080600060608486031215610e0057610dff610d4e565b5b6000610e0e86828701610d9c565b9350506020610e1f86828701610d9c565b9250506040610e3086828701610dd2565b9150509250925092565b60008115159050919050565b610e4f81610e3a565b82525050565b6000602082019050610e6a6000830184610e46565b92915050565b610e7981610d73565b82525050565b6000602082019050610e946000830184610e70565b92915050565b600060208284031215610eb057610eaf610d4e565b5b6000610ebe84828501610d9c565b91505092915050565b600060208284031215610edd57610edc610d4e565b5b6000610eeb84828501610dd2565b91505092915050565b610efd81610db1565b82525050565b6000602082019050610f186000830184610ef4565b92915050565b600082825260208201905092915050565b7f4f776e61626c653a2063616c6c6572206973206e6f7420746865206f776e6572600082015250565b6000610f65602083610f1e565b9150610f7082610f2f565b602082019050919050565b60006020820190508181036000830152610f9481610f58565b9050919050565b6000606082019050610fb06000830186610e70565b610fbd6020830185610e70565b610fca6040830184610ef4565b949350505050565b600081519050919050565b600081905092915050565b60005b83811015611006578082015181840152602081019050610feb565b83811115611015576000848401525b50505050565b600061102682610fd2565b6110308185610fdd565b9350611040818560208601610fe8565b80840191505092915050565b6000611058828461101b565b915081905092915050565b600081519050919050565b6000601f19601f8301169050919050565b600061108a82611063565b6110948185610f1e565b93506110a4818560208601610fe8565b6110ad8161106e565b840191505092915050565b600060208201905081810360008301526110d2818461107f565b905092915050565b7f4e487b7100000000000000000000000000000000000000000000000000000000600052601160045260246000fd5b600061111482610db1565b915061111f83610db1565b9250827fffffffffffffffffffffffffffffffffffffffffffffffffffffffffffffffff03821115611154576111536110da565b5b828201905092915050565b600061116a82610db1565b915061117583610db1565b925082821015611188576111876110da565b5b828203905092915050565b7f4f776e61626c653a206e6577206f776e657220697320746865207a65726f206160008201527f6464726573730000000000000000000000000000000000000000000000000000602082015250565b60006111ef602683610f1e565b91506111fa82611193565b604082019050919050565b6000602082019050818103600083015261121e816111e2565b905091905056fea2646970667358221220c2c381ec8105a73a3564205cca428580d30f0f7fc28c42d5461f710441106f0264736f6c634300080d0033",
  "linkReferences": {},
  "deployedLinkReferences": {}
}