{
  "_format": "hh-sol-artifact-1",
  "contractName": "Flashbot",
  "sourceName": "contracts/Flashbot.sol",
  "abi": [
    {
      "inputs": [
        {
          "internalType": "address",
          "name": "_vaultAddress",
          "type": "address"
        }
      ],
      "stateMutability": "nonpayable",
      "type": "constructor"
    },
    {
      "inputs": [],
      "name": "depositGas",
      "outputs": [],
      "stateMutability": "payable",
      "type": "function"
    },
    {
      "inputs": [
        {
          "internalType": "address",
          "name": "onBehalfOf",
          "type": "address"
        }
      ],
      "name": "depositGasOnBehalfOf",
      "outputs": [],
      "stateMutability": "payable",
      "type": "function"
    },
    {
      "inputs": [],
      "name": "getGasBalance",
      "outputs": [
        {
          "internalType": "uint256",
          "name": "",
          "type": "uint256"
        }
      ],
      "stateMutability": "view",
      "type": "function"
    },
    {
      "inputs": [
        {
          "internalType": "address",
          "name": "nftAddress",
          "type": "address"
        },
        {
          "internalType": "address",
          "name": "ownerAddress",
          "type": "address"
        },
        {
          "internalType": "uint256",
          "name": "nftId",
          "type": "uint256"
        }
      ],
      "name": "transferNFT",
      "outputs": [
        {
          "internalType": "bool",
          "name": "",
          "type": "bool"
        }
      ],
      "stateMutability": "nonpayable",
      "type": "function"
    },
    {
      "inputs": [],
      "name": "vaultAddress",
      "outputs": [
        {
          "internalType": "address",
          "name": "",
          "type": "address"
        }
      ],
      "stateMutability": "view",
      "type": "function"
    },
    {
      "inputs": [
        {
          "internalType": "uint256",
          "name": "balance",
          "type": "uint256"
        }
      ],
      "name": "withdrawGas",
      "outputs": [],
      "stateMutability": "nonpayable",
      "type": "function"
    }
  ],
  "bytecode": "0x608060405234801561001057600080fd5b50604051610910380380610910833981810160405281019061003291906100db565b806000806101000a81548173ffffffffffffffffffffffffffffffffffffffff021916908373ffffffffffffffffffffffffffffffffffffffff16021790555050610108565b600080fd5b600073ffffffffffffffffffffffffffffffffffffffff82169050919050565b60006100a88261007d565b9050919050565b6100b88161009d565b81146100c357600080fd5b50565b6000815190506100d5816100af565b92915050565b6000602082840312156100f1576100f0610078565b5b60006100ff848285016100c6565b91505092915050565b6107f9806101176000396000f3fe6080604052600436106100555760003560e01c8063430bf08a1461005a5780635eb5329a1461008557806369e9cae1146100a157806391657544146100de578063ae9bb69214610107578063c52edc9c14610111575b600080fd5b34801561006657600080fd5b5061006f61013c565b60405161007c91906104b3565b60405180910390f35b61009f600480360381019061009a91906104ff565b610160565b005b3480156100ad57600080fd5b506100c860048036038101906100c39190610562565b6101b9565b6040516100d591906105d0565b60405180910390f35b3480156100ea57600080fd5b50610105600480360381019061010091906105eb565b6102e7565b005b61010f6103d3565b005b34801561011d57600080fd5b5061012661042b565b6040516101339190610627565b60405180910390f35b60008054906101000a900473ffffffffffffffffffffffffffffffffffffffff1681565b34600160008373ffffffffffffffffffffffffffffffffffffffff1673ffffffffffffffffffffffffffffffffffffffff16815260200190815260200160002060008282546101af9190610671565b9250508190555050565b60008060008573ffffffffffffffffffffffffffffffffffffffff168560008054906101000a900473ffffffffffffffffffffffffffffffffffffffff168660405160240161020a939291906106c7565b6040516020818303038152906040527f42842e0e000000000000000000000000000000000000000000000000000000007bffffffffffffffffffffffffffffffffffffffffffffffffffffffff19166020820180517bffffffffffffffffffffffffffffffffffffffffffffffffffffffff83818316178352505050506040516102949190610778565b6000604051808303816000865af19150503d80600081146102d1576040519150601f19603f3d011682016040523d82523d6000602084013e6102d6565b606091505b509150915081925050509392505050565b80600160003373ffffffffffffffffffffffffffffffffffffffff1673ffffffffffffffffffffffffffffffffffffffff16815260200190815260200160002054101561033357600080fd5b80600160003373ffffffffffffffffffffffffffffffffffffffff1673ffffffffffffffffffffffffffffffffffffffff1681526020019081526020016000206000828254610382919061078f565b925050819055503373ffffffffffffffffffffffffffffffffffffffff166108fc829081150290604051600060405180830381858888f193505050501580156103cf573d6000803e3d6000fd5b5050565b34600160003373ffffffffffffffffffffffffffffffffffffffff1673ffffffffffffffffffffffffffffffffffffffff16815260200190815260200160002060008282546104229190610671565b92505081905550565b6000600160003373ffffffffffffffffffffffffffffffffffffffff1673ffffffffffffffffffffffffffffffffffffffff16815260200190815260200160002054905090565b600073ffffffffffffffffffffffffffffffffffffffff82169050919050565b600061049d82610472565b9050919050565b6104ad81610492565b82525050565b60006020820190506104c860008301846104a4565b92915050565b600080fd5b6104dc81610492565b81146104e757600080fd5b50565b6000813590506104f9816104d3565b92915050565b600060208284031215610515576105146104ce565b5b6000610523848285016104ea565b91505092915050565b6000819050919050565b61053f8161052c565b811461054a57600080fd5b50565b60008135905061055c81610536565b92915050565b60008060006060848603121561057b5761057a6104ce565b5b6000610589868287016104ea565b935050602061059a868287016104ea565b92505060406105ab8682870161054d565b9150509250925092565b60008115159050919050565b6105ca816105b5565b82525050565b60006020820190506105e560008301846105c1565b92915050565b600060208284031215610601576106006104ce565b5b600061060f8482850161054d565b91505092915050565b6106218161052c565b82525050565b600060208201905061063c6000830184610618565b92915050565b7f4e487b7100000000000000000000000000000000000000000000000000000000600052601160045260246000fd5b600061067c8261052c565b91506106878361052c565b9250827fffffffffffffffffffffffffffffffffffffffffffffffffffffffffffffffff038211156106bc576106bb610642565b5b828201905092915050565b60006060820190506106dc60008301866104a4565b6106e960208301856104a4565b6106f66040830184610618565b949350505050565b600081519050919050565b600081905092915050565b60005b83811015610732578082015181840152602081019050610717565b83811115610741576000848401525b50505050565b6000610752826106fe565b61075c8185610709565b935061076c818560208601610714565b80840191505092915050565b60006107848284610747565b915081905092915050565b600061079a8261052c565b91506107a58361052c565b9250828210156107b8576107b7610642565b5b82820390509291505056fea26469706673582212207f90e7451acf019c44ef96cc46a773b88d63e794c250670da938e5164ac520c364736f6c634300080d0033",
  "linkReferences": {},
  "deployedLinkReferences": {}
}