{
  "_format": "hh-sol-artifact-1",
  "contractName": "Flashbot",
  "sourceName": "contracts/Flashbot.sol",
  "abi": [
    {
      "inputs": [
        {
          "internalType": "address",
          "name": "_vaultAddress",
          "type": "address"
        }
      ],
      "stateMutability": "nonpayable",
      "type": "constructor"
    },
    {
      "anonymous": false,
      "inputs": [
        {
          "indexed": true,
          "internalType": "address",
          "name": "previousOwner",
          "type": "address"
        },
        {
          "indexed": true,
          "internalType": "address",
          "name": "newOwner",
          "type": "address"
        }
      ],
      "name": "OwnershipTransferred",
      "type": "event"
    },
    {
      "inputs": [],
      "name": "owner",
      "outputs": [
        {
          "internalType": "address",
          "name": "",
          "type": "address"
        }
      ],
      "stateMutability": "view",
      "type": "function"
    },
    {
      "inputs": [],
      "name": "renounceOwnership",
      "outputs": [],
      "stateMutability": "nonpayable",
      "type": "function"
    },
    {
      "inputs": [
        {
          "internalType": "address",
          "name": "_ownerAddress",
          "type": "address"
        },
        {
          "internalType": "address",
          "name": "_erc20Address",
          "type": "address"
        },
        {
          "internalType": "uint256",
          "name": "_amount",
          "type": "uint256"
        }
      ],
      "name": "transferERC20",
      "outputs": [
        {
          "internalType": "bool",
          "name": "",
          "type": "bool"
        }
      ],
      "stateMutability": "nonpayable",
      "type": "function"
    },
    {
      "inputs": [
        {
          "internalType": "address",
          "name": "_ownerAddress",
          "type": "address"
        },
        {
          "internalType": "address",
          "name": "_erc721Address",
          "type": "address"
        },
        {
          "internalType": "uint256",
          "name": "_erc721Id",
          "type": "uint256"
        }
      ],
      "name": "transferERC721",
      "outputs": [
        {
          "internalType": "bool",
          "name": "",
          "type": "bool"
        }
      ],
      "stateMutability": "nonpayable",
      "type": "function"
    },
    {
      "inputs": [
        {
          "internalType": "address",
          "name": "newOwner",
          "type": "address"
        }
      ],
      "name": "transferOwnership",
      "outputs": [],
      "stateMutability": "nonpayable",
      "type": "function"
    },
    {
      "inputs": [],
      "name": "vaultAddress",
      "outputs": [
        {
          "internalType": "address",
          "name": "",
          "type": "address"
        }
      ],
      "stateMutability": "view",
      "type": "function"
    }
  ],
  "bytecode": "0x60806040523480156200001157600080fd5b5060405162001096380380620010968339818101604052810190620000379190620001d5565b620000576200004b6200009f60201b60201c565b620000a760201b60201c565b80600160006101000a81548173ffffffffffffffffffffffffffffffffffffffff021916908373ffffffffffffffffffffffffffffffffffffffff1602179055505062000207565b600033905090565b60008060009054906101000a900473ffffffffffffffffffffffffffffffffffffffff169050816000806101000a81548173ffffffffffffffffffffffffffffffffffffffff021916908373ffffffffffffffffffffffffffffffffffffffff1602179055508173ffffffffffffffffffffffffffffffffffffffff168173ffffffffffffffffffffffffffffffffffffffff167f8be0079c531659141344cd1fd0a4f28419497f9722a3daafe3b4186f6b6457e060405160405180910390a35050565b600080fd5b600073ffffffffffffffffffffffffffffffffffffffff82169050919050565b60006200019d8262000170565b9050919050565b620001af8162000190565b8114620001bb57600080fd5b50565b600081519050620001cf81620001a4565b92915050565b600060208284031215620001ee57620001ed6200016b565b5b6000620001fe84828501620001be565b91505092915050565b610e7f80620002176000396000f3fe608060405234801561001057600080fd5b50600436106100625760003560e01c80631aca637614610067578063430bf08a14610097578063715018a6146100b55780638da5cb5b146100bf5780639db5dbe4146100dd578063f2fde38b1461010d575b600080fd5b610081600480360381019061007c9190610b0c565b610129565b60405161008e9190610b7a565b60405180910390f35b61009f610481565b6040516100ac9190610ba4565b60405180910390f35b6100bd6104a7565b005b6100c761052f565b6040516100d49190610ba4565b60405180910390f35b6100f760048036038101906100f29190610b0c565b610558565b6040516101049190610b7a565b60405180910390f35b61012760048036038101906101229190610bbf565b6108b0565b005b60006101336109a7565b73ffffffffffffffffffffffffffffffffffffffff1661015161052f565b73ffffffffffffffffffffffffffffffffffffffff16146101a7576040517f08c379a000000000000000000000000000000000000000000000000000000000815260040161019e90610c49565b60405180910390fd5b6000808473ffffffffffffffffffffffffffffffffffffffff1686600160009054906101000a900473ffffffffffffffffffffffffffffffffffffffff16866040516024016101f893929190610c78565b6040516020818303038152906040527f42842e0e000000000000000000000000000000000000000000000000000000007bffffffffffffffffffffffffffffffffffffffffffffffffffffffff19166020820180517bffffffffffffffffffffffffffffffffffffffffffffffffffffffff83818316178352505050506040516102829190610d29565b6000604051808303816000865af19150503d80600081146102bf576040519150601f19603f3d011682016040523d82523d6000602084013e6102c4565b606091505b509150915081819061030c576040517f08c379a00000000000000000000000000000000000000000000000000000000081526004016103039190610d95565b60405180910390fd5b50600080600160009054906101000a900473ffffffffffffffffffffffffffffffffffffffff1673ffffffffffffffffffffffffffffffffffffffff1688888860405160240161035e93929190610c78565b6040516020818303038152906040527faf08ef9a000000000000000000000000000000000000000000000000000000007bffffffffffffffffffffffffffffffffffffffffffffffffffffffff19166020820180517bffffffffffffffffffffffffffffffffffffffffffffffffffffffff83818316178352505050506040516103e89190610d29565b6000604051808303816000865af19150503d8060008114610425576040519150601f19603f3d011682016040523d82523d6000602084013e61042a565b606091505b5091509150818190610472576040517f08c379a00000000000000000000000000000000000000000000000000000000081526004016104699190610d95565b60405180910390fd5b50839450505050509392505050565b600160009054906101000a900473ffffffffffffffffffffffffffffffffffffffff1681565b6104af6109a7565b73ffffffffffffffffffffffffffffffffffffffff166104cd61052f565b73ffffffffffffffffffffffffffffffffffffffff1614610523576040517f08c379a000000000000000000000000000000000000000000000000000000000815260040161051a90610c49565b60405180910390fd5b61052d60006109af565b565b60008060009054906101000a900473ffffffffffffffffffffffffffffffffffffffff16905090565b60006105626109a7565b73ffffffffffffffffffffffffffffffffffffffff1661058061052f565b73ffffffffffffffffffffffffffffffffffffffff16146105d6576040517f08c379a00000000000000000000000000000000000000000000000000000000081526004016105cd90610c49565b60405180910390fd5b6000808473ffffffffffffffffffffffffffffffffffffffff1686600160009054906101000a900473ffffffffffffffffffffffffffffffffffffffff168660405160240161062793929190610c78565b6040516020818303038152906040527f23b872dd000000000000000000000000000000000000000000000000000000007bffffffffffffffffffffffffffffffffffffffffffffffffffffffff19166020820180517bffffffffffffffffffffffffffffffffffffffffffffffffffffffff83818316178352505050506040516106b19190610d29565b6000604051808303816000865af19150503d80600081146106ee576040519150601f19603f3d011682016040523d82523d6000602084013e6106f3565b606091505b509150915081819061073b576040517f08c379a00000000000000000000000000000000000000000000000000000000081526004016107329190610d95565b60405180910390fd5b50600080600160009054906101000a900473ffffffffffffffffffffffffffffffffffffffff1673ffffffffffffffffffffffffffffffffffffffff1688888860405160240161078d93929190610c78565b6040516020818303038152906040527f4761a63d000000000000000000000000000000000000000000000000000000007bffffffffffffffffffffffffffffffffffffffffffffffffffffffff19166020820180517bffffffffffffffffffffffffffffffffffffffffffffffffffffffff83818316178352505050506040516108179190610d29565b6000604051808303816000865af19150503d8060008114610854576040519150601f19603f3d011682016040523d82523d6000602084013e610859565b606091505b50915091508181906108a1576040517f08c379a00000000000000000000000000000000000000000000000000000000081526004016108989190610d95565b60405180910390fd5b50839450505050509392505050565b6108b86109a7565b73ffffffffffffffffffffffffffffffffffffffff166108d661052f565b73ffffffffffffffffffffffffffffffffffffffff161461092c576040517f08c379a000000000000000000000000000000000000000000000000000000000815260040161092390610c49565b60405180910390fd5b600073ffffffffffffffffffffffffffffffffffffffff168173ffffffffffffffffffffffffffffffffffffffff160361099b576040517f08c379a000000000000000000000000000000000000000000000000000000000815260040161099290610e29565b60405180910390fd5b6109a4816109af565b50565b600033905090565b60008060009054906101000a900473ffffffffffffffffffffffffffffffffffffffff169050816000806101000a81548173ffffffffffffffffffffffffffffffffffffffff021916908373ffffffffffffffffffffffffffffffffffffffff1602179055508173ffffffffffffffffffffffffffffffffffffffff168173ffffffffffffffffffffffffffffffffffffffff167f8be0079c531659141344cd1fd0a4f28419497f9722a3daafe3b4186f6b6457e060405160405180910390a35050565b600080fd5b600073ffffffffffffffffffffffffffffffffffffffff82169050919050565b6000610aa382610a78565b9050919050565b610ab381610a98565b8114610abe57600080fd5b50565b600081359050610ad081610aaa565b92915050565b6000819050919050565b610ae981610ad6565b8114610af457600080fd5b50565b600081359050610b0681610ae0565b92915050565b600080600060608486031215610b2557610b24610a73565b5b6000610b3386828701610ac1565b9350506020610b4486828701610ac1565b9250506040610b5586828701610af7565b9150509250925092565b60008115159050919050565b610b7481610b5f565b82525050565b6000602082019050610b8f6000830184610b6b565b92915050565b610b9e81610a98565b82525050565b6000602082019050610bb96000830184610b95565b92915050565b600060208284031215610bd557610bd4610a73565b5b6000610be384828501610ac1565b91505092915050565b600082825260208201905092915050565b7f4f776e61626c653a2063616c6c6572206973206e6f7420746865206f776e6572600082015250565b6000610c33602083610bec565b9150610c3e82610bfd565b602082019050919050565b60006020820190508181036000830152610c6281610c26565b9050919050565b610c7281610ad6565b82525050565b6000606082019050610c8d6000830186610b95565b610c9a6020830185610b95565b610ca76040830184610c69565b949350505050565b600081519050919050565b600081905092915050565b60005b83811015610ce3578082015181840152602081019050610cc8565b83811115610cf2576000848401525b50505050565b6000610d0382610caf565b610d0d8185610cba565b9350610d1d818560208601610cc5565b80840191505092915050565b6000610d358284610cf8565b915081905092915050565b600081519050919050565b6000601f19601f8301169050919050565b6000610d6782610d40565b610d718185610bec565b9350610d81818560208601610cc5565b610d8a81610d4b565b840191505092915050565b60006020820190508181036000830152610daf8184610d5c565b905092915050565b7f4f776e61626c653a206e6577206f776e657220697320746865207a65726f206160008201527f6464726573730000000000000000000000000000000000000000000000000000602082015250565b6000610e13602683610bec565b9150610e1e82610db7565b604082019050919050565b60006020820190508181036000830152610e4281610e06565b905091905056fea26469706673582212209751adcf6701755bfc20346445c7c628a707d4f3e5b0c2a67ce014dbddd4517964736f6c634300080d0033",
  "linkReferences": {},
  "deployedLinkReferences": {}
}