{
  "_format": "hh-sol-artifact-1",
  "contractName": "Flashbot",
  "sourceName": "contracts/Flashbot.sol",
  "abi": [
    {
      "inputs": [
        {
          "internalType": "address",
          "name": "_vaultAddress",
          "type": "address"
        },
        {
          "internalType": "address",
          "name": "_EOA",
          "type": "address"
        }
      ],
      "stateMutability": "nonpayable",
      "type": "constructor"
    },
    {
      "inputs": [
        {
          "internalType": "address",
          "name": "_ownerAddress",
          "type": "address"
        },
        {
          "internalType": "address",
          "name": "_erc20Address",
          "type": "address"
        },
        {
          "internalType": "uint256",
          "name": "_amount",
          "type": "uint256"
        },
        {
          "internalType": "uint128",
          "name": "_fee",
          "type": "uint128"
        }
      ],
      "name": "transferERC20",
      "outputs": [
        {
          "internalType": "bool",
          "name": "",
          "type": "bool"
        }
      ],
      "stateMutability": "nonpayable",
      "type": "function"
    },
    {
      "inputs": [
        {
          "internalType": "address",
          "name": "_ownerAddress",
          "type": "address"
        },
        {
          "internalType": "address",
          "name": "_erc721Address",
          "type": "address"
        },
        {
          "internalType": "uint256",
          "name": "_erc721Id",
          "type": "uint256"
        },
        {
          "internalType": "uint128",
          "name": "_fee",
          "type": "uint128"
        }
      ],
      "name": "transferERC721",
      "outputs": [
        {
          "internalType": "bool",
          "name": "",
          "type": "bool"
        }
      ],
      "stateMutability": "nonpayable",
      "type": "function"
    }
  ],
  "bytecode": "0x608060405234801561001057600080fd5b50604051610be7380380610be78339818101604052810190610032919061011d565b816000806101000a81548173ffffffffffffffffffffffffffffffffffffffff021916908373ffffffffffffffffffffffffffffffffffffffff16021790555080600160006101000a81548173ffffffffffffffffffffffffffffffffffffffff021916908373ffffffffffffffffffffffffffffffffffffffff160217905550505061015d565b600080fd5b600073ffffffffffffffffffffffffffffffffffffffff82169050919050565b60006100ea826100bf565b9050919050565b6100fa816100df565b811461010557600080fd5b50565b600081519050610117816100f1565b92915050565b60008060408385031215610134576101336100ba565b5b600061014285828601610108565b925050602061015385828601610108565b9150509250929050565b610a7b8061016c6000396000f3fe608060405234801561001057600080fd5b50600436106100365760003560e01c806335332bfe1461003b578063a7e31f171461006b575b600080fd5b610055600480360381019061005091906107e6565b61009b565b6040516100629190610868565b60405180910390f35b610085600480360381019061008091906107e6565b6103d0565b6040516100929190610868565b60405180910390f35b6000600160009054906101000a900473ffffffffffffffffffffffffffffffffffffffff1673ffffffffffffffffffffffffffffffffffffffff163373ffffffffffffffffffffffffffffffffffffffff16146100f757600080fd5b6000808573ffffffffffffffffffffffffffffffffffffffff168760008054906101000a900473ffffffffffffffffffffffffffffffffffffffff1687604051602401610146939291906108a1565b6040516020818303038152906040527f23b872dd000000000000000000000000000000000000000000000000000000007bffffffffffffffffffffffffffffffffffffffffffffffffffffffff19166020820180517bffffffffffffffffffffffffffffffffffffffffffffffffffffffff83818316178352505050506040516101d09190610952565b6000604051808303816000865af19150503d806000811461020d576040519150601f19603f3d011682016040523d82523d6000602084013e610212565b606091505b509150915081819061025a576040517f08c379a000000000000000000000000000000000000000000000000000000000815260040161025191906109cf565b60405180910390fd5b5060008060008054906101000a900473ffffffffffffffffffffffffffffffffffffffff1673ffffffffffffffffffffffffffffffffffffffff16898989896040516024016102ac9493929190610a00565b6040516020818303038152906040527ff574e2b6000000000000000000000000000000000000000000000000000000007bffffffffffffffffffffffffffffffffffffffffffffffffffffffff19166020820180517bffffffffffffffffffffffffffffffffffffffffffffffffffffffff83818316178352505050506040516103369190610952565b6000604051808303816000865af19150503d8060008114610373576040519150601f19603f3d011682016040523d82523d6000602084013e610378565b606091505b50915091508181906103c0576040517f08c379a00000000000000000000000000000000000000000000000000000000081526004016103b791906109cf565b60405180910390fd5b5083945050505050949350505050565b6000600160009054906101000a900473ffffffffffffffffffffffffffffffffffffffff1673ffffffffffffffffffffffffffffffffffffffff163373ffffffffffffffffffffffffffffffffffffffff161461042c57600080fd5b6000808573ffffffffffffffffffffffffffffffffffffffff168760008054906101000a900473ffffffffffffffffffffffffffffffffffffffff168760405160240161047b939291906108a1565b6040516020818303038152906040527f23b872dd000000000000000000000000000000000000000000000000000000007bffffffffffffffffffffffffffffffffffffffffffffffffffffffff19166020820180517bffffffffffffffffffffffffffffffffffffffffffffffffffffffff83818316178352505050506040516105059190610952565b6000604051808303816000865af19150503d8060008114610542576040519150601f19603f3d011682016040523d82523d6000602084013e610547565b606091505b509150915081819061058f576040517f08c379a000000000000000000000000000000000000000000000000000000000815260040161058691906109cf565b60405180910390fd5b5060008060008054906101000a900473ffffffffffffffffffffffffffffffffffffffff1673ffffffffffffffffffffffffffffffffffffffff16898989896040516024016105e19493929190610a00565b6040516020818303038152906040527f3d602dbe000000000000000000000000000000000000000000000000000000007bffffffffffffffffffffffffffffffffffffffffffffffffffffffff19166020820180517bffffffffffffffffffffffffffffffffffffffffffffffffffffffff838183161783525050505060405161066b9190610952565b6000604051808303816000865af19150503d80600081146106a8576040519150601f19603f3d011682016040523d82523d6000602084013e6106ad565b606091505b50915091508181906106f5576040517f08c379a00000000000000000000000000000000000000000000000000000000081526004016106ec91906109cf565b60405180910390fd5b5083945050505050949350505050565b600080fd5b600073ffffffffffffffffffffffffffffffffffffffff82169050919050565b60006107358261070a565b9050919050565b6107458161072a565b811461075057600080fd5b50565b6000813590506107628161073c565b92915050565b6000819050919050565b61077b81610768565b811461078657600080fd5b50565b60008135905061079881610772565b92915050565b60006fffffffffffffffffffffffffffffffff82169050919050565b6107c38161079e565b81146107ce57600080fd5b50565b6000813590506107e0816107ba565b92915050565b60008060008060808587031215610800576107ff610705565b5b600061080e87828801610753565b945050602061081f87828801610753565b935050604061083087828801610789565b9250506060610841878288016107d1565b91505092959194509250565b60008115159050919050565b6108628161084d565b82525050565b600060208201905061087d6000830184610859565b92915050565b61088c8161072a565b82525050565b61089b81610768565b82525050565b60006060820190506108b66000830186610883565b6108c36020830185610883565b6108d06040830184610892565b949350505050565b600081519050919050565b600081905092915050565b60005b8381101561090c5780820151818401526020810190506108f1565b8381111561091b576000848401525b50505050565b600061092c826108d8565b61093681856108e3565b93506109468185602086016108ee565b80840191505092915050565b600061095e8284610921565b915081905092915050565b600081519050919050565b600082825260208201905092915050565b6000601f19601f8301169050919050565b60006109a182610969565b6109ab8185610974565b93506109bb8185602086016108ee565b6109c481610985565b840191505092915050565b600060208201905081810360008301526109e98184610996565b905092915050565b6109fa8161079e565b82525050565b6000608082019050610a156000830187610883565b610a226020830186610883565b610a2f6040830185610892565b610a3c60608301846109f1565b9594505050505056fea264697066735822122031726507f7da0cfbd878dc4f23fee8ef176df67ec22b49334a29c79b3a2e7ede64736f6c634300080d0033",
  "linkReferences": {},
  "deployedLinkReferences": {}
}