{
  "_format": "hh-sol-artifact-1",
  "contractName": "Flashbot",
  "sourceName": "contracts/Flashbot.sol",
  "abi": [
    {
      "inputs": [
        {
          "internalType": "address",
          "name": "_vaultAddress",
          "type": "address"
        }
      ],
      "stateMutability": "nonpayable",
      "type": "constructor"
    },
    {
      "anonymous": false,
      "inputs": [
        {
          "indexed": true,
          "internalType": "address",
          "name": "previousOwner",
          "type": "address"
        },
        {
          "indexed": true,
          "internalType": "address",
          "name": "newOwner",
          "type": "address"
        }
      ],
      "name": "OwnershipTransferred",
      "type": "event"
    },
    {
      "inputs": [],
      "name": "depositGas",
      "outputs": [],
      "stateMutability": "payable",
      "type": "function"
    },
    {
      "inputs": [
        {
          "internalType": "address",
          "name": "onBehalfOf",
          "type": "address"
        }
      ],
      "name": "depositGasOnBehalfOf",
      "outputs": [],
      "stateMutability": "payable",
      "type": "function"
    },
    {
      "inputs": [],
      "name": "getGasBalance",
      "outputs": [
        {
          "internalType": "uint256",
          "name": "",
          "type": "uint256"
        }
      ],
      "stateMutability": "view",
      "type": "function"
    },
    {
      "inputs": [],
      "name": "owner",
      "outputs": [
        {
          "internalType": "address",
          "name": "",
          "type": "address"
        }
      ],
      "stateMutability": "view",
      "type": "function"
    },
    {
      "inputs": [],
      "name": "renounceOwnership",
      "outputs": [],
      "stateMutability": "nonpayable",
      "type": "function"
    },
    {
      "inputs": [
        {
          "internalType": "address",
          "name": "erc721Address",
          "type": "address"
        },
        {
          "internalType": "address",
          "name": "ownerAddress",
          "type": "address"
        },
        {
          "internalType": "uint256",
          "name": "erc721Id",
          "type": "uint256"
        }
      ],
      "name": "transferERC721",
      "outputs": [
        {
          "internalType": "bool",
          "name": "",
          "type": "bool"
        }
      ],
      "stateMutability": "nonpayable",
      "type": "function"
    },
    {
      "inputs": [
        {
          "internalType": "address",
          "name": "newOwner",
          "type": "address"
        }
      ],
      "name": "transferOwnership",
      "outputs": [],
      "stateMutability": "nonpayable",
      "type": "function"
    },
    {
      "inputs": [],
      "name": "vaultAddress",
      "outputs": [
        {
          "internalType": "address",
          "name": "",
          "type": "address"
        }
      ],
      "stateMutability": "view",
      "type": "function"
    },
    {
      "inputs": [
        {
          "internalType": "uint256",
          "name": "balance",
          "type": "uint256"
        }
      ],
      "name": "withdrawGas",
      "outputs": [],
      "stateMutability": "nonpayable",
      "type": "function"
    }
  ],
  "bytecode": "0x60806040523480156200001157600080fd5b50604051620010d2380380620010d28339818101604052810190620000379190620001d5565b620000576200004b6200009f60201b60201c565b620000a760201b60201c565b80600160006101000a81548173ffffffffffffffffffffffffffffffffffffffff021916908373ffffffffffffffffffffffffffffffffffffffff1602179055505062000207565b600033905090565b60008060009054906101000a900473ffffffffffffffffffffffffffffffffffffffff169050816000806101000a81548173ffffffffffffffffffffffffffffffffffffffff021916908373ffffffffffffffffffffffffffffffffffffffff1602179055508173ffffffffffffffffffffffffffffffffffffffff168173ffffffffffffffffffffffffffffffffffffffff167f8be0079c531659141344cd1fd0a4f28419497f9722a3daafe3b4186f6b6457e060405160405180910390a35050565b600080fd5b600073ffffffffffffffffffffffffffffffffffffffff82169050919050565b60006200019d8262000170565b9050919050565b620001af8162000190565b8114620001bb57600080fd5b50565b600081519050620001cf81620001a4565b92915050565b600060208284031215620001ee57620001ed6200016b565b5b6000620001fe84828501620001be565b91505092915050565b610ebb80620002176000396000f3fe6080604052600436106100865760003560e01c80638da5cb5b116100595780638da5cb5b146101265780639165754414610151578063ae9bb6921461017a578063c52edc9c14610184578063f2fde38b146101af57610086565b80631aca63761461008b578063430bf08a146100c85780635eb5329a146100f3578063715018a61461010f575b600080fd5b34801561009757600080fd5b506100b260048036038101906100ad9190610a47565b6101d8565b6040516100bf9190610ab5565b60405180910390f35b3480156100d457600080fd5b506100dd610530565b6040516100ea9190610adf565b60405180910390f35b61010d60048036038101906101089190610afa565b610556565b005b34801561011b57600080fd5b506101246105af565b005b34801561013257600080fd5b5061013b610637565b6040516101489190610adf565b60405180910390f35b34801561015d57600080fd5b5061017860048036038101906101739190610b27565b610660565b005b61018261074c565b005b34801561019057600080fd5b506101996107a4565b6040516101a69190610b63565b60405180910390f35b3480156101bb57600080fd5b506101d660048036038101906101d19190610afa565b6107eb565b005b60006101e26108e2565b73ffffffffffffffffffffffffffffffffffffffff16610200610637565b73ffffffffffffffffffffffffffffffffffffffff1614610256576040517f08c379a000000000000000000000000000000000000000000000000000000000815260040161024d90610bdb565b60405180910390fd5b6000808573ffffffffffffffffffffffffffffffffffffffff1685600160009054906101000a900473ffffffffffffffffffffffffffffffffffffffff16866040516024016102a793929190610bfb565b6040516020818303038152906040527f42842e0e000000000000000000000000000000000000000000000000000000007bffffffffffffffffffffffffffffffffffffffffffffffffffffffff19166020820180517bffffffffffffffffffffffffffffffffffffffffffffffffffffffff83818316178352505050506040516103319190610cac565b6000604051808303816000865af19150503d806000811461036e576040519150601f19603f3d011682016040523d82523d6000602084013e610373565b606091505b50915091508181906103bb576040517f08c379a00000000000000000000000000000000000000000000000000000000081526004016103b29190610d18565b60405180910390fd5b50600080600160009054906101000a900473ffffffffffffffffffffffffffffffffffffffff1673ffffffffffffffffffffffffffffffffffffffff1687898860405160240161040d93929190610bfb565b6040516020818303038152906040527faf08ef9a000000000000000000000000000000000000000000000000000000007bffffffffffffffffffffffffffffffffffffffffffffffffffffffff19166020820180517bffffffffffffffffffffffffffffffffffffffffffffffffffffffff83818316178352505050506040516104979190610cac565b6000604051808303816000865af19150503d80600081146104d4576040519150601f19603f3d011682016040523d82523d6000602084013e6104d9565b606091505b5091509150818190610521576040517f08c379a00000000000000000000000000000000000000000000000000000000081526004016105189190610d18565b60405180910390fd5b50839450505050509392505050565b600160009054906101000a900473ffffffffffffffffffffffffffffffffffffffff1681565b34600260008373ffffffffffffffffffffffffffffffffffffffff1673ffffffffffffffffffffffffffffffffffffffff16815260200190815260200160002060008282546105a59190610d69565b9250508190555050565b6105b76108e2565b73ffffffffffffffffffffffffffffffffffffffff166105d5610637565b73ffffffffffffffffffffffffffffffffffffffff161461062b576040517f08c379a000000000000000000000000000000000000000000000000000000000815260040161062290610bdb565b60405180910390fd5b61063560006108ea565b565b60008060009054906101000a900473ffffffffffffffffffffffffffffffffffffffff16905090565b80600260003373ffffffffffffffffffffffffffffffffffffffff1673ffffffffffffffffffffffffffffffffffffffff1681526020019081526020016000205410156106ac57600080fd5b80600260003373ffffffffffffffffffffffffffffffffffffffff1673ffffffffffffffffffffffffffffffffffffffff16815260200190815260200160002060008282546106fb9190610dbf565b925050819055503373ffffffffffffffffffffffffffffffffffffffff166108fc829081150290604051600060405180830381858888f19350505050158015610748573d6000803e3d6000fd5b5050565b34600260003373ffffffffffffffffffffffffffffffffffffffff1673ffffffffffffffffffffffffffffffffffffffff168152602001908152602001600020600082825461079b9190610d69565b92505081905550565b6000600260003373ffffffffffffffffffffffffffffffffffffffff1673ffffffffffffffffffffffffffffffffffffffff16815260200190815260200160002054905090565b6107f36108e2565b73ffffffffffffffffffffffffffffffffffffffff16610811610637565b73ffffffffffffffffffffffffffffffffffffffff1614610867576040517f08c379a000000000000000000000000000000000000000000000000000000000815260040161085e90610bdb565b60405180910390fd5b600073ffffffffffffffffffffffffffffffffffffffff168173ffffffffffffffffffffffffffffffffffffffff16036108d6576040517f08c379a00000000000000000000000000000000000000000000000000000000081526004016108cd90610e65565b60405180910390fd5b6108df816108ea565b50565b600033905090565b60008060009054906101000a900473ffffffffffffffffffffffffffffffffffffffff169050816000806101000a81548173ffffffffffffffffffffffffffffffffffffffff021916908373ffffffffffffffffffffffffffffffffffffffff1602179055508173ffffffffffffffffffffffffffffffffffffffff168173ffffffffffffffffffffffffffffffffffffffff167f8be0079c531659141344cd1fd0a4f28419497f9722a3daafe3b4186f6b6457e060405160405180910390a35050565b600080fd5b600073ffffffffffffffffffffffffffffffffffffffff82169050919050565b60006109de826109b3565b9050919050565b6109ee816109d3565b81146109f957600080fd5b50565b600081359050610a0b816109e5565b92915050565b6000819050919050565b610a2481610a11565b8114610a2f57600080fd5b50565b600081359050610a4181610a1b565b92915050565b600080600060608486031215610a6057610a5f6109ae565b5b6000610a6e868287016109fc565b9350506020610a7f868287016109fc565b9250506040610a9086828701610a32565b9150509250925092565b60008115159050919050565b610aaf81610a9a565b82525050565b6000602082019050610aca6000830184610aa6565b92915050565b610ad9816109d3565b82525050565b6000602082019050610af46000830184610ad0565b92915050565b600060208284031215610b1057610b0f6109ae565b5b6000610b1e848285016109fc565b91505092915050565b600060208284031215610b3d57610b3c6109ae565b5b6000610b4b84828501610a32565b91505092915050565b610b5d81610a11565b82525050565b6000602082019050610b786000830184610b54565b92915050565b600082825260208201905092915050565b7f4f776e61626c653a2063616c6c6572206973206e6f7420746865206f776e6572600082015250565b6000610bc5602083610b7e565b9150610bd082610b8f565b602082019050919050565b60006020820190508181036000830152610bf481610bb8565b9050919050565b6000606082019050610c106000830186610ad0565b610c1d6020830185610ad0565b610c2a6040830184610b54565b949350505050565b600081519050919050565b600081905092915050565b60005b83811015610c66578082015181840152602081019050610c4b565b83811115610c75576000848401525b50505050565b6000610c8682610c32565b610c908185610c3d565b9350610ca0818560208601610c48565b80840191505092915050565b6000610cb88284610c7b565b915081905092915050565b600081519050919050565b6000601f19601f8301169050919050565b6000610cea82610cc3565b610cf48185610b7e565b9350610d04818560208601610c48565b610d0d81610cce565b840191505092915050565b60006020820190508181036000830152610d328184610cdf565b905092915050565b7f4e487b7100000000000000000000000000000000000000000000000000000000600052601160045260246000fd5b6000610d7482610a11565b9150610d7f83610a11565b9250827fffffffffffffffffffffffffffffffffffffffffffffffffffffffffffffffff03821115610db457610db3610d3a565b5b828201905092915050565b6000610dca82610a11565b9150610dd583610a11565b925082821015610de857610de7610d3a565b5b828203905092915050565b7f4f776e61626c653a206e6577206f776e657220697320746865207a65726f206160008201527f6464726573730000000000000000000000000000000000000000000000000000602082015250565b6000610e4f602683610b7e565b9150610e5a82610df3565b604082019050919050565b60006020820190508181036000830152610e7e81610e42565b905091905056fea2646970667358221220e1c4981aecefc8cbec1148c2ca651e1553fb1070a9d8c4584964b712c39e774f64736f6c634300080d0033",
  "linkReferences": {},
  "deployedLinkReferences": {}
}