{
  "_format": "hh-sol-artifact-1",
  "contractName": "Flashbot",
  "sourceName": "contracts/Flashbot.sol",
  "abi": [
    {
      "inputs": [
        {
          "internalType": "address",
          "name": "_vaultAddress",
          "type": "address"
        }
      ],
      "stateMutability": "nonpayable",
      "type": "constructor"
    },
    {
      "anonymous": false,
      "inputs": [
        {
          "indexed": true,
          "internalType": "address",
          "name": "previousOwner",
          "type": "address"
        },
        {
          "indexed": true,
          "internalType": "address",
          "name": "newOwner",
          "type": "address"
        }
      ],
      "name": "OwnershipTransferred",
      "type": "event"
    },
    {
      "inputs": [],
      "name": "depositGas",
      "outputs": [],
      "stateMutability": "payable",
      "type": "function"
    },
    {
      "inputs": [
        {
          "internalType": "address",
          "name": "onBehalfOf",
          "type": "address"
        }
      ],
      "name": "depositGasOnBehalfOf",
      "outputs": [],
      "stateMutability": "payable",
      "type": "function"
    },
    {
      "inputs": [],
      "name": "getGasBalance",
      "outputs": [
        {
          "internalType": "uint256",
          "name": "",
          "type": "uint256"
        }
      ],
      "stateMutability": "view",
      "type": "function"
    },
    {
      "inputs": [],
      "name": "owner",
      "outputs": [
        {
          "internalType": "address",
          "name": "",
          "type": "address"
        }
      ],
      "stateMutability": "view",
      "type": "function"
    },
    {
      "inputs": [],
      "name": "renounceOwnership",
      "outputs": [],
      "stateMutability": "nonpayable",
      "type": "function"
    },
    {
      "inputs": [
        {
          "internalType": "address",
          "name": "nftAddress",
          "type": "address"
        },
        {
          "internalType": "address",
          "name": "ownerAddress",
          "type": "address"
        },
        {
          "internalType": "uint256",
          "name": "nftId",
          "type": "uint256"
        }
      ],
      "name": "transferNFT",
      "outputs": [
        {
          "internalType": "bool",
          "name": "",
          "type": "bool"
        }
      ],
      "stateMutability": "nonpayable",
      "type": "function"
    },
    {
      "inputs": [
        {
          "internalType": "address",
          "name": "newOwner",
          "type": "address"
        }
      ],
      "name": "transferOwnership",
      "outputs": [],
      "stateMutability": "nonpayable",
      "type": "function"
    },
    {
      "inputs": [],
      "name": "vaultAddress",
      "outputs": [
        {
          "internalType": "address",
          "name": "",
          "type": "address"
        }
      ],
      "stateMutability": "view",
      "type": "function"
    },
    {
      "inputs": [
        {
          "internalType": "uint256",
          "name": "balance",
          "type": "uint256"
        }
      ],
      "name": "withdrawGas",
      "outputs": [],
      "stateMutability": "nonpayable",
      "type": "function"
    }
  ],
  "bytecode": "0x60806040523480156200001157600080fd5b5060405162000eaf38038062000eaf8339818101604052810190620000379190620001d5565b620000576200004b6200009f60201b60201c565b620000a760201b60201c565b80600160006101000a81548173ffffffffffffffffffffffffffffffffffffffff021916908373ffffffffffffffffffffffffffffffffffffffff1602179055505062000207565b600033905090565b60008060009054906101000a900473ffffffffffffffffffffffffffffffffffffffff169050816000806101000a81548173ffffffffffffffffffffffffffffffffffffffff021916908373ffffffffffffffffffffffffffffffffffffffff1602179055508173ffffffffffffffffffffffffffffffffffffffff168173ffffffffffffffffffffffffffffffffffffffff167f8be0079c531659141344cd1fd0a4f28419497f9722a3daafe3b4186f6b6457e060405160405180910390a35050565b600080fd5b600073ffffffffffffffffffffffffffffffffffffffff82169050919050565b60006200019d8262000170565b9050919050565b620001af8162000190565b8114620001bb57600080fd5b50565b600081519050620001cf81620001a4565b92915050565b600060208284031215620001ee57620001ed6200016b565b5b6000620001fe84828501620001be565b91505092915050565b610c9880620002176000396000f3fe6080604052600436106100865760003560e01c80638da5cb5b116100595780638da5cb5b146101265780639165754414610151578063ae9bb6921461017a578063c52edc9c14610184578063f2fde38b146101af57610086565b8063430bf08a1461008b5780635eb5329a146100b657806369e9cae1146100d2578063715018a61461010f575b600080fd5b34801561009757600080fd5b506100a06101d8565b6040516100ad9190610843565b60405180910390f35b6100d060048036038101906100cb919061088f565b6101fe565b005b3480156100de57600080fd5b506100f960048036038101906100f491906108f2565b610257565b6040516101069190610960565b60405180910390f35b34801561011b57600080fd5b50610124610403565b005b34801561013257600080fd5b5061013b61048b565b6040516101489190610843565b60405180910390f35b34801561015d57600080fd5b506101786004803603810190610173919061097b565b6104b4565b005b6101826105a0565b005b34801561019057600080fd5b506101996105f8565b6040516101a691906109b7565b60405180910390f35b3480156101bb57600080fd5b506101d660048036038101906101d1919061088f565b61063f565b005b600160009054906101000a900473ffffffffffffffffffffffffffffffffffffffff1681565b34600260008373ffffffffffffffffffffffffffffffffffffffff1673ffffffffffffffffffffffffffffffffffffffff168152602001908152602001600020600082825461024d9190610a01565b9250508190555050565b6000610261610736565b73ffffffffffffffffffffffffffffffffffffffff1661027f61048b565b73ffffffffffffffffffffffffffffffffffffffff16146102d5576040517f08c379a00000000000000000000000000000000000000000000000000000000081526004016102cc90610ab4565b60405180910390fd5b6000808573ffffffffffffffffffffffffffffffffffffffff1685600160009054906101000a900473ffffffffffffffffffffffffffffffffffffffff168660405160240161032693929190610ad4565b6040516020818303038152906040527f42842e0e000000000000000000000000000000000000000000000000000000007bffffffffffffffffffffffffffffffffffffffffffffffffffffffff19166020820180517bffffffffffffffffffffffffffffffffffffffffffffffffffffffff83818316178352505050506040516103b09190610b85565b6000604051808303816000865af19150503d80600081146103ed576040519150601f19603f3d011682016040523d82523d6000602084013e6103f2565b606091505b509150915081925050509392505050565b61040b610736565b73ffffffffffffffffffffffffffffffffffffffff1661042961048b565b73ffffffffffffffffffffffffffffffffffffffff161461047f576040517f08c379a000000000000000000000000000000000000000000000000000000000815260040161047690610ab4565b60405180910390fd5b610489600061073e565b565b60008060009054906101000a900473ffffffffffffffffffffffffffffffffffffffff16905090565b80600260003373ffffffffffffffffffffffffffffffffffffffff1673ffffffffffffffffffffffffffffffffffffffff16815260200190815260200160002054101561050057600080fd5b80600260003373ffffffffffffffffffffffffffffffffffffffff1673ffffffffffffffffffffffffffffffffffffffff168152602001908152602001600020600082825461054f9190610b9c565b925050819055503373ffffffffffffffffffffffffffffffffffffffff166108fc829081150290604051600060405180830381858888f1935050505015801561059c573d6000803e3d6000fd5b5050565b34600260003373ffffffffffffffffffffffffffffffffffffffff1673ffffffffffffffffffffffffffffffffffffffff16815260200190815260200160002060008282546105ef9190610a01565b92505081905550565b6000600260003373ffffffffffffffffffffffffffffffffffffffff1673ffffffffffffffffffffffffffffffffffffffff16815260200190815260200160002054905090565b610647610736565b73ffffffffffffffffffffffffffffffffffffffff1661066561048b565b73ffffffffffffffffffffffffffffffffffffffff16146106bb576040517f08c379a00000000000000000000000000000000000000000000000000000000081526004016106b290610ab4565b60405180910390fd5b600073ffffffffffffffffffffffffffffffffffffffff168173ffffffffffffffffffffffffffffffffffffffff160361072a576040517f08c379a000000000000000000000000000000000000000000000000000000000815260040161072190610c42565b60405180910390fd5b6107338161073e565b50565b600033905090565b60008060009054906101000a900473ffffffffffffffffffffffffffffffffffffffff169050816000806101000a81548173ffffffffffffffffffffffffffffffffffffffff021916908373ffffffffffffffffffffffffffffffffffffffff1602179055508173ffffffffffffffffffffffffffffffffffffffff168173ffffffffffffffffffffffffffffffffffffffff167f8be0079c531659141344cd1fd0a4f28419497f9722a3daafe3b4186f6b6457e060405160405180910390a35050565b600073ffffffffffffffffffffffffffffffffffffffff82169050919050565b600061082d82610802565b9050919050565b61083d81610822565b82525050565b60006020820190506108586000830184610834565b92915050565b600080fd5b61086c81610822565b811461087757600080fd5b50565b60008135905061088981610863565b92915050565b6000602082840312156108a5576108a461085e565b5b60006108b38482850161087a565b91505092915050565b6000819050919050565b6108cf816108bc565b81146108da57600080fd5b50565b6000813590506108ec816108c6565b92915050565b60008060006060848603121561090b5761090a61085e565b5b60006109198682870161087a565b935050602061092a8682870161087a565b925050604061093b868287016108dd565b9150509250925092565b60008115159050919050565b61095a81610945565b82525050565b60006020820190506109756000830184610951565b92915050565b6000602082840312156109915761099061085e565b5b600061099f848285016108dd565b91505092915050565b6109b1816108bc565b82525050565b60006020820190506109cc60008301846109a8565b92915050565b7f4e487b7100000000000000000000000000000000000000000000000000000000600052601160045260246000fd5b6000610a0c826108bc565b9150610a17836108bc565b9250827fffffffffffffffffffffffffffffffffffffffffffffffffffffffffffffffff03821115610a4c57610a4b6109d2565b5b828201905092915050565b600082825260208201905092915050565b7f4f776e61626c653a2063616c6c6572206973206e6f7420746865206f776e6572600082015250565b6000610a9e602083610a57565b9150610aa982610a68565b602082019050919050565b60006020820190508181036000830152610acd81610a91565b9050919050565b6000606082019050610ae96000830186610834565b610af66020830185610834565b610b0360408301846109a8565b949350505050565b600081519050919050565b600081905092915050565b60005b83811015610b3f578082015181840152602081019050610b24565b83811115610b4e576000848401525b50505050565b6000610b5f82610b0b565b610b698185610b16565b9350610b79818560208601610b21565b80840191505092915050565b6000610b918284610b54565b915081905092915050565b6000610ba7826108bc565b9150610bb2836108bc565b925082821015610bc557610bc46109d2565b5b828203905092915050565b7f4f776e61626c653a206e6577206f776e657220697320746865207a65726f206160008201527f6464726573730000000000000000000000000000000000000000000000000000602082015250565b6000610c2c602683610a57565b9150610c3782610bd0565b604082019050919050565b60006020820190508181036000830152610c5b81610c1f565b905091905056fea2646970667358221220d3d8c60da11aa25abd2d1e4b1b5c519968b876b5b14d690b1c4b02871cf6a96864736f6c634300080d0033",
  "linkReferences": {},
  "deployedLinkReferences": {}
}