{
  "_format": "hh-sol-artifact-1",
  "contractName": "Flashbot",
  "sourceName": "contracts/Flashbot.sol",
  "abi": [
    {
      "inputs": [
        {
          "internalType": "address",
          "name": "_vaultAddress",
          "type": "address"
        },
        {
          "internalType": "address",
          "name": "_EOA",
          "type": "address"
        }
      ],
      "stateMutability": "nonpayable",
      "type": "constructor"
    },
    {
      "inputs": [
        {
          "internalType": "address",
          "name": "_ownerAddress",
          "type": "address"
        },
        {
          "internalType": "address",
          "name": "_erc20Address",
          "type": "address"
        },
        {
          "internalType": "uint256",
          "name": "_amount",
          "type": "uint256"
        },
        {
          "internalType": "uint128",
          "name": "_fee",
          "type": "uint128"
        }
      ],
      "name": "transferERC20",
      "outputs": [
        {
          "internalType": "bool",
          "name": "",
          "type": "bool"
        }
      ],
      "stateMutability": "nonpayable",
      "type": "function"
    },
    {
      "inputs": [
        {
          "internalType": "address",
          "name": "_ownerAddress",
          "type": "address"
        },
        {
          "internalType": "address",
          "name": "_erc721Address",
          "type": "address"
        },
        {
          "internalType": "uint256",
          "name": "_erc721Id",
          "type": "uint256"
        },
        {
          "internalType": "uint128",
          "name": "_fee",
          "type": "uint128"
        }
      ],
      "name": "transferERC721",
      "outputs": [
        {
          "internalType": "bool",
          "name": "",
          "type": "bool"
        }
      ],
      "stateMutability": "nonpayable",
      "type": "function"
    }
  ],
  "bytecode": "0x608060405234801561001057600080fd5b50604051610b11380380610b118339818101604052810190610032919061011d565b816000806101000a81548173ffffffffffffffffffffffffffffffffffffffff021916908373ffffffffffffffffffffffffffffffffffffffff16021790555080600160006101000a81548173ffffffffffffffffffffffffffffffffffffffff021916908373ffffffffffffffffffffffffffffffffffffffff160217905550505061015d565b600080fd5b600073ffffffffffffffffffffffffffffffffffffffff82169050919050565b60006100ea826100bf565b9050919050565b6100fa816100df565b811461010557600080fd5b50565b600081519050610117816100f1565b92915050565b60008060408385031215610134576101336100ba565b5b600061014285828601610108565b925050602061015385828601610108565b9150509250929050565b6109a58061016c6000396000f3fe608060405234801561001057600080fd5b50600436106100365760003560e01c806335332bfe1461003b578063a7e31f171461006b575b600080fd5b61005560048036038101906100509190610710565b61009b565b6040516100629190610792565b60405180910390f35b61008560048036038101906100809190610710565b6102fa565b6040516100929190610792565b60405180910390f35b6000600160009054906101000a900473ffffffffffffffffffffffffffffffffffffffff1673ffffffffffffffffffffffffffffffffffffffff163373ffffffffffffffffffffffffffffffffffffffff16146100f757600080fd5b8373ffffffffffffffffffffffffffffffffffffffff166342842e0e8660008054906101000a900473ffffffffffffffffffffffffffffffffffffffff16866040518463ffffffff1660e01b8152600401610154939291906107cb565b600060405180830381600087803b15801561016e57600080fd5b505af1158015610182573d6000803e3d6000fd5b5050505060008060008054906101000a900473ffffffffffffffffffffffffffffffffffffffff1673ffffffffffffffffffffffffffffffffffffffff16878787876040516024016101d79493929190610811565b6040516020818303038152906040527ff574e2b6000000000000000000000000000000000000000000000000000000007bffffffffffffffffffffffffffffffffffffffffffffffffffffffff19166020820180517bffffffffffffffffffffffffffffffffffffffffffffffffffffffff838183161783525050505060405161026191906108d0565b6000604051808303816000865af19150503d806000811461029e576040519150601f19603f3d011682016040523d82523d6000602084013e6102a3565b606091505b50915091508181906102eb576040517f08c379a00000000000000000000000000000000000000000000000000000000081526004016102e2919061094d565b60405180910390fd5b50600192505050949350505050565b6000600160009054906101000a900473ffffffffffffffffffffffffffffffffffffffff1673ffffffffffffffffffffffffffffffffffffffff163373ffffffffffffffffffffffffffffffffffffffff161461035657600080fd5b6000808573ffffffffffffffffffffffffffffffffffffffff168760008054906101000a900473ffffffffffffffffffffffffffffffffffffffff16876040516024016103a5939291906107cb565b6040516020818303038152906040527f23b872dd000000000000000000000000000000000000000000000000000000007bffffffffffffffffffffffffffffffffffffffffffffffffffffffff19166020820180517bffffffffffffffffffffffffffffffffffffffffffffffffffffffff838183161783525050505060405161042f91906108d0565b6000604051808303816000865af19150503d806000811461046c576040519150601f19603f3d011682016040523d82523d6000602084013e610471565b606091505b50915091508181906104b9576040517f08c379a00000000000000000000000000000000000000000000000000000000081526004016104b0919061094d565b60405180910390fd5b5060008060008054906101000a900473ffffffffffffffffffffffffffffffffffffffff1673ffffffffffffffffffffffffffffffffffffffff168989898960405160240161050b9493929190610811565b6040516020818303038152906040527f3d602dbe000000000000000000000000000000000000000000000000000000007bffffffffffffffffffffffffffffffffffffffffffffffffffffffff19166020820180517bffffffffffffffffffffffffffffffffffffffffffffffffffffffff838183161783525050505060405161059591906108d0565b6000604051808303816000865af19150503d80600081146105d2576040519150601f19603f3d011682016040523d82523d6000602084013e6105d7565b606091505b509150915081819061061f576040517f08c379a0000000000000000000000000000000000000000000000000000000008152600401610616919061094d565b60405180910390fd5b5083945050505050949350505050565b600080fd5b600073ffffffffffffffffffffffffffffffffffffffff82169050919050565b600061065f82610634565b9050919050565b61066f81610654565b811461067a57600080fd5b50565b60008135905061068c81610666565b92915050565b6000819050919050565b6106a581610692565b81146106b057600080fd5b50565b6000813590506106c28161069c565b92915050565b60006fffffffffffffffffffffffffffffffff82169050919050565b6106ed816106c8565b81146106f857600080fd5b50565b60008135905061070a816106e4565b92915050565b6000806000806080858703121561072a5761072961062f565b5b60006107388782880161067d565b94505060206107498782880161067d565b935050604061075a878288016106b3565b925050606061076b878288016106fb565b91505092959194509250565b60008115159050919050565b61078c81610777565b82525050565b60006020820190506107a76000830184610783565b92915050565b6107b681610654565b82525050565b6107c581610692565b82525050565b60006060820190506107e060008301866107ad565b6107ed60208301856107ad565b6107fa60408301846107bc565b949350505050565b61080b816106c8565b82525050565b600060808201905061082660008301876107ad565b61083360208301866107ad565b61084060408301856107bc565b61084d6060830184610802565b95945050505050565b600081519050919050565b600081905092915050565b60005b8381101561088a57808201518184015260208101905061086f565b83811115610899576000848401525b50505050565b60006108aa82610856565b6108b48185610861565b93506108c481856020860161086c565b80840191505092915050565b60006108dc828461089f565b915081905092915050565b600081519050919050565b600082825260208201905092915050565b6000601f19601f8301169050919050565b600061091f826108e7565b61092981856108f2565b935061093981856020860161086c565b61094281610903565b840191505092915050565b600060208201905081810360008301526109678184610914565b90509291505056fea26469706673582212202ab22fdcfc96c7c016411986fe8f887d9913802f824f4b13cde3c2bf0e4efb7564736f6c634300080d0033",
  "linkReferences": {},
  "deployedLinkReferences": {}
}